{
  "_format": "hh-sol-artifact-1",
  "contractName": "EnhancedStakingPool",
  "sourceName": "contracts/EnhancedStakingPool.sol",
  "abi": [
    {
      "inputs": [
        {
          "internalType": "address",
          "name": "_usdtToken",
          "type": "address"
        },
        {
          "internalType": "address",
          "name": "_treasuryWallet",
          "type": "address"
        }
      ],
      "stateMutability": "nonpayable",
      "type": "constructor"
    },
    {
      "anonymous": false,
      "inputs": [
        {
          "indexed": false,
          "internalType": "uint256",
          "name": "amount",
          "type": "uint256"
        }
      ],
      "name": "AppreciationShareReceived",
      "type": "event"
    },
    {
      "anonymous": false,
      "inputs": [
        {
          "indexed": true,
          "internalType": "address",
          "name": "owner",
          "type": "address"
        },
        {
          "indexed": true,
          "internalType": "address",
          "name": "spender",
          "type": "address"
        },
        {
          "indexed": false,
          "internalType": "uint256",
          "name": "value",
          "type": "uint256"
        }
      ],
      "name": "Approval",
      "type": "event"
    },
    {
      "anonymous": false,
      "inputs": [
        {
          "indexed": true,
          "internalType": "address",
          "name": "user",
          "type": "address"
        },
        {
          "indexed": false,
          "internalType": "uint256",
          "name": "amount",
          "type": "uint256"
        },
        {
          "indexed": false,
          "internalType": "uint256",
          "name": "lpTokens",
          "type": "uint256"
        }
      ],
      "name": "Deposited",
      "type": "event"
    },
    {
      "anonymous": false,
      "inputs": [
        {
          "indexed": false,
          "internalType": "uint256",
          "name": "amount",
          "type": "uint256"
        }
      ],
      "name": "ManagementFeeCollected",
      "type": "event"
    },
    {
      "anonymous": false,
      "inputs": [
        {
          "indexed": false,
          "internalType": "uint256",
          "name": "amount",
          "type": "uint256"
        }
      ],
      "name": "MortgageInterestReceived",
      "type": "event"
    },
    {
      "anonymous": false,
      "inputs": [
        {
          "indexed": true,
          "internalType": "address",
          "name": "previousOwner",
          "type": "address"
        },
        {
          "indexed": true,
          "internalType": "address",
          "name": "newOwner",
          "type": "address"
        }
      ],
      "name": "OwnershipTransferred",
      "type": "event"
    },
    {
      "anonymous": false,
      "inputs": [
        {
          "indexed": true,
          "internalType": "address",
          "name": "user",
          "type": "address"
        },
        {
          "indexed": false,
          "internalType": "uint256",
          "name": "amount",
          "type": "uint256"
        }
      ],
      "name": "RewardsClaimed",
      "type": "event"
    },
    {
      "anonymous": false,
      "inputs": [
        {
          "indexed": true,
          "internalType": "address",
          "name": "from",
          "type": "address"
        },
        {
          "indexed": true,
          "internalType": "address",
          "name": "to",
          "type": "address"
        },
        {
          "indexed": false,
          "internalType": "uint256",
          "name": "value",
          "type": "uint256"
        }
      ],
      "name": "Transfer",
      "type": "event"
    },
    {
      "anonymous": false,
      "inputs": [
        {
          "indexed": true,
          "internalType": "address",
          "name": "user",
          "type": "address"
        },
        {
          "indexed": false,
          "internalType": "uint256",
          "name": "lpTokens",
          "type": "uint256"
        },
        {
          "indexed": false,
          "internalType": "uint256",
          "name": "usdtAmount",
          "type": "uint256"
        }
      ],
      "name": "Withdrawn",
      "type": "event"
    },
    {
      "inputs": [],
      "name": "MANAGEMENT_FEE_PERCENT",
      "outputs": [
        {
          "internalType": "uint256",
          "name": "",
          "type": "uint256"
        }
      ],
      "stateMutability": "view",
      "type": "function"
    },
    {
      "inputs": [],
      "name": "MINIMUM_DEPOSIT",
      "outputs": [
        {
          "internalType": "uint256",
          "name": "",
          "type": "uint256"
        }
      ],
      "stateMutability": "view",
      "type": "function"
    },
    {
      "inputs": [],
      "name": "REWARD_UPDATE_INTERVAL",
      "outputs": [
        {
          "internalType": "uint256",
          "name": "",
          "type": "uint256"
        }
      ],
      "stateMutability": "view",
      "type": "function"
    },
    {
      "inputs": [
        {
          "internalType": "address",
          "name": "owner",
          "type": "address"
        },
        {
          "internalType": "address",
          "name": "spender",
          "type": "address"
        }
      ],
      "name": "allowance",
      "outputs": [
        {
          "internalType": "uint256",
          "name": "",
          "type": "uint256"
        }
      ],
      "stateMutability": "view",
      "type": "function"
    },
    {
      "inputs": [
        {
          "internalType": "address",
          "name": "spender",
          "type": "address"
        },
        {
          "internalType": "uint256",
          "name": "amount",
          "type": "uint256"
        }
      ],
      "name": "approve",
      "outputs": [
        {
          "internalType": "bool",
          "name": "",
          "type": "bool"
        }
      ],
      "stateMutability": "nonpayable",
      "type": "function"
    },
    {
      "inputs": [
        {
          "internalType": "address",
          "name": "account",
          "type": "address"
        }
      ],
      "name": "balanceOf",
      "outputs": [
        {
          "internalType": "uint256",
          "name": "",
          "type": "uint256"
        }
      ],
      "stateMutability": "view",
      "type": "function"
    },
    {
      "inputs": [],
      "name": "claimRewards",
      "outputs": [],
      "stateMutability": "nonpayable",
      "type": "function"
    },
    {
      "inputs": [],
      "name": "decimals",
      "outputs": [
        {
          "internalType": "uint8",
          "name": "",
          "type": "uint8"
        }
      ],
      "stateMutability": "view",
      "type": "function"
    },
    {
      "inputs": [
        {
          "internalType": "address",
          "name": "spender",
          "type": "address"
        },
        {
          "internalType": "uint256",
          "name": "subtractedValue",
          "type": "uint256"
        }
      ],
      "name": "decreaseAllowance",
      "outputs": [
        {
          "internalType": "bool",
          "name": "",
          "type": "bool"
        }
      ],
      "stateMutability": "nonpayable",
      "type": "function"
    },
    {
      "inputs": [
        {
          "internalType": "uint256",
          "name": "amount",
          "type": "uint256"
        }
      ],
      "name": "deposit",
      "outputs": [],
      "stateMutability": "nonpayable",
      "type": "function"
    },
    {
      "inputs": [],
      "name": "emergencyWithdraw",
      "outputs": [],
      "stateMutability": "nonpayable",
      "type": "function"
    },
    {
      "inputs": [],
      "name": "getCurrentAPY",
      "outputs": [
        {
          "internalType": "uint256",
          "name": "",
          "type": "uint256"
        }
      ],
      "stateMutability": "view",
      "type": "function"
    },
    {
      "inputs": [
        {
          "internalType": "address",
          "name": "user",
          "type": "address"
        }
      ],
      "name": "getUserTotalValue",
      "outputs": [
        {
          "internalType": "uint256",
          "name": "",
          "type": "uint256"
        }
      ],
      "stateMutability": "view",
      "type": "function"
    },
    {
      "inputs": [
        {
          "internalType": "address",
          "name": "spender",
          "type": "address"
        },
        {
          "internalType": "uint256",
          "name": "addedValue",
          "type": "uint256"
        }
      ],
      "name": "increaseAllowance",
      "outputs": [
        {
          "internalType": "bool",
          "name": "",
          "type": "bool"
        }
      ],
      "stateMutability": "nonpayable",
      "type": "function"
    },
    {
      "inputs": [],
      "name": "lastUpdateTime",
      "outputs": [
        {
          "internalType": "uint256",
          "name": "",
          "type": "uint256"
        }
      ],
      "stateMutability": "view",
      "type": "function"
    },
    {
      "inputs": [],
      "name": "name",
      "outputs": [
        {
          "internalType": "string",
          "name": "",
          "type": "string"
        }
      ],
      "stateMutability": "view",
      "type": "function"
    },
    {
      "inputs": [],
      "name": "owner",
      "outputs": [
        {
          "internalType": "address",
          "name": "",
          "type": "address"
        }
      ],
      "stateMutability": "view",
      "type": "function"
    },
    {
      "inputs": [
        {
          "internalType": "address",
          "name": "user",
          "type": "address"
        }
      ],
      "name": "pendingRewards",
      "outputs": [
        {
          "internalType": "uint256",
          "name": "",
          "type": "uint256"
        }
      ],
      "stateMutability": "view",
      "type": "function"
    },
    {
      "inputs": [
        {
          "internalType": "uint256",
          "name": "amount",
          "type": "uint256"
        }
      ],
      "name": "receiveAppreciationShare",
      "outputs": [],
      "stateMutability": "nonpayable",
      "type": "function"
    },
    {
      "inputs": [
        {
          "internalType": "uint256",
          "name": "amount",
          "type": "uint256"
        }
      ],
      "name": "receiveMortgageInterest",
      "outputs": [],
      "stateMutability": "nonpayable",
      "type": "function"
    },
    {
      "inputs": [],
      "name": "renounceOwnership",
      "outputs": [],
      "stateMutability": "nonpayable",
      "type": "function"
    },
    {
      "inputs": [],
      "name": "rewardsPerShare",
      "outputs": [
        {
          "internalType": "uint256",
          "name": "",
          "type": "uint256"
        }
      ],
      "stateMutability": "view",
      "type": "function"
    },
    {
      "inputs": [
        {
          "internalType": "address",
          "name": "_treasuryWallet",
          "type": "address"
        }
      ],
      "name": "setTreasuryWallet",
      "outputs": [],
      "stateMutability": "nonpayable",
      "type": "function"
    },
    {
      "inputs": [],
      "name": "symbol",
      "outputs": [
        {
          "internalType": "string",
          "name": "",
          "type": "string"
        }
      ],
      "stateMutability": "view",
      "type": "function"
    },
    {
      "inputs": [],
      "name": "totalDeposits",
      "outputs": [
        {
          "internalType": "uint256",
          "name": "",
          "type": "uint256"
        }
      ],
      "stateMutability": "view",
      "type": "function"
    },
    {
      "inputs": [],
      "name": "totalRewards",
      "outputs": [
        {
          "internalType": "uint256",
          "name": "",
          "type": "uint256"
        }
      ],
      "stateMutability": "view",
      "type": "function"
    },
    {
      "inputs": [],
      "name": "totalSupply",
      "outputs": [
        {
          "internalType": "uint256",
          "name": "",
          "type": "uint256"
        }
      ],
      "stateMutability": "view",
      "type": "function"
    },
    {
      "inputs": [
        {
          "internalType": "address",
          "name": "to",
          "type": "address"
        },
        {
          "internalType": "uint256",
          "name": "amount",
          "type": "uint256"
        }
      ],
      "name": "transfer",
      "outputs": [
        {
          "internalType": "bool",
          "name": "",
          "type": "bool"
        }
      ],
      "stateMutability": "nonpayable",
      "type": "function"
    },
    {
      "inputs": [
        {
          "internalType": "address",
          "name": "from",
          "type": "address"
        },
        {
          "internalType": "address",
          "name": "to",
          "type": "address"
        },
        {
          "internalType": "uint256",
          "name": "amount",
          "type": "uint256"
        }
      ],
      "name": "transferFrom",
      "outputs": [
        {
          "internalType": "bool",
          "name": "",
          "type": "bool"
        }
      ],
      "stateMutability": "nonpayable",
      "type": "function"
    },
    {
      "inputs": [
        {
          "internalType": "address",
          "name": "newOwner",
          "type": "address"
        }
      ],
      "name": "transferOwnership",
      "outputs": [],
      "stateMutability": "nonpayable",
      "type": "function"
    },
    {
      "inputs": [],
      "name": "treasuryWallet",
      "outputs": [
        {
          "internalType": "address",
          "name": "",
          "type": "address"
        }
      ],
      "stateMutability": "view",
      "type": "function"
    },
    {
      "inputs": [],
      "name": "updateRewards",
      "outputs": [],
      "stateMutability": "nonpayable",
      "type": "function"
    },
    {
      "inputs": [],
      "name": "usdtToken",
      "outputs": [
        {
          "internalType": "contract IERC20",
          "name": "",
          "type": "address"
        }
      ],
      "stateMutability": "view",
      "type": "function"
    },
    {
      "inputs": [
        {
          "internalType": "address",
          "name": "",
          "type": "address"
        }
      ],
      "name": "userDeposits",
      "outputs": [
        {
          "internalType": "uint256",
          "name": "",
          "type": "uint256"
        }
      ],
      "stateMutability": "view",
      "type": "function"
    },
    {
      "inputs": [
        {
          "internalType": "address",
          "name": "",
          "type": "address"
        }
      ],
      "name": "userRewardDebt",
      "outputs": [
        {
          "internalType": "uint256",
          "name": "",
          "type": "uint256"
        }
      ],
      "stateMutability": "view",
      "type": "function"
    },
    {
      "inputs": [
        {
          "internalType": "uint256",
          "name": "lpTokens",
          "type": "uint256"
        }
      ],
      "name": "withdraw",
      "outputs": [],
      "stateMutability": "nonpayable",
      "type": "function"
    }
  ],
  "bytecode": "0x6080346200046157601f196001600160401b03601f6200223038819003828101851686019190848311878410176200035e57808792604094855283398101031262000461576200004f8462000486565b906200005f602080960162000486565b926200006a62000466565b90601482527f416e6369656e74205374616b696e6720506f6f6c000000000000000000000000878301526200009e62000466565b926003908185526204153560ec1b8986015283518381116200035e5782546001958682811c9216801562000456575b8c83101462000440578b8285859411620003e7575b50508b90848311600114620003805760009262000374575b505060001982851b1c191690851b1782555b84519283116200035e5760049485548581811c9116801562000353575b8b8210146200033e57828111620002f3575b50899184116001146200028a57839495969798506000936200027e575b505082841b92600019911b1c19161782555b60058054336001600160a01b03198083168217909355604051929692956001600160a01b039485939192909184167f8be0079c531659141344cd1fd0a4f28419497f9722a3daafe3b4186f6b6457e0600080a3600655169384156200023d575016938415620001fa575050816007541617600755600854161760085542600e55604051611d9490816200049c8239f35b60405162461bcd60e51b815291820152601860248201527f496e76616c696420747265617375727920616464726573730000000000000000604482015260649150fd5b62461bcd60e51b8152838101879052601460248201527f496e76616c6964205553445420616464726573730000000000000000000000006044820152606490fd5b01519150388062000158565b91909783169785600052896000209260005b8b8b8210620002de57505084869798999a10620002c3575b50505050811b0182556200016a565b01519060f884600019921b161c1916905538808080620002b4565b8284015186559487019492830192016200029c565b866000528a6000208380870160051c8201928d881062000334575b0160051c019086905b828110620003275750506200013b565b6000815501869062000317565b925081926200030e565b602287634e487b7160e01b6000525260246000fd5b90607f169062000129565b634e487b7160e01b600052604160045260246000fd5b015190503880620000fa565b908c918c8995168760005283600020936000905b828210620003cd5750508411620003b4575b505050811b0182556200010c565b015160001983871b60f8161c19169055388080620003a6565b8484015186558b9790950194938401939081019062000394565b909192508560005284826000209181860160051c830193861062000436575b918991869594930160051c01915b8281106200042657508d9150620000e2565b6000815585945089910162000414565b9250819262000406565b634e487b7160e01b600052602260045260246000fd5b91607f1691620000cd565b600080fd5b60408051919082016001600160401b038111838210176200035e57604052565b51906001600160a01b0382168203620004615756fe6080604081815260048036101561001557600080fd5b600092833560e01c90816306fdde031461162457508063095ea7b3146115fa5780630ba36dcd146115c25780630e15561a146115a357806318160ddd146115845780632270797b1461156657806323b872dd1461149c5780632e1a7d4d14611207578063313ce567146111eb57806331d7a262146111c5578063372500ab1461101f5780633950935114610fcf5780633e158b0c14610fb35780634626402b14610f8a5780634bf6f9e714610f5257806370a0823114610f1b578063715018a614610ebe5780637d88209714610e9f5780638da5cb5b14610e7657806395d89b4114610d72578063962ca49614610d55578063a457c2d714610cb1578063a8602fea14610c69578063a9059cbb14610c38578063a98ad46c14610c0f578063aedc780814610bf3578063af3f5e2214610bae578063b62f0e8314610a21578063b6b55f2514610671578063c7e1d0b114610652578063c8f33c9114610633578063cf60c76e14610451578063db2e21bc146102e9578063dd62ed3e146102a0578063f19451d81461027d5763f2fde38b146101af57600080fd5b34610279576020366003190112610279576101c861175f565b906101d1611790565b6001600160a01b03918216928315610227575050600554826bffffffffffffffffffffffff60a01b821617600555167f8be0079c531659141344cd1fd0a4f28419497f9722a3daafe3b4186f6b6457e08380a380f35b906020608492519162461bcd60e51b8352820152602660248201527f4f776e61626c653a206e6577206f776e657220697320746865207a65726f206160448201526564647265737360d01b6064820152fd5b8280fd5b50503461029c578160031936011261029c5760209051633b9aca008152f35b5080fd5b50503461029c578060031936011261029c57806020926102be61175f565b6102c661177a565b6001600160a01b0391821683526001865283832091168252845220549051908152f35b509034610279578260031936011261027957610303611790565b60075481516370a0823160e01b81523084820152602092916001600160a01b03908116918481602481865afa908115610447578791610416575b5080610347578680f35b600554845163a9059cbb60e01b815292166001600160a01b031686830190815260208101919091529091849183919082908990829060400103925af190811561040c5785916103df575b501561039e578080808680f35b5162461bcd60e51b815291820152601b60248201527f456d657267656e6379207769746864726177616c206661696c65640000000000604482015260649150fd5b6103ff9150833d8511610405575b6103f781836117e8565b810190611ab3565b38610391565b503d6103ed565b82513d87823e3d90fd5b90508481813d8311610440575b61042d81836117e8565b8101031261043c57513861033d565b8680fd5b503d610423565b84513d89823e3d90fd5b5091903461029c57602090816003193601126102795783359060018060a01b0361048081600554163314611bf0565b821561048c8115611b97565b610494611c88565b8360011b90848204600214171561062057606490046104b38185611be3565b91858261057b575b50505060025480610503575b507fb8bdc6af8862e85b4f3a41a8cb5db82b61516a72de290ee7c9659990fb33f27c9495506104f890600c54611820565b600c5551908152a180f35b600d5490670de0b6b3a7640000808402908482041484151715610568577fb8bdc6af8862e85b4f3a41a8cb5db82b61516a72de290ee7c9659990fb33f27c9798509161055661055c926104f89594611b77565b90611820565b600d55908695506104c7565b634e487b7160e01b885260118952602488fd5b600754600854865163a9059cbb60e01b81529084166001600160a01b03168b82019081526020810186905290938492169082908b90829060400103925af190811561044757916105f587927f147fac6415bee3006ba6002a9a6636f492d311690c9e52a2421afc6392e0fb95948a91610603575b50611c3c565b8451908152a13880856104bb565b61061a9150843d8611610405576103f781836117e8565b386105ef565b634e487b7160e01b865260118752602486fd5b50503461029c578160031936011261029c57602090600e549051908152f35b50503461029c578160031936011261029c57602090600d549051908152f35b5090346102795760209182600319360112610a1d57803592610691611b0e565b633b9aca0084106109dd5760075483516370a0823160e01b81523381850152602493916001600160a01b03919082169084818781855afa9081156109d3579088918a9161099e575b501061095c5783604491875192838092636eb1769f60e11b82523388830152308a8301525afa90811561095257908791899161091d575b50106108dc57828791610721611c88565b6007541660648751809481936323b872dd60e01b83523388840152308a8401528b60448401525af19081156108d257906107629188916108b5575b50611acb565b60025480610899575084925b338752600983526107828686892054611820565b338852600984528588205561079986600b54611820565b600b55338752600a83526107c685882054670de0b6b3a76400006107bf600d5488611b64565b0490611820565b338852600a8452858820553315610859575050907f73a19dd210f1a7f902193214c0ee91dd35ee5b4d920cba8d519eca65a7b488ca929161080982600254611820565b6002553386528581528286208281540190558251828152867fddf252ad1be2c89b69c2b068fc378daa952ba7f163c4a11628f55a4df523b3ef833393a382519485528401523392a2600160065580f35b601f9060649386519362461bcd60e51b85528401528201527f45524332303a206d696e7420746f20746865207a65726f2061646472657373006044820152fd5b6108a66108af9187611b64565b600b5490611b77565b9261076e565b6108cc9150843d8611610405576103f781836117e8565b3861075c565b85513d89823e3d90fd5b50925162461bcd60e51b815292830152601b908201527f496e73756666696369656e74205553445420616c6c6f77616e636500000000006044820152606490fd5b809250858092503d831161094b575b61093681836117e8565b810103126109475786905138610710565b8780fd5b503d61092c565b86513d8a823e3d90fd5b855162461bcd60e51b81528084018590526019818701527f496e73756666696369656e7420555344542062616c616e6365000000000000006044820152606490fd5b809250868092503d83116109cc575b6109b781836117e8565b810103126109c857879051386106d9565b8880fd5b503d6109ad565b87513d8b823e3d90fd5b606492519162461bcd60e51b8352820152601e60248201527f4d696e696d756d206465706f7369742069732024312c303030205553445400006044820152fd5b8380fd5b5091903461029c57602090816003193601126102795783359060018060a01b03610a5081600554163314611bf0565b8215610a5c8115611b97565b610a64611c88565b8360011b9084820460021417156106205760649004610a838185611be3565b918582610b27575b50505060025480610ac8575b507ffb990cadac9328187245c67d41756e8328139f1e9f6cf671e2aff827b4b95fba9495506104f890600c54611820565b600d5490670de0b6b3a7640000808402908482041484151715610568577ffb990cadac9328187245c67d41756e8328139f1e9f6cf671e2aff827b4b95fba97985091610556610b1b926104f89594611b77565b600d5590869550610a97565b600754600854865163a9059cbb60e01b81529084166001600160a01b03168b82019081526020810186905290938492169082908b90829060400103925af19081156104475791610ba087927f147fac6415bee3006ba6002a9a6636f492d311690c9e52a2421afc6392e0fb95948a916106035750611c3c565b8451908152a1388085610a8b565b50503461029c57602036600319011261029c57610bec60209261055683610bd361175f565b6001600160a01b03811684526009875292205491611ca7565b9051908152f35b50503461029c578160031936011261029c576020905160028152f35b50503461029c578160031936011261029c5760075490516001600160a01b039091168152602090f35b50503461029c578060031936011261029c57602090610c62610c5861175f565b6024359033611843565b5160018152f35b8334610cae576020366003190112610cae57610c8361175f565b610c8b611790565b60018060a01b03166bffffffffffffffffffffffff60a01b600854161760085580f35b80fd5b508234610cae5782600319360112610cae57610ccb61175f565b918360243592338152600160205281812060018060a01b0386168252602052205490828210610d0457602085610c6285850387336119b1565b608490602086519162461bcd60e51b8352820152602560248201527f45524332303a2064656372656173656420616c6c6f77616e63652062656c6f77604482015264207a65726f60d81b6064820152fd5b50503461029c578160031936011261029c57602090610bec611d16565b5091903461029c578160031936011261029c57805191809380549160019083821c92828516948515610e6c575b6020958686108114610e5957858952908115610e355750600114610ddd575b610dd98787610dcf828c03836117e8565b5191829182611716565b0390f35b81529295507f8a35acfbc15ff81a39ae7d344fd709f28e8600b4aa8c65c6b64bfe7fe36bd19b5b828410610e225750505082610dd994610dcf92820101943880610dbe565b8054868501880152928601928101610e04565b60ff19168887015250505050151560051b8301019250610dcf82610dd93880610dbe565b634e487b7160e01b845260228352602484fd5b93607f1693610d9f565b50503461029c578160031936011261029c5760055490516001600160a01b039091168152602090f35b50503461029c578160031936011261029c57602090600b549051908152f35b8334610cae5780600319360112610cae57610ed7611790565b600580546001600160a01b0319811690915581906001600160a01b03167f8be0079c531659141344cd1fd0a4f28419497f9722a3daafe3b4186f6b6457e08280a380f35b50503461029c57602036600319011261029c5760209181906001600160a01b03610f4361175f565b16815280845220549051908152f35b50503461029c57602036600319011261029c5760209181906001600160a01b03610f7a61175f565b168152600a845220549051908152f35b50503461029c578160031936011261029c5760085490516001600160a01b039091168152602090f35b8334610cae5780600319360112610cae57610fcc611c88565b80f35b50503461029c578060031936011261029c57610c62602092611018610ff261175f565b338352600186528483206001600160a01b03821684528652918490205460243590611820565b90336119b1565b5034610279578260031936011261027957611038611b0e565b611040611c88565b61104933611ca7565b91821561118c57338452602091600a835281852054670de0b6b3a76400008086029086820403611179579061055661108b923389528887528589205490611b77565b33808752600a855283872091909155600754835163a9059cbb60e01b81528381019283526020830187905291859183918290036040019082908a906001600160a01b03165af190811561116f578691611152575b50156111185750907ffc30cddea38e2bf4d6ea7d3f9ed3b6ad7f176419f4963bd81318067a4aee73fe91519283523392a2600160065580f35b82606492519162461bcd60e51b8352820152601660248201527514995dd85c99081d1c985b9cd9995c8819985a5b195960521b6044820152fd5b6111699150843d8611610405576103f781836117e8565b386110df565b83513d88823e3d90fd5b634e487b7160e01b875260118352602487fd5b906020606492519162461bcd60e51b835282015260136024820152724e6f207265776172647320746f20636c61696d60681b6044820152fd5b50503461029c57602036600319011261029c57602090610bec6111e661175f565b611ca7565b50503461029c578160031936011261029c576020905160128152f35b5091903461029c576020908160031936011261027957833591611228611b0e565b611233831515611b97565b3384528381528282852054106114615761124b611c88565b61126361125a600b5485611b64565b60025490611b77565b90338552600981526112788284872054611be3565b338652600982528386205561128f82600b54611be3565b600b55338552600a81526112bc83862054670de0b6b3a76400006112b5600d5488611b64565b0490611be3565b338652600a825283862055331561141557338552848152828520548481106113c7578261135f9697868493338b528a855203868a205586600254036002558886518881527fddf252ad1be2c89b69c2b068fc378daa952ba7f163c4a11628f55a4df523b3ef853392a3600754865163a9059cbb60e01b8152339281019283526020830193909352919788926001600160a01b03169183918b918391604090910190565b03925af194851561116f577f92ccf450a286a957af52509bc1c9939d1a6a481783e142e41e2499f0bb66ebc6949561139d9188916113b05750611acb565b82519485528401523392a2600160065580f35b6108cc9150833d8511610405576103f781836117e8565b835162461bcd60e51b8152808801839052602260248201527f45524332303a206275726e20616d6f756e7420657863656564732062616c616e604482015261636560f01b6064820152608490fd5b8560849184519162461bcd60e51b8352820152602160248201527f45524332303a206275726e2066726f6d20746865207a65726f206164647265736044820152607360f81b6064820152fd5b8490606492519162461bcd60e51b83528201526016602482015275496e73756666696369656e74204c5020746f6b656e7360501b6044820152fd5b5082903461029c57606036600319011261029c576114b861175f565b6114c061177a565b91846044359460018060a01b0384168152600160205281812033825260205220549060001982036114fa575b602086610c62878787611843565b848210611523575091839161151860209695610c62950333836119b1565b9193948193506114ec565b606490602087519162461bcd60e51b8352820152601d60248201527f45524332303a20696e73756666696369656e7420616c6c6f77616e63650000006044820152fd5b50503461029c578160031936011261029c5760209051620151808152f35b50503461029c578160031936011261029c576020906002549051908152f35b50503461029c578160031936011261029c57602090600c549051908152f35b50503461029c57602036600319011261029c5760209181906001600160a01b036115ea61175f565b1681526009845220549051908152f35b50503461029c578060031936011261029c57602090610c6261161a61175f565b60243590336119b1565b9291905034610a1d5783600319360112610a1d57600354600181811c918690828116801561170c575b60209586861082146116f957508488529081156116d7575060011461167e575b610dd98686610dcf828b03836117e8565b929550600383527fc2575a0e9e593c00f959f8c92f12db2869c3395a3b0502d05e2516446f71f85b5b8284106116c45750505082610dd994610dcf92820101943861166d565b80548685018801529286019281016116a7565b60ff191687860152505050151560051b8301019250610dcf82610dd93861166d565b634e487b7160e01b845260229052602483fd5b93607f169361164d565b6020808252825181830181905290939260005b82811061174b57505060409293506000838284010152601f8019910116010190565b818101860151848201604001528501611729565b600435906001600160a01b038216820361177557565b600080fd5b602435906001600160a01b038216820361177557565b6005546001600160a01b031633036117a457565b606460405162461bcd60e51b815260206004820152602060248201527f4f776e61626c653a2063616c6c6572206973206e6f7420746865206f776e65726044820152fd5b90601f8019910116810190811067ffffffffffffffff82111761180a57604052565b634e487b7160e01b600052604160045260246000fd5b9190820180921161182d57565b634e487b7160e01b600052601160045260246000fd5b6001600160a01b0390811691821561195e571691821561190d576000828152806020526040812054918083106118b957604082827fddf252ad1be2c89b69c2b068fc378daa952ba7f163c4a11628f55a4df523b3ef958760209652828652038282205586815220818154019055604051908152a3565b60405162461bcd60e51b815260206004820152602660248201527f45524332303a207472616e7366657220616d6f756e7420657863656564732062604482015265616c616e636560d01b6064820152608490fd5b60405162461bcd60e51b815260206004820152602360248201527f45524332303a207472616e7366657220746f20746865207a65726f206164647260448201526265737360e81b6064820152608490fd5b60405162461bcd60e51b815260206004820152602560248201527f45524332303a207472616e736665722066726f6d20746865207a65726f206164604482015264647265737360d81b6064820152608490fd5b6001600160a01b03908116918215611a625716918215611a125760207f8c5be1e5ebec7d5bd14f71427d1e84f3dd0314c0f7b2291e5b200ac8c7c3b925918360005260018252604060002085600052825280604060002055604051908152a3565b60405162461bcd60e51b815260206004820152602260248201527f45524332303a20617070726f766520746f20746865207a65726f206164647265604482015261737360f01b6064820152608490fd5b60405162461bcd60e51b8152602060048201526024808201527f45524332303a20617070726f76652066726f6d20746865207a65726f206164646044820152637265737360e01b6064820152608490fd5b90816020910312611775575180151581036117755790565b15611ad257565b60405162461bcd60e51b81526020600482015260146024820152731554d115081d1c985b9cd9995c8819985a5b195960621b6044820152606490fd5b600260065414611b1f576002600655565b60405162461bcd60e51b815260206004820152601f60248201527f5265656e7472616e637947756172643a207265656e7472616e742063616c6c006044820152606490fd5b8181029291811591840414171561182d57565b8115611b81570490565b634e487b7160e01b600052601260045260246000fd5b15611b9e57565b60405162461bcd60e51b815260206004820152601d60248201527f416d6f756e74206d7573742062652067726561746572207468616e20300000006044820152606490fd5b9190820391821161182d57565b15611bf757565b60405162461bcd60e51b815260206004820152601860248201527f4f6e6c79206f776e65722063616e2063616c6c207468697300000000000000006044820152606490fd5b15611c4357565b60405162461bcd60e51b815260206004820152601e60248201527f4d616e6167656d656e7420666565207472616e73666572206661696c656400006044820152606490fd5b600e5462015180810180911161182d57421015611ca157565b42600e55565b6001600160a01b03166000818152602081905260408120549091908015611d1157611cfc92670de0b6b3a7640000611ceb604093600d5490600254611cff57611b64565b04928152600a602052205490611be3565b90565b611d0b600e5442611be3565b50611b64565b505090565b600b548015611d5857600c5461016d9081810291818304149015171561182d57601e9004906127109182810292818404149015171561182d57611cfc91611b77565b5060009056fea26469706673582212205cd5ba665eaa02f52f8a9d558abdd0ed87b0d2542481cdae591dd9096e604e2364736f6c63430008130033",
  "linkReferences": {},
  "deployedLinkReferences": {}
}