{
  "_format": "hh-sol-artifact-1",
  "contractName": "VillageCitizenship",
  "sourceName": "contracts/VillageCitizenship.sol",
  "abi": [
    {
      "inputs": [],
      "stateMutability": "nonpayable",
      "type": "constructor"
    },
    {
      "anonymous": false,
      "inputs": [
        {
          "indexed": true,
          "internalType": "uint256",
          "name": "citizenshipId",
          "type": "uint256"
        },
        {
          "indexed": true,
          "internalType": "address",
          "name": "citizen",
          "type": "address"
        },
        {
          "indexed": true,
          "internalType": "uint256",
          "name": "villageId",
          "type": "uint256"
        },
        {
          "indexed": false,
          "internalType": "uint256",
          "name": "membershipFee",
          "type": "uint256"
        }
      ],
      "name": "CitizenshipPurchased",
      "type": "event"
    },
    {
      "anonymous": false,
      "inputs": [
        {
          "indexed": true,
          "internalType": "address",
          "name": "previousOwner",
          "type": "address"
        },
        {
          "indexed": true,
          "internalType": "address",
          "name": "newOwner",
          "type": "address"
        }
      ],
      "name": "OwnershipTransferred",
      "type": "event"
    },
    {
      "anonymous": false,
      "inputs": [
        {
          "indexed": false,
          "internalType": "address",
          "name": "account",
          "type": "address"
        }
      ],
      "name": "Paused",
      "type": "event"
    },
    {
      "anonymous": false,
      "inputs": [
        {
          "indexed": false,
          "internalType": "address",
          "name": "account",
          "type": "address"
        }
      ],
      "name": "Unpaused",
      "type": "event"
    },
    {
      "anonymous": false,
      "inputs": [
        {
          "indexed": true,
          "internalType": "uint256",
          "name": "villageId",
          "type": "uint256"
        },
        {
          "indexed": false,
          "internalType": "string",
          "name": "name",
          "type": "string"
        },
        {
          "indexed": false,
          "internalType": "uint256",
          "name": "membershipFee",
          "type": "uint256"
        },
        {
          "indexed": false,
          "internalType": "uint256",
          "name": "maxCitizens",
          "type": "uint256"
        }
      ],
      "name": "VillageCreated",
      "type": "event"
    },
    {
      "anonymous": false,
      "inputs": [
        {
          "indexed": true,
          "internalType": "uint256",
          "name": "villageId",
          "type": "uint256"
        },
        {
          "indexed": false,
          "internalType": "string",
          "name": "name",
          "type": "string"
        },
        {
          "indexed": false,
          "internalType": "uint256",
          "name": "membershipFee",
          "type": "uint256"
        }
      ],
      "name": "VillageUpdated",
      "type": "event"
    },
    {
      "anonymous": false,
      "inputs": [
        {
          "indexed": true,
          "internalType": "address",
          "name": "citizen",
          "type": "address"
        },
        {
          "indexed": true,
          "internalType": "uint256",
          "name": "villageId",
          "type": "uint256"
        },
        {
          "indexed": false,
          "internalType": "uint256",
          "name": "amount",
          "type": "uint256"
        }
      ],
      "name": "YieldClaimed",
      "type": "event"
    },
    {
      "inputs": [
        {
          "internalType": "address",
          "name": "",
          "type": "address"
        },
        {
          "internalType": "uint256",
          "name": "",
          "type": "uint256"
        }
      ],
      "name": "citizenships",
      "outputs": [
        {
          "internalType": "uint256",
          "name": "citizenshipId",
          "type": "uint256"
        },
        {
          "internalType": "address",
          "name": "citizen",
          "type": "address"
        },
        {
          "internalType": "uint256",
          "name": "membershipFee",
          "type": "uint256"
        },
        {
          "internalType": "uint256",
          "name": "joinDate",
          "type": "uint256"
        },
        {
          "internalType": "bool",
          "name": "isActive",
          "type": "bool"
        },
        {
          "internalType": "uint256",
          "name": "monthlyYield",
          "type": "uint256"
        },
        {
          "internalType": "uint256",
          "name": "totalYieldEarned",
          "type": "uint256"
        },
        {
          "internalType": "uint256",
          "name": "lastYieldClaim",
          "type": "uint256"
        }
      ],
      "stateMutability": "view",
      "type": "function"
    },
    {
      "inputs": [
        {
          "internalType": "uint256",
          "name": "villageId",
          "type": "uint256"
        }
      ],
      "name": "claimYield",
      "outputs": [],
      "stateMutability": "nonpayable",
      "type": "function"
    },
    {
      "inputs": [
        {
          "internalType": "string",
          "name": "name",
          "type": "string"
        },
        {
          "internalType": "uint256",
          "name": "membershipFee",
          "type": "uint256"
        },
        {
          "internalType": "uint256",
          "name": "maxCitizens",
          "type": "uint256"
        },
        {
          "internalType": "uint256",
          "name": "monthlyYieldPerCitizen",
          "type": "uint256"
        }
      ],
      "name": "createVillage",
      "outputs": [],
      "stateMutability": "nonpayable",
      "type": "function"
    },
    {
      "inputs": [
        {
          "internalType": "address",
          "name": "citizen",
          "type": "address"
        },
        {
          "internalType": "uint256",
          "name": "villageId",
          "type": "uint256"
        }
      ],
      "name": "getCitizenship",
      "outputs": [
        {
          "internalType": "uint256",
          "name": "citizenshipId",
          "type": "uint256"
        },
        {
          "internalType": "address",
          "name": "citizenAddress",
          "type": "address"
        },
        {
          "internalType": "uint256",
          "name": "membershipFee",
          "type": "uint256"
        },
        {
          "internalType": "uint256",
          "name": "joinDate",
          "type": "uint256"
        },
        {
          "internalType": "bool",
          "name": "isActive",
          "type": "bool"
        },
        {
          "internalType": "uint256",
          "name": "monthlyYield",
          "type": "uint256"
        },
        {
          "internalType": "uint256",
          "name": "totalYieldEarned",
          "type": "uint256"
        },
        {
          "internalType": "uint256",
          "name": "lastYieldClaim",
          "type": "uint256"
        }
      ],
      "stateMutability": "view",
      "type": "function"
    },
    {
      "inputs": [
        {
          "internalType": "address",
          "name": "user",
          "type": "address"
        }
      ],
      "name": "getUserVillages",
      "outputs": [
        {
          "internalType": "uint256[]",
          "name": "",
          "type": "uint256[]"
        }
      ],
      "stateMutability": "view",
      "type": "function"
    },
    {
      "inputs": [
        {
          "internalType": "uint256",
          "name": "villageId",
          "type": "uint256"
        }
      ],
      "name": "getVillage",
      "outputs": [
        {
          "internalType": "uint256",
          "name": "id",
          "type": "uint256"
        },
        {
          "internalType": "string",
          "name": "name",
          "type": "string"
        },
        {
          "internalType": "uint256",
          "name": "membershipFee",
          "type": "uint256"
        },
        {
          "internalType": "uint256",
          "name": "maxCitizens",
          "type": "uint256"
        },
        {
          "internalType": "uint256",
          "name": "currentCitizens",
          "type": "uint256"
        },
        {
          "internalType": "bool",
          "name": "isActive",
          "type": "bool"
        },
        {
          "internalType": "uint256",
          "name": "monthlyYieldPerCitizen",
          "type": "uint256"
        }
      ],
      "stateMutability": "view",
      "type": "function"
    },
    {
      "inputs": [
        {
          "internalType": "uint256",
          "name": "villageId",
          "type": "uint256"
        }
      ],
      "name": "getVillageCitizens",
      "outputs": [
        {
          "internalType": "address[]",
          "name": "",
          "type": "address[]"
        }
      ],
      "stateMutability": "view",
      "type": "function"
    },
    {
      "inputs": [
        {
          "internalType": "address",
          "name": "user",
          "type": "address"
        },
        {
          "internalType": "uint256",
          "name": "villageId",
          "type": "uint256"
        }
      ],
      "name": "isCitizen",
      "outputs": [
        {
          "internalType": "bool",
          "name": "",
          "type": "bool"
        }
      ],
      "stateMutability": "view",
      "type": "function"
    },
    {
      "inputs": [],
      "name": "nextCitizenshipId",
      "outputs": [
        {
          "internalType": "uint256",
          "name": "",
          "type": "uint256"
        }
      ],
      "stateMutability": "view",
      "type": "function"
    },
    {
      "inputs": [],
      "name": "nextVillageId",
      "outputs": [
        {
          "internalType": "uint256",
          "name": "",
          "type": "uint256"
        }
      ],
      "stateMutability": "view",
      "type": "function"
    },
    {
      "inputs": [],
      "name": "owner",
      "outputs": [
        {
          "internalType": "address",
          "name": "",
          "type": "address"
        }
      ],
      "stateMutability": "view",
      "type": "function"
    },
    {
      "inputs": [],
      "name": "pause",
      "outputs": [],
      "stateMutability": "nonpayable",
      "type": "function"
    },
    {
      "inputs": [],
      "name": "paused",
      "outputs": [
        {
          "internalType": "bool",
          "name": "",
          "type": "bool"
        }
      ],
      "stateMutability": "view",
      "type": "function"
    },
    {
      "inputs": [
        {
          "internalType": "uint256",
          "name": "villageId",
          "type": "uint256"
        }
      ],
      "name": "purchaseCitizenship",
      "outputs": [],
      "stateMutability": "payable",
      "type": "function"
    },
    {
      "inputs": [],
      "name": "renounceOwnership",
      "outputs": [],
      "stateMutability": "nonpayable",
      "type": "function"
    },
    {
      "inputs": [
        {
          "internalType": "uint256",
          "name": "villageId",
          "type": "uint256"
        }
      ],
      "name": "toggleVillage",
      "outputs": [],
      "stateMutability": "nonpayable",
      "type": "function"
    },
    {
      "inputs": [
        {
          "internalType": "address",
          "name": "newOwner",
          "type": "address"
        }
      ],
      "name": "transferOwnership",
      "outputs": [],
      "stateMutability": "nonpayable",
      "type": "function"
    },
    {
      "inputs": [],
      "name": "unpause",
      "outputs": [],
      "stateMutability": "nonpayable",
      "type": "function"
    },
    {
      "inputs": [
        {
          "internalType": "uint256",
          "name": "villageId",
          "type": "uint256"
        },
        {
          "internalType": "string",
          "name": "name",
          "type": "string"
        },
        {
          "internalType": "uint256",
          "name": "membershipFee",
          "type": "uint256"
        },
        {
          "internalType": "uint256",
          "name": "maxCitizens",
          "type": "uint256"
        },
        {
          "internalType": "uint256",
          "name": "monthlyYieldPerCitizen",
          "type": "uint256"
        }
      ],
      "name": "updateVillage",
      "outputs": [],
      "stateMutability": "nonpayable",
      "type": "function"
    },
    {
      "inputs": [
        {
          "internalType": "address",
          "name": "",
          "type": "address"
        },
        {
          "internalType": "uint256",
          "name": "",
          "type": "uint256"
        }
      ],
      "name": "userVillages",
      "outputs": [
        {
          "internalType": "uint256",
          "name": "",
          "type": "uint256"
        }
      ],
      "stateMutability": "view",
      "type": "function"
    },
    {
      "inputs": [
        {
          "internalType": "uint256",
          "name": "",
          "type": "uint256"
        },
        {
          "internalType": "uint256",
          "name": "",
          "type": "uint256"
        }
      ],
      "name": "villageCitizens",
      "outputs": [
        {
          "internalType": "address",
          "name": "",
          "type": "address"
        }
      ],
      "stateMutability": "view",
      "type": "function"
    },
    {
      "inputs": [
        {
          "internalType": "uint256",
          "name": "",
          "type": "uint256"
        }
      ],
      "name": "villages",
      "outputs": [
        {
          "internalType": "uint256",
          "name": "villageId",
          "type": "uint256"
        },
        {
          "internalType": "string",
          "name": "name",
          "type": "string"
        },
        {
          "internalType": "uint256",
          "name": "membershipFee",
          "type": "uint256"
        },
        {
          "internalType": "uint256",
          "name": "maxCitizens",
          "type": "uint256"
        },
        {
          "internalType": "uint256",
          "name": "currentCitizens",
          "type": "uint256"
        },
        {
          "internalType": "bool",
          "name": "isActive",
          "type": "bool"
        },
        {
          "internalType": "uint256",
          "name": "monthlyYieldPerCitizen",
          "type": "uint256"
        }
      ],
      "stateMutability": "view",
      "type": "function"
    },
    {
      "inputs": [],
      "name": "withdrawFunds",
      "outputs": [],
      "stateMutability": "nonpayable",
      "type": "function"
    },
    {
      "stateMutability": "payable",
      "type": "receive"
    }
  ],
  "bytecode": "0x608034620002c65760008054336001600160a01b0319821681178355916001600160a01b03909116907f8be0079c531659141344cd1fd0a4f28419497f9722a3daafe3b4186f6b6457e09080a360018080556002805460ff1916905560078190556008556001600160401b039060e0810182811182821017620002b05760405260018152604051916040830183811082821117620002b057604052600f83526e416e6369656e742056696c6c61676560881b60208401526020820192835267016345785d8a000060408301526103e8606083015260006080830152600160a0830152662386f26fc1000060c08301526001600052600360205260406000209282518455518051918211620002b0576001840154600181811c91168015620002a5575b60208210146200028f57601f81116200023f575b50602090601f8311600114620001c55791806006949260c094600092620001b9575b50508160011b916000199060031b1c19161760018501555b6040810151600285015560608101516003850155608081015160048501556005840160a0820151151560ff8019835416911617905501519101556040516117fe9081620002cc8239f35b01519050388062000157565b906001850160005260206000209160005b601f1985168110620002265750926006949260019260c09583601f198116106200020c575b505050811b0160018501556200016f565b015160001960f88460031b161c19169055388080620001fb565b91926020600181928685015181550194019201620001d6565b600185016000526020600020601f840160051c8101916020851062000284575b601f0160051c01905b81811062000277575062000135565b6000815560010162000268565b90915081906200025f565b634e487b7160e01b600052602260045260246000fd5b90607f169062000121565b634e487b7160e01b600052604160045260246000fd5b600080fdfe6080604052600436101561001b575b361561001957600080fd5b005b60003560e01c8063011c7ca81461134d5780630234f916146112b85780630376002f1461126857806324600fc3146111ef5780633a516f4d14610ecb5780633f4ba83a14610e3757806340bd2e2314610c7e5780634cb0c18114610c605780634d903e8614610b6c5780635930795014610ab45780635a16ab3514610a965780635c975abb14610a7357806363606a8114610a21578063715018a6146109c85780637746f0a7146109105780638456cb59146108b65780638da5cb5b1461088d57806396a05aae14610579578063ad35bc2214610521578063c50347ae14610301578063cde5d1871461024d578063d4aea411146101eb5763f2fde38b0361000e57346101e65760203660031901126101e657610136611424565b61013e611606565b6001600160a01b0390811690811561019257600054826bffffffffffffffffffffffff60a01b821617600055167f8be0079c531659141344cd1fd0a4f28419497f9722a3daafe3b4186f6b6457e0600080a3005b60405162461bcd60e51b815260206004820152602660248201527f4f776e61626c653a206e6577206f776e657220697320746865207a65726f206160448201526564647265737360d01b6064820152608490fd5b600080fd5b346101e65760203660031901126101e65760043560005260036020526040600020805461024961021d60018401611560565b926002810154906003810154600482015490600660ff60058501541693015493604051978897886113e7565b0390f35b346101e6576020806003193601126101e6576001600160a01b0361026f611424565b1660005260058152604060002060405190818382549182815201908192600052846000209060005b868282106102ed5786866102ad828803836114a1565b604051928392818401908285525180915260408401929160005b8281106102d657505050500390f35b8351855286955093810193928101926001016102c7565b835485529093019260019283019201610297565b346101e65760a03660031901126101e65767ffffffffffffffff6004356024358281116101e6576103369036906004016114df565b91604435610342611606565b82600052600360209281845261035e60406000205415156116b9565b61036a8651151561165e565b846000528184526001908160406000200191875191821161050b5761038f8354611526565b601f81116104c2575b5085601f8311600114610436579180807f1b50b6cb49280a71489baa8d88b71871c9fd7c6b0beb669fc4eaeceef5bb10c2999a97959361042299979560009361042b575b501b9160001990851b1c19161790555b866000528083526040600020908260028301556064359082015560066084359101556040519384936040855260408501906113a7565b918301520390a2005b89015192508c6103dc565b601f9291921982169084600052876000209160005b8181106104ad57509183917f1b50b6cb49280a71489baa8d88b71871c9fd7c6b0beb669fc4eaeceef5bb10c29a9b9896946104229a98969410610495575b5050811b0190556103ec565b88015160001983871b60f8161c191690558a80610489565b8b83015184559285019291890191890161044b565b8360005286600020601f840160051c810191888510610501575b601f0160051c019082905b8281106104f5575050610398565b600081550182906104e7565b90915081906104dc565b634e487b7160e01b600052604160045260246000fd5b346101e65760403660031901126101e65761053a611424565b6001600160a01b03166000908152600560205260409020805460243591908210156101e65760209161056b9161143a565b90546040519160031b1c8152f35b346101e65760803660031901126101e65767ffffffffffffffff6004358181116101e6576105ab9036906004016114df565b6105b3611606565b6105bf8151151561165e565b6024351561083a57604435156107e9576007546040516105de81611468565b81815260208101918383526024356040830152604435606083015260006080830152600160a083015260643560c08301526000526003602052604060002091815183555193845190811161050b576106396001840154611526565b601f81116107a2575b506020601f8211600114610726576106fe9493928260069360c0936107169960009261071b575b50508160011b916000199060031b1c19161760018501555b6040810151600285015560608101516003850155608081015160048501556106be60a08201511515600586019060ff801983541691151516179055565b01519101557fe53204ce7689d78b120e343786af68a1086ef226c1b2266521848b41544e35806007549283926040519182916060835260608301906113a7565b602435602083015260443560408301520390a26116aa565b600755005b015190508980610669565b6001840160005260206000209560005b601f198416811061078a5750926001836107169860c0946106fe999897600697601f19811610610771575b505050811b016001850155610681565b015160001960f88460031b161c19169055898080610761565b82820151885560019097019660209283019201610736565b600184016000526020600020601f830160051c8101602084106107e2575b601f830160051c820181106107d6575050610642565b600081556001016107c0565b50806107c0565b60405162461bcd60e51b815260206004820152602360248201527f4d617820636974697a656e73206d75737420626520677265617465722074686160448201526206e20360ec1b6064820152608490fd5b60405162461bcd60e51b815260206004820152602560248201527f4d656d6265727368697020666565206d75737420626520677265617465722074604482015264068616e20360dc1b6064820152608490fd5b346101e65760003660031901126101e6576000546040516001600160a01b039091168152602090f35b346101e65760003660031901126101e6576108cf611606565b6108d76116fe565b600160ff1960025416176002557f62e78cea01bee320cd4e420270b5ea74000d11b0c9f74754ebdbfc544b05a2586020604051338152a1005b346101e65760403660031901126101e6576001600160a01b0380610932611424565b166000526004602052604060002060243560005260205260406000209061024982549160018401541692600281015490600381015460ff60048301541660058301549160076006850154940154946040519889988994919260e0969399989794919961010087019a875260018060a01b03166020870152604086015260608501521515608084015260a083015260c08201520152565b346101e65760003660031901126101e6576109e1611606565b600080546001600160a01b0319811682556001600160a01b03167f8be0079c531659141344cd1fd0a4f28419497f9722a3daafe3b4186f6b6457e08280a3005b346101e65760403660031901126101e6576024356004356000526006602052604060002080548210156101e657602091610a5a9161143a565b905460405160039290921b1c6001600160a01b03168152f35b346101e65760003660031901126101e657602060ff600254166040519015158152f35b346101e65760003660031901126101e6576020600854604051908152f35b346101e6576020806003193601126101e65760043560005260068152604060002060405190818382549182815201908192600052846000209060005b86828210610b4f578686610b06828803836114a1565b604051928392818401908285525180915260408401929160005b828110610b2f57505050500390f35b83516001600160a01b031685528695509381019392810192600101610b20565b83546001600160a01b031685529093019260019283019201610af0565b346101e65760403660031901126101e6576001600160a01b0380610b8e611424565b166000526004602052604060002060243560005260205260406000209061024960e060405193610bbd85611484565b805493848652600182015416948560208201526002820154806040830152600383015480606084015260ff6004850154161515918260808501526005850154938460a082015260076006870154968760c0840152015496879101526040519889988994919260e0969399989794919961010087019a875260018060a01b03166020870152604086015260608501521515608084015260a083015260c08201520152565b346101e65760003660031901126101e6576020600754604051908152f35b346101e6576020806003193601126101e65760043590610c9c611742565b3360005260048152604060002082600052815260406000209060ff60048301541615610dfa576007820180544203428111610d8d5762278d0090049260018410610da3576005810154848102948186041490151715610d8d57600601805490848201809211610d8d5755429055600080808085335af1610d1a611798565b5015610d51577f10d8dedfc0745b8c25ba10b06e304138b251c18dcaadf2d71c7f3214719dc4d1906040519283523392a360018055005b6064906040519062461bcd60e51b825260048201526015602482015274165a595b19081d1c985b9cd9995c8819985a5b1959605a1b6044820152fd5b634e487b7160e01b600052601160045260246000fd5b60405162461bcd60e51b815260048101849052602960248201527f4d7573742077616974206174206c656173742031206d6f6e7468206265747765604482015268656e20636c61696d7360b81b6064820152608490fd5b6064906040519062461bcd60e51b825260048201526016602482015275436974697a656e73686970206e6f742061637469766560501b6044820152fd5b346101e65760003660031901126101e657610e50611606565b60025460ff811615610e8f5760ff19166002557f5db9ee0a495bf2e6ff9c91a7834c1ba4fdd244a5e8aa4e537bd38aeae4b073aa6020604051338152a1005b60405162461bcd60e51b815260206004820152601460248201527314185d5cd8589b194e881b9bdd081c185d5cd95960621b6044820152606490fd5b6020806003193601126101e65760043590610ee4611742565b610eec6116fe565b8160005260038152604060002091610f06835415156116b9565b60ff600584015416156111b257600483019081546003850154111561117b57600284019283549283341061113f573360005260048252604060002083600052825260ff600460406000200154166110f05760066008549601549560405190610f6d82611484565b8152600783820195338752604083019081526060830190428252608084019961101260019b8c9485825260a0880193845260c08801946000865260e08901964288523360005260048c5260406000208d6000528c52604060002099518a55890160018060a01b03809e51166bffffffffffffffffffffffff60a01b825416179055516002890155516003880155511515600487019060ff801983541691151516179055565b5160058501555160068401555191015561102c81546116aa565b9055816000526006815260406000209283549368010000000000000000948581101561050b5761106091888201815561143a565b819291549060031b9133831b921b1916179055336000526005815260406000209384549384101561050b576110be846110e996887f6dffce51e54d67e658dfab4a289de183a3741d7b89a6ef40fc5b201ff94c27a49701815561143a565b81549060031b9085821b91600019901b191617905560085493849154926040519384523393a46116aa565b6008558055005b60405162461bcd60e51b815260048101839052602160248201527f416c7265616479206120636974697a656e206f6620746869732076696c6c61676044820152606560f81b6064820152608490fd5b60405162461bcd60e51b8152600481018390526014602482015273125b9cdd59999a58da595b9d081c185e5b595b9d60621b6044820152606490fd5b60405162461bcd60e51b815260048101849052600f60248201526e159a5b1b1859d9481a5cc8199d5b1b608a1b6044820152606490fd5b60405162461bcd60e51b815260048101839052601560248201527456696c6c616765206973206e6f742061637469766560581b6044820152606490fd5b346101e65760003660031901126101e657611208611606565b6000805481908190819047906001600160a01b03165af1611227611798565b501561122f57005b60405162461bcd60e51b815260206004820152601160248201527015da5d1a191c985dd85b0819985a5b1959607a1b6044820152606490fd5b346101e65760403660031901126101e6576001600160a01b03611289611424565b1660005260046020526040600020602435600052602052602060ff600460406000200154166040519015158152f35b346101e65760203660031901126101e65760043560005260036020526040600020604051906112e682611468565b805482526102496112f960018301611560565b928360208201526002830154928360408301526003810154806060840152600482015490816080850152600660ff6005850154161515938460a08701520154938460c08201525195604051978897886113e7565b346101e65760203660031901126101e657600435611369611606565b80600052600360205261138260406000205415156116b9565b6000908152600360205260409020600501805460ff818116151660ff19909116179055005b919082519283825260005b8481106113d3575050826000602080949584010152601f8019910116010190565b6020818301810151848301820152016113b2565b939060c09592611409919998979499865260e0602087015260e08601906113a7565b97604085015260608401526080830152151560a08201520152565b600435906001600160a01b03821682036101e657565b80548210156114525760005260206000200190600090565b634e487b7160e01b600052603260045260246000fd5b60e0810190811067ffffffffffffffff82111761050b57604052565b610100810190811067ffffffffffffffff82111761050b57604052565b90601f8019910116810190811067ffffffffffffffff82111761050b57604052565b67ffffffffffffffff811161050b57601f01601f191660200190565b81601f820112156101e6578035906114f6826114c3565b9261150460405194856114a1565b828452602083830101116101e657816000926020809301838601378301015290565b90600182811c92168015611556575b602083101461154057565b634e487b7160e01b600052602260045260246000fd5b91607f1691611535565b906040519182600082549261157484611526565b9081845260019485811690816000146115e357506001146115a0575b505061159e925003836114a1565b565b9093915060005260209081600020936000915b8183106115cb57505061159e93508201013880611590565b855488840185015294850194879450918301916115b3565b91505061159e94506020925060ff191682840152151560051b8201013880611590565b6000546001600160a01b0316330361161a57565b606460405162461bcd60e51b815260206004820152602060248201527f4f776e61626c653a2063616c6c6572206973206e6f7420746865206f776e65726044820152fd5b1561166557565b60405162461bcd60e51b815260206004820152601c60248201527f56696c6c616765206e616d652063616e6e6f7420626520656d707479000000006044820152606490fd5b6000198114610d8d5760010190565b156116c057565b60405162461bcd60e51b8152602060048201526016602482015275159a5b1b1859d948191bd95cc81b9bdd08195e1a5cdd60521b6044820152606490fd5b60ff6002541661170a57565b60405162461bcd60e51b815260206004820152601060248201526f14185d5cd8589b194e881c185d5cd95960821b6044820152606490fd5b600260015414611753576002600155565b60405162461bcd60e51b815260206004820152601f60248201527f5265656e7472616e637947756172643a207265656e7472616e742063616c6c006044820152606490fd5b3d156117c3573d906117a9826114c3565b916117b760405193846114a1565b82523d6000602084013e565b60609056fea2646970667358221220e008b6efa2467cbf547a53a743acd63fe43f51074846e962d290b351f64279aa64736f6c63430008130033",
  "linkReferences": {},
  "deployedLinkReferences": {}
}