{
  "_format": "hh-sol-artifact-1",
  "contractName": "SimpleTokenPurchase",
  "sourceName": "contracts/SimpleTokenPurchase.sol",
  "abi": [
    {
      "inputs": [],
      "stateMutability": "nonpayable",
      "type": "constructor"
    },
    {
      "anonymous": false,
      "inputs": [
        {
          "indexed": true,
          "internalType": "address",
          "name": "previousOwner",
          "type": "address"
        },
        {
          "indexed": true,
          "internalType": "address",
          "name": "newOwner",
          "type": "address"
        }
      ],
      "name": "OwnershipTransferred",
      "type": "event"
    },
    {
      "anonymous": false,
      "inputs": [
        {
          "indexed": true,
          "internalType": "uint256",
          "name": "tokenId",
          "type": "uint256"
        },
        {
          "indexed": true,
          "internalType": "address",
          "name": "buyer",
          "type": "address"
        },
        {
          "indexed": false,
          "internalType": "uint256",
          "name": "amount",
          "type": "uint256"
        },
        {
          "indexed": false,
          "internalType": "uint256",
          "name": "price",
          "type": "uint256"
        }
      ],
      "name": "TokenPurchased",
      "type": "event"
    },
    {
      "anonymous": false,
      "inputs": [
        {
          "indexed": true,
          "internalType": "address",
          "name": "user",
          "type": "address"
        },
        {
          "indexed": false,
          "internalType": "uint256[]",
          "name": "tokenIds",
          "type": "uint256[]"
        }
      ],
      "name": "TokensRedeemed",
      "type": "event"
    },
    {
      "inputs": [],
      "name": "MINIMUM_INVESTMENT",
      "outputs": [
        {
          "internalType": "uint256",
          "name": "",
          "type": "uint256"
        }
      ],
      "stateMutability": "view",
      "type": "function"
    },
    {
      "inputs": [],
      "name": "TOKEN_PRICE",
      "outputs": [
        {
          "internalType": "uint256",
          "name": "",
          "type": "uint256"
        }
      ],
      "stateMutability": "view",
      "type": "function"
    },
    {
      "inputs": [],
      "name": "getContractBalance",
      "outputs": [
        {
          "internalType": "uint256",
          "name": "",
          "type": "uint256"
        }
      ],
      "stateMutability": "view",
      "type": "function"
    },
    {
      "inputs": [
        {
          "internalType": "uint256",
          "name": "tokenId",
          "type": "uint256"
        }
      ],
      "name": "getToken",
      "outputs": [
        {
          "components": [
            {
              "internalType": "uint256",
              "name": "tokenId",
              "type": "uint256"
            },
            {
              "internalType": "uint256",
              "name": "price",
              "type": "uint256"
            },
            {
              "internalType": "uint256",
              "name": "investmentAmount",
              "type": "uint256"
            },
            {
              "internalType": "address",
              "name": "buyer",
              "type": "address"
            },
            {
              "internalType": "uint256",
              "name": "purchaseDate",
              "type": "uint256"
            },
            {
              "internalType": "bool",
              "name": "isActive",
              "type": "bool"
            }
          ],
          "internalType": "struct SimpleTokenPurchase.Token",
          "name": "",
          "type": "tuple"
        }
      ],
      "stateMutability": "view",
      "type": "function"
    },
    {
      "inputs": [
        {
          "internalType": "address",
          "name": "user",
          "type": "address"
        }
      ],
      "name": "getUserTokens",
      "outputs": [
        {
          "internalType": "uint256[]",
          "name": "",
          "type": "uint256[]"
        }
      ],
      "stateMutability": "view",
      "type": "function"
    },
    {
      "inputs": [
        {
          "internalType": "address",
          "name": "user",
          "type": "address"
        }
      ],
      "name": "getUserTotalInvested",
      "outputs": [
        {
          "internalType": "uint256",
          "name": "",
          "type": "uint256"
        }
      ],
      "stateMutability": "view",
      "type": "function"
    },
    {
      "inputs": [],
      "name": "owner",
      "outputs": [
        {
          "internalType": "address",
          "name": "",
          "type": "address"
        }
      ],
      "stateMutability": "view",
      "type": "function"
    },
    {
      "inputs": [],
      "name": "pause",
      "outputs": [],
      "stateMutability": "nonpayable",
      "type": "function"
    },
    {
      "inputs": [],
      "name": "purchaseTokens",
      "outputs": [],
      "stateMutability": "payable",
      "type": "function"
    },
    {
      "inputs": [],
      "name": "renounceOwnership",
      "outputs": [],
      "stateMutability": "nonpayable",
      "type": "function"
    },
    {
      "inputs": [
        {
          "internalType": "uint256",
          "name": "",
          "type": "uint256"
        }
      ],
      "name": "tokens",
      "outputs": [
        {
          "internalType": "uint256",
          "name": "tokenId",
          "type": "uint256"
        },
        {
          "internalType": "uint256",
          "name": "price",
          "type": "uint256"
        },
        {
          "internalType": "uint256",
          "name": "investmentAmount",
          "type": "uint256"
        },
        {
          "internalType": "address",
          "name": "buyer",
          "type": "address"
        },
        {
          "internalType": "uint256",
          "name": "purchaseDate",
          "type": "uint256"
        },
        {
          "internalType": "bool",
          "name": "isActive",
          "type": "bool"
        }
      ],
      "stateMutability": "view",
      "type": "function"
    },
    {
      "inputs": [
        {
          "internalType": "address",
          "name": "newOwner",
          "type": "address"
        }
      ],
      "name": "transferOwnership",
      "outputs": [],
      "stateMutability": "nonpayable",
      "type": "function"
    },
    {
      "inputs": [
        {
          "internalType": "address",
          "name": "",
          "type": "address"
        },
        {
          "internalType": "uint256",
          "name": "",
          "type": "uint256"
        }
      ],
      "name": "userTokens",
      "outputs": [
        {
          "internalType": "uint256",
          "name": "",
          "type": "uint256"
        }
      ],
      "stateMutability": "view",
      "type": "function"
    },
    {
      "inputs": [
        {
          "internalType": "address",
          "name": "",
          "type": "address"
        }
      ],
      "name": "userTotalInvested",
      "outputs": [
        {
          "internalType": "uint256",
          "name": "",
          "type": "uint256"
        }
      ],
      "stateMutability": "view",
      "type": "function"
    },
    {
      "inputs": [],
      "name": "withdraw",
      "outputs": [],
      "stateMutability": "nonpayable",
      "type": "function"
    }
  ],
  "bytecode": "0x6080806040523461005f5760008054336001600160a01b0319821681178355916001600160a01b03909116907f8be0079c531659141344cd1fd0a4f28419497f9722a3daafe3b4186f6b6457e09080a3600180556109ec90816100658239f35b600080fdfe608060408181526004918236101561001657600080fd5b600090813560e01c9081633290ce2914610613575080633ccfd60b146105145780634f64b2be146104a9578063519dc8d2146103fc5780636f9fb98a146103e1578063715018a6146103875780638456cb591461036b578063873a83dc146103075780638a4660fe146103025780638da5cb5b14610343578063bf6ce8a714610307578063d2d8cb6714610302578063e4b50cb8146101e8578063f2fde38b146101215763f9f411d8146100c957600080fd5b3461011e578160031936011261011e576100e161089e565b6001600160a01b031681526020929092528082208054602435939084101561011e5750602092610110916108dc565b91905490519160031b1c8152f35b80fd5b5091346101e45760203660031901126101e45761013c61089e565b9061014561090a565b6001600160a01b0391821692831561019257505082546001600160a01b0319811683178455167f8be0079c531659141344cd1fd0a4f28419497f9722a3daafe3b4186f6b6457e08380a380f35b906020608492519162461bcd60e51b8352820152602660248201527f4f776e61626c653a206e6577206f776e657220697320746865207a65726f206160448201526564647265737360d01b6064820152fd5b8280fd5b5091346101e4576020806003193601126102fe5781358460a0855161020c81610962565b8281528285820152828782015282606082015282608082015201528085526003825283852054156102c65784849160c0965260038352209083519261025084610962565b82549485855260018401549280860193845260028501549082870191825260018060a01b039460a060ff60058860038b0154169760608c019889528a01549960808c019a8b52015416980197151588528351988952519088015251908601525116606084015251608083015251151560a0820152f35b50606492519162461bcd60e51b83528201526014602482015273151bdad95b88191bd95cc81b9bdd08195e1a5cdd60621b6044820152fd5b8380fd5b6108b9565b50903461033f57602036600319011261033f5760209181906001600160a01b0361032f61089e565b1681526005845220549051908152f35b5080fd5b50903461033f578160031936011261033f57905490516001600160a01b039091168152602090f35b503461011e578060031936011261011e5761038461090a565b80f35b503461011e578060031936011261011e576103a061090a565b80546001600160a01b03198116825581906001600160a01b03167f8be0079c531659141344cd1fd0a4f28419497f9722a3daafe3b4186f6b6457e08280a380f35b50903461033f578160031936011261033f5751478152602090f35b5082903461011e576020918260031936011261033f579192916001600160a01b0361042561089e565b1682528352818120908251808584549182815201908194845286842090845b818110610495575050508161045a910382610994565b83519485948186019282875251809352850193925b82811061047e57505050500390f35b83518552869550938101939281019260010161046f565b825484529288019260019283019201610444565b509190346101e45760203660031901126101e4578060c0938335815260036020522080549260018201549260028301549060ff600560018060a01b036003870154169486015495015416948151968752602087015285015260608401526080830152151560a0820152f35b509190346101e457826003193601126101e45761052f61090a565b4780156105da57835484918291829182916001600160a01b03165af13d156105d5573d67ffffffffffffffff81116105c257825190610578601f8201601f191660200183610994565b81528460203d92013e5b1561058b578280f35b906020606492519162461bcd60e51b8352820152601160248201527015da5d1a191c985dd85b0819985a5b1959607a1b6044820152fd5b634e487b7160e01b855260418452602485fd5b610582565b815162461bcd60e51b815260208185015260136024820152724e6f204156415820746f20776974686472617760681b6044820152606490fd5b90508383836003193601126102fe5760026001938185541461085d575080845567016345785d8a00009081341061081a578134066107c75781340491865b83811061068d57505050503384526005602052832080549134830180931161067a575055805580f35b634e487b7160e01b855260119052602484fd5b868354018084558551906106a082610962565b808252898760056020948581018881528d8483018a81526060840191338352608085019342855260a08601978289528a8a526003998a8d5220955186555190850155518b8401558583019060018060a01b039051166bffffffffffffffffffffffff60a01b825416179055518c820155019051151560ff80198354169116179055338b52888352878b20805490680100000000000000008210156107b4579061074d918c820181556108dc565b81929154911b9083821b91600019901b1916179055838751928184528301527f9724b007b03edd022b805a7acc9bbc33ce21a84b5c9e360a5f71b367b97db86d873393a360001981146107a1578601610651565b634e487b7160e01b885260118652602488fd5b634e487b7160e01b8d5260418b5260248dfd5b825162461bcd60e51b8152602081860152602760248201527f496e766573746d656e74206d757374206265206d756c7469706c65206f66203060448201526605c624082ac82b60cb1b6064820152608490fd5b825162461bcd60e51b8152602081860152601e60248201527f4d696e696d756d20696e766573746d656e7420697320302e31204156415800006044820152606490fd5b62461bcd60e51b8152602084820152601f60248201527f5265656e7472616e637947756172643a207265656e7472616e742063616c6c006044820152606490fd5b600435906001600160a01b03821682036108b457565b600080fd5b346108b45760003660031901126108b457602060405167016345785d8a00008152f35b80548210156108f45760005260206000200190600090565b634e487b7160e01b600052603260045260246000fd5b6000546001600160a01b0316330361091e57565b606460405162461bcd60e51b815260206004820152602060248201527f4f776e61626c653a2063616c6c6572206973206e6f7420746865206f776e65726044820152fd5b60c0810190811067ffffffffffffffff82111761097e57604052565b634e487b7160e01b600052604160045260246000fd5b90601f8019910116810190811067ffffffffffffffff82111761097e5760405256fea26469706673582212205b9384535810cf778e72fb281c616b59f1cf8fe79da637d744a5fd013c7cb2e964736f6c63430008130033",
  "linkReferences": {},
  "deployedLinkReferences": {}
}