{"contracts/EnhancedStakingPool.sol":{"EnhancedStakingPool":{"abi":[{"inputs":[{"internalType":"address","name":"_usdtToken","type":"address"},{"internalType":"address","name":"_treasuryWallet","type":"address"}],"stateMutability":"nonpayable","type":"constructor"},{"anonymous":false,"inputs":[{"indexed":false,"internalType":"uint256","name":"amount","type":"uint256"}],"name":"AppreciationShareReceived","type":"event"},{"anonymous":false,"inputs":[{"indexed":true,"internalType":"address","name":"owner","type":"address"},{"indexed":true,"internalType":"address","name":"spender","type":"address"},{"indexed":false,"internalType":"uint256","name":"value","type":"uint256"}],"name":"Approval","type":"event"},{"anonymous":false,"inputs":[{"indexed":true,"internalType":"address","name":"user","type":"address"},{"indexed":false,"internalType":"uint256","name":"amount","type":"uint256"},{"indexed":false,"internalType":"uint256","name":"lpTokens","type":"uint256"}],"name":"Deposited","type":"event"},{"anonymous":false,"inputs":[{"indexed":false,"internalType":"uint256","name":"amount","type":"uint256"}],"name":"ManagementFeeCollected","type":"event"},{"anonymous":false,"inputs":[{"indexed":false,"internalType":"uint256","name":"amount","type":"uint256"}],"name":"MortgageInterestReceived","type":"event"},{"anonymous":false,"inputs":[{"indexed":true,"internalType":"address","name":"previousOwner","type":"address"},{"indexed":true,"internalType":"address","name":"newOwner","type":"address"}],"name":"OwnershipTransferred","type":"event"},{"anonymous":false,"inputs":[{"indexed":true,"internalType":"address","name":"user","type":"address"},{"indexed":false,"internalType":"uint256","name":"amount","type":"uint256"}],"name":"RewardsClaimed","type":"event"},{"anonymous":false,"inputs":[{"indexed":true,"internalType":"address","name":"from","type":"address"},{"indexed":true,"internalType":"address","name":"to","type":"address"},{"indexed":false,"internalType":"uint256","name":"value","type":"uint256"}],"name":"Transfer","type":"event"},{"anonymous":false,"inputs":[{"indexed":true,"internalType":"address","name":"user","type":"address"},{"indexed":false,"internalType":"uint256","name":"lpTokens","type":"uint256"},{"indexed":false,"internalType":"uint256","name":"usdtAmount","type":"uint256"}],"name":"Withdrawn","type":"event"},{"inputs":[],"name":"MANAGEMENT_FEE_PERCENT","outputs":[{"internalType":"uint256","name":"","type":"uint256"}],"stateMutability":"view","type":"function"},{"inputs":[],"name":"MINIMUM_DEPOSIT","outputs":[{"internalType":"uint256","name":"","type":"uint256"}],"stateMutability":"view","type":"function"},{"inputs":[],"name":"REWARD_UPDATE_INTERVAL","outputs":[{"internalType":"uint256","name":"","type":"uint256"}],"stateMutability":"view","type":"function"},{"inputs":[{"internalType":"address","name":"owner","type":"address"},{"internalType":"address","name":"spender","type":"address"}],"name":"allowance","outputs":[{"internalType":"uint256","name":"","type":"uint256"}],"stateMutability":"view","type":"function"},{"inputs":[{"internalType":"address","name":"spender","type":"address"},{"internalType":"uint256","name":"amount","type":"uint256"}],"name":"approve","outputs":[{"internalType":"bool","name":"","type":"bool"}],"stateMutability":"nonpayable","type":"function"},{"inputs":[{"internalType":"address","name":"account","type":"address"}],"name":"balanceOf","outputs":[{"internalType":"uint256","name":"","type":"uint256"}],"stateMutability":"view","type":"function"},{"inputs":[],"name":"claimRewards","outputs":[],"stateMutability":"nonpayable","type":"function"},{"inputs":[],"name":"decimals","outputs":[{"internalType":"uint8","name":"","type":"uint8"}],"stateMutability":"view","type":"function"},{"inputs":[{"internalType":"address","name":"spender","type":"address"},{"internalType":"uint256","name":"subtractedValue","type":"uint256"}],"name":"decreaseAllowance","outputs":[{"internalType":"bool","name":"","type":"bool"}],"stateMutability":"nonpayable","type":"function"},{"inputs":[{"internalType":"uint256","name":"amount","type":"uint256"}],"name":"deposit","outputs":[],"stateMutability":"nonpayable","type":"function"},{"inputs":[],"name":"emergencyWithdraw","outputs":[],"stateMutability":"nonpayable","type":"function"},{"inputs":[],"name":"getCurrentAPY","outputs":[{"internalType":"uint256","name":"","type":"uint256"}],"stateMutability":"view","type":"function"},{"inputs":[{"internalType":"address","name":"user","type":"address"}],"name":"getUserTotalValue","outputs":[{"internalType":"uint256","name":"","type":"uint256"}],"stateMutability":"view","type":"function"},{"inputs":[{"internalType":"address","name":"spender","type":"address"},{"internalType":"uint256","name":"addedValue","type":"uint256"}],"name":"increaseAllowance","outputs":[{"internalType":"bool","name":"","type":"bool"}],"stateMutability":"nonpayable","type":"function"},{"inputs":[],"name":"lastUpdateTime","outputs":[{"internalType":"uint256","name":"","type":"uint256"}],"stateMutability":"view","type":"function"},{"inputs":[],"name":"name","outputs":[{"internalType":"string","name":"","type":"string"}],"stateMutability":"view","type":"function"},{"inputs":[],"name":"owner","outputs":[{"internalType":"address","name":"","type":"address"}],"stateMutability":"view","type":"function"},{"inputs":[{"internalType":"address","name":"user","type":"address"}],"name":"pendingRewards","outputs":[{"internalType":"uint256","name":"","type":"uint256"}],"stateMutability":"view","type":"function"},{"inputs":[{"internalType":"uint256","name":"amount","type":"uint256"}],"name":"receiveAppreciationShare","outputs":[],"stateMutability":"nonpayable","type":"function"},{"inputs":[{"internalType":"uint256","name":"amount","type":"uint256"}],"name":"receiveMortgageInterest","outputs":[],"stateMutability":"nonpayable","type":"function"},{"inputs":[],"name":"renounceOwnership","outputs":[],"stateMutability":"nonpayable","type":"function"},{"inputs":[],"name":"rewardsPerShare","outputs":[{"internalType":"uint256","name":"","type":"uint256"}],"stateMutability":"view","type":"function"},{"inputs":[{"internalType":"address","name":"_treasuryWallet","type":"address"}],"name":"setTreasuryWallet","outputs":[],"stateMutability":"nonpayable","type":"function"},{"inputs":[],"name":"symbol","outputs":[{"internalType":"string","name":"","type":"string"}],"stateMutability":"view","type":"function"},{"inputs":[],"name":"totalDeposits","outputs":[{"internalType":"uint256","name":"","type":"uint256"}],"stateMutability":"view","type":"function"},{"inputs":[],"name":"totalRewards","outputs":[{"internalType":"uint256","name":"","type":"uint256"}],"stateMutability":"view","type":"function"},{"inputs":[],"name":"totalSupply","outputs":[{"internalType":"uint256","name":"","type":"uint256"}],"stateMutability":"view","type":"function"},{"inputs":[{"internalType":"address","name":"to","type":"address"},{"internalType":"uint256","name":"amount","type":"uint256"}],"name":"transfer","outputs":[{"internalType":"bool","name":"","type":"bool"}],"stateMutability":"nonpayable","type":"function"},{"inputs":[{"internalType":"address","name":"from","type":"address"},{"internalType":"address","name":"to","type":"address"},{"internalType":"uint256","name":"amount","type":"uint256"}],"name":"transferFrom","outputs":[{"internalType":"bool","name":"","type":"bool"}],"stateMutability":"nonpayable","type":"function"},{"inputs":[{"internalType":"address","name":"newOwner","type":"address"}],"name":"transferOwnership","outputs":[],"stateMutability":"nonpayable","type":"function"},{"inputs":[],"name":"treasuryWallet","outputs":[{"internalType":"address","name":"","type":"address"}],"stateMutability":"view","type":"function"},{"inputs":[],"name":"updateRewards","outputs":[],"stateMutability":"nonpayable","type":"function"},{"inputs":[],"name":"usdtToken","outputs":[{"internalType":"contract IERC20","name":"","type":"address"}],"stateMutability":"view","type":"function"},{"inputs":[{"internalType":"address","name":"","type":"address"}],"name":"userDeposits","outputs":[{"internalType":"uint256","name":"","type":"uint256"}],"stateMutability":"view","type":"function"},{"inputs":[{"internalType":"address","name":"","type":"address"}],"name":"userRewardDebt","outputs":[{"internalType":"uint256","name":"","type":"uint256"}],"stateMutability":"view","type":"function"},{"inputs":[{"internalType":"uint256","name":"lpTokens","type":"uint256"}],"name":"withdraw","outputs":[],"stateMutability":"nonpayable","type":"function"}],"evm":{"bytecode":{"linkReferences":{},"object":"6080346200046157601f196001600160401b03601f6200223038819003828101851686019190848311878410176200035e57808792604094855283398101031262000461576200004f8462000486565b906200005f602080960162000486565b926200006a62000466565b90601482527f416e6369656e74205374616b696e6720506f6f6c000000000000000000000000878301526200009e62000466565b926003908185526204153560ec1b8986015283518381116200035e5782546001958682811c9216801562000456575b8c83101462000440578b8285859411620003e7575b50508b90848311600114620003805760009262000374575b505060001982851b1c191690851b1782555b84519283116200035e5760049485548581811c9116801562000353575b8b8210146200033e57828111620002f3575b50899184116001146200028a57839495969798506000936200027e575b505082841b92600019911b1c19161782555b60058054336001600160a01b03198083168217909355604051929692956001600160a01b039485939192909184167f8be0079c531659141344cd1fd0a4f28419497f9722a3daafe3b4186f6b6457e0600080a3600655169384156200023d575016938415620001fa575050816007541617600755600854161760085542600e55604051611d9490816200049c8239f35b60405162461bcd60e51b815291820152601860248201527f496e76616c696420747265617375727920616464726573730000000000000000604482015260649150fd5b62461bcd60e51b8152838101879052601460248201527f496e76616c6964205553445420616464726573730000000000000000000000006044820152606490fd5b01519150388062000158565b91909783169785600052896000209260005b8b8b8210620002de57505084869798999a10620002c3575b50505050811b0182556200016a565b01519060f884600019921b161c1916905538808080620002b4565b8284015186559487019492830192016200029c565b866000528a6000208380870160051c8201928d881062000334575b0160051c019086905b828110620003275750506200013b565b6000815501869062000317565b925081926200030e565b602287634e487b7160e01b6000525260246000fd5b90607f169062000129565b634e487b7160e01b600052604160045260246000fd5b015190503880620000fa565b908c918c8995168760005283600020936000905b828210620003cd5750508411620003b4575b505050811b0182556200010c565b015160001983871b60f8161c19169055388080620003a6565b8484015186558b9790950194938401939081019062000394565b909192508560005284826000209181860160051c830193861062000436575b918991869594930160051c01915b8281106200042657508d9150620000e2565b6000815585945089910162000414565b9250819262000406565b634e487b7160e01b600052602260045260246000fd5b91607f1691620000cd565b600080fd5b60408051919082016001600160401b038111838210176200035e57604052565b51906001600160a01b0382168203620004615756fe6080604081815260048036101561001557600080fd5b600092833560e01c90816306fdde031461162457508063095ea7b3146115fa5780630ba36dcd146115c25780630e15561a146115a357806318160ddd146115845780632270797b1461156657806323b872dd1461149c5780632e1a7d4d14611207578063313ce567146111eb57806331d7a262146111c5578063372500ab1461101f5780633950935114610fcf5780633e158b0c14610fb35780634626402b14610f8a5780634bf6f9e714610f5257806370a0823114610f1b578063715018a614610ebe5780637d88209714610e9f5780638da5cb5b14610e7657806395d89b4114610d72578063962ca49614610d55578063a457c2d714610cb1578063a8602fea14610c69578063a9059cbb14610c38578063a98ad46c14610c0f578063aedc780814610bf3578063af3f5e2214610bae578063b62f0e8314610a21578063b6b55f2514610671578063c7e1d0b114610652578063c8f33c9114610633578063cf60c76e14610451578063db2e21bc146102e9578063dd62ed3e146102a0578063f19451d81461027d5763f2fde38b146101af57600080fd5b34610279576020366003190112610279576101c861175f565b906101d1611790565b6001600160a01b03918216928315610227575050600554826bffffffffffffffffffffffff60a01b821617600555167f8be0079c531659141344cd1fd0a4f28419497f9722a3daafe3b4186f6b6457e08380a380f35b906020608492519162461bcd60e51b8352820152602660248201527f4f776e61626c653a206e6577206f776e657220697320746865207a65726f206160448201526564647265737360d01b6064820152fd5b8280fd5b50503461029c578160031936011261029c5760209051633b9aca008152f35b5080fd5b50503461029c578060031936011261029c57806020926102be61175f565b6102c661177a565b6001600160a01b0391821683526001865283832091168252845220549051908152f35b509034610279578260031936011261027957610303611790565b60075481516370a0823160e01b81523084820152602092916001600160a01b03908116918481602481865afa908115610447578791610416575b5080610347578680f35b600554845163a9059cbb60e01b815292166001600160a01b031686830190815260208101919091529091849183919082908990829060400103925af190811561040c5785916103df575b501561039e578080808680f35b5162461bcd60e51b815291820152601b60248201527f456d657267656e6379207769746864726177616c206661696c65640000000000604482015260649150fd5b6103ff9150833d8511610405575b6103f781836117e8565b810190611ab3565b38610391565b503d6103ed565b82513d87823e3d90fd5b90508481813d8311610440575b61042d81836117e8565b8101031261043c57513861033d565b8680fd5b503d610423565b84513d89823e3d90fd5b5091903461029c57602090816003193601126102795783359060018060a01b0361048081600554163314611bf0565b821561048c8115611b97565b610494611c88565b8360011b90848204600214171561062057606490046104b38185611be3565b91858261057b575b50505060025480610503575b507fb8bdc6af8862e85b4f3a41a8cb5db82b61516a72de290ee7c9659990fb33f27c9495506104f890600c54611820565b600c5551908152a180f35b600d5490670de0b6b3a7640000808402908482041484151715610568577fb8bdc6af8862e85b4f3a41a8cb5db82b61516a72de290ee7c9659990fb33f27c9798509161055661055c926104f89594611b77565b90611820565b600d55908695506104c7565b634e487b7160e01b885260118952602488fd5b600754600854865163a9059cbb60e01b81529084166001600160a01b03168b82019081526020810186905290938492169082908b90829060400103925af190811561044757916105f587927f147fac6415bee3006ba6002a9a6636f492d311690c9e52a2421afc6392e0fb95948a91610603575b50611c3c565b8451908152a13880856104bb565b61061a9150843d8611610405576103f781836117e8565b386105ef565b634e487b7160e01b865260118752602486fd5b50503461029c578160031936011261029c57602090600e549051908152f35b50503461029c578160031936011261029c57602090600d549051908152f35b5090346102795760209182600319360112610a1d57803592610691611b0e565b633b9aca0084106109dd5760075483516370a0823160e01b81523381850152602493916001600160a01b03919082169084818781855afa9081156109d3579088918a9161099e575b501061095c5783604491875192838092636eb1769f60e11b82523388830152308a8301525afa90811561095257908791899161091d575b50106108dc57828791610721611c88565b6007541660648751809481936323b872dd60e01b83523388840152308a8401528b60448401525af19081156108d257906107629188916108b5575b50611acb565b60025480610899575084925b338752600983526107828686892054611820565b338852600984528588205561079986600b54611820565b600b55338752600a83526107c685882054670de0b6b3a76400006107bf600d5488611b64565b0490611820565b338852600a8452858820553315610859575050907f73a19dd210f1a7f902193214c0ee91dd35ee5b4d920cba8d519eca65a7b488ca929161080982600254611820565b6002553386528581528286208281540190558251828152867fddf252ad1be2c89b69c2b068fc378daa952ba7f163c4a11628f55a4df523b3ef833393a382519485528401523392a2600160065580f35b601f9060649386519362461bcd60e51b85528401528201527f45524332303a206d696e7420746f20746865207a65726f2061646472657373006044820152fd5b6108a66108af9187611b64565b600b5490611b77565b9261076e565b6108cc9150843d8611610405576103f781836117e8565b3861075c565b85513d89823e3d90fd5b50925162461bcd60e51b815292830152601b908201527f496e73756666696369656e74205553445420616c6c6f77616e636500000000006044820152606490fd5b809250858092503d831161094b575b61093681836117e8565b810103126109475786905138610710565b8780fd5b503d61092c565b86513d8a823e3d90fd5b855162461bcd60e51b81528084018590526019818701527f496e73756666696369656e7420555344542062616c616e6365000000000000006044820152606490fd5b809250868092503d83116109cc575b6109b781836117e8565b810103126109c857879051386106d9565b8880fd5b503d6109ad565b87513d8b823e3d90fd5b606492519162461bcd60e51b8352820152601e60248201527f4d696e696d756d206465706f7369742069732024312c303030205553445400006044820152fd5b8380fd5b5091903461029c57602090816003193601126102795783359060018060a01b03610a5081600554163314611bf0565b8215610a5c8115611b97565b610a64611c88565b8360011b9084820460021417156106205760649004610a838185611be3565b918582610b27575b50505060025480610ac8575b507ffb990cadac9328187245c67d41756e8328139f1e9f6cf671e2aff827b4b95fba9495506104f890600c54611820565b600d5490670de0b6b3a7640000808402908482041484151715610568577ffb990cadac9328187245c67d41756e8328139f1e9f6cf671e2aff827b4b95fba97985091610556610b1b926104f89594611b77565b600d5590869550610a97565b600754600854865163a9059cbb60e01b81529084166001600160a01b03168b82019081526020810186905290938492169082908b90829060400103925af19081156104475791610ba087927f147fac6415bee3006ba6002a9a6636f492d311690c9e52a2421afc6392e0fb95948a916106035750611c3c565b8451908152a1388085610a8b565b50503461029c57602036600319011261029c57610bec60209261055683610bd361175f565b6001600160a01b03811684526009875292205491611ca7565b9051908152f35b50503461029c578160031936011261029c576020905160028152f35b50503461029c578160031936011261029c5760075490516001600160a01b039091168152602090f35b50503461029c578060031936011261029c57602090610c62610c5861175f565b6024359033611843565b5160018152f35b8334610cae576020366003190112610cae57610c8361175f565b610c8b611790565b60018060a01b03166bffffffffffffffffffffffff60a01b600854161760085580f35b80fd5b508234610cae5782600319360112610cae57610ccb61175f565b918360243592338152600160205281812060018060a01b0386168252602052205490828210610d0457602085610c6285850387336119b1565b608490602086519162461bcd60e51b8352820152602560248201527f45524332303a2064656372656173656420616c6c6f77616e63652062656c6f77604482015264207a65726f60d81b6064820152fd5b50503461029c578160031936011261029c57602090610bec611d16565b5091903461029c578160031936011261029c57805191809380549160019083821c92828516948515610e6c575b6020958686108114610e5957858952908115610e355750600114610ddd575b610dd98787610dcf828c03836117e8565b5191829182611716565b0390f35b81529295507f8a35acfbc15ff81a39ae7d344fd709f28e8600b4aa8c65c6b64bfe7fe36bd19b5b828410610e225750505082610dd994610dcf92820101943880610dbe565b8054868501880152928601928101610e04565b60ff19168887015250505050151560051b8301019250610dcf82610dd93880610dbe565b634e487b7160e01b845260228352602484fd5b93607f1693610d9f565b50503461029c578160031936011261029c5760055490516001600160a01b039091168152602090f35b50503461029c578160031936011261029c57602090600b549051908152f35b8334610cae5780600319360112610cae57610ed7611790565b600580546001600160a01b0319811690915581906001600160a01b03167f8be0079c531659141344cd1fd0a4f28419497f9722a3daafe3b4186f6b6457e08280a380f35b50503461029c57602036600319011261029c5760209181906001600160a01b03610f4361175f565b16815280845220549051908152f35b50503461029c57602036600319011261029c5760209181906001600160a01b03610f7a61175f565b168152600a845220549051908152f35b50503461029c578160031936011261029c5760085490516001600160a01b039091168152602090f35b8334610cae5780600319360112610cae57610fcc611c88565b80f35b50503461029c578060031936011261029c57610c62602092611018610ff261175f565b338352600186528483206001600160a01b03821684528652918490205460243590611820565b90336119b1565b5034610279578260031936011261027957611038611b0e565b611040611c88565b61104933611ca7565b91821561118c57338452602091600a835281852054670de0b6b3a76400008086029086820403611179579061055661108b923389528887528589205490611b77565b33808752600a855283872091909155600754835163a9059cbb60e01b81528381019283526020830187905291859183918290036040019082908a906001600160a01b03165af190811561116f578691611152575b50156111185750907ffc30cddea38e2bf4d6ea7d3f9ed3b6ad7f176419f4963bd81318067a4aee73fe91519283523392a2600160065580f35b82606492519162461bcd60e51b8352820152601660248201527514995dd85c99081d1c985b9cd9995c8819985a5b195960521b6044820152fd5b6111699150843d8611610405576103f781836117e8565b386110df565b83513d88823e3d90fd5b634e487b7160e01b875260118352602487fd5b906020606492519162461bcd60e51b835282015260136024820152724e6f207265776172647320746f20636c61696d60681b6044820152fd5b50503461029c57602036600319011261029c57602090610bec6111e661175f565b611ca7565b50503461029c578160031936011261029c576020905160128152f35b5091903461029c576020908160031936011261027957833591611228611b0e565b611233831515611b97565b3384528381528282852054106114615761124b611c88565b61126361125a600b5485611b64565b60025490611b77565b90338552600981526112788284872054611be3565b338652600982528386205561128f82600b54611be3565b600b55338552600a81526112bc83862054670de0b6b3a76400006112b5600d5488611b64565b0490611be3565b338652600a825283862055331561141557338552848152828520548481106113c7578261135f9697868493338b528a855203868a205586600254036002558886518881527fddf252ad1be2c89b69c2b068fc378daa952ba7f163c4a11628f55a4df523b3ef853392a3600754865163a9059cbb60e01b8152339281019283526020830193909352919788926001600160a01b03169183918b918391604090910190565b03925af194851561116f577f92ccf450a286a957af52509bc1c9939d1a6a481783e142e41e2499f0bb66ebc6949561139d9188916113b05750611acb565b82519485528401523392a2600160065580f35b6108cc9150833d8511610405576103f781836117e8565b835162461bcd60e51b8152808801839052602260248201527f45524332303a206275726e20616d6f756e7420657863656564732062616c616e604482015261636560f01b6064820152608490fd5b8560849184519162461bcd60e51b8352820152602160248201527f45524332303a206275726e2066726f6d20746865207a65726f206164647265736044820152607360f81b6064820152fd5b8490606492519162461bcd60e51b83528201526016602482015275496e73756666696369656e74204c5020746f6b656e7360501b6044820152fd5b5082903461029c57606036600319011261029c576114b861175f565b6114c061177a565b91846044359460018060a01b0384168152600160205281812033825260205220549060001982036114fa575b602086610c62878787611843565b848210611523575091839161151860209695610c62950333836119b1565b9193948193506114ec565b606490602087519162461bcd60e51b8352820152601d60248201527f45524332303a20696e73756666696369656e7420616c6c6f77616e63650000006044820152fd5b50503461029c578160031936011261029c5760209051620151808152f35b50503461029c578160031936011261029c576020906002549051908152f35b50503461029c578160031936011261029c57602090600c549051908152f35b50503461029c57602036600319011261029c5760209181906001600160a01b036115ea61175f565b1681526009845220549051908152f35b50503461029c578060031936011261029c57602090610c6261161a61175f565b60243590336119b1565b9291905034610a1d5783600319360112610a1d57600354600181811c918690828116801561170c575b60209586861082146116f957508488529081156116d7575060011461167e575b610dd98686610dcf828b03836117e8565b929550600383527fc2575a0e9e593c00f959f8c92f12db2869c3395a3b0502d05e2516446f71f85b5b8284106116c45750505082610dd994610dcf92820101943861166d565b80548685018801529286019281016116a7565b60ff191687860152505050151560051b8301019250610dcf82610dd93861166d565b634e487b7160e01b845260229052602483fd5b93607f169361164d565b6020808252825181830181905290939260005b82811061174b57505060409293506000838284010152601f8019910116010190565b818101860151848201604001528501611729565b600435906001600160a01b038216820361177557565b600080fd5b602435906001600160a01b038216820361177557565b6005546001600160a01b031633036117a457565b606460405162461bcd60e51b815260206004820152602060248201527f4f776e61626c653a2063616c6c6572206973206e6f7420746865206f776e65726044820152fd5b90601f8019910116810190811067ffffffffffffffff82111761180a57604052565b634e487b7160e01b600052604160045260246000fd5b9190820180921161182d57565b634e487b7160e01b600052601160045260246000fd5b6001600160a01b0390811691821561195e571691821561190d576000828152806020526040812054918083106118b957604082827fddf252ad1be2c89b69c2b068fc378daa952ba7f163c4a11628f55a4df523b3ef958760209652828652038282205586815220818154019055604051908152a3565b60405162461bcd60e51b815260206004820152602660248201527f45524332303a207472616e7366657220616d6f756e7420657863656564732062604482015265616c616e636560d01b6064820152608490fd5b60405162461bcd60e51b815260206004820152602360248201527f45524332303a207472616e7366657220746f20746865207a65726f206164647260448201526265737360e81b6064820152608490fd5b60405162461bcd60e51b815260206004820152602560248201527f45524332303a207472616e736665722066726f6d20746865207a65726f206164604482015264647265737360d81b6064820152608490fd5b6001600160a01b03908116918215611a625716918215611a125760207f8c5be1e5ebec7d5bd14f71427d1e84f3dd0314c0f7b2291e5b200ac8c7c3b925918360005260018252604060002085600052825280604060002055604051908152a3565b60405162461bcd60e51b815260206004820152602260248201527f45524332303a20617070726f766520746f20746865207a65726f206164647265604482015261737360f01b6064820152608490fd5b60405162461bcd60e51b8152602060048201526024808201527f45524332303a20617070726f76652066726f6d20746865207a65726f206164646044820152637265737360e01b6064820152608490fd5b90816020910312611775575180151581036117755790565b15611ad257565b60405162461bcd60e51b81526020600482015260146024820152731554d115081d1c985b9cd9995c8819985a5b195960621b6044820152606490fd5b600260065414611b1f576002600655565b60405162461bcd60e51b815260206004820152601f60248201527f5265656e7472616e637947756172643a207265656e7472616e742063616c6c006044820152606490fd5b8181029291811591840414171561182d57565b8115611b81570490565b634e487b7160e01b600052601260045260246000fd5b15611b9e57565b60405162461bcd60e51b815260206004820152601d60248201527f416d6f756e74206d7573742062652067726561746572207468616e20300000006044820152606490fd5b9190820391821161182d57565b15611bf757565b60405162461bcd60e51b815260206004820152601860248201527f4f6e6c79206f776e65722063616e2063616c6c207468697300000000000000006044820152606490fd5b15611c4357565b60405162461bcd60e51b815260206004820152601e60248201527f4d616e6167656d656e7420666565207472616e73666572206661696c656400006044820152606490fd5b600e5462015180810180911161182d57421015611ca157565b42600e55565b6001600160a01b03166000818152602081905260408120549091908015611d1157611cfc92670de0b6b3a7640000611ceb604093600d5490600254611cff57611b64565b04928152600a602052205490611be3565b90565b611d0b600e5442611be3565b50611b64565b505090565b600b548015611d5857600c5461016d9081810291818304149015171561182d57601e9004906127109182810292818404149015171561182d57611cfc91611b77565b5060009056fea26469706673582212205cd5ba665eaa02f52f8a9d558abdd0ed87b0d2542481cdae591dd9096e604e2364736f6c63430008130033","opcodes":"PUSH1 0x80 CALLVALUE PUSH3 0x461 JUMPI PUSH1 0x1F NOT PUSH1 0x1 PUSH1 0x1 PUSH1 0x40 SHL SUB PUSH1 0x1F PUSH3 0x2230 CODESIZE DUP2 SWAP1 SUB DUP3 DUP2 ADD DUP6 AND DUP7 ADD SWAP2 SWAP1 DUP5 DUP4 GT DUP8 DUP5 LT OR PUSH3 0x35E JUMPI DUP1 DUP8 SWAP3 PUSH1 0x40 SWAP5 DUP6 MSTORE DUP4 CODECOPY DUP2 ADD SUB SLT PUSH3 0x461 JUMPI PUSH3 0x4F DUP5 PUSH3 0x486 JUMP JUMPDEST SWAP1 PUSH3 0x5F PUSH1 0x20 DUP1 SWAP7 ADD PUSH3 0x486 JUMP JUMPDEST SWAP3 PUSH3 0x6A PUSH3 0x466 JUMP JUMPDEST SWAP1 PUSH1 0x14 DUP3 MSTORE PUSH32 0x416E6369656E74205374616B696E6720506F6F6C000000000000000000000000 DUP8 DUP4 ADD MSTORE PUSH3 0x9E PUSH3 0x466 JUMP JUMPDEST SWAP3 PUSH1 0x3 SWAP1 DUP2 DUP6 MSTORE PUSH3 0x41535 PUSH1 0xEC SHL DUP10 DUP7 ADD MSTORE DUP4 MLOAD DUP4 DUP2 GT PUSH3 0x35E JUMPI DUP3 SLOAD PUSH1 0x1 SWAP6 DUP7 DUP3 DUP2 SHR SWAP3 AND DUP1 ISZERO PUSH3 0x456 JUMPI JUMPDEST DUP13 DUP4 LT EQ PUSH3 0x440 JUMPI DUP12 DUP3 DUP6 DUP6 SWAP5 GT PUSH3 0x3E7 JUMPI JUMPDEST POP POP DUP12 SWAP1 DUP5 DUP4 GT PUSH1 0x1 EQ PUSH3 0x380 JUMPI PUSH1 0x0 SWAP3 PUSH3 0x374 JUMPI JUMPDEST POP POP PUSH1 0x0 NOT DUP3 DUP6 SHL SHR NOT AND SWAP1 DUP6 SHL OR DUP3 SSTORE JUMPDEST DUP5 MLOAD SWAP3 DUP4 GT PUSH3 0x35E JUMPI PUSH1 0x4 SWAP5 DUP6 SLOAD DUP6 DUP2 DUP2 SHR SWAP2 AND DUP1 ISZERO PUSH3 0x353 JUMPI JUMPDEST DUP12 DUP3 LT EQ PUSH3 0x33E JUMPI DUP3 DUP2 GT PUSH3 0x2F3 JUMPI JUMPDEST POP DUP10 SWAP2 DUP5 GT PUSH1 0x1 EQ PUSH3 0x28A JUMPI DUP4 SWAP5 SWAP6 SWAP7 SWAP8 SWAP9 POP PUSH1 0x0 SWAP4 PUSH3 0x27E JUMPI JUMPDEST POP POP DUP3 DUP5 SHL SWAP3 PUSH1 0x0 NOT SWAP2 SHL SHR NOT AND OR DUP3 SSTORE JUMPDEST PUSH1 0x5 DUP1 SLOAD CALLER PUSH1 0x1 PUSH1 0x1 PUSH1 0xA0 SHL SUB NOT DUP1 DUP4 AND DUP3 OR SWAP1 SWAP4 SSTORE PUSH1 0x40 MLOAD SWAP3 SWAP7 SWAP3 SWAP6 PUSH1 0x1 PUSH1 0x1 PUSH1 0xA0 SHL SUB SWAP5 DUP6 SWAP4 SWAP2 SWAP3 SWAP1 SWAP2 DUP5 AND PUSH32 0x8BE0079C531659141344CD1FD0A4F28419497F9722A3DAAFE3B4186F6B6457E0 PUSH1 0x0 DUP1 LOG3 PUSH1 0x6 SSTORE AND SWAP4 DUP5 ISZERO PUSH3 0x23D JUMPI POP AND SWAP4 DUP5 ISZERO PUSH3 0x1FA JUMPI POP POP DUP2 PUSH1 0x7 SLOAD AND OR PUSH1 0x7 SSTORE PUSH1 0x8 SLOAD AND OR PUSH1 0x8 SSTORE TIMESTAMP PUSH1 0xE SSTORE PUSH1 0x40 MLOAD PUSH2 0x1D94 SWAP1 DUP2 PUSH3 0x49C DUP3 CODECOPY RETURN JUMPDEST PUSH1 0x40 MLOAD PUSH3 0x461BCD PUSH1 0xE5 SHL DUP2 MSTORE SWAP2 DUP3 ADD MSTORE PUSH1 0x18 PUSH1 0x24 DUP3 ADD MSTORE PUSH32 0x496E76616C696420747265617375727920616464726573730000000000000000 PUSH1 0x44 DUP3 ADD MSTORE PUSH1 0x64 SWAP2 POP REVERT JUMPDEST PUSH3 0x461BCD PUSH1 0xE5 SHL DUP2 MSTORE DUP4 DUP2 ADD DUP8 SWAP1 MSTORE PUSH1 0x14 PUSH1 0x24 DUP3 ADD MSTORE PUSH32 0x496E76616C696420555344542061646472657373000000000000000000000000 PUSH1 0x44 DUP3 ADD MSTORE PUSH1 0x64 SWAP1 REVERT JUMPDEST ADD MLOAD SWAP2 POP CODESIZE DUP1 PUSH3 0x158 JUMP JUMPDEST SWAP2 SWAP1 SWAP8 DUP4 AND SWAP8 DUP6 PUSH1 0x0 MSTORE DUP10 PUSH1 0x0 KECCAK256 SWAP3 PUSH1 0x0 JUMPDEST DUP12 DUP12 DUP3 LT PUSH3 0x2DE JUMPI POP POP DUP5 DUP7 SWAP8 SWAP9 SWAP10 SWAP11 LT PUSH3 0x2C3 JUMPI JUMPDEST POP POP POP POP DUP2 SHL ADD DUP3 SSTORE PUSH3 0x16A JUMP JUMPDEST ADD MLOAD SWAP1 PUSH1 0xF8 DUP5 PUSH1 0x0 NOT SWAP3 SHL AND SHR NOT AND SWAP1 SSTORE CODESIZE DUP1 DUP1 DUP1 PUSH3 0x2B4 JUMP JUMPDEST DUP3 DUP5 ADD MLOAD DUP7 SSTORE SWAP5 DUP8 ADD SWAP5 SWAP3 DUP4 ADD SWAP3 ADD PUSH3 0x29C JUMP JUMPDEST DUP7 PUSH1 0x0 MSTORE DUP11 PUSH1 0x0 KECCAK256 DUP4 DUP1 DUP8 ADD PUSH1 0x5 SHR DUP3 ADD SWAP3 DUP14 DUP9 LT PUSH3 0x334 JUMPI JUMPDEST ADD PUSH1 0x5 SHR ADD SWAP1 DUP7 SWAP1 JUMPDEST DUP3 DUP2 LT PUSH3 0x327 JUMPI POP POP PUSH3 0x13B JUMP JUMPDEST PUSH1 0x0 DUP2 SSTORE ADD DUP7 SWAP1 PUSH3 0x317 JUMP JUMPDEST SWAP3 POP DUP2 SWAP3 PUSH3 0x30E JUMP JUMPDEST PUSH1 0x22 DUP8 PUSH4 0x4E487B71 PUSH1 0xE0 SHL PUSH1 0x0 MSTORE MSTORE PUSH1 0x24 PUSH1 0x0 REVERT JUMPDEST SWAP1 PUSH1 0x7F AND SWAP1 PUSH3 0x129 JUMP JUMPDEST PUSH4 0x4E487B71 PUSH1 0xE0 SHL PUSH1 0x0 MSTORE PUSH1 0x41 PUSH1 0x4 MSTORE PUSH1 0x24 PUSH1 0x0 REVERT JUMPDEST ADD MLOAD SWAP1 POP CODESIZE DUP1 PUSH3 0xFA JUMP JUMPDEST SWAP1 DUP13 SWAP2 DUP13 DUP10 SWAP6 AND DUP8 PUSH1 0x0 MSTORE DUP4 PUSH1 0x0 KECCAK256 SWAP4 PUSH1 0x0 SWAP1 JUMPDEST DUP3 DUP3 LT PUSH3 0x3CD JUMPI POP POP DUP5 GT PUSH3 0x3B4 JUMPI JUMPDEST POP POP POP DUP2 SHL ADD DUP3 SSTORE PUSH3 0x10C JUMP JUMPDEST ADD MLOAD PUSH1 0x0 NOT DUP4 DUP8 SHL PUSH1 0xF8 AND SHR NOT AND SWAP1 SSTORE CODESIZE DUP1 DUP1 PUSH3 0x3A6 JUMP JUMPDEST DUP5 DUP5 ADD MLOAD DUP7 SSTORE DUP12 SWAP8 SWAP1 SWAP6 ADD SWAP5 SWAP4 DUP5 ADD SWAP4 SWAP1 DUP2 ADD SWAP1 PUSH3 0x394 JUMP JUMPDEST SWAP1 SWAP2 SWAP3 POP DUP6 PUSH1 0x0 MSTORE DUP5 DUP3 PUSH1 0x0 KECCAK256 SWAP2 DUP2 DUP7 ADD PUSH1 0x5 SHR DUP4 ADD SWAP4 DUP7 LT PUSH3 0x436 JUMPI JUMPDEST SWAP2 DUP10 SWAP2 DUP7 SWAP6 SWAP5 SWAP4 ADD PUSH1 0x5 SHR ADD SWAP2 JUMPDEST DUP3 DUP2 LT PUSH3 0x426 JUMPI POP DUP14 SWAP2 POP PUSH3 0xE2 JUMP JUMPDEST PUSH1 0x0 DUP2 SSTORE DUP6 SWAP5 POP DUP10 SWAP2 ADD PUSH3 0x414 JUMP JUMPDEST SWAP3 POP DUP2 SWAP3 PUSH3 0x406 JUMP JUMPDEST PUSH4 0x4E487B71 PUSH1 0xE0 SHL PUSH1 0x0 MSTORE PUSH1 0x22 PUSH1 0x4 MSTORE PUSH1 0x24 PUSH1 0x0 REVERT JUMPDEST SWAP2 PUSH1 0x7F AND SWAP2 PUSH3 0xCD JUMP JUMPDEST PUSH1 0x0 DUP1 REVERT JUMPDEST PUSH1 0x40 DUP1 MLOAD SWAP2 SWAP1 DUP3 ADD PUSH1 0x1 PUSH1 0x1 PUSH1 0x40 SHL SUB DUP2 GT DUP4 DUP3 LT OR PUSH3 0x35E JUMPI PUSH1 0x40 MSTORE JUMP JUMPDEST MLOAD SWAP1 PUSH1 0x1 PUSH1 0x1 PUSH1 0xA0 SHL SUB DUP3 AND DUP3 SUB PUSH3 0x461 JUMPI JUMP INVALID PUSH1 0x80 PUSH1 0x40 DUP2 DUP2 MSTORE PUSH1 0x4 DUP1 CALLDATASIZE LT ISZERO PUSH2 0x15 JUMPI PUSH1 0x0 DUP1 REVERT JUMPDEST PUSH1 0x0 SWAP3 DUP4 CALLDATALOAD PUSH1 0xE0 SHR SWAP1 DUP2 PUSH4 0x6FDDE03 EQ PUSH2 0x1624 JUMPI POP DUP1 PUSH4 0x95EA7B3 EQ PUSH2 0x15FA JUMPI DUP1 PUSH4 0xBA36DCD EQ PUSH2 0x15C2 JUMPI DUP1 PUSH4 0xE15561A EQ PUSH2 0x15A3 JUMPI DUP1 PUSH4 0x18160DDD EQ PUSH2 0x1584 JUMPI DUP1 PUSH4 0x2270797B EQ PUSH2 0x1566 JUMPI DUP1 PUSH4 0x23B872DD EQ PUSH2 0x149C JUMPI DUP1 PUSH4 0x2E1A7D4D EQ PUSH2 0x1207 JUMPI DUP1 PUSH4 0x313CE567 EQ PUSH2 0x11EB JUMPI DUP1 PUSH4 0x31D7A262 EQ PUSH2 0x11C5 JUMPI DUP1 PUSH4 0x372500AB EQ PUSH2 0x101F JUMPI DUP1 PUSH4 0x39509351 EQ PUSH2 0xFCF JUMPI DUP1 PUSH4 0x3E158B0C EQ PUSH2 0xFB3 JUMPI DUP1 PUSH4 0x4626402B EQ PUSH2 0xF8A JUMPI DUP1 PUSH4 0x4BF6F9E7 EQ PUSH2 0xF52 JUMPI DUP1 PUSH4 0x70A08231 EQ PUSH2 0xF1B JUMPI DUP1 PUSH4 0x715018A6 EQ PUSH2 0xEBE JUMPI DUP1 PUSH4 0x7D882097 EQ PUSH2 0xE9F JUMPI DUP1 PUSH4 0x8DA5CB5B EQ PUSH2 0xE76 JUMPI DUP1 PUSH4 0x95D89B41 EQ PUSH2 0xD72 JUMPI DUP1 PUSH4 0x962CA496 EQ PUSH2 0xD55 JUMPI DUP1 PUSH4 0xA457C2D7 EQ PUSH2 0xCB1 JUMPI DUP1 PUSH4 0xA8602FEA EQ PUSH2 0xC69 JUMPI DUP1 PUSH4 0xA9059CBB EQ PUSH2 0xC38 JUMPI DUP1 PUSH4 0xA98AD46C EQ PUSH2 0xC0F JUMPI DUP1 PUSH4 0xAEDC7808 EQ PUSH2 0xBF3 JUMPI DUP1 PUSH4 0xAF3F5E22 EQ PUSH2 0xBAE JUMPI DUP1 PUSH4 0xB62F0E83 EQ PUSH2 0xA21 JUMPI DUP1 PUSH4 0xB6B55F25 EQ PUSH2 0x671 JUMPI DUP1 PUSH4 0xC7E1D0B1 EQ PUSH2 0x652 JUMPI DUP1 PUSH4 0xC8F33C91 EQ PUSH2 0x633 JUMPI DUP1 PUSH4 0xCF60C76E EQ PUSH2 0x451 JUMPI DUP1 PUSH4 0xDB2E21BC EQ PUSH2 0x2E9 JUMPI DUP1 PUSH4 0xDD62ED3E EQ PUSH2 0x2A0 JUMPI DUP1 PUSH4 0xF19451D8 EQ PUSH2 0x27D JUMPI PUSH4 0xF2FDE38B EQ PUSH2 0x1AF JUMPI PUSH1 0x0 DUP1 REVERT JUMPDEST CALLVALUE PUSH2 0x279 JUMPI PUSH1 0x20 CALLDATASIZE PUSH1 0x3 NOT ADD SLT PUSH2 0x279 JUMPI PUSH2 0x1C8 PUSH2 0x175F JUMP JUMPDEST SWAP1 PUSH2 0x1D1 PUSH2 0x1790 JUMP JUMPDEST PUSH1 0x1 PUSH1 0x1 PUSH1 0xA0 SHL SUB SWAP2 DUP3 AND SWAP3 DUP4 ISZERO PUSH2 0x227 JUMPI POP POP PUSH1 0x5 SLOAD DUP3 PUSH12 0xFFFFFFFFFFFFFFFFFFFFFFFF PUSH1 0xA0 SHL DUP3 AND OR PUSH1 0x5 SSTORE AND PUSH32 0x8BE0079C531659141344CD1FD0A4F28419497F9722A3DAAFE3B4186F6B6457E0 DUP4 DUP1 LOG3 DUP1 RETURN JUMPDEST SWAP1 PUSH1 0x20 PUSH1 0x84 SWAP3 MLOAD SWAP2 PUSH3 0x461BCD PUSH1 0xE5 SHL DUP4 MSTORE DUP3 ADD MSTORE PUSH1 0x26 PUSH1 0x24 DUP3 ADD MSTORE PUSH32 0x4F776E61626C653A206E6577206F776E657220697320746865207A65726F2061 PUSH1 0x44 DUP3 ADD MSTORE PUSH6 0x646472657373 PUSH1 0xD0 SHL PUSH1 0x64 DUP3 ADD MSTORE REVERT JUMPDEST DUP3 DUP1 REVERT JUMPDEST POP POP CALLVALUE PUSH2 0x29C JUMPI DUP2 PUSH1 0x3 NOT CALLDATASIZE ADD SLT PUSH2 0x29C JUMPI PUSH1 0x20 SWAP1 MLOAD PUSH4 0x3B9ACA00 DUP2 MSTORE RETURN JUMPDEST POP DUP1 REVERT JUMPDEST POP POP CALLVALUE PUSH2 0x29C JUMPI DUP1 PUSH1 0x3 NOT CALLDATASIZE ADD SLT PUSH2 0x29C JUMPI DUP1 PUSH1 0x20 SWAP3 PUSH2 0x2BE PUSH2 0x175F JUMP JUMPDEST PUSH2 0x2C6 PUSH2 0x177A JUMP JUMPDEST PUSH1 0x1 PUSH1 0x1 PUSH1 0xA0 SHL SUB SWAP2 DUP3 AND DUP4 MSTORE PUSH1 0x1 DUP7 MSTORE DUP4 DUP4 KECCAK256 SWAP2 AND DUP3 MSTORE DUP5 MSTORE KECCAK256 SLOAD SWAP1 MLOAD SWAP1 DUP2 MSTORE RETURN JUMPDEST POP SWAP1 CALLVALUE PUSH2 0x279 JUMPI DUP3 PUSH1 0x3 NOT CALLDATASIZE ADD SLT PUSH2 0x279 JUMPI PUSH2 0x303 PUSH2 0x1790 JUMP JUMPDEST PUSH1 0x7 SLOAD DUP2 MLOAD PUSH4 0x70A08231 PUSH1 0xE0 SHL DUP2 MSTORE ADDRESS DUP5 DUP3 ADD MSTORE PUSH1 0x20 SWAP3 SWAP2 PUSH1 0x1 PUSH1 0x1 PUSH1 0xA0 SHL SUB SWAP1 DUP2 AND SWAP2 DUP5 DUP2 PUSH1 0x24 DUP2 DUP7 GAS STATICCALL SWAP1 DUP2 ISZERO PUSH2 0x447 JUMPI DUP8 SWAP2 PUSH2 0x416 JUMPI JUMPDEST POP DUP1 PUSH2 0x347 JUMPI DUP7 DUP1 RETURN JUMPDEST PUSH1 0x5 SLOAD DUP5 MLOAD PUSH4 0xA9059CBB PUSH1 0xE0 SHL DUP2 MSTORE SWAP3 AND PUSH1 0x1 PUSH1 0x1 PUSH1 0xA0 SHL SUB AND DUP7 DUP4 ADD SWAP1 DUP2 MSTORE PUSH1 0x20 DUP2 ADD SWAP2 SWAP1 SWAP2 MSTORE SWAP1 SWAP2 DUP5 SWAP2 DUP4 SWAP2 SWAP1 DUP3 SWAP1 DUP10 SWAP1 DUP3 SWAP1 PUSH1 0x40 ADD SUB SWAP3 GAS CALL SWAP1 DUP2 ISZERO PUSH2 0x40C JUMPI DUP6 SWAP2 PUSH2 0x3DF JUMPI JUMPDEST POP ISZERO PUSH2 0x39E JUMPI DUP1 DUP1 DUP1 DUP7 DUP1 RETURN JUMPDEST MLOAD PUSH3 0x461BCD PUSH1 0xE5 SHL DUP2 MSTORE SWAP2 DUP3 ADD MSTORE PUSH1 0x1B PUSH1 0x24 DUP3 ADD MSTORE PUSH32 0x456D657267656E6379207769746864726177616C206661696C65640000000000 PUSH1 0x44 DUP3 ADD MSTORE PUSH1 0x64 SWAP2 POP REVERT JUMPDEST PUSH2 0x3FF SWAP2 POP DUP4 RETURNDATASIZE DUP6 GT PUSH2 0x405 JUMPI JUMPDEST PUSH2 0x3F7 DUP2 DUP4 PUSH2 0x17E8 JUMP JUMPDEST DUP2 ADD SWAP1 PUSH2 0x1AB3 JUMP JUMPDEST CODESIZE PUSH2 0x391 JUMP JUMPDEST POP RETURNDATASIZE PUSH2 0x3ED JUMP JUMPDEST DUP3 MLOAD RETURNDATASIZE DUP8 DUP3 RETURNDATACOPY RETURNDATASIZE SWAP1 REVERT JUMPDEST SWAP1 POP DUP5 DUP2 DUP2 RETURNDATASIZE DUP4 GT PUSH2 0x440 JUMPI JUMPDEST PUSH2 0x42D DUP2 DUP4 PUSH2 0x17E8 JUMP JUMPDEST DUP2 ADD SUB SLT PUSH2 0x43C JUMPI MLOAD CODESIZE PUSH2 0x33D JUMP JUMPDEST DUP7 DUP1 REVERT JUMPDEST POP RETURNDATASIZE PUSH2 0x423 JUMP JUMPDEST DUP5 MLOAD RETURNDATASIZE DUP10 DUP3 RETURNDATACOPY RETURNDATASIZE SWAP1 REVERT JUMPDEST POP SWAP2 SWAP1 CALLVALUE PUSH2 0x29C JUMPI PUSH1 0x20 SWAP1 DUP2 PUSH1 0x3 NOT CALLDATASIZE ADD SLT PUSH2 0x279 JUMPI DUP4 CALLDATALOAD SWAP1 PUSH1 0x1 DUP1 PUSH1 0xA0 SHL SUB PUSH2 0x480 DUP2 PUSH1 0x5 SLOAD AND CALLER EQ PUSH2 0x1BF0 JUMP JUMPDEST DUP3 ISZERO PUSH2 0x48C DUP2 ISZERO PUSH2 0x1B97 JUMP JUMPDEST PUSH2 0x494 PUSH2 0x1C88 JUMP JUMPDEST DUP4 PUSH1 0x1 SHL SWAP1 DUP5 DUP3 DIV PUSH1 0x2 EQ OR ISZERO PUSH2 0x620 JUMPI PUSH1 0x64 SWAP1 DIV PUSH2 0x4B3 DUP2 DUP6 PUSH2 0x1BE3 JUMP JUMPDEST SWAP2 DUP6 DUP3 PUSH2 0x57B JUMPI JUMPDEST POP POP POP PUSH1 0x2 SLOAD DUP1 PUSH2 0x503 JUMPI JUMPDEST POP PUSH32 0xB8BDC6AF8862E85B4F3A41A8CB5DB82B61516A72DE290EE7C9659990FB33F27C SWAP5 SWAP6 POP PUSH2 0x4F8 SWAP1 PUSH1 0xC SLOAD PUSH2 0x1820 JUMP JUMPDEST PUSH1 0xC SSTORE MLOAD SWAP1 DUP2 MSTORE LOG1 DUP1 RETURN JUMPDEST PUSH1 0xD SLOAD SWAP1 PUSH8 0xDE0B6B3A7640000 DUP1 DUP5 MUL SWAP1 DUP5 DUP3 DIV EQ DUP5 ISZERO OR ISZERO PUSH2 0x568 JUMPI PUSH32 0xB8BDC6AF8862E85B4F3A41A8CB5DB82B61516A72DE290EE7C9659990FB33F27C SWAP8 SWAP9 POP SWAP2 PUSH2 0x556 PUSH2 0x55C SWAP3 PUSH2 0x4F8 SWAP6 SWAP5 PUSH2 0x1B77 JUMP JUMPDEST SWAP1 PUSH2 0x1820 JUMP JUMPDEST PUSH1 0xD SSTORE SWAP1 DUP7 SWAP6 POP PUSH2 0x4C7 JUMP JUMPDEST PUSH4 0x4E487B71 PUSH1 0xE0 SHL DUP9 MSTORE PUSH1 0x11 DUP10 MSTORE PUSH1 0x24 DUP9 REVERT JUMPDEST PUSH1 0x7 SLOAD PUSH1 0x8 SLOAD DUP7 MLOAD PUSH4 0xA9059CBB PUSH1 0xE0 SHL DUP2 MSTORE SWAP1 DUP5 AND PUSH1 0x1 PUSH1 0x1 PUSH1 0xA0 SHL SUB AND DUP12 DUP3 ADD SWAP1 DUP2 MSTORE PUSH1 0x20 DUP2 ADD DUP7 SWAP1 MSTORE SWAP1 SWAP4 DUP5 SWAP3 AND SWAP1 DUP3 SWAP1 DUP12 SWAP1 DUP3 SWAP1 PUSH1 0x40 ADD SUB SWAP3 GAS CALL SWAP1 DUP2 ISZERO PUSH2 0x447 JUMPI SWAP2 PUSH2 0x5F5 DUP8 SWAP3 PUSH32 0x147FAC6415BEE3006BA6002A9A6636F492D311690C9E52A2421AFC6392E0FB95 SWAP5 DUP11 SWAP2 PUSH2 0x603 JUMPI JUMPDEST POP PUSH2 0x1C3C JUMP JUMPDEST DUP5 MLOAD SWAP1 DUP2 MSTORE LOG1 CODESIZE DUP1 DUP6 PUSH2 0x4BB JUMP JUMPDEST PUSH2 0x61A SWAP2 POP DUP5 RETURNDATASIZE DUP7 GT PUSH2 0x405 JUMPI PUSH2 0x3F7 DUP2 DUP4 PUSH2 0x17E8 JUMP JUMPDEST CODESIZE PUSH2 0x5EF JUMP JUMPDEST PUSH4 0x4E487B71 PUSH1 0xE0 SHL DUP7 MSTORE PUSH1 0x11 DUP8 MSTORE PUSH1 0x24 DUP7 REVERT JUMPDEST POP POP CALLVALUE PUSH2 0x29C JUMPI DUP2 PUSH1 0x3 NOT CALLDATASIZE ADD SLT PUSH2 0x29C JUMPI PUSH1 0x20 SWAP1 PUSH1 0xE SLOAD SWAP1 MLOAD SWAP1 DUP2 MSTORE RETURN JUMPDEST POP POP CALLVALUE PUSH2 0x29C JUMPI DUP2 PUSH1 0x3 NOT CALLDATASIZE ADD SLT PUSH2 0x29C JUMPI PUSH1 0x20 SWAP1 PUSH1 0xD SLOAD SWAP1 MLOAD SWAP1 DUP2 MSTORE RETURN JUMPDEST POP SWAP1 CALLVALUE PUSH2 0x279 JUMPI PUSH1 0x20 SWAP2 DUP3 PUSH1 0x3 NOT CALLDATASIZE ADD SLT PUSH2 0xA1D JUMPI DUP1 CALLDATALOAD SWAP3 PUSH2 0x691 PUSH2 0x1B0E JUMP JUMPDEST PUSH4 0x3B9ACA00 DUP5 LT PUSH2 0x9DD JUMPI PUSH1 0x7 SLOAD DUP4 MLOAD PUSH4 0x70A08231 PUSH1 0xE0 SHL DUP2 MSTORE CALLER DUP2 DUP6 ADD MSTORE PUSH1 0x24 SWAP4 SWAP2 PUSH1 0x1 PUSH1 0x1 PUSH1 0xA0 SHL SUB SWAP2 SWAP1 DUP3 AND SWAP1 DUP5 DUP2 DUP8 DUP2 DUP6 GAS STATICCALL SWAP1 DUP2 ISZERO PUSH2 0x9D3 JUMPI SWAP1 DUP9 SWAP2 DUP11 SWAP2 PUSH2 0x99E JUMPI JUMPDEST POP LT PUSH2 0x95C JUMPI DUP4 PUSH1 0x44 SWAP2 DUP8 MLOAD SWAP3 DUP4 DUP1 SWAP3 PUSH4 0x6EB1769F PUSH1 0xE1 SHL DUP3 MSTORE CALLER DUP9 DUP4 ADD MSTORE ADDRESS DUP11 DUP4 ADD MSTORE GAS STATICCALL SWAP1 DUP2 ISZERO PUSH2 0x952 JUMPI SWAP1 DUP8 SWAP2 DUP10 SWAP2 PUSH2 0x91D JUMPI JUMPDEST POP LT PUSH2 0x8DC JUMPI DUP3 DUP8 SWAP2 PUSH2 0x721 PUSH2 0x1C88 JUMP JUMPDEST PUSH1 0x7 SLOAD AND PUSH1 0x64 DUP8 MLOAD DUP1 SWAP5 DUP2 SWAP4 PUSH4 0x23B872DD PUSH1 0xE0 SHL DUP4 MSTORE CALLER DUP9 DUP5 ADD MSTORE ADDRESS DUP11 DUP5 ADD MSTORE DUP12 PUSH1 0x44 DUP5 ADD MSTORE GAS CALL SWAP1 DUP2 ISZERO PUSH2 0x8D2 JUMPI SWAP1 PUSH2 0x762 SWAP2 DUP9 SWAP2 PUSH2 0x8B5 JUMPI JUMPDEST POP PUSH2 0x1ACB JUMP JUMPDEST PUSH1 0x2 SLOAD DUP1 PUSH2 0x899 JUMPI POP DUP5 SWAP3 JUMPDEST CALLER DUP8 MSTORE PUSH1 0x9 DUP4 MSTORE PUSH2 0x782 DUP7 DUP7 DUP10 KECCAK256 SLOAD PUSH2 0x1820 JUMP JUMPDEST CALLER DUP9 MSTORE PUSH1 0x9 DUP5 MSTORE DUP6 DUP9 KECCAK256 SSTORE PUSH2 0x799 DUP7 PUSH1 0xB SLOAD PUSH2 0x1820 JUMP JUMPDEST PUSH1 0xB SSTORE CALLER DUP8 MSTORE PUSH1 0xA DUP4 MSTORE PUSH2 0x7C6 DUP6 DUP9 KECCAK256 SLOAD PUSH8 0xDE0B6B3A7640000 PUSH2 0x7BF PUSH1 0xD SLOAD DUP9 PUSH2 0x1B64 JUMP JUMPDEST DIV SWAP1 PUSH2 0x1820 JUMP JUMPDEST CALLER DUP9 MSTORE PUSH1 0xA DUP5 MSTORE DUP6 DUP9 KECCAK256 SSTORE CALLER ISZERO PUSH2 0x859 JUMPI POP POP SWAP1 PUSH32 0x73A19DD210F1A7F902193214C0EE91DD35EE5B4D920CBA8D519ECA65A7B488CA SWAP3 SWAP2 PUSH2 0x809 DUP3 PUSH1 0x2 SLOAD PUSH2 0x1820 JUMP JUMPDEST PUSH1 0x2 SSTORE CALLER DUP7 MSTORE DUP6 DUP2 MSTORE DUP3 DUP7 KECCAK256 DUP3 DUP2 SLOAD ADD SWAP1 SSTORE DUP3 MLOAD DUP3 DUP2 MSTORE DUP7 PUSH32 0xDDF252AD1BE2C89B69C2B068FC378DAA952BA7F163C4A11628F55A4DF523B3EF DUP4 CALLER SWAP4 LOG3 DUP3 MLOAD SWAP5 DUP6 MSTORE DUP5 ADD MSTORE CALLER SWAP3 LOG2 PUSH1 0x1 PUSH1 0x6 SSTORE DUP1 RETURN JUMPDEST PUSH1 0x1F SWAP1 PUSH1 0x64 SWAP4 DUP7 MLOAD SWAP4 PUSH3 0x461BCD PUSH1 0xE5 SHL DUP6 MSTORE DUP5 ADD MSTORE DUP3 ADD MSTORE PUSH32 0x45524332303A206D696E7420746F20746865207A65726F206164647265737300 PUSH1 0x44 DUP3 ADD MSTORE REVERT JUMPDEST PUSH2 0x8A6 PUSH2 0x8AF SWAP2 DUP8 PUSH2 0x1B64 JUMP JUMPDEST PUSH1 0xB SLOAD SWAP1 PUSH2 0x1B77 JUMP JUMPDEST SWAP3 PUSH2 0x76E JUMP JUMPDEST PUSH2 0x8CC SWAP2 POP DUP5 RETURNDATASIZE DUP7 GT PUSH2 0x405 JUMPI PUSH2 0x3F7 DUP2 DUP4 PUSH2 0x17E8 JUMP JUMPDEST CODESIZE PUSH2 0x75C JUMP JUMPDEST DUP6 MLOAD RETURNDATASIZE DUP10 DUP3 RETURNDATACOPY RETURNDATASIZE SWAP1 REVERT JUMPDEST POP SWAP3 MLOAD PUSH3 0x461BCD PUSH1 0xE5 SHL DUP2 MSTORE SWAP3 DUP4 ADD MSTORE PUSH1 0x1B SWAP1 DUP3 ADD MSTORE PUSH32 0x496E73756666696369656E74205553445420616C6C6F77616E63650000000000 PUSH1 0x44 DUP3 ADD MSTORE PUSH1 0x64 SWAP1 REVERT JUMPDEST DUP1 SWAP3 POP DUP6 DUP1 SWAP3 POP RETURNDATASIZE DUP4 GT PUSH2 0x94B JUMPI JUMPDEST PUSH2 0x936 DUP2 DUP4 PUSH2 0x17E8 JUMP JUMPDEST DUP2 ADD SUB SLT PUSH2 0x947 JUMPI DUP7 SWAP1 MLOAD CODESIZE PUSH2 0x710 JUMP JUMPDEST DUP8 DUP1 REVERT JUMPDEST POP RETURNDATASIZE PUSH2 0x92C JUMP JUMPDEST DUP7 MLOAD RETURNDATASIZE DUP11 DUP3 RETURNDATACOPY RETURNDATASIZE SWAP1 REVERT JUMPDEST DUP6 MLOAD PUSH3 0x461BCD PUSH1 0xE5 SHL DUP2 MSTORE DUP1 DUP5 ADD DUP6 SWAP1 MSTORE PUSH1 0x19 DUP2 DUP8 ADD MSTORE PUSH32 0x496E73756666696369656E7420555344542062616C616E636500000000000000 PUSH1 0x44 DUP3 ADD MSTORE PUSH1 0x64 SWAP1 REVERT JUMPDEST DUP1 SWAP3 POP DUP7 DUP1 SWAP3 POP RETURNDATASIZE DUP4 GT PUSH2 0x9CC JUMPI JUMPDEST PUSH2 0x9B7 DUP2 DUP4 PUSH2 0x17E8 JUMP JUMPDEST DUP2 ADD SUB SLT PUSH2 0x9C8 JUMPI DUP8 SWAP1 MLOAD CODESIZE PUSH2 0x6D9 JUMP JUMPDEST DUP9 DUP1 REVERT JUMPDEST POP RETURNDATASIZE PUSH2 0x9AD JUMP JUMPDEST DUP8 MLOAD RETURNDATASIZE DUP12 DUP3 RETURNDATACOPY RETURNDATASIZE SWAP1 REVERT JUMPDEST PUSH1 0x64 SWAP3 MLOAD SWAP2 PUSH3 0x461BCD PUSH1 0xE5 SHL DUP4 MSTORE DUP3 ADD MSTORE PUSH1 0x1E PUSH1 0x24 DUP3 ADD MSTORE PUSH32 0x4D696E696D756D206465706F7369742069732024312C30303020555344540000 PUSH1 0x44 DUP3 ADD MSTORE REVERT JUMPDEST DUP4 DUP1 REVERT JUMPDEST POP SWAP2 SWAP1 CALLVALUE PUSH2 0x29C JUMPI PUSH1 0x20 SWAP1 DUP2 PUSH1 0x3 NOT CALLDATASIZE ADD SLT PUSH2 0x279 JUMPI DUP4 CALLDATALOAD SWAP1 PUSH1 0x1 DUP1 PUSH1 0xA0 SHL SUB PUSH2 0xA50 DUP2 PUSH1 0x5 SLOAD AND CALLER EQ PUSH2 0x1BF0 JUMP JUMPDEST DUP3 ISZERO PUSH2 0xA5C DUP2 ISZERO PUSH2 0x1B97 JUMP JUMPDEST PUSH2 0xA64 PUSH2 0x1C88 JUMP JUMPDEST DUP4 PUSH1 0x1 SHL SWAP1 DUP5 DUP3 DIV PUSH1 0x2 EQ OR ISZERO PUSH2 0x620 JUMPI PUSH1 0x64 SWAP1 DIV PUSH2 0xA83 DUP2 DUP6 PUSH2 0x1BE3 JUMP JUMPDEST SWAP2 DUP6 DUP3 PUSH2 0xB27 JUMPI JUMPDEST POP POP POP PUSH1 0x2 SLOAD DUP1 PUSH2 0xAC8 JUMPI JUMPDEST POP PUSH32 0xFB990CADAC9328187245C67D41756E8328139F1E9F6CF671E2AFF827B4B95FBA SWAP5 SWAP6 POP PUSH2 0x4F8 SWAP1 PUSH1 0xC SLOAD PUSH2 0x1820 JUMP JUMPDEST PUSH1 0xD SLOAD SWAP1 PUSH8 0xDE0B6B3A7640000 DUP1 DUP5 MUL SWAP1 DUP5 DUP3 DIV EQ DUP5 ISZERO OR ISZERO PUSH2 0x568 JUMPI PUSH32 0xFB990CADAC9328187245C67D41756E8328139F1E9F6CF671E2AFF827B4B95FBA SWAP8 SWAP9 POP SWAP2 PUSH2 0x556 PUSH2 0xB1B SWAP3 PUSH2 0x4F8 SWAP6 SWAP5 PUSH2 0x1B77 JUMP JUMPDEST PUSH1 0xD SSTORE SWAP1 DUP7 SWAP6 POP PUSH2 0xA97 JUMP JUMPDEST PUSH1 0x7 SLOAD PUSH1 0x8 SLOAD DUP7 MLOAD PUSH4 0xA9059CBB PUSH1 0xE0 SHL DUP2 MSTORE SWAP1 DUP5 AND PUSH1 0x1 PUSH1 0x1 PUSH1 0xA0 SHL SUB AND DUP12 DUP3 ADD SWAP1 DUP2 MSTORE PUSH1 0x20 DUP2 ADD DUP7 SWAP1 MSTORE SWAP1 SWAP4 DUP5 SWAP3 AND SWAP1 DUP3 SWAP1 DUP12 SWAP1 DUP3 SWAP1 PUSH1 0x40 ADD SUB SWAP3 GAS CALL SWAP1 DUP2 ISZERO PUSH2 0x447 JUMPI SWAP2 PUSH2 0xBA0 DUP8 SWAP3 PUSH32 0x147FAC6415BEE3006BA6002A9A6636F492D311690C9E52A2421AFC6392E0FB95 SWAP5 DUP11 SWAP2 PUSH2 0x603 JUMPI POP PUSH2 0x1C3C JUMP JUMPDEST DUP5 MLOAD SWAP1 DUP2 MSTORE LOG1 CODESIZE DUP1 DUP6 PUSH2 0xA8B JUMP JUMPDEST POP POP CALLVALUE PUSH2 0x29C JUMPI PUSH1 0x20 CALLDATASIZE PUSH1 0x3 NOT ADD SLT PUSH2 0x29C JUMPI PUSH2 0xBEC PUSH1 0x20 SWAP3 PUSH2 0x556 DUP4 PUSH2 0xBD3 PUSH2 0x175F JUMP JUMPDEST PUSH1 0x1 PUSH1 0x1 PUSH1 0xA0 SHL SUB DUP2 AND DUP5 MSTORE PUSH1 0x9 DUP8 MSTORE SWAP3 KECCAK256 SLOAD SWAP2 PUSH2 0x1CA7 JUMP JUMPDEST SWAP1 MLOAD SWAP1 DUP2 MSTORE RETURN JUMPDEST POP POP CALLVALUE PUSH2 0x29C JUMPI DUP2 PUSH1 0x3 NOT CALLDATASIZE ADD SLT PUSH2 0x29C JUMPI PUSH1 0x20 SWAP1 MLOAD PUSH1 0x2 DUP2 MSTORE RETURN JUMPDEST POP POP CALLVALUE PUSH2 0x29C JUMPI DUP2 PUSH1 0x3 NOT CALLDATASIZE ADD SLT PUSH2 0x29C JUMPI PUSH1 0x7 SLOAD SWAP1 MLOAD PUSH1 0x1 PUSH1 0x1 PUSH1 0xA0 SHL SUB SWAP1 SWAP2 AND DUP2 MSTORE PUSH1 0x20 SWAP1 RETURN JUMPDEST POP POP CALLVALUE PUSH2 0x29C JUMPI DUP1 PUSH1 0x3 NOT CALLDATASIZE ADD SLT PUSH2 0x29C JUMPI PUSH1 0x20 SWAP1 PUSH2 0xC62 PUSH2 0xC58 PUSH2 0x175F JUMP JUMPDEST PUSH1 0x24 CALLDATALOAD SWAP1 CALLER PUSH2 0x1843 JUMP JUMPDEST MLOAD PUSH1 0x1 DUP2 MSTORE RETURN JUMPDEST DUP4 CALLVALUE PUSH2 0xCAE JUMPI PUSH1 0x20 CALLDATASIZE PUSH1 0x3 NOT ADD SLT PUSH2 0xCAE JUMPI PUSH2 0xC83 PUSH2 0x175F JUMP JUMPDEST PUSH2 0xC8B PUSH2 0x1790 JUMP JUMPDEST PUSH1 0x1 DUP1 PUSH1 0xA0 SHL SUB AND PUSH12 0xFFFFFFFFFFFFFFFFFFFFFFFF PUSH1 0xA0 SHL PUSH1 0x8 SLOAD AND OR PUSH1 0x8 SSTORE DUP1 RETURN JUMPDEST DUP1 REVERT JUMPDEST POP DUP3 CALLVALUE PUSH2 0xCAE JUMPI DUP3 PUSH1 0x3 NOT CALLDATASIZE ADD SLT PUSH2 0xCAE JUMPI PUSH2 0xCCB PUSH2 0x175F JUMP JUMPDEST SWAP2 DUP4 PUSH1 0x24 CALLDATALOAD SWAP3 CALLER DUP2 MSTORE PUSH1 0x1 PUSH1 0x20 MSTORE DUP2 DUP2 KECCAK256 PUSH1 0x1 DUP1 PUSH1 0xA0 SHL SUB DUP7 AND DUP3 MSTORE PUSH1 0x20 MSTORE KECCAK256 SLOAD SWAP1 DUP3 DUP3 LT PUSH2 0xD04 JUMPI PUSH1 0x20 DUP6 PUSH2 0xC62 DUP6 DUP6 SUB DUP8 CALLER PUSH2 0x19B1 JUMP JUMPDEST PUSH1 0x84 SWAP1 PUSH1 0x20 DUP7 MLOAD SWAP2 PUSH3 0x461BCD PUSH1 0xE5 SHL DUP4 MSTORE DUP3 ADD MSTORE PUSH1 0x25 PUSH1 0x24 DUP3 ADD MSTORE PUSH32 0x45524332303A2064656372656173656420616C6C6F77616E63652062656C6F77 PUSH1 0x44 DUP3 ADD MSTORE PUSH5 0x207A65726F PUSH1 0xD8 SHL PUSH1 0x64 DUP3 ADD MSTORE REVERT JUMPDEST POP POP CALLVALUE PUSH2 0x29C JUMPI DUP2 PUSH1 0x3 NOT CALLDATASIZE ADD SLT PUSH2 0x29C JUMPI PUSH1 0x20 SWAP1 PUSH2 0xBEC PUSH2 0x1D16 JUMP JUMPDEST POP SWAP2 SWAP1 CALLVALUE PUSH2 0x29C JUMPI DUP2 PUSH1 0x3 NOT CALLDATASIZE ADD SLT PUSH2 0x29C JUMPI DUP1 MLOAD SWAP2 DUP1 SWAP4 DUP1 SLOAD SWAP2 PUSH1 0x1 SWAP1 DUP4 DUP3 SHR SWAP3 DUP3 DUP6 AND SWAP5 DUP6 ISZERO PUSH2 0xE6C JUMPI JUMPDEST PUSH1 0x20 SWAP6 DUP7 DUP7 LT DUP2 EQ PUSH2 0xE59 JUMPI DUP6 DUP10 MSTORE SWAP1 DUP2 ISZERO PUSH2 0xE35 JUMPI POP PUSH1 0x1 EQ PUSH2 0xDDD JUMPI JUMPDEST PUSH2 0xDD9 DUP8 DUP8 PUSH2 0xDCF DUP3 DUP13 SUB DUP4 PUSH2 0x17E8 JUMP JUMPDEST MLOAD SWAP2 DUP3 SWAP2 DUP3 PUSH2 0x1716 JUMP JUMPDEST SUB SWAP1 RETURN JUMPDEST DUP2 MSTORE SWAP3 SWAP6 POP PUSH32 0x8A35ACFBC15FF81A39AE7D344FD709F28E8600B4AA8C65C6B64BFE7FE36BD19B JUMPDEST DUP3 DUP5 LT PUSH2 0xE22 JUMPI POP POP POP DUP3 PUSH2 0xDD9 SWAP5 PUSH2 0xDCF SWAP3 DUP3 ADD ADD SWAP5 CODESIZE DUP1 PUSH2 0xDBE JUMP JUMPDEST DUP1 SLOAD DUP7 DUP6 ADD DUP9 ADD MSTORE SWAP3 DUP7 ADD SWAP3 DUP2 ADD PUSH2 0xE04 JUMP JUMPDEST PUSH1 0xFF NOT AND DUP9 DUP8 ADD MSTORE POP POP POP POP ISZERO ISZERO PUSH1 0x5 SHL DUP4 ADD ADD SWAP3 POP PUSH2 0xDCF DUP3 PUSH2 0xDD9 CODESIZE DUP1 PUSH2 0xDBE JUMP JUMPDEST PUSH4 0x4E487B71 PUSH1 0xE0 SHL DUP5 MSTORE PUSH1 0x22 DUP4 MSTORE PUSH1 0x24 DUP5 REVERT JUMPDEST SWAP4 PUSH1 0x7F AND SWAP4 PUSH2 0xD9F JUMP JUMPDEST POP POP CALLVALUE PUSH2 0x29C JUMPI DUP2 PUSH1 0x3 NOT CALLDATASIZE ADD SLT PUSH2 0x29C JUMPI PUSH1 0x5 SLOAD SWAP1 MLOAD PUSH1 0x1 PUSH1 0x1 PUSH1 0xA0 SHL SUB SWAP1 SWAP2 AND DUP2 MSTORE PUSH1 0x20 SWAP1 RETURN JUMPDEST POP POP CALLVALUE PUSH2 0x29C JUMPI DUP2 PUSH1 0x3 NOT CALLDATASIZE ADD SLT PUSH2 0x29C JUMPI PUSH1 0x20 SWAP1 PUSH1 0xB SLOAD SWAP1 MLOAD SWAP1 DUP2 MSTORE RETURN JUMPDEST DUP4 CALLVALUE PUSH2 0xCAE JUMPI DUP1 PUSH1 0x3 NOT CALLDATASIZE ADD SLT PUSH2 0xCAE JUMPI PUSH2 0xED7 PUSH2 0x1790 JUMP JUMPDEST PUSH1 0x5 DUP1 SLOAD PUSH1 0x1 PUSH1 0x1 PUSH1 0xA0 SHL SUB NOT DUP2 AND SWAP1 SWAP2 SSTORE DUP2 SWAP1 PUSH1 0x1 PUSH1 0x1 PUSH1 0xA0 SHL SUB AND PUSH32 0x8BE0079C531659141344CD1FD0A4F28419497F9722A3DAAFE3B4186F6B6457E0 DUP3 DUP1 LOG3 DUP1 RETURN JUMPDEST POP POP CALLVALUE PUSH2 0x29C JUMPI PUSH1 0x20 CALLDATASIZE PUSH1 0x3 NOT ADD SLT PUSH2 0x29C JUMPI PUSH1 0x20 SWAP2 DUP2 SWAP1 PUSH1 0x1 PUSH1 0x1 PUSH1 0xA0 SHL SUB PUSH2 0xF43 PUSH2 0x175F JUMP JUMPDEST AND DUP2 MSTORE DUP1 DUP5 MSTORE KECCAK256 SLOAD SWAP1 MLOAD SWAP1 DUP2 MSTORE RETURN JUMPDEST POP POP CALLVALUE PUSH2 0x29C JUMPI PUSH1 0x20 CALLDATASIZE PUSH1 0x3 NOT ADD SLT PUSH2 0x29C JUMPI PUSH1 0x20 SWAP2 DUP2 SWAP1 PUSH1 0x1 PUSH1 0x1 PUSH1 0xA0 SHL SUB PUSH2 0xF7A PUSH2 0x175F JUMP JUMPDEST AND DUP2 MSTORE PUSH1 0xA DUP5 MSTORE KECCAK256 SLOAD SWAP1 MLOAD SWAP1 DUP2 MSTORE RETURN JUMPDEST POP POP CALLVALUE PUSH2 0x29C JUMPI DUP2 PUSH1 0x3 NOT CALLDATASIZE ADD SLT PUSH2 0x29C JUMPI PUSH1 0x8 SLOAD SWAP1 MLOAD PUSH1 0x1 PUSH1 0x1 PUSH1 0xA0 SHL SUB SWAP1 SWAP2 AND DUP2 MSTORE PUSH1 0x20 SWAP1 RETURN JUMPDEST DUP4 CALLVALUE PUSH2 0xCAE JUMPI DUP1 PUSH1 0x3 NOT CALLDATASIZE ADD SLT PUSH2 0xCAE JUMPI PUSH2 0xFCC PUSH2 0x1C88 JUMP JUMPDEST DUP1 RETURN JUMPDEST POP POP CALLVALUE PUSH2 0x29C JUMPI DUP1 PUSH1 0x3 NOT CALLDATASIZE ADD SLT PUSH2 0x29C JUMPI PUSH2 0xC62 PUSH1 0x20 SWAP3 PUSH2 0x1018 PUSH2 0xFF2 PUSH2 0x175F JUMP JUMPDEST CALLER DUP4 MSTORE PUSH1 0x1 DUP7 MSTORE DUP5 DUP4 KECCAK256 PUSH1 0x1 PUSH1 0x1 PUSH1 0xA0 SHL SUB DUP3 AND DUP5 MSTORE DUP7 MSTORE SWAP2 DUP5 SWAP1 KECCAK256 SLOAD PUSH1 0x24 CALLDATALOAD SWAP1 PUSH2 0x1820 JUMP JUMPDEST SWAP1 CALLER PUSH2 0x19B1 JUMP JUMPDEST POP CALLVALUE PUSH2 0x279 JUMPI DUP3 PUSH1 0x3 NOT CALLDATASIZE ADD SLT PUSH2 0x279 JUMPI PUSH2 0x1038 PUSH2 0x1B0E JUMP JUMPDEST PUSH2 0x1040 PUSH2 0x1C88 JUMP JUMPDEST PUSH2 0x1049 CALLER PUSH2 0x1CA7 JUMP JUMPDEST SWAP2 DUP3 ISZERO PUSH2 0x118C JUMPI CALLER DUP5 MSTORE PUSH1 0x20 SWAP2 PUSH1 0xA DUP4 MSTORE DUP2 DUP6 KECCAK256 SLOAD PUSH8 0xDE0B6B3A7640000 DUP1 DUP7 MUL SWAP1 DUP7 DUP3 DIV SUB PUSH2 0x1179 JUMPI SWAP1 PUSH2 0x556 PUSH2 0x108B SWAP3 CALLER DUP10 MSTORE DUP9 DUP8 MSTORE DUP6 DUP10 KECCAK256 SLOAD SWAP1 PUSH2 0x1B77 JUMP JUMPDEST CALLER DUP1 DUP8 MSTORE PUSH1 0xA DUP6 MSTORE DUP4 DUP8 KECCAK256 SWAP2 SWAP1 SWAP2 SSTORE PUSH1 0x7 SLOAD DUP4 MLOAD PUSH4 0xA9059CBB PUSH1 0xE0 SHL DUP2 MSTORE DUP4 DUP2 ADD SWAP3 DUP4 MSTORE PUSH1 0x20 DUP4 ADD DUP8 SWAP1 MSTORE SWAP2 DUP6 SWAP2 DUP4 SWAP2 DUP3 SWAP1 SUB PUSH1 0x40 ADD SWAP1 DUP3 SWAP1 DUP11 SWAP1 PUSH1 0x1 PUSH1 0x1 PUSH1 0xA0 SHL SUB AND GAS CALL SWAP1 DUP2 ISZERO PUSH2 0x116F JUMPI DUP7 SWAP2 PUSH2 0x1152 JUMPI JUMPDEST POP ISZERO PUSH2 0x1118 JUMPI POP SWAP1 PUSH32 0xFC30CDDEA38E2BF4D6EA7D3F9ED3B6AD7F176419F4963BD81318067A4AEE73FE SWAP2 MLOAD SWAP3 DUP4 MSTORE CALLER SWAP3 LOG2 PUSH1 0x1 PUSH1 0x6 SSTORE DUP1 RETURN JUMPDEST DUP3 PUSH1 0x64 SWAP3 MLOAD SWAP2 PUSH3 0x461BCD PUSH1 0xE5 SHL DUP4 MSTORE DUP3 ADD MSTORE PUSH1 0x16 PUSH1 0x24 DUP3 ADD MSTORE PUSH22 0x14995DD85C99081D1C985B9CD9995C8819985A5B1959 PUSH1 0x52 SHL PUSH1 0x44 DUP3 ADD MSTORE REVERT JUMPDEST PUSH2 0x1169 SWAP2 POP DUP5 RETURNDATASIZE DUP7 GT PUSH2 0x405 JUMPI PUSH2 0x3F7 DUP2 DUP4 PUSH2 0x17E8 JUMP JUMPDEST CODESIZE PUSH2 0x10DF JUMP JUMPDEST DUP4 MLOAD RETURNDATASIZE DUP9 DUP3 RETURNDATACOPY RETURNDATASIZE SWAP1 REVERT JUMPDEST PUSH4 0x4E487B71 PUSH1 0xE0 SHL DUP8 MSTORE PUSH1 0x11 DUP4 MSTORE PUSH1 0x24 DUP8 REVERT JUMPDEST SWAP1 PUSH1 0x20 PUSH1 0x64 SWAP3 MLOAD SWAP2 PUSH3 0x461BCD PUSH1 0xE5 SHL DUP4 MSTORE DUP3 ADD MSTORE PUSH1 0x13 PUSH1 0x24 DUP3 ADD MSTORE PUSH19 0x4E6F207265776172647320746F20636C61696D PUSH1 0x68 SHL PUSH1 0x44 DUP3 ADD MSTORE REVERT JUMPDEST POP POP CALLVALUE PUSH2 0x29C JUMPI PUSH1 0x20 CALLDATASIZE PUSH1 0x3 NOT ADD SLT PUSH2 0x29C JUMPI PUSH1 0x20 SWAP1 PUSH2 0xBEC PUSH2 0x11E6 PUSH2 0x175F JUMP JUMPDEST PUSH2 0x1CA7 JUMP JUMPDEST POP POP CALLVALUE PUSH2 0x29C JUMPI DUP2 PUSH1 0x3 NOT CALLDATASIZE ADD SLT PUSH2 0x29C JUMPI PUSH1 0x20 SWAP1 MLOAD PUSH1 0x12 DUP2 MSTORE RETURN JUMPDEST POP SWAP2 SWAP1 CALLVALUE PUSH2 0x29C JUMPI PUSH1 0x20 SWAP1 DUP2 PUSH1 0x3 NOT CALLDATASIZE ADD SLT PUSH2 0x279 JUMPI DUP4 CALLDATALOAD SWAP2 PUSH2 0x1228 PUSH2 0x1B0E JUMP JUMPDEST PUSH2 0x1233 DUP4 ISZERO ISZERO PUSH2 0x1B97 JUMP JUMPDEST CALLER DUP5 MSTORE DUP4 DUP2 MSTORE DUP3 DUP3 DUP6 KECCAK256 SLOAD LT PUSH2 0x1461 JUMPI PUSH2 0x124B PUSH2 0x1C88 JUMP JUMPDEST PUSH2 0x1263 PUSH2 0x125A PUSH1 0xB SLOAD DUP6 PUSH2 0x1B64 JUMP JUMPDEST PUSH1 0x2 SLOAD SWAP1 PUSH2 0x1B77 JUMP JUMPDEST SWAP1 CALLER DUP6 MSTORE PUSH1 0x9 DUP2 MSTORE PUSH2 0x1278 DUP3 DUP5 DUP8 KECCAK256 SLOAD PUSH2 0x1BE3 JUMP JUMPDEST CALLER DUP7 MSTORE PUSH1 0x9 DUP3 MSTORE DUP4 DUP7 KECCAK256 SSTORE PUSH2 0x128F DUP3 PUSH1 0xB SLOAD PUSH2 0x1BE3 JUMP JUMPDEST PUSH1 0xB SSTORE CALLER DUP6 MSTORE PUSH1 0xA DUP2 MSTORE PUSH2 0x12BC DUP4 DUP7 KECCAK256 SLOAD PUSH8 0xDE0B6B3A7640000 PUSH2 0x12B5 PUSH1 0xD SLOAD DUP9 PUSH2 0x1B64 JUMP JUMPDEST DIV SWAP1 PUSH2 0x1BE3 JUMP JUMPDEST CALLER DUP7 MSTORE PUSH1 0xA DUP3 MSTORE DUP4 DUP7 KECCAK256 SSTORE CALLER ISZERO PUSH2 0x1415 JUMPI CALLER DUP6 MSTORE DUP5 DUP2 MSTORE DUP3 DUP6 KECCAK256 SLOAD DUP5 DUP2 LT PUSH2 0x13C7 JUMPI DUP3 PUSH2 0x135F SWAP7 SWAP8 DUP7 DUP5 SWAP4 CALLER DUP12 MSTORE DUP11 DUP6 MSTORE SUB DUP7 DUP11 KECCAK256 SSTORE DUP7 PUSH1 0x2 SLOAD SUB PUSH1 0x2 SSTORE DUP9 DUP7 MLOAD DUP9 DUP2 MSTORE PUSH32 0xDDF252AD1BE2C89B69C2B068FC378DAA952BA7F163C4A11628F55A4DF523B3EF DUP6 CALLER SWAP3 LOG3 PUSH1 0x7 SLOAD DUP7 MLOAD PUSH4 0xA9059CBB PUSH1 0xE0 SHL DUP2 MSTORE CALLER SWAP3 DUP2 ADD SWAP3 DUP4 MSTORE PUSH1 0x20 DUP4 ADD SWAP4 SWAP1 SWAP4 MSTORE SWAP2 SWAP8 DUP9 SWAP3 PUSH1 0x1 PUSH1 0x1 PUSH1 0xA0 SHL SUB AND SWAP2 DUP4 SWAP2 DUP12 SWAP2 DUP4 SWAP2 PUSH1 0x40 SWAP1 SWAP2 ADD SWAP1 JUMP JUMPDEST SUB SWAP3 GAS CALL SWAP5 DUP6 ISZERO PUSH2 0x116F JUMPI PUSH32 0x92CCF450A286A957AF52509BC1C9939D1A6A481783E142E41E2499F0BB66EBC6 SWAP5 SWAP6 PUSH2 0x139D SWAP2 DUP9 SWAP2 PUSH2 0x13B0 JUMPI POP PUSH2 0x1ACB JUMP JUMPDEST DUP3 MLOAD SWAP5 DUP6 MSTORE DUP5 ADD MSTORE CALLER SWAP3 LOG2 PUSH1 0x1 PUSH1 0x6 SSTORE DUP1 RETURN JUMPDEST PUSH2 0x8CC SWAP2 POP DUP4 RETURNDATASIZE DUP6 GT PUSH2 0x405 JUMPI PUSH2 0x3F7 DUP2 DUP4 PUSH2 0x17E8 JUMP JUMPDEST DUP4 MLOAD PUSH3 0x461BCD PUSH1 0xE5 SHL DUP2 MSTORE DUP1 DUP9 ADD DUP4 SWAP1 MSTORE PUSH1 0x22 PUSH1 0x24 DUP3 ADD MSTORE PUSH32 0x45524332303A206275726E20616D6F756E7420657863656564732062616C616E PUSH1 0x44 DUP3 ADD MSTORE PUSH2 0x6365 PUSH1 0xF0 SHL PUSH1 0x64 DUP3 ADD MSTORE PUSH1 0x84 SWAP1 REVERT JUMPDEST DUP6 PUSH1 0x84 SWAP2 DUP5 MLOAD SWAP2 PUSH3 0x461BCD PUSH1 0xE5 SHL DUP4 MSTORE DUP3 ADD MSTORE PUSH1 0x21 PUSH1 0x24 DUP3 ADD MSTORE PUSH32 0x45524332303A206275726E2066726F6D20746865207A65726F20616464726573 PUSH1 0x44 DUP3 ADD MSTORE PUSH1 0x73 PUSH1 0xF8 SHL PUSH1 0x64 DUP3 ADD MSTORE REVERT JUMPDEST DUP5 SWAP1 PUSH1 0x64 SWAP3 MLOAD SWAP2 PUSH3 0x461BCD PUSH1 0xE5 SHL DUP4 MSTORE DUP3 ADD MSTORE PUSH1 0x16 PUSH1 0x24 DUP3 ADD MSTORE PUSH22 0x496E73756666696369656E74204C5020746F6B656E73 PUSH1 0x50 SHL PUSH1 0x44 DUP3 ADD MSTORE REVERT JUMPDEST POP DUP3 SWAP1 CALLVALUE PUSH2 0x29C JUMPI PUSH1 0x60 CALLDATASIZE PUSH1 0x3 NOT ADD SLT PUSH2 0x29C JUMPI PUSH2 0x14B8 PUSH2 0x175F JUMP JUMPDEST PUSH2 0x14C0 PUSH2 0x177A JUMP JUMPDEST SWAP2 DUP5 PUSH1 0x44 CALLDATALOAD SWAP5 PUSH1 0x1 DUP1 PUSH1 0xA0 SHL SUB DUP5 AND DUP2 MSTORE PUSH1 0x1 PUSH1 0x20 MSTORE DUP2 DUP2 KECCAK256 CALLER DUP3 MSTORE PUSH1 0x20 MSTORE KECCAK256 SLOAD SWAP1 PUSH1 0x0 NOT DUP3 SUB PUSH2 0x14FA JUMPI JUMPDEST PUSH1 0x20 DUP7 PUSH2 0xC62 DUP8 DUP8 DUP8 PUSH2 0x1843 JUMP JUMPDEST DUP5 DUP3 LT PUSH2 0x1523 JUMPI POP SWAP2 DUP4 SWAP2 PUSH2 0x1518 PUSH1 0x20 SWAP7 SWAP6 PUSH2 0xC62 SWAP6 SUB CALLER DUP4 PUSH2 0x19B1 JUMP JUMPDEST SWAP2 SWAP4 SWAP5 DUP2 SWAP4 POP PUSH2 0x14EC JUMP JUMPDEST PUSH1 0x64 SWAP1 PUSH1 0x20 DUP8 MLOAD SWAP2 PUSH3 0x461BCD PUSH1 0xE5 SHL DUP4 MSTORE DUP3 ADD MSTORE PUSH1 0x1D PUSH1 0x24 DUP3 ADD MSTORE PUSH32 0x45524332303A20696E73756666696369656E7420616C6C6F77616E6365000000 PUSH1 0x44 DUP3 ADD MSTORE REVERT JUMPDEST POP POP CALLVALUE PUSH2 0x29C JUMPI DUP2 PUSH1 0x3 NOT CALLDATASIZE ADD SLT PUSH2 0x29C JUMPI PUSH1 0x20 SWAP1 MLOAD PUSH3 0x15180 DUP2 MSTORE RETURN JUMPDEST POP POP CALLVALUE PUSH2 0x29C JUMPI DUP2 PUSH1 0x3 NOT CALLDATASIZE ADD SLT PUSH2 0x29C JUMPI PUSH1 0x20 SWAP1 PUSH1 0x2 SLOAD SWAP1 MLOAD SWAP1 DUP2 MSTORE RETURN JUMPDEST POP POP CALLVALUE PUSH2 0x29C JUMPI DUP2 PUSH1 0x3 NOT CALLDATASIZE ADD SLT PUSH2 0x29C JUMPI PUSH1 0x20 SWAP1 PUSH1 0xC SLOAD SWAP1 MLOAD SWAP1 DUP2 MSTORE RETURN JUMPDEST POP POP CALLVALUE PUSH2 0x29C JUMPI PUSH1 0x20 CALLDATASIZE PUSH1 0x3 NOT ADD SLT PUSH2 0x29C JUMPI PUSH1 0x20 SWAP2 DUP2 SWAP1 PUSH1 0x1 PUSH1 0x1 PUSH1 0xA0 SHL SUB PUSH2 0x15EA PUSH2 0x175F JUMP JUMPDEST AND DUP2 MSTORE PUSH1 0x9 DUP5 MSTORE KECCAK256 SLOAD SWAP1 MLOAD SWAP1 DUP2 MSTORE RETURN JUMPDEST POP POP CALLVALUE PUSH2 0x29C JUMPI DUP1 PUSH1 0x3 NOT CALLDATASIZE ADD SLT PUSH2 0x29C JUMPI PUSH1 0x20 SWAP1 PUSH2 0xC62 PUSH2 0x161A PUSH2 0x175F JUMP JUMPDEST PUSH1 0x24 CALLDATALOAD SWAP1 CALLER PUSH2 0x19B1 JUMP JUMPDEST SWAP3 SWAP2 SWAP1 POP CALLVALUE PUSH2 0xA1D JUMPI DUP4 PUSH1 0x3 NOT CALLDATASIZE ADD SLT PUSH2 0xA1D JUMPI PUSH1 0x3 SLOAD PUSH1 0x1 DUP2 DUP2 SHR SWAP2 DUP7 SWAP1 DUP3 DUP2 AND DUP1 ISZERO PUSH2 0x170C JUMPI JUMPDEST PUSH1 0x20 SWAP6 DUP7 DUP7 LT DUP3 EQ PUSH2 0x16F9 JUMPI POP DUP5 DUP9 MSTORE SWAP1 DUP2 ISZERO PUSH2 0x16D7 JUMPI POP PUSH1 0x1 EQ PUSH2 0x167E JUMPI JUMPDEST PUSH2 0xDD9 DUP7 DUP7 PUSH2 0xDCF DUP3 DUP12 SUB DUP4 PUSH2 0x17E8 JUMP JUMPDEST SWAP3 SWAP6 POP PUSH1 0x3 DUP4 MSTORE PUSH32 0xC2575A0E9E593C00F959F8C92F12DB2869C3395A3B0502D05E2516446F71F85B JUMPDEST DUP3 DUP5 LT PUSH2 0x16C4 JUMPI POP POP POP DUP3 PUSH2 0xDD9 SWAP5 PUSH2 0xDCF SWAP3 DUP3 ADD ADD SWAP5 CODESIZE PUSH2 0x166D JUMP JUMPDEST DUP1 SLOAD DUP7 DUP6 ADD DUP9 ADD MSTORE SWAP3 DUP7 ADD SWAP3 DUP2 ADD PUSH2 0x16A7 JUMP JUMPDEST PUSH1 0xFF NOT AND DUP8 DUP7 ADD MSTORE POP POP POP ISZERO ISZERO PUSH1 0x5 SHL DUP4 ADD ADD SWAP3 POP PUSH2 0xDCF DUP3 PUSH2 0xDD9 CODESIZE PUSH2 0x166D JUMP JUMPDEST PUSH4 0x4E487B71 PUSH1 0xE0 SHL DUP5 MSTORE PUSH1 0x22 SWAP1 MSTORE PUSH1 0x24 DUP4 REVERT JUMPDEST SWAP4 PUSH1 0x7F AND SWAP4 PUSH2 0x164D JUMP JUMPDEST PUSH1 0x20 DUP1 DUP3 MSTORE DUP3 MLOAD DUP2 DUP4 ADD DUP2 SWAP1 MSTORE SWAP1 SWAP4 SWAP3 PUSH1 0x0 JUMPDEST DUP3 DUP2 LT PUSH2 0x174B JUMPI POP POP PUSH1 0x40 SWAP3 SWAP4 POP PUSH1 0x0 DUP4 DUP3 DUP5 ADD ADD MSTORE PUSH1 0x1F DUP1 NOT SWAP2 ADD AND ADD ADD SWAP1 JUMP JUMPDEST DUP2 DUP2 ADD DUP7 ADD MLOAD DUP5 DUP3 ADD PUSH1 0x40 ADD MSTORE DUP6 ADD PUSH2 0x1729 JUMP JUMPDEST PUSH1 0x4 CALLDATALOAD SWAP1 PUSH1 0x1 PUSH1 0x1 PUSH1 0xA0 SHL SUB DUP3 AND DUP3 SUB PUSH2 0x1775 JUMPI JUMP JUMPDEST PUSH1 0x0 DUP1 REVERT JUMPDEST PUSH1 0x24 CALLDATALOAD SWAP1 PUSH1 0x1 PUSH1 0x1 PUSH1 0xA0 SHL SUB DUP3 AND DUP3 SUB PUSH2 0x1775 JUMPI JUMP JUMPDEST PUSH1 0x5 SLOAD PUSH1 0x1 PUSH1 0x1 PUSH1 0xA0 SHL SUB AND CALLER SUB PUSH2 0x17A4 JUMPI JUMP JUMPDEST PUSH1 0x64 PUSH1 0x40 MLOAD PUSH3 0x461BCD PUSH1 0xE5 SHL DUP2 MSTORE PUSH1 0x20 PUSH1 0x4 DUP3 ADD MSTORE PUSH1 0x20 PUSH1 0x24 DUP3 ADD MSTORE PUSH32 0x4F776E61626C653A2063616C6C6572206973206E6F7420746865206F776E6572 PUSH1 0x44 DUP3 ADD MSTORE REVERT JUMPDEST SWAP1 PUSH1 0x1F DUP1 NOT SWAP2 ADD AND DUP2 ADD SWAP1 DUP2 LT PUSH8 0xFFFFFFFFFFFFFFFF DUP3 GT OR PUSH2 0x180A JUMPI PUSH1 0x40 MSTORE JUMP JUMPDEST PUSH4 0x4E487B71 PUSH1 0xE0 SHL PUSH1 0x0 MSTORE PUSH1 0x41 PUSH1 0x4 MSTORE PUSH1 0x24 PUSH1 0x0 REVERT JUMPDEST SWAP2 SWAP1 DUP3 ADD DUP1 SWAP3 GT PUSH2 0x182D JUMPI JUMP JUMPDEST PUSH4 0x4E487B71 PUSH1 0xE0 SHL PUSH1 0x0 MSTORE PUSH1 0x11 PUSH1 0x4 MSTORE PUSH1 0x24 PUSH1 0x0 REVERT JUMPDEST PUSH1 0x1 PUSH1 0x1 PUSH1 0xA0 SHL SUB SWAP1 DUP2 AND SWAP2 DUP3 ISZERO PUSH2 0x195E JUMPI AND SWAP2 DUP3 ISZERO PUSH2 0x190D JUMPI PUSH1 0x0 DUP3 DUP2 MSTORE DUP1 PUSH1 0x20 MSTORE PUSH1 0x40 DUP2 KECCAK256 SLOAD SWAP2 DUP1 DUP4 LT PUSH2 0x18B9 JUMPI PUSH1 0x40 DUP3 DUP3 PUSH32 0xDDF252AD1BE2C89B69C2B068FC378DAA952BA7F163C4A11628F55A4DF523B3EF SWAP6 DUP8 PUSH1 0x20 SWAP7 MSTORE DUP3 DUP7 MSTORE SUB DUP3 DUP3 KECCAK256 SSTORE DUP7 DUP2 MSTORE KECCAK256 DUP2 DUP2 SLOAD ADD SWAP1 SSTORE PUSH1 0x40 MLOAD SWAP1 DUP2 MSTORE LOG3 JUMP JUMPDEST PUSH1 0x40 MLOAD PUSH3 0x461BCD PUSH1 0xE5 SHL DUP2 MSTORE PUSH1 0x20 PUSH1 0x4 DUP3 ADD MSTORE PUSH1 0x26 PUSH1 0x24 DUP3 ADD MSTORE PUSH32 0x45524332303A207472616E7366657220616D6F756E7420657863656564732062 PUSH1 0x44 DUP3 ADD MSTORE PUSH6 0x616C616E6365 PUSH1 0xD0 SHL PUSH1 0x64 DUP3 ADD MSTORE PUSH1 0x84 SWAP1 REVERT JUMPDEST PUSH1 0x40 MLOAD PUSH3 0x461BCD PUSH1 0xE5 SHL DUP2 MSTORE PUSH1 0x20 PUSH1 0x4 DUP3 ADD MSTORE PUSH1 0x23 PUSH1 0x24 DUP3 ADD MSTORE PUSH32 0x45524332303A207472616E7366657220746F20746865207A65726F2061646472 PUSH1 0x44 DUP3 ADD MSTORE PUSH3 0x657373 PUSH1 0xE8 SHL PUSH1 0x64 DUP3 ADD MSTORE PUSH1 0x84 SWAP1 REVERT JUMPDEST PUSH1 0x40 MLOAD PUSH3 0x461BCD PUSH1 0xE5 SHL DUP2 MSTORE PUSH1 0x20 PUSH1 0x4 DUP3 ADD MSTORE PUSH1 0x25 PUSH1 0x24 DUP3 ADD MSTORE PUSH32 0x45524332303A207472616E736665722066726F6D20746865207A65726F206164 PUSH1 0x44 DUP3 ADD MSTORE PUSH5 0x6472657373 PUSH1 0xD8 SHL PUSH1 0x64 DUP3 ADD MSTORE PUSH1 0x84 SWAP1 REVERT JUMPDEST PUSH1 0x1 PUSH1 0x1 PUSH1 0xA0 SHL SUB SWAP1 DUP2 AND SWAP2 DUP3 ISZERO PUSH2 0x1A62 JUMPI AND SWAP2 DUP3 ISZERO PUSH2 0x1A12 JUMPI PUSH1 0x20 PUSH32 0x8C5BE1E5EBEC7D5BD14F71427D1E84F3DD0314C0F7B2291E5B200AC8C7C3B925 SWAP2 DUP4 PUSH1 0x0 MSTORE PUSH1 0x1 DUP3 MSTORE PUSH1 0x40 PUSH1 0x0 KECCAK256 DUP6 PUSH1 0x0 MSTORE DUP3 MSTORE DUP1 PUSH1 0x40 PUSH1 0x0 KECCAK256 SSTORE PUSH1 0x40 MLOAD SWAP1 DUP2 MSTORE LOG3 JUMP JUMPDEST PUSH1 0x40 MLOAD PUSH3 0x461BCD PUSH1 0xE5 SHL DUP2 MSTORE PUSH1 0x20 PUSH1 0x4 DUP3 ADD MSTORE PUSH1 0x22 PUSH1 0x24 DUP3 ADD MSTORE PUSH32 0x45524332303A20617070726F766520746F20746865207A65726F206164647265 PUSH1 0x44 DUP3 ADD MSTORE PUSH2 0x7373 PUSH1 0xF0 SHL PUSH1 0x64 DUP3 ADD MSTORE PUSH1 0x84 SWAP1 REVERT JUMPDEST PUSH1 0x40 MLOAD PUSH3 0x461BCD PUSH1 0xE5 SHL DUP2 MSTORE PUSH1 0x20 PUSH1 0x4 DUP3 ADD MSTORE PUSH1 0x24 DUP1 DUP3 ADD MSTORE PUSH32 0x45524332303A20617070726F76652066726F6D20746865207A65726F20616464 PUSH1 0x44 DUP3 ADD MSTORE PUSH4 0x72657373 PUSH1 0xE0 SHL PUSH1 0x64 DUP3 ADD MSTORE PUSH1 0x84 SWAP1 REVERT JUMPDEST SWAP1 DUP2 PUSH1 0x20 SWAP2 SUB SLT PUSH2 0x1775 JUMPI MLOAD DUP1 ISZERO ISZERO DUP2 SUB PUSH2 0x1775 JUMPI SWAP1 JUMP JUMPDEST ISZERO PUSH2 0x1AD2 JUMPI JUMP JUMPDEST PUSH1 0x40 MLOAD PUSH3 0x461BCD PUSH1 0xE5 SHL DUP2 MSTORE PUSH1 0x20 PUSH1 0x4 DUP3 ADD MSTORE PUSH1 0x14 PUSH1 0x24 DUP3 ADD MSTORE PUSH20 0x1554D115081D1C985B9CD9995C8819985A5B1959 PUSH1 0x62 SHL PUSH1 0x44 DUP3 ADD MSTORE PUSH1 0x64 SWAP1 REVERT JUMPDEST PUSH1 0x2 PUSH1 0x6 SLOAD EQ PUSH2 0x1B1F JUMPI PUSH1 0x2 PUSH1 0x6 SSTORE JUMP JUMPDEST PUSH1 0x40 MLOAD PUSH3 0x461BCD PUSH1 0xE5 SHL DUP2 MSTORE PUSH1 0x20 PUSH1 0x4 DUP3 ADD MSTORE PUSH1 0x1F PUSH1 0x24 DUP3 ADD MSTORE PUSH32 0x5265656E7472616E637947756172643A207265656E7472616E742063616C6C00 PUSH1 0x44 DUP3 ADD MSTORE PUSH1 0x64 SWAP1 REVERT JUMPDEST DUP2 DUP2 MUL SWAP3 SWAP2 DUP2 ISZERO SWAP2 DUP5 DIV EQ OR ISZERO PUSH2 0x182D JUMPI JUMP JUMPDEST DUP2 ISZERO PUSH2 0x1B81 JUMPI DIV SWAP1 JUMP JUMPDEST PUSH4 0x4E487B71 PUSH1 0xE0 SHL PUSH1 0x0 MSTORE PUSH1 0x12 PUSH1 0x4 MSTORE PUSH1 0x24 PUSH1 0x0 REVERT JUMPDEST ISZERO PUSH2 0x1B9E JUMPI JUMP JUMPDEST PUSH1 0x40 MLOAD PUSH3 0x461BCD PUSH1 0xE5 SHL DUP2 MSTORE PUSH1 0x20 PUSH1 0x4 DUP3 ADD MSTORE PUSH1 0x1D PUSH1 0x24 DUP3 ADD MSTORE PUSH32 0x416D6F756E74206D7573742062652067726561746572207468616E2030000000 PUSH1 0x44 DUP3 ADD MSTORE PUSH1 0x64 SWAP1 REVERT JUMPDEST SWAP2 SWAP1 DUP3 SUB SWAP2 DUP3 GT PUSH2 0x182D JUMPI JUMP JUMPDEST ISZERO PUSH2 0x1BF7 JUMPI JUMP JUMPDEST PUSH1 0x40 MLOAD PUSH3 0x461BCD PUSH1 0xE5 SHL DUP2 MSTORE PUSH1 0x20 PUSH1 0x4 DUP3 ADD MSTORE PUSH1 0x18 PUSH1 0x24 DUP3 ADD MSTORE PUSH32 0x4F6E6C79206F776E65722063616E2063616C6C20746869730000000000000000 PUSH1 0x44 DUP3 ADD MSTORE PUSH1 0x64 SWAP1 REVERT JUMPDEST ISZERO PUSH2 0x1C43 JUMPI JUMP JUMPDEST PUSH1 0x40 MLOAD PUSH3 0x461BCD PUSH1 0xE5 SHL DUP2 MSTORE PUSH1 0x20 PUSH1 0x4 DUP3 ADD MSTORE PUSH1 0x1E PUSH1 0x24 DUP3 ADD MSTORE PUSH32 0x4D616E6167656D656E7420666565207472616E73666572206661696C65640000 PUSH1 0x44 DUP3 ADD MSTORE PUSH1 0x64 SWAP1 REVERT JUMPDEST PUSH1 0xE SLOAD PUSH3 0x15180 DUP2 ADD DUP1 SWAP2 GT PUSH2 0x182D JUMPI TIMESTAMP LT ISZERO PUSH2 0x1CA1 JUMPI JUMP JUMPDEST TIMESTAMP PUSH1 0xE SSTORE JUMP JUMPDEST PUSH1 0x1 PUSH1 0x1 PUSH1 0xA0 SHL SUB AND PUSH1 0x0 DUP2 DUP2 MSTORE PUSH1 0x20 DUP2 SWAP1 MSTORE PUSH1 0x40 DUP2 KECCAK256 SLOAD SWAP1 SWAP2 SWAP1 DUP1 ISZERO PUSH2 0x1D11 JUMPI PUSH2 0x1CFC SWAP3 PUSH8 0xDE0B6B3A7640000 PUSH2 0x1CEB PUSH1 0x40 SWAP4 PUSH1 0xD SLOAD SWAP1 PUSH1 0x2 SLOAD PUSH2 0x1CFF JUMPI PUSH2 0x1B64 JUMP JUMPDEST DIV SWAP3 DUP2 MSTORE PUSH1 0xA PUSH1 0x20 MSTORE KECCAK256 SLOAD SWAP1 PUSH2 0x1BE3 JUMP JUMPDEST SWAP1 JUMP JUMPDEST PUSH2 0x1D0B PUSH1 0xE SLOAD TIMESTAMP PUSH2 0x1BE3 JUMP JUMPDEST POP PUSH2 0x1B64 JUMP JUMPDEST POP POP SWAP1 JUMP JUMPDEST PUSH1 0xB SLOAD DUP1 ISZERO PUSH2 0x1D58 JUMPI PUSH1 0xC SLOAD PUSH2 0x16D SWAP1 DUP2 DUP2 MUL SWAP2 DUP2 DUP4 DIV EQ SWAP1 ISZERO OR ISZERO PUSH2 0x182D JUMPI PUSH1 0x1E SWAP1 DIV SWAP1 PUSH2 0x2710 SWAP2 DUP3 DUP2 MUL SWAP3 DUP2 DUP5 DIV EQ SWAP1 ISZERO OR ISZERO PUSH2 0x182D JUMPI PUSH2 0x1CFC SWAP2 PUSH2 0x1B77 JUMP JUMPDEST POP PUSH1 0x0 SWAP1 JUMP INVALID LOG2 PUSH5 0x6970667358 0x22 SLT KECCAK256 0x5C 0xD5 0xBA PUSH7 0x5EAA02F52F8A9D SSTORE DUP11 0xBD 0xD0 0xED DUP8 0xB0 0xD2 SLOAD 0x24 DUP2 0xCD 0xAE MSIZE SAR 0xD9 MULMOD PUSH15 0x604E2364736F6C6343000813003300 "},"methodIdentifiers":{"MANAGEMENT_FEE_PERCENT()":"aedc7808","MINIMUM_DEPOSIT()":"f19451d8","REWARD_UPDATE_INTERVAL()":"2270797b","allowance(address,address)":"dd62ed3e","approve(address,uint256)":"095ea7b3","balanceOf(address)":"70a08231","claimRewards()":"372500ab","decimals()":"313ce567","decreaseAllowance(address,uint256)":"a457c2d7","deposit(uint256)":"b6b55f25","emergencyWithdraw()":"db2e21bc","getCurrentAPY()":"962ca496","getUserTotalValue(address)":"af3f5e22","increaseAllowance(address,uint256)":"39509351","lastUpdateTime()":"c8f33c91","name()":"06fdde03","owner()":"8da5cb5b","pendingRewards(address)":"31d7a262","receiveAppreciationShare(uint256)":"b62f0e83","receiveMortgageInterest(uint256)":"cf60c76e","renounceOwnership()":"715018a6","rewardsPerShare()":"c7e1d0b1","setTreasuryWallet(address)":"a8602fea","symbol()":"95d89b41","totalDeposits()":"7d882097","totalRewards()":"0e15561a","totalSupply()":"18160ddd","transfer(address,uint256)":"a9059cbb","transferFrom(address,address,uint256)":"23b872dd","transferOwnership(address)":"f2fde38b","treasuryWallet()":"4626402b","updateRewards()":"3e158b0c","usdtToken()":"a98ad46c","userDeposits(address)":"0ba36dcd","userRewardDebt(address)":"4bf6f9e7","withdraw(uint256)":"2e1a7d4d"}}}}}