{"contracts/SimpleTokenPurchase.sol":{"SimpleTokenPurchase":{"abi":[{"inputs":[],"stateMutability":"nonpayable","type":"constructor"},{"anonymous":false,"inputs":[{"indexed":true,"internalType":"address","name":"previousOwner","type":"address"},{"indexed":true,"internalType":"address","name":"newOwner","type":"address"}],"name":"OwnershipTransferred","type":"event"},{"anonymous":false,"inputs":[{"indexed":true,"internalType":"uint256","name":"tokenId","type":"uint256"},{"indexed":true,"internalType":"address","name":"buyer","type":"address"},{"indexed":false,"internalType":"uint256","name":"amount","type":"uint256"},{"indexed":false,"internalType":"uint256","name":"price","type":"uint256"}],"name":"TokenPurchased","type":"event"},{"anonymous":false,"inputs":[{"indexed":true,"internalType":"address","name":"user","type":"address"},{"indexed":false,"internalType":"uint256[]","name":"tokenIds","type":"uint256[]"}],"name":"TokensRedeemed","type":"event"},{"inputs":[],"name":"MINIMUM_INVESTMENT","outputs":[{"internalType":"uint256","name":"","type":"uint256"}],"stateMutability":"view","type":"function"},{"inputs":[],"name":"TOKEN_PRICE","outputs":[{"internalType":"uint256","name":"","type":"uint256"}],"stateMutability":"view","type":"function"},{"inputs":[],"name":"getContractBalance","outputs":[{"internalType":"uint256","name":"","type":"uint256"}],"stateMutability":"view","type":"function"},{"inputs":[{"internalType":"uint256","name":"tokenId","type":"uint256"}],"name":"getToken","outputs":[{"components":[{"internalType":"uint256","name":"tokenId","type":"uint256"},{"internalType":"uint256","name":"price","type":"uint256"},{"internalType":"uint256","name":"investmentAmount","type":"uint256"},{"internalType":"address","name":"buyer","type":"address"},{"internalType":"uint256","name":"purchaseDate","type":"uint256"},{"internalType":"bool","name":"isActive","type":"bool"}],"internalType":"struct SimpleTokenPurchase.Token","name":"","type":"tuple"}],"stateMutability":"view","type":"function"},{"inputs":[{"internalType":"address","name":"user","type":"address"}],"name":"getUserTokens","outputs":[{"internalType":"uint256[]","name":"","type":"uint256[]"}],"stateMutability":"view","type":"function"},{"inputs":[{"internalType":"address","name":"user","type":"address"}],"name":"getUserTotalInvested","outputs":[{"internalType":"uint256","name":"","type":"uint256"}],"stateMutability":"view","type":"function"},{"inputs":[],"name":"owner","outputs":[{"internalType":"address","name":"","type":"address"}],"stateMutability":"view","type":"function"},{"inputs":[],"name":"pause","outputs":[],"stateMutability":"nonpayable","type":"function"},{"inputs":[],"name":"purchaseTokens","outputs":[],"stateMutability":"payable","type":"function"},{"inputs":[],"name":"renounceOwnership","outputs":[],"stateMutability":"nonpayable","type":"function"},{"inputs":[{"internalType":"uint256","name":"","type":"uint256"}],"name":"tokens","outputs":[{"internalType":"uint256","name":"tokenId","type":"uint256"},{"internalType":"uint256","name":"price","type":"uint256"},{"internalType":"uint256","name":"investmentAmount","type":"uint256"},{"internalType":"address","name":"buyer","type":"address"},{"internalType":"uint256","name":"purchaseDate","type":"uint256"},{"internalType":"bool","name":"isActive","type":"bool"}],"stateMutability":"view","type":"function"},{"inputs":[{"internalType":"address","name":"newOwner","type":"address"}],"name":"transferOwnership","outputs":[],"stateMutability":"nonpayable","type":"function"},{"inputs":[{"internalType":"address","name":"","type":"address"},{"internalType":"uint256","name":"","type":"uint256"}],"name":"userTokens","outputs":[{"internalType":"uint256","name":"","type":"uint256"}],"stateMutability":"view","type":"function"},{"inputs":[{"internalType":"address","name":"","type":"address"}],"name":"userTotalInvested","outputs":[{"internalType":"uint256","name":"","type":"uint256"}],"stateMutability":"view","type":"function"},{"inputs":[],"name":"withdraw","outputs":[],"stateMutability":"nonpayable","type":"function"}],"evm":{"bytecode":{"linkReferences":{},"object":"6080806040523461005f5760008054336001600160a01b0319821681178355916001600160a01b03909116907f8be0079c531659141344cd1fd0a4f28419497f9722a3daafe3b4186f6b6457e09080a3600180556109ec90816100658239f35b600080fdfe608060408181526004918236101561001657600080fd5b600090813560e01c9081633290ce2914610613575080633ccfd60b146105145780634f64b2be146104a9578063519dc8d2146103fc5780636f9fb98a146103e1578063715018a6146103875780638456cb591461036b578063873a83dc146103075780638a4660fe146103025780638da5cb5b14610343578063bf6ce8a714610307578063d2d8cb6714610302578063e4b50cb8146101e8578063f2fde38b146101215763f9f411d8146100c957600080fd5b3461011e578160031936011261011e576100e161089e565b6001600160a01b031681526020929092528082208054602435939084101561011e5750602092610110916108dc565b91905490519160031b1c8152f35b80fd5b5091346101e45760203660031901126101e45761013c61089e565b9061014561090a565b6001600160a01b0391821692831561019257505082546001600160a01b0319811683178455167f8be0079c531659141344cd1fd0a4f28419497f9722a3daafe3b4186f6b6457e08380a380f35b906020608492519162461bcd60e51b8352820152602660248201527f4f776e61626c653a206e6577206f776e657220697320746865207a65726f206160448201526564647265737360d01b6064820152fd5b8280fd5b5091346101e4576020806003193601126102fe5781358460a0855161020c81610962565b8281528285820152828782015282606082015282608082015201528085526003825283852054156102c65784849160c0965260038352209083519261025084610962565b82549485855260018401549280860193845260028501549082870191825260018060a01b039460a060ff60058860038b0154169760608c019889528a01549960808c019a8b52015416980197151588528351988952519088015251908601525116606084015251608083015251151560a0820152f35b50606492519162461bcd60e51b83528201526014602482015273151bdad95b88191bd95cc81b9bdd08195e1a5cdd60621b6044820152fd5b8380fd5b6108b9565b50903461033f57602036600319011261033f5760209181906001600160a01b0361032f61089e565b1681526005845220549051908152f35b5080fd5b50903461033f578160031936011261033f57905490516001600160a01b039091168152602090f35b503461011e578060031936011261011e5761038461090a565b80f35b503461011e578060031936011261011e576103a061090a565b80546001600160a01b03198116825581906001600160a01b03167f8be0079c531659141344cd1fd0a4f28419497f9722a3daafe3b4186f6b6457e08280a380f35b50903461033f578160031936011261033f5751478152602090f35b5082903461011e576020918260031936011261033f579192916001600160a01b0361042561089e565b1682528352818120908251808584549182815201908194845286842090845b818110610495575050508161045a910382610994565b83519485948186019282875251809352850193925b82811061047e57505050500390f35b83518552869550938101939281019260010161046f565b825484529288019260019283019201610444565b509190346101e45760203660031901126101e4578060c0938335815260036020522080549260018201549260028301549060ff600560018060a01b036003870154169486015495015416948151968752602087015285015260608401526080830152151560a0820152f35b509190346101e457826003193601126101e45761052f61090a565b4780156105da57835484918291829182916001600160a01b03165af13d156105d5573d67ffffffffffffffff81116105c257825190610578601f8201601f191660200183610994565b81528460203d92013e5b1561058b578280f35b906020606492519162461bcd60e51b8352820152601160248201527015da5d1a191c985dd85b0819985a5b1959607a1b6044820152fd5b634e487b7160e01b855260418452602485fd5b610582565b815162461bcd60e51b815260208185015260136024820152724e6f204156415820746f20776974686472617760681b6044820152606490fd5b90508383836003193601126102fe5760026001938185541461085d575080845567016345785d8a00009081341061081a578134066107c75781340491865b83811061068d57505050503384526005602052832080549134830180931161067a575055805580f35b634e487b7160e01b855260119052602484fd5b868354018084558551906106a082610962565b808252898760056020948581018881528d8483018a81526060840191338352608085019342855260a08601978289528a8a526003998a8d5220955186555190850155518b8401558583019060018060a01b039051166bffffffffffffffffffffffff60a01b825416179055518c820155019051151560ff80198354169116179055338b52888352878b20805490680100000000000000008210156107b4579061074d918c820181556108dc565b81929154911b9083821b91600019901b1916179055838751928184528301527f9724b007b03edd022b805a7acc9bbc33ce21a84b5c9e360a5f71b367b97db86d873393a360001981146107a1578601610651565b634e487b7160e01b885260118652602488fd5b634e487b7160e01b8d5260418b5260248dfd5b825162461bcd60e51b8152602081860152602760248201527f496e766573746d656e74206d757374206265206d756c7469706c65206f66203060448201526605c624082ac82b60cb1b6064820152608490fd5b825162461bcd60e51b8152602081860152601e60248201527f4d696e696d756d20696e766573746d656e7420697320302e31204156415800006044820152606490fd5b62461bcd60e51b8152602084820152601f60248201527f5265656e7472616e637947756172643a207265656e7472616e742063616c6c006044820152606490fd5b600435906001600160a01b03821682036108b457565b600080fd5b346108b45760003660031901126108b457602060405167016345785d8a00008152f35b80548210156108f45760005260206000200190600090565b634e487b7160e01b600052603260045260246000fd5b6000546001600160a01b0316330361091e57565b606460405162461bcd60e51b815260206004820152602060248201527f4f776e61626c653a2063616c6c6572206973206e6f7420746865206f776e65726044820152fd5b60c0810190811067ffffffffffffffff82111761097e57604052565b634e487b7160e01b600052604160045260246000fd5b90601f8019910116810190811067ffffffffffffffff82111761097e5760405256fea26469706673582212205b9384535810cf778e72fb281c616b59f1cf8fe79da637d744a5fd013c7cb2e964736f6c63430008130033","opcodes":"PUSH1 0x80 DUP1 PUSH1 0x40 MSTORE CALLVALUE PUSH2 0x5F JUMPI PUSH1 0x0 DUP1 SLOAD CALLER PUSH1 0x1 PUSH1 0x1 PUSH1 0xA0 SHL SUB NOT DUP3 AND DUP2 OR DUP4 SSTORE SWAP2 PUSH1 0x1 PUSH1 0x1 PUSH1 0xA0 SHL SUB SWAP1 SWAP2 AND SWAP1 PUSH32 0x8BE0079C531659141344CD1FD0A4F28419497F9722A3DAAFE3B4186F6B6457E0 SWAP1 DUP1 LOG3 PUSH1 0x1 DUP1 SSTORE PUSH2 0x9EC SWAP1 DUP2 PUSH2 0x65 DUP3 CODECOPY RETURN JUMPDEST PUSH1 0x0 DUP1 REVERT INVALID PUSH1 0x80 PUSH1 0x40 DUP2 DUP2 MSTORE PUSH1 0x4 SWAP2 DUP3 CALLDATASIZE LT ISZERO PUSH2 0x16 JUMPI PUSH1 0x0 DUP1 REVERT JUMPDEST PUSH1 0x0 SWAP1 DUP2 CALLDATALOAD PUSH1 0xE0 SHR SWAP1 DUP2 PUSH4 0x3290CE29 EQ PUSH2 0x613 JUMPI POP DUP1 PUSH4 0x3CCFD60B EQ PUSH2 0x514 JUMPI DUP1 PUSH4 0x4F64B2BE EQ PUSH2 0x4A9 JUMPI DUP1 PUSH4 0x519DC8D2 EQ PUSH2 0x3FC JUMPI DUP1 PUSH4 0x6F9FB98A EQ PUSH2 0x3E1 JUMPI DUP1 PUSH4 0x715018A6 EQ PUSH2 0x387 JUMPI DUP1 PUSH4 0x8456CB59 EQ PUSH2 0x36B JUMPI DUP1 PUSH4 0x873A83DC EQ PUSH2 0x307 JUMPI DUP1 PUSH4 0x8A4660FE EQ PUSH2 0x302 JUMPI DUP1 PUSH4 0x8DA5CB5B EQ PUSH2 0x343 JUMPI DUP1 PUSH4 0xBF6CE8A7 EQ PUSH2 0x307 JUMPI DUP1 PUSH4 0xD2D8CB67 EQ PUSH2 0x302 JUMPI DUP1 PUSH4 0xE4B50CB8 EQ PUSH2 0x1E8 JUMPI DUP1 PUSH4 0xF2FDE38B EQ PUSH2 0x121 JUMPI PUSH4 0xF9F411D8 EQ PUSH2 0xC9 JUMPI PUSH1 0x0 DUP1 REVERT JUMPDEST CALLVALUE PUSH2 0x11E JUMPI DUP2 PUSH1 0x3 NOT CALLDATASIZE ADD SLT PUSH2 0x11E JUMPI PUSH2 0xE1 PUSH2 0x89E JUMP JUMPDEST PUSH1 0x1 PUSH1 0x1 PUSH1 0xA0 SHL SUB AND DUP2 MSTORE PUSH1 0x20 SWAP3 SWAP1 SWAP3 MSTORE DUP1 DUP3 KECCAK256 DUP1 SLOAD PUSH1 0x24 CALLDATALOAD SWAP4 SWAP1 DUP5 LT ISZERO PUSH2 0x11E JUMPI POP PUSH1 0x20 SWAP3 PUSH2 0x110 SWAP2 PUSH2 0x8DC JUMP JUMPDEST SWAP2 SWAP1 SLOAD SWAP1 MLOAD SWAP2 PUSH1 0x3 SHL SHR DUP2 MSTORE RETURN JUMPDEST DUP1 REVERT JUMPDEST POP SWAP2 CALLVALUE PUSH2 0x1E4 JUMPI PUSH1 0x20 CALLDATASIZE PUSH1 0x3 NOT ADD SLT PUSH2 0x1E4 JUMPI PUSH2 0x13C PUSH2 0x89E JUMP JUMPDEST SWAP1 PUSH2 0x145 PUSH2 0x90A JUMP JUMPDEST PUSH1 0x1 PUSH1 0x1 PUSH1 0xA0 SHL SUB SWAP2 DUP3 AND SWAP3 DUP4 ISZERO PUSH2 0x192 JUMPI POP POP DUP3 SLOAD PUSH1 0x1 PUSH1 0x1 PUSH1 0xA0 SHL SUB NOT DUP2 AND DUP4 OR DUP5 SSTORE AND PUSH32 0x8BE0079C531659141344CD1FD0A4F28419497F9722A3DAAFE3B4186F6B6457E0 DUP4 DUP1 LOG3 DUP1 RETURN JUMPDEST SWAP1 PUSH1 0x20 PUSH1 0x84 SWAP3 MLOAD SWAP2 PUSH3 0x461BCD PUSH1 0xE5 SHL DUP4 MSTORE DUP3 ADD MSTORE PUSH1 0x26 PUSH1 0x24 DUP3 ADD MSTORE PUSH32 0x4F776E61626C653A206E6577206F776E657220697320746865207A65726F2061 PUSH1 0x44 DUP3 ADD MSTORE PUSH6 0x646472657373 PUSH1 0xD0 SHL PUSH1 0x64 DUP3 ADD MSTORE REVERT JUMPDEST DUP3 DUP1 REVERT JUMPDEST POP SWAP2 CALLVALUE PUSH2 0x1E4 JUMPI PUSH1 0x20 DUP1 PUSH1 0x3 NOT CALLDATASIZE ADD SLT PUSH2 0x2FE JUMPI DUP2 CALLDATALOAD DUP5 PUSH1 0xA0 DUP6 MLOAD PUSH2 0x20C DUP2 PUSH2 0x962 JUMP JUMPDEST DUP3 DUP2 MSTORE DUP3 DUP6 DUP3 ADD MSTORE DUP3 DUP8 DUP3 ADD MSTORE DUP3 PUSH1 0x60 DUP3 ADD MSTORE DUP3 PUSH1 0x80 DUP3 ADD MSTORE ADD MSTORE DUP1 DUP6 MSTORE PUSH1 0x3 DUP3 MSTORE DUP4 DUP6 KECCAK256 SLOAD ISZERO PUSH2 0x2C6 JUMPI DUP5 DUP5 SWAP2 PUSH1 0xC0 SWAP7 MSTORE PUSH1 0x3 DUP4 MSTORE KECCAK256 SWAP1 DUP4 MLOAD SWAP3 PUSH2 0x250 DUP5 PUSH2 0x962 JUMP JUMPDEST DUP3 SLOAD SWAP5 DUP6 DUP6 MSTORE PUSH1 0x1 DUP5 ADD SLOAD SWAP3 DUP1 DUP7 ADD SWAP4 DUP5 MSTORE PUSH1 0x2 DUP6 ADD SLOAD SWAP1 DUP3 DUP8 ADD SWAP2 DUP3 MSTORE PUSH1 0x1 DUP1 PUSH1 0xA0 SHL SUB SWAP5 PUSH1 0xA0 PUSH1 0xFF PUSH1 0x5 DUP9 PUSH1 0x3 DUP12 ADD SLOAD AND SWAP8 PUSH1 0x60 DUP13 ADD SWAP9 DUP10 MSTORE DUP11 ADD SLOAD SWAP10 PUSH1 0x80 DUP13 ADD SWAP11 DUP12 MSTORE ADD SLOAD AND SWAP9 ADD SWAP8 ISZERO ISZERO DUP9 MSTORE DUP4 MLOAD SWAP9 DUP10 MSTORE MLOAD SWAP1 DUP9 ADD MSTORE MLOAD SWAP1 DUP7 ADD MSTORE MLOAD AND PUSH1 0x60 DUP5 ADD MSTORE MLOAD PUSH1 0x80 DUP4 ADD MSTORE MLOAD ISZERO ISZERO PUSH1 0xA0 DUP3 ADD MSTORE RETURN JUMPDEST POP PUSH1 0x64 SWAP3 MLOAD SWAP2 PUSH3 0x461BCD PUSH1 0xE5 SHL DUP4 MSTORE DUP3 ADD MSTORE PUSH1 0x14 PUSH1 0x24 DUP3 ADD MSTORE PUSH20 0x151BDAD95B88191BD95CC81B9BDD08195E1A5CDD PUSH1 0x62 SHL PUSH1 0x44 DUP3 ADD MSTORE REVERT JUMPDEST DUP4 DUP1 REVERT JUMPDEST PUSH2 0x8B9 JUMP JUMPDEST POP SWAP1 CALLVALUE PUSH2 0x33F JUMPI PUSH1 0x20 CALLDATASIZE PUSH1 0x3 NOT ADD SLT PUSH2 0x33F JUMPI PUSH1 0x20 SWAP2 DUP2 SWAP1 PUSH1 0x1 PUSH1 0x1 PUSH1 0xA0 SHL SUB PUSH2 0x32F PUSH2 0x89E JUMP JUMPDEST AND DUP2 MSTORE PUSH1 0x5 DUP5 MSTORE KECCAK256 SLOAD SWAP1 MLOAD SWAP1 DUP2 MSTORE RETURN JUMPDEST POP DUP1 REVERT JUMPDEST POP SWAP1 CALLVALUE PUSH2 0x33F JUMPI DUP2 PUSH1 0x3 NOT CALLDATASIZE ADD SLT PUSH2 0x33F JUMPI SWAP1 SLOAD SWAP1 MLOAD PUSH1 0x1 PUSH1 0x1 PUSH1 0xA0 SHL SUB SWAP1 SWAP2 AND DUP2 MSTORE PUSH1 0x20 SWAP1 RETURN JUMPDEST POP CALLVALUE PUSH2 0x11E JUMPI DUP1 PUSH1 0x3 NOT CALLDATASIZE ADD SLT PUSH2 0x11E JUMPI PUSH2 0x384 PUSH2 0x90A JUMP JUMPDEST DUP1 RETURN JUMPDEST POP CALLVALUE PUSH2 0x11E JUMPI DUP1 PUSH1 0x3 NOT CALLDATASIZE ADD SLT PUSH2 0x11E JUMPI PUSH2 0x3A0 PUSH2 0x90A JUMP JUMPDEST DUP1 SLOAD PUSH1 0x1 PUSH1 0x1 PUSH1 0xA0 SHL SUB NOT DUP2 AND DUP3 SSTORE DUP2 SWAP1 PUSH1 0x1 PUSH1 0x1 PUSH1 0xA0 SHL SUB AND PUSH32 0x8BE0079C531659141344CD1FD0A4F28419497F9722A3DAAFE3B4186F6B6457E0 DUP3 DUP1 LOG3 DUP1 RETURN JUMPDEST POP SWAP1 CALLVALUE PUSH2 0x33F JUMPI DUP2 PUSH1 0x3 NOT CALLDATASIZE ADD SLT PUSH2 0x33F JUMPI MLOAD SELFBALANCE DUP2 MSTORE PUSH1 0x20 SWAP1 RETURN JUMPDEST POP DUP3 SWAP1 CALLVALUE PUSH2 0x11E JUMPI PUSH1 0x20 SWAP2 DUP3 PUSH1 0x3 NOT CALLDATASIZE ADD SLT PUSH2 0x33F JUMPI SWAP2 SWAP3 SWAP2 PUSH1 0x1 PUSH1 0x1 PUSH1 0xA0 SHL SUB PUSH2 0x425 PUSH2 0x89E JUMP JUMPDEST AND DUP3 MSTORE DUP4 MSTORE DUP2 DUP2 KECCAK256 SWAP1 DUP3 MLOAD DUP1 DUP6 DUP5 SLOAD SWAP2 DUP3 DUP2 MSTORE ADD SWAP1 DUP2 SWAP5 DUP5 MSTORE DUP7 DUP5 KECCAK256 SWAP1 DUP5 JUMPDEST DUP2 DUP2 LT PUSH2 0x495 JUMPI POP POP POP DUP2 PUSH2 0x45A SWAP2 SUB DUP3 PUSH2 0x994 JUMP JUMPDEST DUP4 MLOAD SWAP5 DUP6 SWAP5 DUP2 DUP7 ADD SWAP3 DUP3 DUP8 MSTORE MLOAD DUP1 SWAP4 MSTORE DUP6 ADD SWAP4 SWAP3 JUMPDEST DUP3 DUP2 LT PUSH2 0x47E JUMPI POP POP POP POP SUB SWAP1 RETURN JUMPDEST DUP4 MLOAD DUP6 MSTORE DUP7 SWAP6 POP SWAP4 DUP2 ADD SWAP4 SWAP3 DUP2 ADD SWAP3 PUSH1 0x1 ADD PUSH2 0x46F JUMP JUMPDEST DUP3 SLOAD DUP5 MSTORE SWAP3 DUP9 ADD SWAP3 PUSH1 0x1 SWAP3 DUP4 ADD SWAP3 ADD PUSH2 0x444 JUMP JUMPDEST POP SWAP2 SWAP1 CALLVALUE PUSH2 0x1E4 JUMPI PUSH1 0x20 CALLDATASIZE PUSH1 0x3 NOT ADD SLT PUSH2 0x1E4 JUMPI DUP1 PUSH1 0xC0 SWAP4 DUP4 CALLDATALOAD DUP2 MSTORE PUSH1 0x3 PUSH1 0x20 MSTORE KECCAK256 DUP1 SLOAD SWAP3 PUSH1 0x1 DUP3 ADD SLOAD SWAP3 PUSH1 0x2 DUP4 ADD SLOAD SWAP1 PUSH1 0xFF PUSH1 0x5 PUSH1 0x1 DUP1 PUSH1 0xA0 SHL SUB PUSH1 0x3 DUP8 ADD SLOAD AND SWAP5 DUP7 ADD SLOAD SWAP6 ADD SLOAD AND SWAP5 DUP2 MLOAD SWAP7 DUP8 MSTORE PUSH1 0x20 DUP8 ADD MSTORE DUP6 ADD MSTORE PUSH1 0x60 DUP5 ADD MSTORE PUSH1 0x80 DUP4 ADD MSTORE ISZERO ISZERO PUSH1 0xA0 DUP3 ADD MSTORE RETURN JUMPDEST POP SWAP2 SWAP1 CALLVALUE PUSH2 0x1E4 JUMPI DUP3 PUSH1 0x3 NOT CALLDATASIZE ADD SLT PUSH2 0x1E4 JUMPI PUSH2 0x52F PUSH2 0x90A JUMP JUMPDEST SELFBALANCE DUP1 ISZERO PUSH2 0x5DA JUMPI DUP4 SLOAD DUP5 SWAP2 DUP3 SWAP2 DUP3 SWAP2 DUP3 SWAP2 PUSH1 0x1 PUSH1 0x1 PUSH1 0xA0 SHL SUB AND GAS CALL RETURNDATASIZE ISZERO PUSH2 0x5D5 JUMPI RETURNDATASIZE PUSH8 0xFFFFFFFFFFFFFFFF DUP2 GT PUSH2 0x5C2 JUMPI DUP3 MLOAD SWAP1 PUSH2 0x578 PUSH1 0x1F DUP3 ADD PUSH1 0x1F NOT AND PUSH1 0x20 ADD DUP4 PUSH2 0x994 JUMP JUMPDEST DUP2 MSTORE DUP5 PUSH1 0x20 RETURNDATASIZE SWAP3 ADD RETURNDATACOPY JUMPDEST ISZERO PUSH2 0x58B JUMPI DUP3 DUP1 RETURN JUMPDEST SWAP1 PUSH1 0x20 PUSH1 0x64 SWAP3 MLOAD SWAP2 PUSH3 0x461BCD PUSH1 0xE5 SHL DUP4 MSTORE DUP3 ADD MSTORE PUSH1 0x11 PUSH1 0x24 DUP3 ADD MSTORE PUSH17 0x15DA5D1A191C985DD85B0819985A5B1959 PUSH1 0x7A SHL PUSH1 0x44 DUP3 ADD MSTORE REVERT JUMPDEST PUSH4 0x4E487B71 PUSH1 0xE0 SHL DUP6 MSTORE PUSH1 0x41 DUP5 MSTORE PUSH1 0x24 DUP6 REVERT JUMPDEST PUSH2 0x582 JUMP JUMPDEST DUP2 MLOAD PUSH3 0x461BCD PUSH1 0xE5 SHL DUP2 MSTORE PUSH1 0x20 DUP2 DUP6 ADD MSTORE PUSH1 0x13 PUSH1 0x24 DUP3 ADD MSTORE PUSH19 0x4E6F204156415820746F207769746864726177 PUSH1 0x68 SHL PUSH1 0x44 DUP3 ADD MSTORE PUSH1 0x64 SWAP1 REVERT JUMPDEST SWAP1 POP DUP4 DUP4 DUP4 PUSH1 0x3 NOT CALLDATASIZE ADD SLT PUSH2 0x2FE JUMPI PUSH1 0x2 PUSH1 0x1 SWAP4 DUP2 DUP6 SLOAD EQ PUSH2 0x85D JUMPI POP DUP1 DUP5 SSTORE PUSH8 0x16345785D8A0000 SWAP1 DUP2 CALLVALUE LT PUSH2 0x81A JUMPI DUP2 CALLVALUE MOD PUSH2 0x7C7 JUMPI DUP2 CALLVALUE DIV SWAP2 DUP7 JUMPDEST DUP4 DUP2 LT PUSH2 0x68D JUMPI POP POP POP POP CALLER DUP5 MSTORE PUSH1 0x5 PUSH1 0x20 MSTORE DUP4 KECCAK256 DUP1 SLOAD SWAP2 CALLVALUE DUP4 ADD DUP1 SWAP4 GT PUSH2 0x67A JUMPI POP SSTORE DUP1 SSTORE DUP1 RETURN JUMPDEST PUSH4 0x4E487B71 PUSH1 0xE0 SHL DUP6 MSTORE PUSH1 0x11 SWAP1 MSTORE PUSH1 0x24 DUP5 REVERT JUMPDEST DUP7 DUP4 SLOAD ADD DUP1 DUP5 SSTORE DUP6 MLOAD SWAP1 PUSH2 0x6A0 DUP3 PUSH2 0x962 JUMP JUMPDEST DUP1 DUP3 MSTORE DUP10 DUP8 PUSH1 0x5 PUSH1 0x20 SWAP5 DUP6 DUP2 ADD DUP9 DUP2 MSTORE DUP14 DUP5 DUP4 ADD DUP11 DUP2 MSTORE PUSH1 0x60 DUP5 ADD SWAP2 CALLER DUP4 MSTORE PUSH1 0x80 DUP6 ADD SWAP4 TIMESTAMP DUP6 MSTORE PUSH1 0xA0 DUP7 ADD SWAP8 DUP3 DUP10 MSTORE DUP11 DUP11 MSTORE PUSH1 0x3 SWAP10 DUP11 DUP14 MSTORE KECCAK256 SWAP6 MLOAD DUP7 SSTORE MLOAD SWAP1 DUP6 ADD SSTORE MLOAD DUP12 DUP5 ADD SSTORE DUP6 DUP4 ADD SWAP1 PUSH1 0x1 DUP1 PUSH1 0xA0 SHL SUB SWAP1 MLOAD AND PUSH12 0xFFFFFFFFFFFFFFFFFFFFFFFF PUSH1 0xA0 SHL DUP3 SLOAD AND OR SWAP1 SSTORE MLOAD DUP13 DUP3 ADD SSTORE ADD SWAP1 MLOAD ISZERO ISZERO PUSH1 0xFF DUP1 NOT DUP4 SLOAD AND SWAP2 AND OR SWAP1 SSTORE CALLER DUP12 MSTORE DUP9 DUP4 MSTORE DUP8 DUP12 KECCAK256 DUP1 SLOAD SWAP1 PUSH9 0x10000000000000000 DUP3 LT ISZERO PUSH2 0x7B4 JUMPI SWAP1 PUSH2 0x74D SWAP2 DUP13 DUP3 ADD DUP2 SSTORE PUSH2 0x8DC JUMP JUMPDEST DUP2 SWAP3 SWAP2 SLOAD SWAP2 SHL SWAP1 DUP4 DUP3 SHL SWAP2 PUSH1 0x0 NOT SWAP1 SHL NOT AND OR SWAP1 SSTORE DUP4 DUP8 MLOAD SWAP3 DUP2 DUP5 MSTORE DUP4 ADD MSTORE PUSH32 0x9724B007B03EDD022B805A7ACC9BBC33CE21A84B5C9E360A5F71B367B97DB86D DUP8 CALLER SWAP4 LOG3 PUSH1 0x0 NOT DUP2 EQ PUSH2 0x7A1 JUMPI DUP7 ADD PUSH2 0x651 JUMP JUMPDEST PUSH4 0x4E487B71 PUSH1 0xE0 SHL DUP9 MSTORE PUSH1 0x11 DUP7 MSTORE PUSH1 0x24 DUP9 REVERT JUMPDEST PUSH4 0x4E487B71 PUSH1 0xE0 SHL DUP14 MSTORE PUSH1 0x41 DUP12 MSTORE PUSH1 0x24 DUP14 REVERT JUMPDEST DUP3 MLOAD PUSH3 0x461BCD PUSH1 0xE5 SHL DUP2 MSTORE PUSH1 0x20 DUP2 DUP7 ADD MSTORE PUSH1 0x27 PUSH1 0x24 DUP3 ADD MSTORE PUSH32 0x496E766573746D656E74206D757374206265206D756C7469706C65206F662030 PUSH1 0x44 DUP3 ADD MSTORE PUSH7 0x5C624082AC82B PUSH1 0xCB SHL PUSH1 0x64 DUP3 ADD MSTORE PUSH1 0x84 SWAP1 REVERT JUMPDEST DUP3 MLOAD PUSH3 0x461BCD PUSH1 0xE5 SHL DUP2 MSTORE PUSH1 0x20 DUP2 DUP7 ADD MSTORE PUSH1 0x1E PUSH1 0x24 DUP3 ADD MSTORE PUSH32 0x4D696E696D756D20696E766573746D656E7420697320302E3120415641580000 PUSH1 0x44 DUP3 ADD MSTORE PUSH1 0x64 SWAP1 REVERT JUMPDEST PUSH3 0x461BCD PUSH1 0xE5 SHL DUP2 MSTORE PUSH1 0x20 DUP5 DUP3 ADD MSTORE PUSH1 0x1F PUSH1 0x24 DUP3 ADD MSTORE PUSH32 0x5265656E7472616E637947756172643A207265656E7472616E742063616C6C00 PUSH1 0x44 DUP3 ADD MSTORE PUSH1 0x64 SWAP1 REVERT JUMPDEST PUSH1 0x4 CALLDATALOAD SWAP1 PUSH1 0x1 PUSH1 0x1 PUSH1 0xA0 SHL SUB DUP3 AND DUP3 SUB PUSH2 0x8B4 JUMPI JUMP JUMPDEST PUSH1 0x0 DUP1 REVERT JUMPDEST CALLVALUE PUSH2 0x8B4 JUMPI PUSH1 0x0 CALLDATASIZE PUSH1 0x3 NOT ADD SLT PUSH2 0x8B4 JUMPI PUSH1 0x20 PUSH1 0x40 MLOAD PUSH8 0x16345785D8A0000 DUP2 MSTORE RETURN JUMPDEST DUP1 SLOAD DUP3 LT ISZERO PUSH2 0x8F4 JUMPI PUSH1 0x0 MSTORE PUSH1 0x20 PUSH1 0x0 KECCAK256 ADD SWAP1 PUSH1 0x0 SWAP1 JUMP JUMPDEST PUSH4 0x4E487B71 PUSH1 0xE0 SHL PUSH1 0x0 MSTORE PUSH1 0x32 PUSH1 0x4 MSTORE PUSH1 0x24 PUSH1 0x0 REVERT JUMPDEST PUSH1 0x0 SLOAD PUSH1 0x1 PUSH1 0x1 PUSH1 0xA0 SHL SUB AND CALLER SUB PUSH2 0x91E JUMPI JUMP JUMPDEST PUSH1 0x64 PUSH1 0x40 MLOAD PUSH3 0x461BCD PUSH1 0xE5 SHL DUP2 MSTORE PUSH1 0x20 PUSH1 0x4 DUP3 ADD MSTORE PUSH1 0x20 PUSH1 0x24 DUP3 ADD MSTORE PUSH32 0x4F776E61626C653A2063616C6C6572206973206E6F7420746865206F776E6572 PUSH1 0x44 DUP3 ADD MSTORE REVERT JUMPDEST PUSH1 0xC0 DUP2 ADD SWAP1 DUP2 LT PUSH8 0xFFFFFFFFFFFFFFFF DUP3 GT OR PUSH2 0x97E JUMPI PUSH1 0x40 MSTORE JUMP JUMPDEST PUSH4 0x4E487B71 PUSH1 0xE0 SHL PUSH1 0x0 MSTORE PUSH1 0x41 PUSH1 0x4 MSTORE PUSH1 0x24 PUSH1 0x0 REVERT JUMPDEST SWAP1 PUSH1 0x1F DUP1 NOT SWAP2 ADD AND DUP2 ADD SWAP1 DUP2 LT PUSH8 0xFFFFFFFFFFFFFFFF DUP3 GT OR PUSH2 0x97E JUMPI PUSH1 0x40 MSTORE JUMP INVALID LOG2 PUSH5 0x6970667358 0x22 SLT KECCAK256 JUMPDEST SWAP4 DUP5 MSTORE8 PC LT 0xCF PUSH24 0x8E72FB281C616B59F1CF8FE79DA637D744A5FD013C7CB2E9 PUSH5 0x736F6C6343 STOP ADDMOD SGT STOP CALLER "},"methodIdentifiers":{"MINIMUM_INVESTMENT()":"8a4660fe","TOKEN_PRICE()":"d2d8cb67","getContractBalance()":"6f9fb98a","getToken(uint256)":"e4b50cb8","getUserTokens(address)":"519dc8d2","getUserTotalInvested(address)":"bf6ce8a7","owner()":"8da5cb5b","pause()":"8456cb59","purchaseTokens()":"3290ce29","renounceOwnership()":"715018a6","tokens(uint256)":"4f64b2be","transferOwnership(address)":"f2fde38b","userTokens(address,uint256)":"f9f411d8","userTotalInvested(address)":"873a83dc","withdraw()":"3ccfd60b"}}}}}