{"contracts/VillageCitizenship.sol":{"VillageCitizenship":{"abi":[{"inputs":[],"stateMutability":"nonpayable","type":"constructor"},{"anonymous":false,"inputs":[{"indexed":true,"internalType":"uint256","name":"citizenshipId","type":"uint256"},{"indexed":true,"internalType":"address","name":"citizen","type":"address"},{"indexed":true,"internalType":"uint256","name":"villageId","type":"uint256"},{"indexed":false,"internalType":"uint256","name":"membershipFee","type":"uint256"}],"name":"CitizenshipPurchased","type":"event"},{"anonymous":false,"inputs":[{"indexed":true,"internalType":"address","name":"previousOwner","type":"address"},{"indexed":true,"internalType":"address","name":"newOwner","type":"address"}],"name":"OwnershipTransferred","type":"event"},{"anonymous":false,"inputs":[{"indexed":false,"internalType":"address","name":"account","type":"address"}],"name":"Paused","type":"event"},{"anonymous":false,"inputs":[{"indexed":false,"internalType":"address","name":"account","type":"address"}],"name":"Unpaused","type":"event"},{"anonymous":false,"inputs":[{"indexed":true,"internalType":"uint256","name":"villageId","type":"uint256"},{"indexed":false,"internalType":"string","name":"name","type":"string"},{"indexed":false,"internalType":"uint256","name":"membershipFee","type":"uint256"},{"indexed":false,"internalType":"uint256","name":"maxCitizens","type":"uint256"}],"name":"VillageCreated","type":"event"},{"anonymous":false,"inputs":[{"indexed":true,"internalType":"uint256","name":"villageId","type":"uint256"},{"indexed":false,"internalType":"string","name":"name","type":"string"},{"indexed":false,"internalType":"uint256","name":"membershipFee","type":"uint256"}],"name":"VillageUpdated","type":"event"},{"anonymous":false,"inputs":[{"indexed":true,"internalType":"address","name":"citizen","type":"address"},{"indexed":true,"internalType":"uint256","name":"villageId","type":"uint256"},{"indexed":false,"internalType":"uint256","name":"amount","type":"uint256"}],"name":"YieldClaimed","type":"event"},{"inputs":[{"internalType":"address","name":"","type":"address"},{"internalType":"uint256","name":"","type":"uint256"}],"name":"citizenships","outputs":[{"internalType":"uint256","name":"citizenshipId","type":"uint256"},{"internalType":"address","name":"citizen","type":"address"},{"internalType":"uint256","name":"membershipFee","type":"uint256"},{"internalType":"uint256","name":"joinDate","type":"uint256"},{"internalType":"bool","name":"isActive","type":"bool"},{"internalType":"uint256","name":"monthlyYield","type":"uint256"},{"internalType":"uint256","name":"totalYieldEarned","type":"uint256"},{"internalType":"uint256","name":"lastYieldClaim","type":"uint256"}],"stateMutability":"view","type":"function"},{"inputs":[{"internalType":"uint256","name":"villageId","type":"uint256"}],"name":"claimYield","outputs":[],"stateMutability":"nonpayable","type":"function"},{"inputs":[{"internalType":"string","name":"name","type":"string"},{"internalType":"uint256","name":"membershipFee","type":"uint256"},{"internalType":"uint256","name":"maxCitizens","type":"uint256"},{"internalType":"uint256","name":"monthlyYieldPerCitizen","type":"uint256"}],"name":"createVillage","outputs":[],"stateMutability":"nonpayable","type":"function"},{"inputs":[{"internalType":"address","name":"citizen","type":"address"},{"internalType":"uint256","name":"villageId","type":"uint256"}],"name":"getCitizenship","outputs":[{"internalType":"uint256","name":"citizenshipId","type":"uint256"},{"internalType":"address","name":"citizenAddress","type":"address"},{"internalType":"uint256","name":"membershipFee","type":"uint256"},{"internalType":"uint256","name":"joinDate","type":"uint256"},{"internalType":"bool","name":"isActive","type":"bool"},{"internalType":"uint256","name":"monthlyYield","type":"uint256"},{"internalType":"uint256","name":"totalYieldEarned","type":"uint256"},{"internalType":"uint256","name":"lastYieldClaim","type":"uint256"}],"stateMutability":"view","type":"function"},{"inputs":[{"internalType":"address","name":"user","type":"address"}],"name":"getUserVillages","outputs":[{"internalType":"uint256[]","name":"","type":"uint256[]"}],"stateMutability":"view","type":"function"},{"inputs":[{"internalType":"uint256","name":"villageId","type":"uint256"}],"name":"getVillage","outputs":[{"internalType":"uint256","name":"id","type":"uint256"},{"internalType":"string","name":"name","type":"string"},{"internalType":"uint256","name":"membershipFee","type":"uint256"},{"internalType":"uint256","name":"maxCitizens","type":"uint256"},{"internalType":"uint256","name":"currentCitizens","type":"uint256"},{"internalType":"bool","name":"isActive","type":"bool"},{"internalType":"uint256","name":"monthlyYieldPerCitizen","type":"uint256"}],"stateMutability":"view","type":"function"},{"inputs":[{"internalType":"uint256","name":"villageId","type":"uint256"}],"name":"getVillageCitizens","outputs":[{"internalType":"address[]","name":"","type":"address[]"}],"stateMutability":"view","type":"function"},{"inputs":[{"internalType":"address","name":"user","type":"address"},{"internalType":"uint256","name":"villageId","type":"uint256"}],"name":"isCitizen","outputs":[{"internalType":"bool","name":"","type":"bool"}],"stateMutability":"view","type":"function"},{"inputs":[],"name":"nextCitizenshipId","outputs":[{"internalType":"uint256","name":"","type":"uint256"}],"stateMutability":"view","type":"function"},{"inputs":[],"name":"nextVillageId","outputs":[{"internalType":"uint256","name":"","type":"uint256"}],"stateMutability":"view","type":"function"},{"inputs":[],"name":"owner","outputs":[{"internalType":"address","name":"","type":"address"}],"stateMutability":"view","type":"function"},{"inputs":[],"name":"pause","outputs":[],"stateMutability":"nonpayable","type":"function"},{"inputs":[],"name":"paused","outputs":[{"internalType":"bool","name":"","type":"bool"}],"stateMutability":"view","type":"function"},{"inputs":[{"internalType":"uint256","name":"villageId","type":"uint256"}],"name":"purchaseCitizenship","outputs":[],"stateMutability":"payable","type":"function"},{"inputs":[],"name":"renounceOwnership","outputs":[],"stateMutability":"nonpayable","type":"function"},{"inputs":[{"internalType":"uint256","name":"villageId","type":"uint256"}],"name":"toggleVillage","outputs":[],"stateMutability":"nonpayable","type":"function"},{"inputs":[{"internalType":"address","name":"newOwner","type":"address"}],"name":"transferOwnership","outputs":[],"stateMutability":"nonpayable","type":"function"},{"inputs":[],"name":"unpause","outputs":[],"stateMutability":"nonpayable","type":"function"},{"inputs":[{"internalType":"uint256","name":"villageId","type":"uint256"},{"internalType":"string","name":"name","type":"string"},{"internalType":"uint256","name":"membershipFee","type":"uint256"},{"internalType":"uint256","name":"maxCitizens","type":"uint256"},{"internalType":"uint256","name":"monthlyYieldPerCitizen","type":"uint256"}],"name":"updateVillage","outputs":[],"stateMutability":"nonpayable","type":"function"},{"inputs":[{"internalType":"address","name":"","type":"address"},{"internalType":"uint256","name":"","type":"uint256"}],"name":"userVillages","outputs":[{"internalType":"uint256","name":"","type":"uint256"}],"stateMutability":"view","type":"function"},{"inputs":[{"internalType":"uint256","name":"","type":"uint256"},{"internalType":"uint256","name":"","type":"uint256"}],"name":"villageCitizens","outputs":[{"internalType":"address","name":"","type":"address"}],"stateMutability":"view","type":"function"},{"inputs":[{"internalType":"uint256","name":"","type":"uint256"}],"name":"villages","outputs":[{"internalType":"uint256","name":"villageId","type":"uint256"},{"internalType":"string","name":"name","type":"string"},{"internalType":"uint256","name":"membershipFee","type":"uint256"},{"internalType":"uint256","name":"maxCitizens","type":"uint256"},{"internalType":"uint256","name":"currentCitizens","type":"uint256"},{"internalType":"bool","name":"isActive","type":"bool"},{"internalType":"uint256","name":"monthlyYieldPerCitizen","type":"uint256"}],"stateMutability":"view","type":"function"},{"inputs":[],"name":"withdrawFunds","outputs":[],"stateMutability":"nonpayable","type":"function"},{"stateMutability":"payable","type":"receive"}],"evm":{"bytecode":{"linkReferences":{},"object":"608034620002c65760008054336001600160a01b0319821681178355916001600160a01b03909116907f8be0079c531659141344cd1fd0a4f28419497f9722a3daafe3b4186f6b6457e09080a360018080556002805460ff1916905560078190556008556001600160401b039060e0810182811182821017620002b05760405260018152604051916040830183811082821117620002b057604052600f83526e416e6369656e742056696c6c61676560881b60208401526020820192835267016345785d8a000060408301526103e8606083015260006080830152600160a0830152662386f26fc1000060c08301526001600052600360205260406000209282518455518051918211620002b0576001840154600181811c91168015620002a5575b60208210146200028f57601f81116200023f575b50602090601f8311600114620001c55791806006949260c094600092620001b9575b50508160011b916000199060031b1c19161760018501555b6040810151600285015560608101516003850155608081015160048501556005840160a0820151151560ff8019835416911617905501519101556040516117fe9081620002cc8239f35b01519050388062000157565b906001850160005260206000209160005b601f1985168110620002265750926006949260019260c09583601f198116106200020c575b505050811b0160018501556200016f565b015160001960f88460031b161c19169055388080620001fb565b91926020600181928685015181550194019201620001d6565b600185016000526020600020601f840160051c8101916020851062000284575b601f0160051c01905b81811062000277575062000135565b6000815560010162000268565b90915081906200025f565b634e487b7160e01b600052602260045260246000fd5b90607f169062000121565b634e487b7160e01b600052604160045260246000fd5b600080fdfe6080604052600436101561001b575b361561001957600080fd5b005b60003560e01c8063011c7ca81461134d5780630234f916146112b85780630376002f1461126857806324600fc3146111ef5780633a516f4d14610ecb5780633f4ba83a14610e3757806340bd2e2314610c7e5780634cb0c18114610c605780634d903e8614610b6c5780635930795014610ab45780635a16ab3514610a965780635c975abb14610a7357806363606a8114610a21578063715018a6146109c85780637746f0a7146109105780638456cb59146108b65780638da5cb5b1461088d57806396a05aae14610579578063ad35bc2214610521578063c50347ae14610301578063cde5d1871461024d578063d4aea411146101eb5763f2fde38b0361000e57346101e65760203660031901126101e657610136611424565b61013e611606565b6001600160a01b0390811690811561019257600054826bffffffffffffffffffffffff60a01b821617600055167f8be0079c531659141344cd1fd0a4f28419497f9722a3daafe3b4186f6b6457e0600080a3005b60405162461bcd60e51b815260206004820152602660248201527f4f776e61626c653a206e6577206f776e657220697320746865207a65726f206160448201526564647265737360d01b6064820152608490fd5b600080fd5b346101e65760203660031901126101e65760043560005260036020526040600020805461024961021d60018401611560565b926002810154906003810154600482015490600660ff60058501541693015493604051978897886113e7565b0390f35b346101e6576020806003193601126101e6576001600160a01b0361026f611424565b1660005260058152604060002060405190818382549182815201908192600052846000209060005b868282106102ed5786866102ad828803836114a1565b604051928392818401908285525180915260408401929160005b8281106102d657505050500390f35b8351855286955093810193928101926001016102c7565b835485529093019260019283019201610297565b346101e65760a03660031901126101e65767ffffffffffffffff6004356024358281116101e6576103369036906004016114df565b91604435610342611606565b82600052600360209281845261035e60406000205415156116b9565b61036a8651151561165e565b846000528184526001908160406000200191875191821161050b5761038f8354611526565b601f81116104c2575b5085601f8311600114610436579180807f1b50b6cb49280a71489baa8d88b71871c9fd7c6b0beb669fc4eaeceef5bb10c2999a97959361042299979560009361042b575b501b9160001990851b1c19161790555b866000528083526040600020908260028301556064359082015560066084359101556040519384936040855260408501906113a7565b918301520390a2005b89015192508c6103dc565b601f9291921982169084600052876000209160005b8181106104ad57509183917f1b50b6cb49280a71489baa8d88b71871c9fd7c6b0beb669fc4eaeceef5bb10c29a9b9896946104229a98969410610495575b5050811b0190556103ec565b88015160001983871b60f8161c191690558a80610489565b8b83015184559285019291890191890161044b565b8360005286600020601f840160051c810191888510610501575b601f0160051c019082905b8281106104f5575050610398565b600081550182906104e7565b90915081906104dc565b634e487b7160e01b600052604160045260246000fd5b346101e65760403660031901126101e65761053a611424565b6001600160a01b03166000908152600560205260409020805460243591908210156101e65760209161056b9161143a565b90546040519160031b1c8152f35b346101e65760803660031901126101e65767ffffffffffffffff6004358181116101e6576105ab9036906004016114df565b6105b3611606565b6105bf8151151561165e565b6024351561083a57604435156107e9576007546040516105de81611468565b81815260208101918383526024356040830152604435606083015260006080830152600160a083015260643560c08301526000526003602052604060002091815183555193845190811161050b576106396001840154611526565b601f81116107a2575b506020601f8211600114610726576106fe9493928260069360c0936107169960009261071b575b50508160011b916000199060031b1c19161760018501555b6040810151600285015560608101516003850155608081015160048501556106be60a08201511515600586019060ff801983541691151516179055565b01519101557fe53204ce7689d78b120e343786af68a1086ef226c1b2266521848b41544e35806007549283926040519182916060835260608301906113a7565b602435602083015260443560408301520390a26116aa565b600755005b015190508980610669565b6001840160005260206000209560005b601f198416811061078a5750926001836107169860c0946106fe999897600697601f19811610610771575b505050811b016001850155610681565b015160001960f88460031b161c19169055898080610761565b82820151885560019097019660209283019201610736565b600184016000526020600020601f830160051c8101602084106107e2575b601f830160051c820181106107d6575050610642565b600081556001016107c0565b50806107c0565b60405162461bcd60e51b815260206004820152602360248201527f4d617820636974697a656e73206d75737420626520677265617465722074686160448201526206e20360ec1b6064820152608490fd5b60405162461bcd60e51b815260206004820152602560248201527f4d656d6265727368697020666565206d75737420626520677265617465722074604482015264068616e20360dc1b6064820152608490fd5b346101e65760003660031901126101e6576000546040516001600160a01b039091168152602090f35b346101e65760003660031901126101e6576108cf611606565b6108d76116fe565b600160ff1960025416176002557f62e78cea01bee320cd4e420270b5ea74000d11b0c9f74754ebdbfc544b05a2586020604051338152a1005b346101e65760403660031901126101e6576001600160a01b0380610932611424565b166000526004602052604060002060243560005260205260406000209061024982549160018401541692600281015490600381015460ff60048301541660058301549160076006850154940154946040519889988994919260e0969399989794919961010087019a875260018060a01b03166020870152604086015260608501521515608084015260a083015260c08201520152565b346101e65760003660031901126101e6576109e1611606565b600080546001600160a01b0319811682556001600160a01b03167f8be0079c531659141344cd1fd0a4f28419497f9722a3daafe3b4186f6b6457e08280a3005b346101e65760403660031901126101e6576024356004356000526006602052604060002080548210156101e657602091610a5a9161143a565b905460405160039290921b1c6001600160a01b03168152f35b346101e65760003660031901126101e657602060ff600254166040519015158152f35b346101e65760003660031901126101e6576020600854604051908152f35b346101e6576020806003193601126101e65760043560005260068152604060002060405190818382549182815201908192600052846000209060005b86828210610b4f578686610b06828803836114a1565b604051928392818401908285525180915260408401929160005b828110610b2f57505050500390f35b83516001600160a01b031685528695509381019392810192600101610b20565b83546001600160a01b031685529093019260019283019201610af0565b346101e65760403660031901126101e6576001600160a01b0380610b8e611424565b166000526004602052604060002060243560005260205260406000209061024960e060405193610bbd85611484565b805493848652600182015416948560208201526002820154806040830152600383015480606084015260ff6004850154161515918260808501526005850154938460a082015260076006870154968760c0840152015496879101526040519889988994919260e0969399989794919961010087019a875260018060a01b03166020870152604086015260608501521515608084015260a083015260c08201520152565b346101e65760003660031901126101e6576020600754604051908152f35b346101e6576020806003193601126101e65760043590610c9c611742565b3360005260048152604060002082600052815260406000209060ff60048301541615610dfa576007820180544203428111610d8d5762278d0090049260018410610da3576005810154848102948186041490151715610d8d57600601805490848201809211610d8d5755429055600080808085335af1610d1a611798565b5015610d51577f10d8dedfc0745b8c25ba10b06e304138b251c18dcaadf2d71c7f3214719dc4d1906040519283523392a360018055005b6064906040519062461bcd60e51b825260048201526015602482015274165a595b19081d1c985b9cd9995c8819985a5b1959605a1b6044820152fd5b634e487b7160e01b600052601160045260246000fd5b60405162461bcd60e51b815260048101849052602960248201527f4d7573742077616974206174206c656173742031206d6f6e7468206265747765604482015268656e20636c61696d7360b81b6064820152608490fd5b6064906040519062461bcd60e51b825260048201526016602482015275436974697a656e73686970206e6f742061637469766560501b6044820152fd5b346101e65760003660031901126101e657610e50611606565b60025460ff811615610e8f5760ff19166002557f5db9ee0a495bf2e6ff9c91a7834c1ba4fdd244a5e8aa4e537bd38aeae4b073aa6020604051338152a1005b60405162461bcd60e51b815260206004820152601460248201527314185d5cd8589b194e881b9bdd081c185d5cd95960621b6044820152606490fd5b6020806003193601126101e65760043590610ee4611742565b610eec6116fe565b8160005260038152604060002091610f06835415156116b9565b60ff600584015416156111b257600483019081546003850154111561117b57600284019283549283341061113f573360005260048252604060002083600052825260ff600460406000200154166110f05760066008549601549560405190610f6d82611484565b8152600783820195338752604083019081526060830190428252608084019961101260019b8c9485825260a0880193845260c08801946000865260e08901964288523360005260048c5260406000208d6000528c52604060002099518a55890160018060a01b03809e51166bffffffffffffffffffffffff60a01b825416179055516002890155516003880155511515600487019060ff801983541691151516179055565b5160058501555160068401555191015561102c81546116aa565b9055816000526006815260406000209283549368010000000000000000948581101561050b5761106091888201815561143a565b819291549060031b9133831b921b1916179055336000526005815260406000209384549384101561050b576110be846110e996887f6dffce51e54d67e658dfab4a289de183a3741d7b89a6ef40fc5b201ff94c27a49701815561143a565b81549060031b9085821b91600019901b191617905560085493849154926040519384523393a46116aa565b6008558055005b60405162461bcd60e51b815260048101839052602160248201527f416c7265616479206120636974697a656e206f6620746869732076696c6c61676044820152606560f81b6064820152608490fd5b60405162461bcd60e51b8152600481018390526014602482015273125b9cdd59999a58da595b9d081c185e5b595b9d60621b6044820152606490fd5b60405162461bcd60e51b815260048101849052600f60248201526e159a5b1b1859d9481a5cc8199d5b1b608a1b6044820152606490fd5b60405162461bcd60e51b815260048101839052601560248201527456696c6c616765206973206e6f742061637469766560581b6044820152606490fd5b346101e65760003660031901126101e657611208611606565b6000805481908190819047906001600160a01b03165af1611227611798565b501561122f57005b60405162461bcd60e51b815260206004820152601160248201527015da5d1a191c985dd85b0819985a5b1959607a1b6044820152606490fd5b346101e65760403660031901126101e6576001600160a01b03611289611424565b1660005260046020526040600020602435600052602052602060ff600460406000200154166040519015158152f35b346101e65760203660031901126101e65760043560005260036020526040600020604051906112e682611468565b805482526102496112f960018301611560565b928360208201526002830154928360408301526003810154806060840152600482015490816080850152600660ff6005850154161515938460a08701520154938460c08201525195604051978897886113e7565b346101e65760203660031901126101e657600435611369611606565b80600052600360205261138260406000205415156116b9565b6000908152600360205260409020600501805460ff818116151660ff19909116179055005b919082519283825260005b8481106113d3575050826000602080949584010152601f8019910116010190565b6020818301810151848301820152016113b2565b939060c09592611409919998979499865260e0602087015260e08601906113a7565b97604085015260608401526080830152151560a08201520152565b600435906001600160a01b03821682036101e657565b80548210156114525760005260206000200190600090565b634e487b7160e01b600052603260045260246000fd5b60e0810190811067ffffffffffffffff82111761050b57604052565b610100810190811067ffffffffffffffff82111761050b57604052565b90601f8019910116810190811067ffffffffffffffff82111761050b57604052565b67ffffffffffffffff811161050b57601f01601f191660200190565b81601f820112156101e6578035906114f6826114c3565b9261150460405194856114a1565b828452602083830101116101e657816000926020809301838601378301015290565b90600182811c92168015611556575b602083101461154057565b634e487b7160e01b600052602260045260246000fd5b91607f1691611535565b906040519182600082549261157484611526565b9081845260019485811690816000146115e357506001146115a0575b505061159e925003836114a1565b565b9093915060005260209081600020936000915b8183106115cb57505061159e93508201013880611590565b855488840185015294850194879450918301916115b3565b91505061159e94506020925060ff191682840152151560051b8201013880611590565b6000546001600160a01b0316330361161a57565b606460405162461bcd60e51b815260206004820152602060248201527f4f776e61626c653a2063616c6c6572206973206e6f7420746865206f776e65726044820152fd5b1561166557565b60405162461bcd60e51b815260206004820152601c60248201527f56696c6c616765206e616d652063616e6e6f7420626520656d707479000000006044820152606490fd5b6000198114610d8d5760010190565b156116c057565b60405162461bcd60e51b8152602060048201526016602482015275159a5b1b1859d948191bd95cc81b9bdd08195e1a5cdd60521b6044820152606490fd5b60ff6002541661170a57565b60405162461bcd60e51b815260206004820152601060248201526f14185d5cd8589b194e881c185d5cd95960821b6044820152606490fd5b600260015414611753576002600155565b60405162461bcd60e51b815260206004820152601f60248201527f5265656e7472616e637947756172643a207265656e7472616e742063616c6c006044820152606490fd5b3d156117c3573d906117a9826114c3565b916117b760405193846114a1565b82523d6000602084013e565b60609056fea2646970667358221220e008b6efa2467cbf547a53a743acd63fe43f51074846e962d290b351f64279aa64736f6c63430008130033","opcodes":"PUSH1 0x80 CALLVALUE PUSH3 0x2C6 JUMPI PUSH1 0x0 DUP1 SLOAD CALLER PUSH1 0x1 PUSH1 0x1 PUSH1 0xA0 SHL SUB NOT DUP3 AND DUP2 OR DUP4 SSTORE SWAP2 PUSH1 0x1 PUSH1 0x1 PUSH1 0xA0 SHL SUB SWAP1 SWAP2 AND SWAP1 PUSH32 0x8BE0079C531659141344CD1FD0A4F28419497F9722A3DAAFE3B4186F6B6457E0 SWAP1 DUP1 LOG3 PUSH1 0x1 DUP1 DUP1 SSTORE PUSH1 0x2 DUP1 SLOAD PUSH1 0xFF NOT AND SWAP1 SSTORE PUSH1 0x7 DUP2 SWAP1 SSTORE PUSH1 0x8 SSTORE PUSH1 0x1 PUSH1 0x1 PUSH1 0x40 SHL SUB SWAP1 PUSH1 0xE0 DUP2 ADD DUP3 DUP2 GT DUP3 DUP3 LT OR PUSH3 0x2B0 JUMPI PUSH1 0x40 MSTORE PUSH1 0x1 DUP2 MSTORE PUSH1 0x40 MLOAD SWAP2 PUSH1 0x40 DUP4 ADD DUP4 DUP2 LT DUP3 DUP3 GT OR PUSH3 0x2B0 JUMPI PUSH1 0x40 MSTORE PUSH1 0xF DUP4 MSTORE PUSH15 0x416E6369656E742056696C6C616765 PUSH1 0x88 SHL PUSH1 0x20 DUP5 ADD MSTORE PUSH1 0x20 DUP3 ADD SWAP3 DUP4 MSTORE PUSH8 0x16345785D8A0000 PUSH1 0x40 DUP4 ADD MSTORE PUSH2 0x3E8 PUSH1 0x60 DUP4 ADD MSTORE PUSH1 0x0 PUSH1 0x80 DUP4 ADD MSTORE PUSH1 0x1 PUSH1 0xA0 DUP4 ADD MSTORE PUSH7 0x2386F26FC10000 PUSH1 0xC0 DUP4 ADD MSTORE PUSH1 0x1 PUSH1 0x0 MSTORE PUSH1 0x3 PUSH1 0x20 MSTORE PUSH1 0x40 PUSH1 0x0 KECCAK256 SWAP3 DUP3 MLOAD DUP5 SSTORE MLOAD DUP1 MLOAD SWAP2 DUP3 GT PUSH3 0x2B0 JUMPI PUSH1 0x1 DUP5 ADD SLOAD PUSH1 0x1 DUP2 DUP2 SHR SWAP2 AND DUP1 ISZERO PUSH3 0x2A5 JUMPI JUMPDEST PUSH1 0x20 DUP3 LT EQ PUSH3 0x28F JUMPI PUSH1 0x1F DUP2 GT PUSH3 0x23F JUMPI JUMPDEST POP PUSH1 0x20 SWAP1 PUSH1 0x1F DUP4 GT PUSH1 0x1 EQ PUSH3 0x1C5 JUMPI SWAP2 DUP1 PUSH1 0x6 SWAP5 SWAP3 PUSH1 0xC0 SWAP5 PUSH1 0x0 SWAP3 PUSH3 0x1B9 JUMPI JUMPDEST POP POP DUP2 PUSH1 0x1 SHL SWAP2 PUSH1 0x0 NOT SWAP1 PUSH1 0x3 SHL SHR NOT AND OR PUSH1 0x1 DUP6 ADD SSTORE JUMPDEST PUSH1 0x40 DUP2 ADD MLOAD PUSH1 0x2 DUP6 ADD SSTORE PUSH1 0x60 DUP2 ADD MLOAD PUSH1 0x3 DUP6 ADD SSTORE PUSH1 0x80 DUP2 ADD MLOAD PUSH1 0x4 DUP6 ADD SSTORE PUSH1 0x5 DUP5 ADD PUSH1 0xA0 DUP3 ADD MLOAD ISZERO ISZERO PUSH1 0xFF DUP1 NOT DUP4 SLOAD AND SWAP2 AND OR SWAP1 SSTORE ADD MLOAD SWAP2 ADD SSTORE PUSH1 0x40 MLOAD PUSH2 0x17FE SWAP1 DUP2 PUSH3 0x2CC DUP3 CODECOPY RETURN JUMPDEST ADD MLOAD SWAP1 POP CODESIZE DUP1 PUSH3 0x157 JUMP JUMPDEST SWAP1 PUSH1 0x1 DUP6 ADD PUSH1 0x0 MSTORE PUSH1 0x20 PUSH1 0x0 KECCAK256 SWAP2 PUSH1 0x0 JUMPDEST PUSH1 0x1F NOT DUP6 AND DUP2 LT PUSH3 0x226 JUMPI POP SWAP3 PUSH1 0x6 SWAP5 SWAP3 PUSH1 0x1 SWAP3 PUSH1 0xC0 SWAP6 DUP4 PUSH1 0x1F NOT DUP2 AND LT PUSH3 0x20C JUMPI JUMPDEST POP POP POP DUP2 SHL ADD PUSH1 0x1 DUP6 ADD SSTORE PUSH3 0x16F JUMP JUMPDEST ADD MLOAD PUSH1 0x0 NOT PUSH1 0xF8 DUP5 PUSH1 0x3 SHL AND SHR NOT AND SWAP1 SSTORE CODESIZE DUP1 DUP1 PUSH3 0x1FB JUMP JUMPDEST SWAP2 SWAP3 PUSH1 0x20 PUSH1 0x1 DUP2 SWAP3 DUP7 DUP6 ADD MLOAD DUP2 SSTORE ADD SWAP5 ADD SWAP3 ADD PUSH3 0x1D6 JUMP JUMPDEST PUSH1 0x1 DUP6 ADD PUSH1 0x0 MSTORE PUSH1 0x20 PUSH1 0x0 KECCAK256 PUSH1 0x1F DUP5 ADD PUSH1 0x5 SHR DUP2 ADD SWAP2 PUSH1 0x20 DUP6 LT PUSH3 0x284 JUMPI JUMPDEST PUSH1 0x1F ADD PUSH1 0x5 SHR ADD SWAP1 JUMPDEST DUP2 DUP2 LT PUSH3 0x277 JUMPI POP PUSH3 0x135 JUMP JUMPDEST PUSH1 0x0 DUP2 SSTORE PUSH1 0x1 ADD PUSH3 0x268 JUMP JUMPDEST SWAP1 SWAP2 POP DUP2 SWAP1 PUSH3 0x25F JUMP JUMPDEST PUSH4 0x4E487B71 PUSH1 0xE0 SHL PUSH1 0x0 MSTORE PUSH1 0x22 PUSH1 0x4 MSTORE PUSH1 0x24 PUSH1 0x0 REVERT JUMPDEST SWAP1 PUSH1 0x7F AND SWAP1 PUSH3 0x121 JUMP JUMPDEST PUSH4 0x4E487B71 PUSH1 0xE0 SHL PUSH1 0x0 MSTORE PUSH1 0x41 PUSH1 0x4 MSTORE PUSH1 0x24 PUSH1 0x0 REVERT JUMPDEST PUSH1 0x0 DUP1 REVERT INVALID PUSH1 0x80 PUSH1 0x40 MSTORE PUSH1 0x4 CALLDATASIZE LT ISZERO PUSH2 0x1B JUMPI JUMPDEST CALLDATASIZE ISZERO PUSH2 0x19 JUMPI PUSH1 0x0 DUP1 REVERT JUMPDEST STOP JUMPDEST PUSH1 0x0 CALLDATALOAD PUSH1 0xE0 SHR DUP1 PUSH4 0x11C7CA8 EQ PUSH2 0x134D JUMPI DUP1 PUSH4 0x234F916 EQ PUSH2 0x12B8 JUMPI DUP1 PUSH4 0x376002F EQ PUSH2 0x1268 JUMPI DUP1 PUSH4 0x24600FC3 EQ PUSH2 0x11EF JUMPI DUP1 PUSH4 0x3A516F4D EQ PUSH2 0xECB JUMPI DUP1 PUSH4 0x3F4BA83A EQ PUSH2 0xE37 JUMPI DUP1 PUSH4 0x40BD2E23 EQ PUSH2 0xC7E JUMPI DUP1 PUSH4 0x4CB0C181 EQ PUSH2 0xC60 JUMPI DUP1 PUSH4 0x4D903E86 EQ PUSH2 0xB6C JUMPI DUP1 PUSH4 0x59307950 EQ PUSH2 0xAB4 JUMPI DUP1 PUSH4 0x5A16AB35 EQ PUSH2 0xA96 JUMPI DUP1 PUSH4 0x5C975ABB EQ PUSH2 0xA73 JUMPI DUP1 PUSH4 0x63606A81 EQ PUSH2 0xA21 JUMPI DUP1 PUSH4 0x715018A6 EQ PUSH2 0x9C8 JUMPI DUP1 PUSH4 0x7746F0A7 EQ PUSH2 0x910 JUMPI DUP1 PUSH4 0x8456CB59 EQ PUSH2 0x8B6 JUMPI DUP1 PUSH4 0x8DA5CB5B EQ PUSH2 0x88D JUMPI DUP1 PUSH4 0x96A05AAE EQ PUSH2 0x579 JUMPI DUP1 PUSH4 0xAD35BC22 EQ PUSH2 0x521 JUMPI DUP1 PUSH4 0xC50347AE EQ PUSH2 0x301 JUMPI DUP1 PUSH4 0xCDE5D187 EQ PUSH2 0x24D JUMPI DUP1 PUSH4 0xD4AEA411 EQ PUSH2 0x1EB JUMPI PUSH4 0xF2FDE38B SUB PUSH2 0xE JUMPI CALLVALUE PUSH2 0x1E6 JUMPI PUSH1 0x20 CALLDATASIZE PUSH1 0x3 NOT ADD SLT PUSH2 0x1E6 JUMPI PUSH2 0x136 PUSH2 0x1424 JUMP JUMPDEST PUSH2 0x13E PUSH2 0x1606 JUMP JUMPDEST PUSH1 0x1 PUSH1 0x1 PUSH1 0xA0 SHL SUB SWAP1 DUP2 AND SWAP1 DUP2 ISZERO PUSH2 0x192 JUMPI PUSH1 0x0 SLOAD DUP3 PUSH12 0xFFFFFFFFFFFFFFFFFFFFFFFF PUSH1 0xA0 SHL DUP3 AND OR PUSH1 0x0 SSTORE AND PUSH32 0x8BE0079C531659141344CD1FD0A4F28419497F9722A3DAAFE3B4186F6B6457E0 PUSH1 0x0 DUP1 LOG3 STOP JUMPDEST PUSH1 0x40 MLOAD PUSH3 0x461BCD PUSH1 0xE5 SHL DUP2 MSTORE PUSH1 0x20 PUSH1 0x4 DUP3 ADD MSTORE PUSH1 0x26 PUSH1 0x24 DUP3 ADD MSTORE PUSH32 0x4F776E61626C653A206E6577206F776E657220697320746865207A65726F2061 PUSH1 0x44 DUP3 ADD MSTORE PUSH6 0x646472657373 PUSH1 0xD0 SHL PUSH1 0x64 DUP3 ADD MSTORE PUSH1 0x84 SWAP1 REVERT JUMPDEST PUSH1 0x0 DUP1 REVERT JUMPDEST CALLVALUE PUSH2 0x1E6 JUMPI PUSH1 0x20 CALLDATASIZE PUSH1 0x3 NOT ADD SLT PUSH2 0x1E6 JUMPI PUSH1 0x4 CALLDATALOAD PUSH1 0x0 MSTORE PUSH1 0x3 PUSH1 0x20 MSTORE PUSH1 0x40 PUSH1 0x0 KECCAK256 DUP1 SLOAD PUSH2 0x249 PUSH2 0x21D PUSH1 0x1 DUP5 ADD PUSH2 0x1560 JUMP JUMPDEST SWAP3 PUSH1 0x2 DUP2 ADD SLOAD SWAP1 PUSH1 0x3 DUP2 ADD SLOAD PUSH1 0x4 DUP3 ADD SLOAD SWAP1 PUSH1 0x6 PUSH1 0xFF PUSH1 0x5 DUP6 ADD SLOAD AND SWAP4 ADD SLOAD SWAP4 PUSH1 0x40 MLOAD SWAP8 DUP9 SWAP8 DUP9 PUSH2 0x13E7 JUMP JUMPDEST SUB SWAP1 RETURN JUMPDEST CALLVALUE PUSH2 0x1E6 JUMPI PUSH1 0x20 DUP1 PUSH1 0x3 NOT CALLDATASIZE ADD SLT PUSH2 0x1E6 JUMPI PUSH1 0x1 PUSH1 0x1 PUSH1 0xA0 SHL SUB PUSH2 0x26F PUSH2 0x1424 JUMP JUMPDEST AND PUSH1 0x0 MSTORE PUSH1 0x5 DUP2 MSTORE PUSH1 0x40 PUSH1 0x0 KECCAK256 PUSH1 0x40 MLOAD SWAP1 DUP2 DUP4 DUP3 SLOAD SWAP2 DUP3 DUP2 MSTORE ADD SWAP1 DUP2 SWAP3 PUSH1 0x0 MSTORE DUP5 PUSH1 0x0 KECCAK256 SWAP1 PUSH1 0x0 JUMPDEST DUP7 DUP3 DUP3 LT PUSH2 0x2ED JUMPI DUP7 DUP7 PUSH2 0x2AD DUP3 DUP9 SUB DUP4 PUSH2 0x14A1 JUMP JUMPDEST PUSH1 0x40 MLOAD SWAP3 DUP4 SWAP3 DUP2 DUP5 ADD SWAP1 DUP3 DUP6 MSTORE MLOAD DUP1 SWAP2 MSTORE PUSH1 0x40 DUP5 ADD SWAP3 SWAP2 PUSH1 0x0 JUMPDEST DUP3 DUP2 LT PUSH2 0x2D6 JUMPI POP POP POP POP SUB SWAP1 RETURN JUMPDEST DUP4 MLOAD DUP6 MSTORE DUP7 SWAP6 POP SWAP4 DUP2 ADD SWAP4 SWAP3 DUP2 ADD SWAP3 PUSH1 0x1 ADD PUSH2 0x2C7 JUMP JUMPDEST DUP4 SLOAD DUP6 MSTORE SWAP1 SWAP4 ADD SWAP3 PUSH1 0x1 SWAP3 DUP4 ADD SWAP3 ADD PUSH2 0x297 JUMP JUMPDEST CALLVALUE PUSH2 0x1E6 JUMPI PUSH1 0xA0 CALLDATASIZE PUSH1 0x3 NOT ADD SLT PUSH2 0x1E6 JUMPI PUSH8 0xFFFFFFFFFFFFFFFF PUSH1 0x4 CALLDATALOAD PUSH1 0x24 CALLDATALOAD DUP3 DUP2 GT PUSH2 0x1E6 JUMPI PUSH2 0x336 SWAP1 CALLDATASIZE SWAP1 PUSH1 0x4 ADD PUSH2 0x14DF JUMP JUMPDEST SWAP2 PUSH1 0x44 CALLDATALOAD PUSH2 0x342 PUSH2 0x1606 JUMP JUMPDEST DUP3 PUSH1 0x0 MSTORE PUSH1 0x3 PUSH1 0x20 SWAP3 DUP2 DUP5 MSTORE PUSH2 0x35E PUSH1 0x40 PUSH1 0x0 KECCAK256 SLOAD ISZERO ISZERO PUSH2 0x16B9 JUMP JUMPDEST PUSH2 0x36A DUP7 MLOAD ISZERO ISZERO PUSH2 0x165E JUMP JUMPDEST DUP5 PUSH1 0x0 MSTORE DUP2 DUP5 MSTORE PUSH1 0x1 SWAP1 DUP2 PUSH1 0x40 PUSH1 0x0 KECCAK256 ADD SWAP2 DUP8 MLOAD SWAP2 DUP3 GT PUSH2 0x50B JUMPI PUSH2 0x38F DUP4 SLOAD PUSH2 0x1526 JUMP JUMPDEST PUSH1 0x1F DUP2 GT PUSH2 0x4C2 JUMPI JUMPDEST POP DUP6 PUSH1 0x1F DUP4 GT PUSH1 0x1 EQ PUSH2 0x436 JUMPI SWAP2 DUP1 DUP1 PUSH32 0x1B50B6CB49280A71489BAA8D88B71871C9FD7C6B0BEB669FC4EAECEEF5BB10C2 SWAP10 SWAP11 SWAP8 SWAP6 SWAP4 PUSH2 0x422 SWAP10 SWAP8 SWAP6 PUSH1 0x0 SWAP4 PUSH2 0x42B JUMPI JUMPDEST POP SHL SWAP2 PUSH1 0x0 NOT SWAP1 DUP6 SHL SHR NOT AND OR SWAP1 SSTORE JUMPDEST DUP7 PUSH1 0x0 MSTORE DUP1 DUP4 MSTORE PUSH1 0x40 PUSH1 0x0 KECCAK256 SWAP1 DUP3 PUSH1 0x2 DUP4 ADD SSTORE PUSH1 0x64 CALLDATALOAD SWAP1 DUP3 ADD SSTORE PUSH1 0x6 PUSH1 0x84 CALLDATALOAD SWAP2 ADD SSTORE PUSH1 0x40 MLOAD SWAP4 DUP5 SWAP4 PUSH1 0x40 DUP6 MSTORE PUSH1 0x40 DUP6 ADD SWAP1 PUSH2 0x13A7 JUMP JUMPDEST SWAP2 DUP4 ADD MSTORE SUB SWAP1 LOG2 STOP JUMPDEST DUP10 ADD MLOAD SWAP3 POP DUP13 PUSH2 0x3DC JUMP JUMPDEST PUSH1 0x1F SWAP3 SWAP2 SWAP3 NOT DUP3 AND SWAP1 DUP5 PUSH1 0x0 MSTORE DUP8 PUSH1 0x0 KECCAK256 SWAP2 PUSH1 0x0 JUMPDEST DUP2 DUP2 LT PUSH2 0x4AD JUMPI POP SWAP2 DUP4 SWAP2 PUSH32 0x1B50B6CB49280A71489BAA8D88B71871C9FD7C6B0BEB669FC4EAECEEF5BB10C2 SWAP11 SWAP12 SWAP9 SWAP7 SWAP5 PUSH2 0x422 SWAP11 SWAP9 SWAP7 SWAP5 LT PUSH2 0x495 JUMPI JUMPDEST POP POP DUP2 SHL ADD SWAP1 SSTORE PUSH2 0x3EC JUMP JUMPDEST DUP9 ADD MLOAD PUSH1 0x0 NOT DUP4 DUP8 SHL PUSH1 0xF8 AND SHR NOT AND SWAP1 SSTORE DUP11 DUP1 PUSH2 0x489 JUMP JUMPDEST DUP12 DUP4 ADD MLOAD DUP5 SSTORE SWAP3 DUP6 ADD SWAP3 SWAP2 DUP10 ADD SWAP2 DUP10 ADD PUSH2 0x44B JUMP JUMPDEST DUP4 PUSH1 0x0 MSTORE DUP7 PUSH1 0x0 KECCAK256 PUSH1 0x1F DUP5 ADD PUSH1 0x5 SHR DUP2 ADD SWAP2 DUP9 DUP6 LT PUSH2 0x501 JUMPI JUMPDEST PUSH1 0x1F ADD PUSH1 0x5 SHR ADD SWAP1 DUP3 SWAP1 JUMPDEST DUP3 DUP2 LT PUSH2 0x4F5 JUMPI POP POP PUSH2 0x398 JUMP JUMPDEST PUSH1 0x0 DUP2 SSTORE ADD DUP3 SWAP1 PUSH2 0x4E7 JUMP JUMPDEST SWAP1 SWAP2 POP DUP2 SWAP1 PUSH2 0x4DC JUMP JUMPDEST PUSH4 0x4E487B71 PUSH1 0xE0 SHL PUSH1 0x0 MSTORE PUSH1 0x41 PUSH1 0x4 MSTORE PUSH1 0x24 PUSH1 0x0 REVERT JUMPDEST CALLVALUE PUSH2 0x1E6 JUMPI PUSH1 0x40 CALLDATASIZE PUSH1 0x3 NOT ADD SLT PUSH2 0x1E6 JUMPI PUSH2 0x53A PUSH2 0x1424 JUMP JUMPDEST PUSH1 0x1 PUSH1 0x1 PUSH1 0xA0 SHL SUB AND PUSH1 0x0 SWAP1 DUP2 MSTORE PUSH1 0x5 PUSH1 0x20 MSTORE PUSH1 0x40 SWAP1 KECCAK256 DUP1 SLOAD PUSH1 0x24 CALLDATALOAD SWAP2 SWAP1 DUP3 LT ISZERO PUSH2 0x1E6 JUMPI PUSH1 0x20 SWAP2 PUSH2 0x56B SWAP2 PUSH2 0x143A JUMP JUMPDEST SWAP1 SLOAD PUSH1 0x40 MLOAD SWAP2 PUSH1 0x3 SHL SHR DUP2 MSTORE RETURN JUMPDEST CALLVALUE PUSH2 0x1E6 JUMPI PUSH1 0x80 CALLDATASIZE PUSH1 0x3 NOT ADD SLT PUSH2 0x1E6 JUMPI PUSH8 0xFFFFFFFFFFFFFFFF PUSH1 0x4 CALLDATALOAD DUP2 DUP2 GT PUSH2 0x1E6 JUMPI PUSH2 0x5AB SWAP1 CALLDATASIZE SWAP1 PUSH1 0x4 ADD PUSH2 0x14DF JUMP JUMPDEST PUSH2 0x5B3 PUSH2 0x1606 JUMP JUMPDEST PUSH2 0x5BF DUP2 MLOAD ISZERO ISZERO PUSH2 0x165E JUMP JUMPDEST PUSH1 0x24 CALLDATALOAD ISZERO PUSH2 0x83A JUMPI PUSH1 0x44 CALLDATALOAD ISZERO PUSH2 0x7E9 JUMPI PUSH1 0x7 SLOAD PUSH1 0x40 MLOAD PUSH2 0x5DE DUP2 PUSH2 0x1468 JUMP JUMPDEST DUP2 DUP2 MSTORE PUSH1 0x20 DUP2 ADD SWAP2 DUP4 DUP4 MSTORE PUSH1 0x24 CALLDATALOAD PUSH1 0x40 DUP4 ADD MSTORE PUSH1 0x44 CALLDATALOAD PUSH1 0x60 DUP4 ADD MSTORE PUSH1 0x0 PUSH1 0x80 DUP4 ADD MSTORE PUSH1 0x1 PUSH1 0xA0 DUP4 ADD MSTORE PUSH1 0x64 CALLDATALOAD PUSH1 0xC0 DUP4 ADD MSTORE PUSH1 0x0 MSTORE PUSH1 0x3 PUSH1 0x20 MSTORE PUSH1 0x40 PUSH1 0x0 KECCAK256 SWAP2 DUP2 MLOAD DUP4 SSTORE MLOAD SWAP4 DUP5 MLOAD SWAP1 DUP2 GT PUSH2 0x50B JUMPI PUSH2 0x639 PUSH1 0x1 DUP5 ADD SLOAD PUSH2 0x1526 JUMP JUMPDEST PUSH1 0x1F DUP2 GT PUSH2 0x7A2 JUMPI JUMPDEST POP PUSH1 0x20 PUSH1 0x1F DUP3 GT PUSH1 0x1 EQ PUSH2 0x726 JUMPI PUSH2 0x6FE SWAP5 SWAP4 SWAP3 DUP3 PUSH1 0x6 SWAP4 PUSH1 0xC0 SWAP4 PUSH2 0x716 SWAP10 PUSH1 0x0 SWAP3 PUSH2 0x71B JUMPI JUMPDEST POP POP DUP2 PUSH1 0x1 SHL SWAP2 PUSH1 0x0 NOT SWAP1 PUSH1 0x3 SHL SHR NOT AND OR PUSH1 0x1 DUP6 ADD SSTORE JUMPDEST PUSH1 0x40 DUP2 ADD MLOAD PUSH1 0x2 DUP6 ADD SSTORE PUSH1 0x60 DUP2 ADD MLOAD PUSH1 0x3 DUP6 ADD SSTORE PUSH1 0x80 DUP2 ADD MLOAD PUSH1 0x4 DUP6 ADD SSTORE PUSH2 0x6BE PUSH1 0xA0 DUP3 ADD MLOAD ISZERO ISZERO PUSH1 0x5 DUP7 ADD SWAP1 PUSH1 0xFF DUP1 NOT DUP4 SLOAD AND SWAP2 ISZERO ISZERO AND OR SWAP1 SSTORE JUMP JUMPDEST ADD MLOAD SWAP2 ADD SSTORE PUSH32 0xE53204CE7689D78B120E343786AF68A1086EF226C1B2266521848B41544E3580 PUSH1 0x7 SLOAD SWAP3 DUP4 SWAP3 PUSH1 0x40 MLOAD SWAP2 DUP3 SWAP2 PUSH1 0x60 DUP4 MSTORE PUSH1 0x60 DUP4 ADD SWAP1 PUSH2 0x13A7 JUMP JUMPDEST PUSH1 0x24 CALLDATALOAD PUSH1 0x20 DUP4 ADD MSTORE PUSH1 0x44 CALLDATALOAD PUSH1 0x40 DUP4 ADD MSTORE SUB SWAP1 LOG2 PUSH2 0x16AA JUMP JUMPDEST PUSH1 0x7 SSTORE STOP JUMPDEST ADD MLOAD SWAP1 POP DUP10 DUP1 PUSH2 0x669 JUMP JUMPDEST PUSH1 0x1 DUP5 ADD PUSH1 0x0 MSTORE PUSH1 0x20 PUSH1 0x0 KECCAK256 SWAP6 PUSH1 0x0 JUMPDEST PUSH1 0x1F NOT DUP5 AND DUP2 LT PUSH2 0x78A JUMPI POP SWAP3 PUSH1 0x1 DUP4 PUSH2 0x716 SWAP9 PUSH1 0xC0 SWAP5 PUSH2 0x6FE SWAP10 SWAP9 SWAP8 PUSH1 0x6 SWAP8 PUSH1 0x1F NOT DUP2 AND LT PUSH2 0x771 JUMPI JUMPDEST POP POP POP DUP2 SHL ADD PUSH1 0x1 DUP6 ADD SSTORE PUSH2 0x681 JUMP JUMPDEST ADD MLOAD PUSH1 0x0 NOT PUSH1 0xF8 DUP5 PUSH1 0x3 SHL AND SHR NOT AND SWAP1 SSTORE DUP10 DUP1 DUP1 PUSH2 0x761 JUMP JUMPDEST DUP3 DUP3 ADD MLOAD DUP9 SSTORE PUSH1 0x1 SWAP1 SWAP8 ADD SWAP7 PUSH1 0x20 SWAP3 DUP4 ADD SWAP3 ADD PUSH2 0x736 JUMP JUMPDEST PUSH1 0x1 DUP5 ADD PUSH1 0x0 MSTORE PUSH1 0x20 PUSH1 0x0 KECCAK256 PUSH1 0x1F DUP4 ADD PUSH1 0x5 SHR DUP2 ADD PUSH1 0x20 DUP5 LT PUSH2 0x7E2 JUMPI JUMPDEST PUSH1 0x1F DUP4 ADD PUSH1 0x5 SHR DUP3 ADD DUP2 LT PUSH2 0x7D6 JUMPI POP POP PUSH2 0x642 JUMP JUMPDEST PUSH1 0x0 DUP2 SSTORE PUSH1 0x1 ADD PUSH2 0x7C0 JUMP JUMPDEST POP DUP1 PUSH2 0x7C0 JUMP JUMPDEST PUSH1 0x40 MLOAD PUSH3 0x461BCD PUSH1 0xE5 SHL DUP2 MSTORE PUSH1 0x20 PUSH1 0x4 DUP3 ADD MSTORE PUSH1 0x23 PUSH1 0x24 DUP3 ADD MSTORE PUSH32 0x4D617820636974697A656E73206D757374206265206772656174657220746861 PUSH1 0x44 DUP3 ADD MSTORE PUSH3 0x6E203 PUSH1 0xEC SHL PUSH1 0x64 DUP3 ADD MSTORE PUSH1 0x84 SWAP1 REVERT JUMPDEST PUSH1 0x40 MLOAD PUSH3 0x461BCD PUSH1 0xE5 SHL DUP2 MSTORE PUSH1 0x20 PUSH1 0x4 DUP3 ADD MSTORE PUSH1 0x25 PUSH1 0x24 DUP3 ADD MSTORE PUSH32 0x4D656D6265727368697020666565206D75737420626520677265617465722074 PUSH1 0x44 DUP3 ADD MSTORE PUSH5 0x68616E203 PUSH1 0xDC SHL PUSH1 0x64 DUP3 ADD MSTORE PUSH1 0x84 SWAP1 REVERT JUMPDEST CALLVALUE PUSH2 0x1E6 JUMPI PUSH1 0x0 CALLDATASIZE PUSH1 0x3 NOT ADD SLT PUSH2 0x1E6 JUMPI PUSH1 0x0 SLOAD PUSH1 0x40 MLOAD PUSH1 0x1 PUSH1 0x1 PUSH1 0xA0 SHL SUB SWAP1 SWAP2 AND DUP2 MSTORE PUSH1 0x20 SWAP1 RETURN JUMPDEST CALLVALUE PUSH2 0x1E6 JUMPI PUSH1 0x0 CALLDATASIZE PUSH1 0x3 NOT ADD SLT PUSH2 0x1E6 JUMPI PUSH2 0x8CF PUSH2 0x1606 JUMP JUMPDEST PUSH2 0x8D7 PUSH2 0x16FE JUMP JUMPDEST PUSH1 0x1 PUSH1 0xFF NOT PUSH1 0x2 SLOAD AND OR PUSH1 0x2 SSTORE PUSH32 0x62E78CEA01BEE320CD4E420270B5EA74000D11B0C9F74754EBDBFC544B05A258 PUSH1 0x20 PUSH1 0x40 MLOAD CALLER DUP2 MSTORE LOG1 STOP JUMPDEST CALLVALUE PUSH2 0x1E6 JUMPI PUSH1 0x40 CALLDATASIZE PUSH1 0x3 NOT ADD SLT PUSH2 0x1E6 JUMPI PUSH1 0x1 PUSH1 0x1 PUSH1 0xA0 SHL SUB DUP1 PUSH2 0x932 PUSH2 0x1424 JUMP JUMPDEST AND PUSH1 0x0 MSTORE PUSH1 0x4 PUSH1 0x20 MSTORE PUSH1 0x40 PUSH1 0x0 KECCAK256 PUSH1 0x24 CALLDATALOAD PUSH1 0x0 MSTORE PUSH1 0x20 MSTORE PUSH1 0x40 PUSH1 0x0 KECCAK256 SWAP1 PUSH2 0x249 DUP3 SLOAD SWAP2 PUSH1 0x1 DUP5 ADD SLOAD AND SWAP3 PUSH1 0x2 DUP2 ADD SLOAD SWAP1 PUSH1 0x3 DUP2 ADD SLOAD PUSH1 0xFF PUSH1 0x4 DUP4 ADD SLOAD AND PUSH1 0x5 DUP4 ADD SLOAD SWAP2 PUSH1 0x7 PUSH1 0x6 DUP6 ADD SLOAD SWAP5 ADD SLOAD SWAP5 PUSH1 0x40 MLOAD SWAP9 DUP10 SWAP9 DUP10 SWAP5 SWAP2 SWAP3 PUSH1 0xE0 SWAP7 SWAP4 SWAP10 SWAP9 SWAP8 SWAP5 SWAP2 SWAP10 PUSH2 0x100 DUP8 ADD SWAP11 DUP8 MSTORE PUSH1 0x1 DUP1 PUSH1 0xA0 SHL SUB AND PUSH1 0x20 DUP8 ADD MSTORE PUSH1 0x40 DUP7 ADD MSTORE PUSH1 0x60 DUP6 ADD MSTORE ISZERO ISZERO PUSH1 0x80 DUP5 ADD MSTORE PUSH1 0xA0 DUP4 ADD MSTORE PUSH1 0xC0 DUP3 ADD MSTORE ADD MSTORE JUMP JUMPDEST CALLVALUE PUSH2 0x1E6 JUMPI PUSH1 0x0 CALLDATASIZE PUSH1 0x3 NOT ADD SLT PUSH2 0x1E6 JUMPI PUSH2 0x9E1 PUSH2 0x1606 JUMP JUMPDEST PUSH1 0x0 DUP1 SLOAD PUSH1 0x1 PUSH1 0x1 PUSH1 0xA0 SHL SUB NOT DUP2 AND DUP3 SSTORE PUSH1 0x1 PUSH1 0x1 PUSH1 0xA0 SHL SUB AND PUSH32 0x8BE0079C531659141344CD1FD0A4F28419497F9722A3DAAFE3B4186F6B6457E0 DUP3 DUP1 LOG3 STOP JUMPDEST CALLVALUE PUSH2 0x1E6 JUMPI PUSH1 0x40 CALLDATASIZE PUSH1 0x3 NOT ADD SLT PUSH2 0x1E6 JUMPI PUSH1 0x24 CALLDATALOAD PUSH1 0x4 CALLDATALOAD PUSH1 0x0 MSTORE PUSH1 0x6 PUSH1 0x20 MSTORE PUSH1 0x40 PUSH1 0x0 KECCAK256 DUP1 SLOAD DUP3 LT ISZERO PUSH2 0x1E6 JUMPI PUSH1 0x20 SWAP2 PUSH2 0xA5A SWAP2 PUSH2 0x143A JUMP JUMPDEST SWAP1 SLOAD PUSH1 0x40 MLOAD PUSH1 0x3 SWAP3 SWAP1 SWAP3 SHL SHR PUSH1 0x1 PUSH1 0x1 PUSH1 0xA0 SHL SUB AND DUP2 MSTORE RETURN JUMPDEST CALLVALUE PUSH2 0x1E6 JUMPI PUSH1 0x0 CALLDATASIZE PUSH1 0x3 NOT ADD SLT PUSH2 0x1E6 JUMPI PUSH1 0x20 PUSH1 0xFF PUSH1 0x2 SLOAD AND PUSH1 0x40 MLOAD SWAP1 ISZERO ISZERO DUP2 MSTORE RETURN JUMPDEST CALLVALUE PUSH2 0x1E6 JUMPI PUSH1 0x0 CALLDATASIZE PUSH1 0x3 NOT ADD SLT PUSH2 0x1E6 JUMPI PUSH1 0x20 PUSH1 0x8 SLOAD PUSH1 0x40 MLOAD SWAP1 DUP2 MSTORE RETURN JUMPDEST CALLVALUE PUSH2 0x1E6 JUMPI PUSH1 0x20 DUP1 PUSH1 0x3 NOT CALLDATASIZE ADD SLT PUSH2 0x1E6 JUMPI PUSH1 0x4 CALLDATALOAD PUSH1 0x0 MSTORE PUSH1 0x6 DUP2 MSTORE PUSH1 0x40 PUSH1 0x0 KECCAK256 PUSH1 0x40 MLOAD SWAP1 DUP2 DUP4 DUP3 SLOAD SWAP2 DUP3 DUP2 MSTORE ADD SWAP1 DUP2 SWAP3 PUSH1 0x0 MSTORE DUP5 PUSH1 0x0 KECCAK256 SWAP1 PUSH1 0x0 JUMPDEST DUP7 DUP3 DUP3 LT PUSH2 0xB4F JUMPI DUP7 DUP7 PUSH2 0xB06 DUP3 DUP9 SUB DUP4 PUSH2 0x14A1 JUMP JUMPDEST PUSH1 0x40 MLOAD SWAP3 DUP4 SWAP3 DUP2 DUP5 ADD SWAP1 DUP3 DUP6 MSTORE MLOAD DUP1 SWAP2 MSTORE PUSH1 0x40 DUP5 ADD SWAP3 SWAP2 PUSH1 0x0 JUMPDEST DUP3 DUP2 LT PUSH2 0xB2F JUMPI POP POP POP POP SUB SWAP1 RETURN JUMPDEST DUP4 MLOAD PUSH1 0x1 PUSH1 0x1 PUSH1 0xA0 SHL SUB AND DUP6 MSTORE DUP7 SWAP6 POP SWAP4 DUP2 ADD SWAP4 SWAP3 DUP2 ADD SWAP3 PUSH1 0x1 ADD PUSH2 0xB20 JUMP JUMPDEST DUP4 SLOAD PUSH1 0x1 PUSH1 0x1 PUSH1 0xA0 SHL SUB AND DUP6 MSTORE SWAP1 SWAP4 ADD SWAP3 PUSH1 0x1 SWAP3 DUP4 ADD SWAP3 ADD PUSH2 0xAF0 JUMP JUMPDEST CALLVALUE PUSH2 0x1E6 JUMPI PUSH1 0x40 CALLDATASIZE PUSH1 0x3 NOT ADD SLT PUSH2 0x1E6 JUMPI PUSH1 0x1 PUSH1 0x1 PUSH1 0xA0 SHL SUB DUP1 PUSH2 0xB8E PUSH2 0x1424 JUMP JUMPDEST AND PUSH1 0x0 MSTORE PUSH1 0x4 PUSH1 0x20 MSTORE PUSH1 0x40 PUSH1 0x0 KECCAK256 PUSH1 0x24 CALLDATALOAD PUSH1 0x0 MSTORE PUSH1 0x20 MSTORE PUSH1 0x40 PUSH1 0x0 KECCAK256 SWAP1 PUSH2 0x249 PUSH1 0xE0 PUSH1 0x40 MLOAD SWAP4 PUSH2 0xBBD DUP6 PUSH2 0x1484 JUMP JUMPDEST DUP1 SLOAD SWAP4 DUP5 DUP7 MSTORE PUSH1 0x1 DUP3 ADD SLOAD AND SWAP5 DUP6 PUSH1 0x20 DUP3 ADD MSTORE PUSH1 0x2 DUP3 ADD SLOAD DUP1 PUSH1 0x40 DUP4 ADD MSTORE PUSH1 0x3 DUP4 ADD SLOAD DUP1 PUSH1 0x60 DUP5 ADD MSTORE PUSH1 0xFF PUSH1 0x4 DUP6 ADD SLOAD AND ISZERO ISZERO SWAP2 DUP3 PUSH1 0x80 DUP6 ADD MSTORE PUSH1 0x5 DUP6 ADD SLOAD SWAP4 DUP5 PUSH1 0xA0 DUP3 ADD MSTORE PUSH1 0x7 PUSH1 0x6 DUP8 ADD SLOAD SWAP7 DUP8 PUSH1 0xC0 DUP5 ADD MSTORE ADD SLOAD SWAP7 DUP8 SWAP2 ADD MSTORE PUSH1 0x40 MLOAD SWAP9 DUP10 SWAP9 DUP10 SWAP5 SWAP2 SWAP3 PUSH1 0xE0 SWAP7 SWAP4 SWAP10 SWAP9 SWAP8 SWAP5 SWAP2 SWAP10 PUSH2 0x100 DUP8 ADD SWAP11 DUP8 MSTORE PUSH1 0x1 DUP1 PUSH1 0xA0 SHL SUB AND PUSH1 0x20 DUP8 ADD MSTORE PUSH1 0x40 DUP7 ADD MSTORE PUSH1 0x60 DUP6 ADD MSTORE ISZERO ISZERO PUSH1 0x80 DUP5 ADD MSTORE PUSH1 0xA0 DUP4 ADD MSTORE PUSH1 0xC0 DUP3 ADD MSTORE ADD MSTORE JUMP JUMPDEST CALLVALUE PUSH2 0x1E6 JUMPI PUSH1 0x0 CALLDATASIZE PUSH1 0x3 NOT ADD SLT PUSH2 0x1E6 JUMPI PUSH1 0x20 PUSH1 0x7 SLOAD PUSH1 0x40 MLOAD SWAP1 DUP2 MSTORE RETURN JUMPDEST CALLVALUE PUSH2 0x1E6 JUMPI PUSH1 0x20 DUP1 PUSH1 0x3 NOT CALLDATASIZE ADD SLT PUSH2 0x1E6 JUMPI PUSH1 0x4 CALLDATALOAD SWAP1 PUSH2 0xC9C PUSH2 0x1742 JUMP JUMPDEST CALLER PUSH1 0x0 MSTORE PUSH1 0x4 DUP2 MSTORE PUSH1 0x40 PUSH1 0x0 KECCAK256 DUP3 PUSH1 0x0 MSTORE DUP2 MSTORE PUSH1 0x40 PUSH1 0x0 KECCAK256 SWAP1 PUSH1 0xFF PUSH1 0x4 DUP4 ADD SLOAD AND ISZERO PUSH2 0xDFA JUMPI PUSH1 0x7 DUP3 ADD DUP1 SLOAD TIMESTAMP SUB TIMESTAMP DUP2 GT PUSH2 0xD8D JUMPI PUSH3 0x278D00 SWAP1 DIV SWAP3 PUSH1 0x1 DUP5 LT PUSH2 0xDA3 JUMPI PUSH1 0x5 DUP2 ADD SLOAD DUP5 DUP2 MUL SWAP5 DUP2 DUP7 DIV EQ SWAP1 ISZERO OR ISZERO PUSH2 0xD8D JUMPI PUSH1 0x6 ADD DUP1 SLOAD SWAP1 DUP5 DUP3 ADD DUP1 SWAP3 GT PUSH2 0xD8D JUMPI SSTORE TIMESTAMP SWAP1 SSTORE PUSH1 0x0 DUP1 DUP1 DUP1 DUP6 CALLER GAS CALL PUSH2 0xD1A PUSH2 0x1798 JUMP JUMPDEST POP ISZERO PUSH2 0xD51 JUMPI PUSH32 0x10D8DEDFC0745B8C25BA10B06E304138B251C18DCAADF2D71C7F3214719DC4D1 SWAP1 PUSH1 0x40 MLOAD SWAP3 DUP4 MSTORE CALLER SWAP3 LOG3 PUSH1 0x1 DUP1 SSTORE STOP JUMPDEST PUSH1 0x64 SWAP1 PUSH1 0x40 MLOAD SWAP1 PUSH3 0x461BCD PUSH1 0xE5 SHL DUP3 MSTORE PUSH1 0x4 DUP3 ADD MSTORE PUSH1 0x15 PUSH1 0x24 DUP3 ADD MSTORE PUSH21 0x165A595B19081D1C985B9CD9995C8819985A5B1959 PUSH1 0x5A SHL PUSH1 0x44 DUP3 ADD MSTORE REVERT JUMPDEST PUSH4 0x4E487B71 PUSH1 0xE0 SHL PUSH1 0x0 MSTORE PUSH1 0x11 PUSH1 0x4 MSTORE PUSH1 0x24 PUSH1 0x0 REVERT JUMPDEST PUSH1 0x40 MLOAD PUSH3 0x461BCD PUSH1 0xE5 SHL DUP2 MSTORE PUSH1 0x4 DUP2 ADD DUP5 SWAP1 MSTORE PUSH1 0x29 PUSH1 0x24 DUP3 ADD MSTORE PUSH32 0x4D7573742077616974206174206C656173742031206D6F6E7468206265747765 PUSH1 0x44 DUP3 ADD MSTORE PUSH9 0x656E20636C61696D73 PUSH1 0xB8 SHL PUSH1 0x64 DUP3 ADD MSTORE PUSH1 0x84 SWAP1 REVERT JUMPDEST PUSH1 0x64 SWAP1 PUSH1 0x40 MLOAD SWAP1 PUSH3 0x461BCD PUSH1 0xE5 SHL DUP3 MSTORE PUSH1 0x4 DUP3 ADD MSTORE PUSH1 0x16 PUSH1 0x24 DUP3 ADD MSTORE PUSH22 0x436974697A656E73686970206E6F7420616374697665 PUSH1 0x50 SHL PUSH1 0x44 DUP3 ADD MSTORE REVERT JUMPDEST CALLVALUE PUSH2 0x1E6 JUMPI PUSH1 0x0 CALLDATASIZE PUSH1 0x3 NOT ADD SLT PUSH2 0x1E6 JUMPI PUSH2 0xE50 PUSH2 0x1606 JUMP JUMPDEST PUSH1 0x2 SLOAD PUSH1 0xFF DUP2 AND ISZERO PUSH2 0xE8F JUMPI PUSH1 0xFF NOT AND PUSH1 0x2 SSTORE PUSH32 0x5DB9EE0A495BF2E6FF9C91A7834C1BA4FDD244A5E8AA4E537BD38AEAE4B073AA PUSH1 0x20 PUSH1 0x40 MLOAD CALLER DUP2 MSTORE LOG1 STOP JUMPDEST PUSH1 0x40 MLOAD PUSH3 0x461BCD PUSH1 0xE5 SHL DUP2 MSTORE PUSH1 0x20 PUSH1 0x4 DUP3 ADD MSTORE PUSH1 0x14 PUSH1 0x24 DUP3 ADD MSTORE PUSH20 0x14185D5CD8589B194E881B9BDD081C185D5CD959 PUSH1 0x62 SHL PUSH1 0x44 DUP3 ADD MSTORE PUSH1 0x64 SWAP1 REVERT JUMPDEST PUSH1 0x20 DUP1 PUSH1 0x3 NOT CALLDATASIZE ADD SLT PUSH2 0x1E6 JUMPI PUSH1 0x4 CALLDATALOAD SWAP1 PUSH2 0xEE4 PUSH2 0x1742 JUMP JUMPDEST PUSH2 0xEEC PUSH2 0x16FE JUMP JUMPDEST DUP2 PUSH1 0x0 MSTORE PUSH1 0x3 DUP2 MSTORE PUSH1 0x40 PUSH1 0x0 KECCAK256 SWAP2 PUSH2 0xF06 DUP4 SLOAD ISZERO ISZERO PUSH2 0x16B9 JUMP JUMPDEST PUSH1 0xFF PUSH1 0x5 DUP5 ADD SLOAD AND ISZERO PUSH2 0x11B2 JUMPI PUSH1 0x4 DUP4 ADD SWAP1 DUP2 SLOAD PUSH1 0x3 DUP6 ADD SLOAD GT ISZERO PUSH2 0x117B JUMPI PUSH1 0x2 DUP5 ADD SWAP3 DUP4 SLOAD SWAP3 DUP4 CALLVALUE LT PUSH2 0x113F JUMPI CALLER PUSH1 0x0 MSTORE PUSH1 0x4 DUP3 MSTORE PUSH1 0x40 PUSH1 0x0 KECCAK256 DUP4 PUSH1 0x0 MSTORE DUP3 MSTORE PUSH1 0xFF PUSH1 0x4 PUSH1 0x40 PUSH1 0x0 KECCAK256 ADD SLOAD AND PUSH2 0x10F0 JUMPI PUSH1 0x6 PUSH1 0x8 SLOAD SWAP7 ADD SLOAD SWAP6 PUSH1 0x40 MLOAD SWAP1 PUSH2 0xF6D DUP3 PUSH2 0x1484 JUMP JUMPDEST DUP2 MSTORE PUSH1 0x7 DUP4 DUP3 ADD SWAP6 CALLER DUP8 MSTORE PUSH1 0x40 DUP4 ADD SWAP1 DUP2 MSTORE PUSH1 0x60 DUP4 ADD SWAP1 TIMESTAMP DUP3 MSTORE PUSH1 0x80 DUP5 ADD SWAP10 PUSH2 0x1012 PUSH1 0x1 SWAP12 DUP13 SWAP5 DUP6 DUP3 MSTORE PUSH1 0xA0 DUP9 ADD SWAP4 DUP5 MSTORE PUSH1 0xC0 DUP9 ADD SWAP5 PUSH1 0x0 DUP7 MSTORE PUSH1 0xE0 DUP10 ADD SWAP7 TIMESTAMP DUP9 MSTORE CALLER PUSH1 0x0 MSTORE PUSH1 0x4 DUP13 MSTORE PUSH1 0x40 PUSH1 0x0 KECCAK256 DUP14 PUSH1 0x0 MSTORE DUP13 MSTORE PUSH1 0x40 PUSH1 0x0 KECCAK256 SWAP10 MLOAD DUP11 SSTORE DUP10 ADD PUSH1 0x1 DUP1 PUSH1 0xA0 SHL SUB DUP1 SWAP15 MLOAD AND PUSH12 0xFFFFFFFFFFFFFFFFFFFFFFFF PUSH1 0xA0 SHL DUP3 SLOAD AND OR SWAP1 SSTORE MLOAD PUSH1 0x2 DUP10 ADD SSTORE MLOAD PUSH1 0x3 DUP9 ADD SSTORE MLOAD ISZERO ISZERO PUSH1 0x4 DUP8 ADD SWAP1 PUSH1 0xFF DUP1 NOT DUP4 SLOAD AND SWAP2 ISZERO ISZERO AND OR SWAP1 SSTORE JUMP JUMPDEST MLOAD PUSH1 0x5 DUP6 ADD SSTORE MLOAD PUSH1 0x6 DUP5 ADD SSTORE MLOAD SWAP2 ADD SSTORE PUSH2 0x102C DUP2 SLOAD PUSH2 0x16AA JUMP JUMPDEST SWAP1 SSTORE DUP2 PUSH1 0x0 MSTORE PUSH1 0x6 DUP2 MSTORE PUSH1 0x40 PUSH1 0x0 KECCAK256 SWAP3 DUP4 SLOAD SWAP4 PUSH9 0x10000000000000000 SWAP5 DUP6 DUP2 LT ISZERO PUSH2 0x50B JUMPI PUSH2 0x1060 SWAP2 DUP9 DUP3 ADD DUP2 SSTORE PUSH2 0x143A JUMP JUMPDEST DUP2 SWAP3 SWAP2 SLOAD SWAP1 PUSH1 0x3 SHL SWAP2 CALLER DUP4 SHL SWAP3 SHL NOT AND OR SWAP1 SSTORE CALLER PUSH1 0x0 MSTORE PUSH1 0x5 DUP2 MSTORE PUSH1 0x40 PUSH1 0x0 KECCAK256 SWAP4 DUP5 SLOAD SWAP4 DUP5 LT ISZERO PUSH2 0x50B JUMPI PUSH2 0x10BE DUP5 PUSH2 0x10E9 SWAP7 DUP9 PUSH32 0x6DFFCE51E54D67E658DFAB4A289DE183A3741D7B89A6EF40FC5B201FF94C27A4 SWAP8 ADD DUP2 SSTORE PUSH2 0x143A JUMP JUMPDEST DUP2 SLOAD SWAP1 PUSH1 0x3 SHL SWAP1 DUP6 DUP3 SHL SWAP2 PUSH1 0x0 NOT SWAP1 SHL NOT AND OR SWAP1 SSTORE PUSH1 0x8 SLOAD SWAP4 DUP5 SWAP2 SLOAD SWAP3 PUSH1 0x40 MLOAD SWAP4 DUP5 MSTORE CALLER SWAP4 LOG4 PUSH2 0x16AA JUMP JUMPDEST PUSH1 0x8 SSTORE DUP1 SSTORE STOP JUMPDEST PUSH1 0x40 MLOAD PUSH3 0x461BCD PUSH1 0xE5 SHL DUP2 MSTORE PUSH1 0x4 DUP2 ADD DUP4 SWAP1 MSTORE PUSH1 0x21 PUSH1 0x24 DUP3 ADD MSTORE PUSH32 0x416C7265616479206120636974697A656E206F6620746869732076696C6C6167 PUSH1 0x44 DUP3 ADD MSTORE PUSH1 0x65 PUSH1 0xF8 SHL PUSH1 0x64 DUP3 ADD MSTORE PUSH1 0x84 SWAP1 REVERT JUMPDEST PUSH1 0x40 MLOAD PUSH3 0x461BCD PUSH1 0xE5 SHL DUP2 MSTORE PUSH1 0x4 DUP2 ADD DUP4 SWAP1 MSTORE PUSH1 0x14 PUSH1 0x24 DUP3 ADD MSTORE PUSH20 0x125B9CDD59999A58DA595B9D081C185E5B595B9D PUSH1 0x62 SHL PUSH1 0x44 DUP3 ADD MSTORE PUSH1 0x64 SWAP1 REVERT JUMPDEST PUSH1 0x40 MLOAD PUSH3 0x461BCD PUSH1 0xE5 SHL DUP2 MSTORE PUSH1 0x4 DUP2 ADD DUP5 SWAP1 MSTORE PUSH1 0xF PUSH1 0x24 DUP3 ADD MSTORE PUSH15 0x159A5B1B1859D9481A5CC8199D5B1B PUSH1 0x8A SHL PUSH1 0x44 DUP3 ADD MSTORE PUSH1 0x64 SWAP1 REVERT JUMPDEST PUSH1 0x40 MLOAD PUSH3 0x461BCD PUSH1 0xE5 SHL DUP2 MSTORE PUSH1 0x4 DUP2 ADD DUP4 SWAP1 MSTORE PUSH1 0x15 PUSH1 0x24 DUP3 ADD MSTORE PUSH21 0x56696C6C616765206973206E6F7420616374697665 PUSH1 0x58 SHL PUSH1 0x44 DUP3 ADD MSTORE PUSH1 0x64 SWAP1 REVERT JUMPDEST CALLVALUE PUSH2 0x1E6 JUMPI PUSH1 0x0 CALLDATASIZE PUSH1 0x3 NOT ADD SLT PUSH2 0x1E6 JUMPI PUSH2 0x1208 PUSH2 0x1606 JUMP JUMPDEST PUSH1 0x0 DUP1 SLOAD DUP2 SWAP1 DUP2 SWAP1 DUP2 SWAP1 SELFBALANCE SWAP1 PUSH1 0x1 PUSH1 0x1 PUSH1 0xA0 SHL SUB AND GAS CALL PUSH2 0x1227 PUSH2 0x1798 JUMP JUMPDEST POP ISZERO PUSH2 0x122F JUMPI STOP JUMPDEST PUSH1 0x40 MLOAD PUSH3 0x461BCD PUSH1 0xE5 SHL DUP2 MSTORE PUSH1 0x20 PUSH1 0x4 DUP3 ADD MSTORE PUSH1 0x11 PUSH1 0x24 DUP3 ADD MSTORE PUSH17 0x15DA5D1A191C985DD85B0819985A5B1959 PUSH1 0x7A SHL PUSH1 0x44 DUP3 ADD MSTORE PUSH1 0x64 SWAP1 REVERT JUMPDEST CALLVALUE PUSH2 0x1E6 JUMPI PUSH1 0x40 CALLDATASIZE PUSH1 0x3 NOT ADD SLT PUSH2 0x1E6 JUMPI PUSH1 0x1 PUSH1 0x1 PUSH1 0xA0 SHL SUB PUSH2 0x1289 PUSH2 0x1424 JUMP JUMPDEST AND PUSH1 0x0 MSTORE PUSH1 0x4 PUSH1 0x20 MSTORE PUSH1 0x40 PUSH1 0x0 KECCAK256 PUSH1 0x24 CALLDATALOAD PUSH1 0x0 MSTORE PUSH1 0x20 MSTORE PUSH1 0x20 PUSH1 0xFF PUSH1 0x4 PUSH1 0x40 PUSH1 0x0 KECCAK256 ADD SLOAD AND PUSH1 0x40 MLOAD SWAP1 ISZERO ISZERO DUP2 MSTORE RETURN JUMPDEST CALLVALUE PUSH2 0x1E6 JUMPI PUSH1 0x20 CALLDATASIZE PUSH1 0x3 NOT ADD SLT PUSH2 0x1E6 JUMPI PUSH1 0x4 CALLDATALOAD PUSH1 0x0 MSTORE PUSH1 0x3 PUSH1 0x20 MSTORE PUSH1 0x40 PUSH1 0x0 KECCAK256 PUSH1 0x40 MLOAD SWAP1 PUSH2 0x12E6 DUP3 PUSH2 0x1468 JUMP JUMPDEST DUP1 SLOAD DUP3 MSTORE PUSH2 0x249 PUSH2 0x12F9 PUSH1 0x1 DUP4 ADD PUSH2 0x1560 JUMP JUMPDEST SWAP3 DUP4 PUSH1 0x20 DUP3 ADD MSTORE PUSH1 0x2 DUP4 ADD SLOAD SWAP3 DUP4 PUSH1 0x40 DUP4 ADD MSTORE PUSH1 0x3 DUP2 ADD SLOAD DUP1 PUSH1 0x60 DUP5 ADD MSTORE PUSH1 0x4 DUP3 ADD SLOAD SWAP1 DUP2 PUSH1 0x80 DUP6 ADD MSTORE PUSH1 0x6 PUSH1 0xFF PUSH1 0x5 DUP6 ADD SLOAD AND ISZERO ISZERO SWAP4 DUP5 PUSH1 0xA0 DUP8 ADD MSTORE ADD SLOAD SWAP4 DUP5 PUSH1 0xC0 DUP3 ADD MSTORE MLOAD SWAP6 PUSH1 0x40 MLOAD SWAP8 DUP9 SWAP8 DUP9 PUSH2 0x13E7 JUMP JUMPDEST CALLVALUE PUSH2 0x1E6 JUMPI PUSH1 0x20 CALLDATASIZE PUSH1 0x3 NOT ADD SLT PUSH2 0x1E6 JUMPI PUSH1 0x4 CALLDATALOAD PUSH2 0x1369 PUSH2 0x1606 JUMP JUMPDEST DUP1 PUSH1 0x0 MSTORE PUSH1 0x3 PUSH1 0x20 MSTORE PUSH2 0x1382 PUSH1 0x40 PUSH1 0x0 KECCAK256 SLOAD ISZERO ISZERO PUSH2 0x16B9 JUMP JUMPDEST PUSH1 0x0 SWAP1 DUP2 MSTORE PUSH1 0x3 PUSH1 0x20 MSTORE PUSH1 0x40 SWAP1 KECCAK256 PUSH1 0x5 ADD DUP1 SLOAD PUSH1 0xFF DUP2 DUP2 AND ISZERO AND PUSH1 0xFF NOT SWAP1 SWAP2 AND OR SWAP1 SSTORE STOP JUMPDEST SWAP2 SWAP1 DUP3 MLOAD SWAP3 DUP4 DUP3 MSTORE PUSH1 0x0 JUMPDEST DUP5 DUP2 LT PUSH2 0x13D3 JUMPI POP POP DUP3 PUSH1 0x0 PUSH1 0x20 DUP1 SWAP5 SWAP6 DUP5 ADD ADD MSTORE PUSH1 0x1F DUP1 NOT SWAP2 ADD AND ADD ADD SWAP1 JUMP JUMPDEST PUSH1 0x20 DUP2 DUP4 ADD DUP2 ADD MLOAD DUP5 DUP4 ADD DUP3 ADD MSTORE ADD PUSH2 0x13B2 JUMP JUMPDEST SWAP4 SWAP1 PUSH1 0xC0 SWAP6 SWAP3 PUSH2 0x1409 SWAP2 SWAP10 SWAP9 SWAP8 SWAP5 SWAP10 DUP7 MSTORE PUSH1 0xE0 PUSH1 0x20 DUP8 ADD MSTORE PUSH1 0xE0 DUP7 ADD SWAP1 PUSH2 0x13A7 JUMP JUMPDEST SWAP8 PUSH1 0x40 DUP6 ADD MSTORE PUSH1 0x60 DUP5 ADD MSTORE PUSH1 0x80 DUP4 ADD MSTORE ISZERO ISZERO PUSH1 0xA0 DUP3 ADD MSTORE ADD MSTORE JUMP JUMPDEST PUSH1 0x4 CALLDATALOAD SWAP1 PUSH1 0x1 PUSH1 0x1 PUSH1 0xA0 SHL SUB DUP3 AND DUP3 SUB PUSH2 0x1E6 JUMPI JUMP JUMPDEST DUP1 SLOAD DUP3 LT ISZERO PUSH2 0x1452 JUMPI PUSH1 0x0 MSTORE PUSH1 0x20 PUSH1 0x0 KECCAK256 ADD SWAP1 PUSH1 0x0 SWAP1 JUMP JUMPDEST PUSH4 0x4E487B71 PUSH1 0xE0 SHL PUSH1 0x0 MSTORE PUSH1 0x32 PUSH1 0x4 MSTORE PUSH1 0x24 PUSH1 0x0 REVERT JUMPDEST PUSH1 0xE0 DUP2 ADD SWAP1 DUP2 LT PUSH8 0xFFFFFFFFFFFFFFFF DUP3 GT OR PUSH2 0x50B JUMPI PUSH1 0x40 MSTORE JUMP JUMPDEST PUSH2 0x100 DUP2 ADD SWAP1 DUP2 LT PUSH8 0xFFFFFFFFFFFFFFFF DUP3 GT OR PUSH2 0x50B JUMPI PUSH1 0x40 MSTORE JUMP JUMPDEST SWAP1 PUSH1 0x1F DUP1 NOT SWAP2 ADD AND DUP2 ADD SWAP1 DUP2 LT PUSH8 0xFFFFFFFFFFFFFFFF DUP3 GT OR PUSH2 0x50B JUMPI PUSH1 0x40 MSTORE JUMP JUMPDEST PUSH8 0xFFFFFFFFFFFFFFFF DUP2 GT PUSH2 0x50B JUMPI PUSH1 0x1F ADD PUSH1 0x1F NOT AND PUSH1 0x20 ADD SWAP1 JUMP JUMPDEST DUP2 PUSH1 0x1F DUP3 ADD SLT ISZERO PUSH2 0x1E6 JUMPI DUP1 CALLDATALOAD SWAP1 PUSH2 0x14F6 DUP3 PUSH2 0x14C3 JUMP JUMPDEST SWAP3 PUSH2 0x1504 PUSH1 0x40 MLOAD SWAP5 DUP6 PUSH2 0x14A1 JUMP JUMPDEST DUP3 DUP5 MSTORE PUSH1 0x20 DUP4 DUP4 ADD ADD GT PUSH2 0x1E6 JUMPI DUP2 PUSH1 0x0 SWAP3 PUSH1 0x20 DUP1 SWAP4 ADD DUP4 DUP7 ADD CALLDATACOPY DUP4 ADD ADD MSTORE SWAP1 JUMP JUMPDEST SWAP1 PUSH1 0x1 DUP3 DUP2 SHR SWAP3 AND DUP1 ISZERO PUSH2 0x1556 JUMPI JUMPDEST PUSH1 0x20 DUP4 LT EQ PUSH2 0x1540 JUMPI JUMP JUMPDEST PUSH4 0x4E487B71 PUSH1 0xE0 SHL PUSH1 0x0 MSTORE PUSH1 0x22 PUSH1 0x4 MSTORE PUSH1 0x24 PUSH1 0x0 REVERT JUMPDEST SWAP2 PUSH1 0x7F AND SWAP2 PUSH2 0x1535 JUMP JUMPDEST SWAP1 PUSH1 0x40 MLOAD SWAP2 DUP3 PUSH1 0x0 DUP3 SLOAD SWAP3 PUSH2 0x1574 DUP5 PUSH2 0x1526 JUMP JUMPDEST SWAP1 DUP2 DUP5 MSTORE PUSH1 0x1 SWAP5 DUP6 DUP2 AND SWAP1 DUP2 PUSH1 0x0 EQ PUSH2 0x15E3 JUMPI POP PUSH1 0x1 EQ PUSH2 0x15A0 JUMPI JUMPDEST POP POP PUSH2 0x159E SWAP3 POP SUB DUP4 PUSH2 0x14A1 JUMP JUMPDEST JUMP JUMPDEST SWAP1 SWAP4 SWAP2 POP PUSH1 0x0 MSTORE PUSH1 0x20 SWAP1 DUP2 PUSH1 0x0 KECCAK256 SWAP4 PUSH1 0x0 SWAP2 JUMPDEST DUP2 DUP4 LT PUSH2 0x15CB JUMPI POP POP PUSH2 0x159E SWAP4 POP DUP3 ADD ADD CODESIZE DUP1 PUSH2 0x1590 JUMP JUMPDEST DUP6 SLOAD DUP9 DUP5 ADD DUP6 ADD MSTORE SWAP5 DUP6 ADD SWAP5 DUP8 SWAP5 POP SWAP2 DUP4 ADD SWAP2 PUSH2 0x15B3 JUMP JUMPDEST SWAP2 POP POP PUSH2 0x159E SWAP5 POP PUSH1 0x20 SWAP3 POP PUSH1 0xFF NOT AND DUP3 DUP5 ADD MSTORE ISZERO ISZERO PUSH1 0x5 SHL DUP3 ADD ADD CODESIZE DUP1 PUSH2 0x1590 JUMP JUMPDEST PUSH1 0x0 SLOAD PUSH1 0x1 PUSH1 0x1 PUSH1 0xA0 SHL SUB AND CALLER SUB PUSH2 0x161A JUMPI JUMP JUMPDEST PUSH1 0x64 PUSH1 0x40 MLOAD PUSH3 0x461BCD PUSH1 0xE5 SHL DUP2 MSTORE PUSH1 0x20 PUSH1 0x4 DUP3 ADD MSTORE PUSH1 0x20 PUSH1 0x24 DUP3 ADD MSTORE PUSH32 0x4F776E61626C653A2063616C6C6572206973206E6F7420746865206F776E6572 PUSH1 0x44 DUP3 ADD MSTORE REVERT JUMPDEST ISZERO PUSH2 0x1665 JUMPI JUMP JUMPDEST PUSH1 0x40 MLOAD PUSH3 0x461BCD PUSH1 0xE5 SHL DUP2 MSTORE PUSH1 0x20 PUSH1 0x4 DUP3 ADD MSTORE PUSH1 0x1C PUSH1 0x24 DUP3 ADD MSTORE PUSH32 0x56696C6C616765206E616D652063616E6E6F7420626520656D70747900000000 PUSH1 0x44 DUP3 ADD MSTORE PUSH1 0x64 SWAP1 REVERT JUMPDEST PUSH1 0x0 NOT DUP2 EQ PUSH2 0xD8D JUMPI PUSH1 0x1 ADD SWAP1 JUMP JUMPDEST ISZERO PUSH2 0x16C0 JUMPI JUMP JUMPDEST PUSH1 0x40 MLOAD PUSH3 0x461BCD PUSH1 0xE5 SHL DUP2 MSTORE PUSH1 0x20 PUSH1 0x4 DUP3 ADD MSTORE PUSH1 0x16 PUSH1 0x24 DUP3 ADD MSTORE PUSH22 0x159A5B1B1859D948191BD95CC81B9BDD08195E1A5CDD PUSH1 0x52 SHL PUSH1 0x44 DUP3 ADD MSTORE PUSH1 0x64 SWAP1 REVERT JUMPDEST PUSH1 0xFF PUSH1 0x2 SLOAD AND PUSH2 0x170A JUMPI JUMP JUMPDEST PUSH1 0x40 MLOAD PUSH3 0x461BCD PUSH1 0xE5 SHL DUP2 MSTORE PUSH1 0x20 PUSH1 0x4 DUP3 ADD MSTORE PUSH1 0x10 PUSH1 0x24 DUP3 ADD MSTORE PUSH16 0x14185D5CD8589B194E881C185D5CD959 PUSH1 0x82 SHL PUSH1 0x44 DUP3 ADD MSTORE PUSH1 0x64 SWAP1 REVERT JUMPDEST PUSH1 0x2 PUSH1 0x1 SLOAD EQ PUSH2 0x1753 JUMPI PUSH1 0x2 PUSH1 0x1 SSTORE JUMP JUMPDEST PUSH1 0x40 MLOAD PUSH3 0x461BCD PUSH1 0xE5 SHL DUP2 MSTORE PUSH1 0x20 PUSH1 0x4 DUP3 ADD MSTORE PUSH1 0x1F PUSH1 0x24 DUP3 ADD MSTORE PUSH32 0x5265656E7472616E637947756172643A207265656E7472616E742063616C6C00 PUSH1 0x44 DUP3 ADD MSTORE PUSH1 0x64 SWAP1 REVERT JUMPDEST RETURNDATASIZE ISZERO PUSH2 0x17C3 JUMPI RETURNDATASIZE SWAP1 PUSH2 0x17A9 DUP3 PUSH2 0x14C3 JUMP JUMPDEST SWAP2 PUSH2 0x17B7 PUSH1 0x40 MLOAD SWAP4 DUP5 PUSH2 0x14A1 JUMP JUMPDEST DUP3 MSTORE RETURNDATASIZE PUSH1 0x0 PUSH1 0x20 DUP5 ADD RETURNDATACOPY JUMP JUMPDEST PUSH1 0x60 SWAP1 JUMP INVALID LOG2 PUSH5 0x6970667358 0x22 SLT KECCAK256 0xE0 ADDMOD 0xB6 0xEF LOG2 CHAINID PUSH29 0xBF547A53A743ACD63FE43F51074846E962D290B351F64279AA64736F6C PUSH4 0x43000813 STOP CALLER "},"methodIdentifiers":{"citizenships(address,uint256)":"7746f0a7","claimYield(uint256)":"40bd2e23","createVillage(string,uint256,uint256,uint256)":"96a05aae","getCitizenship(address,uint256)":"4d903e86","getUserVillages(address)":"cde5d187","getVillage(uint256)":"0234f916","getVillageCitizens(uint256)":"59307950","isCitizen(address,uint256)":"0376002f","nextCitizenshipId()":"5a16ab35","nextVillageId()":"4cb0c181","owner()":"8da5cb5b","pause()":"8456cb59","paused()":"5c975abb","purchaseCitizenship(uint256)":"3a516f4d","renounceOwnership()":"715018a6","toggleVillage(uint256)":"011c7ca8","transferOwnership(address)":"f2fde38b","unpause()":"3f4ba83a","updateVillage(uint256,string,uint256,uint256,uint256)":"c50347ae","userVillages(address,uint256)":"ad35bc22","villageCitizens(uint256,uint256)":"63606a81","villages(uint256)":"d4aea411","withdrawFunds()":"24600fc3"}}}}}