{"contracts/MortgageProtocol.sol":{"MortgageProtocol":{"abi":[{"inputs":[],"stateMutability":"nonpayable","type":"constructor"},{"anonymous":false,"inputs":[{"indexed":true,"internalType":"address","name":"owner","type":"address"},{"indexed":true,"internalType":"address","name":"spender","type":"address"},{"indexed":false,"internalType":"uint256","name":"value","type":"uint256"}],"name":"Approval","type":"event"},{"anonymous":false,"inputs":[{"indexed":true,"internalType":"address","name":"user","type":"address"},{"indexed":false,"internalType":"uint256","name":"amount","type":"uint256"}],"name":"MonthlyYieldDistributed","type":"event"},{"anonymous":false,"inputs":[{"indexed":true,"internalType":"address","name":"owner","type":"address"},{"indexed":true,"internalType":"uint256","name":"propertyId","type":"uint256"},{"indexed":false,"internalType":"uint256","name":"amount","type":"uint256"}],"name":"MortgageTokensMinted","type":"event"},{"anonymous":false,"inputs":[{"indexed":true,"internalType":"address","name":"previousOwner","type":"address"},{"indexed":true,"internalType":"address","name":"newOwner","type":"address"}],"name":"OwnershipTransferred","type":"event"},{"anonymous":false,"inputs":[{"indexed":true,"internalType":"uint256","name":"propertyId","type":"uint256"},{"indexed":false,"internalType":"uint256","name":"totalValue","type":"uint256"},{"indexed":false,"internalType":"uint256","name":"downPayment","type":"uint256"}],"name":"PropertyCreated","type":"event"},{"anonymous":false,"inputs":[{"indexed":true,"internalType":"address","name":"from","type":"address"},{"indexed":true,"internalType":"address","name":"to","type":"address"},{"indexed":false,"internalType":"uint256","name":"value","type":"uint256"}],"name":"Transfer","type":"event"},{"anonymous":false,"inputs":[{"indexed":true,"internalType":"address","name":"member","type":"address"},{"indexed":true,"internalType":"uint256","name":"villageId","type":"uint256"},{"indexed":false,"internalType":"uint256","name":"membershipFee","type":"uint256"}],"name":"VillageJoined","type":"event"},{"inputs":[{"internalType":"address","name":"owner","type":"address"},{"internalType":"address","name":"spender","type":"address"}],"name":"allowance","outputs":[{"internalType":"uint256","name":"","type":"uint256"}],"stateMutability":"view","type":"function"},{"inputs":[{"internalType":"address","name":"spender","type":"address"},{"internalType":"uint256","name":"amount","type":"uint256"}],"name":"approve","outputs":[{"internalType":"bool","name":"","type":"bool"}],"stateMutability":"nonpayable","type":"function"},{"inputs":[{"internalType":"address","name":"account","type":"address"}],"name":"balanceOf","outputs":[{"internalType":"uint256","name":"","type":"uint256"}],"stateMutability":"view","type":"function"},{"inputs":[{"internalType":"uint256","name":"propertyId","type":"uint256"},{"internalType":"uint256","name":"tokenAmount","type":"uint256"}],"name":"calculateMonthlyYield","outputs":[{"internalType":"uint256","name":"","type":"uint256"}],"stateMutability":"view","type":"function"},{"inputs":[{"internalType":"uint256","name":"villageId","type":"uint256"},{"internalType":"uint256","name":"membershipFee","type":"uint256"}],"name":"calculateVillageYield","outputs":[{"internalType":"uint256","name":"","type":"uint256"}],"stateMutability":"view","type":"function"},{"inputs":[{"internalType":"uint256","name":"propertyId","type":"uint256"},{"internalType":"uint256","name":"totalValue","type":"uint256"},{"internalType":"uint256","name":"downPayment","type":"uint256"},{"internalType":"uint256","name":"monthlyPayment","type":"uint256"}],"name":"createProperty","outputs":[],"stateMutability":"nonpayable","type":"function"},{"inputs":[],"name":"decimals","outputs":[{"internalType":"uint8","name":"","type":"uint8"}],"stateMutability":"view","type":"function"},{"inputs":[{"internalType":"address","name":"spender","type":"address"},{"internalType":"uint256","name":"subtractedValue","type":"uint256"}],"name":"decreaseAllowance","outputs":[{"internalType":"bool","name":"","type":"bool"}],"stateMutability":"nonpayable","type":"function"},{"inputs":[{"internalType":"address","name":"owner","type":"address"},{"internalType":"uint256","name":"propertyId","type":"uint256"}],"name":"getMortgageTokens","outputs":[{"internalType":"uint256","name":"","type":"uint256"}],"stateMutability":"view","type":"function"},{"inputs":[{"internalType":"uint256","name":"propertyId","type":"uint256"}],"name":"getProperty","outputs":[{"internalType":"uint256","name":"totalValue","type":"uint256"},{"internalType":"uint256","name":"downPayment","type":"uint256"},{"internalType":"uint256","name":"monthlyPayment","type":"uint256"},{"internalType":"bool","name":"isActive","type":"bool"}],"stateMutability":"view","type":"function"},{"inputs":[{"internalType":"uint256","name":"propertyId","type":"uint256"}],"name":"getPropertyDetails","outputs":[{"internalType":"uint256","name":"totalValue","type":"uint256"},{"internalType":"uint256","name":"downPayment","type":"uint256"},{"internalType":"uint256","name":"monthlyPayment","type":"uint256"},{"internalType":"uint256","name":"monthlyRent","type":"uint256"},{"internalType":"uint256","name":"totalTokensMinted","type":"uint256"},{"internalType":"bool","name":"isActive","type":"bool"}],"stateMutability":"view","type":"function"},{"inputs":[{"internalType":"address","name":"user","type":"address"}],"name":"getUserTotalInvestments","outputs":[{"internalType":"uint256","name":"","type":"uint256"}],"stateMutability":"view","type":"function"},{"inputs":[{"internalType":"address","name":"user","type":"address"},{"internalType":"uint256","name":"villageId","type":"uint256"}],"name":"getVillageMembership","outputs":[{"internalType":"bool","name":"","type":"bool"}],"stateMutability":"view","type":"function"},{"inputs":[{"internalType":"address","name":"spender","type":"address"},{"internalType":"uint256","name":"addedValue","type":"uint256"}],"name":"increaseAllowance","outputs":[{"internalType":"bool","name":"","type":"bool"}],"stateMutability":"nonpayable","type":"function"},{"inputs":[{"internalType":"uint256","name":"villageId","type":"uint256"},{"internalType":"uint256","name":"membershipFee","type":"uint256"}],"name":"joinVillage","outputs":[],"stateMutability":"payable","type":"function"},{"inputs":[{"internalType":"uint256","name":"propertyId","type":"uint256"},{"internalType":"uint256","name":"amount","type":"uint256"}],"name":"mintMortgageTokens","outputs":[],"stateMutability":"payable","type":"function"},{"inputs":[],"name":"name","outputs":[{"internalType":"string","name":"","type":"string"}],"stateMutability":"view","type":"function"},{"inputs":[],"name":"owner","outputs":[{"internalType":"address","name":"","type":"address"}],"stateMutability":"view","type":"function"},{"inputs":[{"internalType":"uint256","name":"","type":"uint256"}],"name":"properties","outputs":[{"internalType":"uint256","name":"totalValue","type":"uint256"},{"internalType":"uint256","name":"downPayment","type":"uint256"},{"internalType":"uint256","name":"monthlyPayment","type":"uint256"},{"internalType":"bool","name":"isActive","type":"bool"},{"internalType":"uint256","name":"totalTokensMinted","type":"uint256"},{"internalType":"uint256","name":"monthlyRent","type":"uint256"}],"stateMutability":"view","type":"function"},{"inputs":[],"name":"renounceOwnership","outputs":[],"stateMutability":"nonpayable","type":"function"},{"inputs":[],"name":"symbol","outputs":[{"internalType":"string","name":"","type":"string"}],"stateMutability":"view","type":"function"},{"inputs":[],"name":"totalSupply","outputs":[{"internalType":"uint256","name":"","type":"uint256"}],"stateMutability":"view","type":"function"},{"inputs":[{"internalType":"address","name":"to","type":"address"},{"internalType":"uint256","name":"amount","type":"uint256"}],"name":"transfer","outputs":[{"internalType":"bool","name":"","type":"bool"}],"stateMutability":"nonpayable","type":"function"},{"inputs":[{"internalType":"address","name":"from","type":"address"},{"internalType":"address","name":"to","type":"address"},{"internalType":"uint256","name":"amount","type":"uint256"}],"name":"transferFrom","outputs":[{"internalType":"bool","name":"","type":"bool"}],"stateMutability":"nonpayable","type":"function"},{"inputs":[{"internalType":"address","name":"newOwner","type":"address"}],"name":"transferOwnership","outputs":[],"stateMutability":"nonpayable","type":"function"},{"inputs":[{"internalType":"address","name":"","type":"address"},{"internalType":"uint256","name":"","type":"uint256"}],"name":"userPropertyTokens","outputs":[{"internalType":"uint256","name":"","type":"uint256"}],"stateMutability":"view","type":"function"},{"inputs":[{"internalType":"address","name":"","type":"address"}],"name":"userTotalInvestments","outputs":[{"internalType":"uint256","name":"","type":"uint256"}],"stateMutability":"view","type":"function"},{"inputs":[{"internalType":"address","name":"","type":"address"},{"internalType":"uint256","name":"","type":"uint256"}],"name":"villageMemberships","outputs":[{"internalType":"bool","name":"","type":"bool"}],"stateMutability":"view","type":"function"},{"inputs":[{"internalType":"uint256","name":"","type":"uint256"}],"name":"villages","outputs":[{"internalType":"uint256","name":"membershipFee","type":"uint256"},{"internalType":"bool","name":"isActive","type":"bool"},{"internalType":"uint256","name":"totalMembers","type":"uint256"},{"internalType":"uint256","name":"monthlyYield","type":"uint256"}],"stateMutability":"view","type":"function"},{"inputs":[],"name":"withdraw","outputs":[],"stateMutability":"nonpayable","type":"function"}],"evm":{"bytecode":{"linkReferences":{},"object":"604060808152346200047857620000156200047d565b601781526020907f4d6f7274676167652050726f746f636f6c20546f6b656e000000000000000000828201526200004b6200047d565b916003918284526213541560ea1b82850152805160018060401b039081811162000378578454906001938483811c931680156200046d575b8684101462000457578190601f9384811162000401575b5086908483116001146200039a576000926200038e575b505060001982881b1c191690841b1785555b855190828211620003785760049687548581811c911680156200036d575b8782101462000358579081838594931162000300575b508691831160011462000299576000926200028d575b505060001982871b1c191690831b1785555b60058054336001600160a01b0319821681179092556001600160a01b03167f8be0079c531659141344cd1fd0a4f28419497f9722a3daafe3b4186f6b6457e0600080a38160065585519060c082018281108282111762000278578752620249f082528382019160058861753094858152620001e78285016105b08152606086019089825260808701936000855260a088019561080287528b60005260078d5260002097518855518a8801555160028701555115158a86019060ff801983541691151516179055565b51838a0155519101558651956080870191821187831017620002635750865284526200024b828501918083528686019260008452600860608801956102528752836000525287600020965187555115159086019060ff801983541691151516179055565b516002840155519101555161156290816200049e8239f35b604190634e487b7160e01b6000525260246000fd5b604187634e487b7160e01b6000525260246000fd5b0151905038806200010d565b90859350601f1983169189600052876000209260005b89828210620002e95750508411620002d0575b505050811b0185556200011f565b015160001983891b60f8161c19169055388080620002c2565b8385015186558997909501949384019301620002af565b9091925088600052866000208380860160051c8201928987106200034e575b91869589929594930160051c01915b8281106200033e575050620000f7565b600081558695508891016200032e565b925081926200031f565b602289634e487b7160e01b6000525260246000fd5b90607f1690620000e1565b634e487b7160e01b600052604160045260246000fd5b015190503880620000b1565b90869350601f1983169189600052886000209260005b8a828210620003ea5750508411620003d1575b505050811b018555620000c3565b0151600019838a1b60f8161c19169055388080620003c3565b8385015186558a97909501949384019301620003b0565b90915087600052866000208480850160051c8201928986106200044d575b918891869594930160051c01915b8281106200043d5750506200009a565b600081558594508891016200042d565b925081926200041f565b634e487b7160e01b600052602260045260246000fd5b92607f169262000083565b600080fd5b60408051919082016001600160401b03811183821017620003785760405256fe608060408181526004918236101561001657600080fd5b600092833560e01c91826306fdde0314610f1957508163095ea7b314610eef578163126dbe4314610e6357816318160ddd14610e4457816323b872dd14610d7a578163313ce56714610d5e578163320e55d114610ca757816332665ffb14610c285781633950935114610bd85781633ccfd60b14610b8857816345e3bc141461031d578163511a3d8f14610a6757816370a0823114610a30578163715018a6146109d357816384ebf55b146102e55781638da5cb5b146109aa57816395d89b41146108a7578163a457c2d714610802578163a9059cbb146107d1578163b983c42114610730578163c0285cce14610709578163d2ad5d9a146105c0578163d49f5d13146103fc578163d4aea411146103ad578163dd62ed3e14610364578163dda51acb1461031d578163f1634c5a146102e5578163f2fde38b14610219578163f7b10808146101b2575063fe6011ba1461016f57600080fd5b346101ae57806003193601126101ae5760209181906001600160a01b03610194611057565b168152600984528181206024358252845220549051908152f35b5080fd5b91905034610215576020366003190112610215578060c09383358152600760205220805492600182015492600283015490600560ff60038601541693850154940154948151968752602087015285015215156060840152608083015260a0820152f35b8280fd5b90503461021557602036600319011261021557610234611057565b9061023d61109e565b6001600160a01b03918216928315610293575050600554826bffffffffffffffffffffffff60a01b821617600555167f8be0079c531659141344cd1fd0a4f28419497f9722a3daafe3b4186f6b6457e08380a380f35b906020608492519162461bcd60e51b8352820152602660248201527f4f776e61626c653a206e6577206f776e657220697320746865207a65726f206160448201526564647265737360d01b6064820152fd5b5050346101ae5760203660031901126101ae5760209181906001600160a01b0361030d611057565b168152600b845220549051908152f35b5050346101ae57806003193601126101ae5760209160ff9082906001600160a01b03610347611057565b168152600a85528181206024358252855220541690519015158152f35b5050346101ae57806003193601126101ae5780602092610382611057565b61038a611072565b6001600160a01b0391821683526001865283832091168252845220549051908152f35b9050346102155760203660031901126102155760809282913581526008602052209081549160ff6001820154169160036002830154920154928151948552151560208501528301526060820152f35b905061040736611088565b919092610412611495565b8385526020916007835281862061042f60ff600383015416611410565b841561057e57670de0b6b3a76400008502670de0b6b3a763ffff198682040161056b576103e86104629104341015611452565b331561052957907f367e7bd13410a98139ed3fb6290098a5c877577b7742b2a39d275366c4a405ce9392916104998660025461114a565b6002553388528784528288208681540190558251868152887fddf252ad1be2c89b69c2b068fc378daa952ba7f163c4a11628f55a4df523b3ef863393a33388526009845282882087895284528288206104f387825461114a565b90550161050185825461114a565b9055338652600b825280862061051885825461114a565b9055519283523392a3600160065580f35b5082606492519162461bcd60e51b8352820152601f60248201527f45524332303a206d696e7420746f20746865207a65726f2061646472657373006044820152fd5b634e487b7160e01b885260118352602488fd5b5082606492519162461bcd60e51b8352820152601d60248201527f416d6f756e74206d7573742062652067726561746572207468616e20300000006044820152fd5b8383346101ae5760803660031901126101ae578235906024356044356105e461109e565b838552600760205260ff60038487200154166106c657600c8202828104600c14831517156106b3579560057fe4f6e1a13cce371a1b79b6e9d0bf591044caa7acabfcc34c42023735a1a6849395969785519261063f846110f6565b858452888a602086018781528987019060643582528a60608901936001855260808a0195818752606460a08c0199048952815260076020522097518855516001880155516002870155600386019051151560ff8019835416911617905551908401555191015582519182526020820152a280f35b634e487b7160e01b865260118752602486fd5b825162461bcd60e51b8152602081880152601760248201527f50726f706572747920616c7265616479206578697374730000000000000000006044820152606490fd5b5050346101ae57806003193601126101ae5760209181906001600160a01b03610194611057565b8284346107ce5761074036611088565b9082526008602052828220835192608084019084821067ffffffffffffffff8311176107bb576020866107b4876107ac8888888652805484526107a6600360ff600184015416151592838a880152600281015489880152015491606086019283526114eb565b516113dd565b9051906113f0565b9051908152f35b634e487b7160e01b815260418752602490fd5b80fd5b5050346101ae57806003193601126101ae576020906107fb6107f1611057565b602435903361116d565b5160018152f35b905082346107ce57826003193601126107ce5761081d611057565b918360243592338152600160205281812060018060a01b0386168252602052205490828210610856576020856107fb85850387336112db565b608490602086519162461bcd60e51b8352820152602560248201527f45524332303a2064656372656173656420616c6c6f77616e63652062656c6f77604482015264207a65726f60d81b6064820152fd5b8383346101ae57816003193601126101ae57805191809380549160019083821c928285169485156109a0575b602095868610811461098d578589529081156109695750600114610911575b61090d8787610903828c0383611128565b519182918261100e565b0390f35b81529295507f8a35acfbc15ff81a39ae7d344fd709f28e8600b4aa8c65c6b64bfe7fe36bd19b5b828410610956575050508261090d94610903928201019486806108f2565b8054868501880152928601928101610938565b60ff19168887015250505050151560051b83010192506109038261090d86806108f2565b634e487b7160e01b845260228352602484fd5b93607f16936108d3565b5050346101ae57816003193601126101ae5760055490516001600160a01b039091168152602090f35b83346107ce57806003193601126107ce576109ec61109e565b600580546001600160a01b0319811690915581906001600160a01b03167f8be0079c531659141344cd1fd0a4f28419497f9722a3daafe3b4186f6b6457e08280a380f35b5050346101ae5760203660031901126101ae5760209181906001600160a01b03610a58611057565b16815280845220549051908152f35b8383610a7236611088565b9091610a7c611495565b82845260209060088252808520610a9960ff6001830154166114eb565b338652600a8352818620858752835260ff8287205416610b5257670de0b6b3a7640000808502908582041485151715610b3f5790610adf6103e860029304341015611452565b338752600a84528287208688528452828720805460ff191660011790550180546000198114610b3f5760010190555191825233917fea87aafba2f9181e63e803ce3d725194d50e17e9aa0bbb0abe7ef1e0be54e5339190a3600160065580f35b634e487b7160e01b875260118852602487fd5b815162461bcd60e51b8152808801849052601060248201526f20b63932b0b23c90309036b2b6b132b960811b6044820152606490fd5b5050346101ae57816003193601126101ae57610ba261109e565b8180808060018060a01b03600554164790828215610bcf575bf115610bc5575080f35b51903d90823e3d90fd5b506108fc610bbb565b5050346101ae57806003193601126101ae576107fb602092610c21610bfb611057565b338352600186528483206001600160a01b0382168452865291849020546024359061114a565b90336112db565b905034610215576020366003190112610215578160809382358152600760205220825192610c55846110f6565b81549384815260018301549081602082015260a06005600286015495868685015260ff6003820154161515978860608601528101548a8501520154910152815194855260208501528301526060820152f35b8284346107ce57610cb736611088565b9082526007602052828220908351610cce816110f6565b8254815260018301546020820152600283015485820152610d13600560ff60038601541615159485606085015288810154608085015201549360a08301948552611410565b6127109384830292808404861490151715610d4b5760208686610d4387610d3c888851906113f0565b90516113dd565b049051908152f35b634e487b7160e01b815260118752602490fd5b5050346101ae57816003193601126101ae576020905160128152f35b839150346101ae5760603660031901126101ae57610d96611057565b610d9e611072565b91846044359460018060a01b038416815260016020528181203382526020522054906000198203610dd8575b6020866107fb87878761116d565b848210610e015750918391610df6602096956107fb950333836112db565b919394819350610dca565b606490602087519162461bcd60e51b8352820152601d60248201527f45524332303a20696e73756666696369656e7420616c6c6f77616e63650000006044820152fd5b5050346101ae57816003193601126101ae576020906002549051908152f35b905034610215576020366003190112610215578160c0938235815260076020522060a08351610e91816110f6565b82549485825260018401548060208401526002850154928383820152600560ff6003880154161515978860608401528701549687608084015201549485910152815196875260208701528501526060840152608083015260a0820152f35b5050346101ae57806003193601126101ae576020906107fb610f0f611057565b60243590336112db565b9291503461100a578360031936011261100a57600354600181811c9186908281168015611000575b6020958686108214610fed5750848852908115610fcb5750600114610f72575b61090d8686610903828b0383611128565b929550600383527fc2575a0e9e593c00f959f8c92f12db2869c3395a3b0502d05e2516446f71f85b5b828410610fb8575050508261090d94610903928201019438610f61565b8054868501880152928601928101610f9b565b60ff191687860152505050151560051b83010192506109038261090d38610f61565b634e487b7160e01b845260229052602483fd5b93607f1693610f41565b8380fd5b6020808252825181830181905290939260005b82811061104357505060409293506000838284010152601f8019910116010190565b818101860151848201604001528501611021565b600435906001600160a01b038216820361106d57565b600080fd5b602435906001600160a01b038216820361106d57565b604090600319011261106d576004359060243590565b6005546001600160a01b031633036110b257565b606460405162461bcd60e51b815260206004820152602060248201527f4f776e61626c653a2063616c6c6572206973206e6f7420746865206f776e65726044820152fd5b60c0810190811067ffffffffffffffff82111761111257604052565b634e487b7160e01b600052604160045260246000fd5b90601f8019910116810190811067ffffffffffffffff82111761111257604052565b9190820180921161115757565b634e487b7160e01b600052601160045260246000fd5b6001600160a01b039081169182156112885716918215611237576000828152806020526040812054918083106111e357604082827fddf252ad1be2c89b69c2b068fc378daa952ba7f163c4a11628f55a4df523b3ef958760209652828652038282205586815220818154019055604051908152a3565b60405162461bcd60e51b815260206004820152602660248201527f45524332303a207472616e7366657220616d6f756e7420657863656564732062604482015265616c616e636560d01b6064820152608490fd5b60405162461bcd60e51b815260206004820152602360248201527f45524332303a207472616e7366657220746f20746865207a65726f206164647260448201526265737360e81b6064820152608490fd5b60405162461bcd60e51b815260206004820152602560248201527f45524332303a207472616e736665722066726f6d20746865207a65726f206164604482015264647265737360d81b6064820152608490fd5b6001600160a01b0390811691821561138c571691821561133c5760207f8c5be1e5ebec7d5bd14f71427d1e84f3dd0314c0f7b2291e5b200ac8c7c3b925918360005260018252604060002085600052825280604060002055604051908152a3565b60405162461bcd60e51b815260206004820152602260248201527f45524332303a20617070726f766520746f20746865207a65726f206164647265604482015261737360f01b6064820152608490fd5b60405162461bcd60e51b8152602060048201526024808201527f45524332303a20617070726f76652066726f6d20746865207a65726f206164646044820152637265737360e01b6064820152608490fd5b8181029291811591840414171561115757565b81156113fa570490565b634e487b7160e01b600052601260045260246000fd5b1561141757565b60405162461bcd60e51b815260206004820152601360248201527250726f7065727479206e6f742061637469766560681b6044820152606490fd5b1561145957565b60405162461bcd60e51b8152602060048201526014602482015273125b9cdd59999a58da595b9d081c185e5b595b9d60621b6044820152606490fd5b6002600654146114a6576002600655565b60405162461bcd60e51b815260206004820152601f60248201527f5265656e7472616e637947756172643a207265656e7472616e742063616c6c006044820152606490fd5b156114f257565b60405162461bcd60e51b815260206004820152601260248201527156696c6c616765206e6f742061637469766560701b6044820152606490fdfea26469706673582212207e760e47301b9a33ad62c2a94fa417114bc6153122ac8c9eea0f7f3dbe713b8f64736f6c63430008130033","opcodes":"PUSH1 0x40 PUSH1 0x80 DUP2 MSTORE CALLVALUE PUSH3 0x478 JUMPI PUSH3 0x15 PUSH3 0x47D JUMP JUMPDEST PUSH1 0x17 DUP2 MSTORE PUSH1 0x20 SWAP1 PUSH32 0x4D6F7274676167652050726F746F636F6C20546F6B656E000000000000000000 DUP3 DUP3 ADD MSTORE PUSH3 0x4B PUSH3 0x47D JUMP JUMPDEST SWAP2 PUSH1 0x3 SWAP2 DUP3 DUP5 MSTORE PUSH3 0x135415 PUSH1 0xEA SHL DUP3 DUP6 ADD MSTORE DUP1 MLOAD PUSH1 0x1 DUP1 PUSH1 0x40 SHL SUB SWAP1 DUP2 DUP2 GT PUSH3 0x378 JUMPI DUP5 SLOAD SWAP1 PUSH1 0x1 SWAP4 DUP5 DUP4 DUP2 SHR SWAP4 AND DUP1 ISZERO PUSH3 0x46D JUMPI JUMPDEST DUP7 DUP5 LT EQ PUSH3 0x457 JUMPI DUP2 SWAP1 PUSH1 0x1F SWAP4 DUP5 DUP2 GT PUSH3 0x401 JUMPI JUMPDEST POP DUP7 SWAP1 DUP5 DUP4 GT PUSH1 0x1 EQ PUSH3 0x39A JUMPI PUSH1 0x0 SWAP3 PUSH3 0x38E JUMPI JUMPDEST POP POP PUSH1 0x0 NOT DUP3 DUP9 SHL SHR NOT AND SWAP1 DUP5 SHL OR DUP6 SSTORE JUMPDEST DUP6 MLOAD SWAP1 DUP3 DUP3 GT PUSH3 0x378 JUMPI PUSH1 0x4 SWAP7 DUP8 SLOAD DUP6 DUP2 DUP2 SHR SWAP2 AND DUP1 ISZERO PUSH3 0x36D JUMPI JUMPDEST DUP8 DUP3 LT EQ PUSH3 0x358 JUMPI SWAP1 DUP2 DUP4 DUP6 SWAP5 SWAP4 GT PUSH3 0x300 JUMPI JUMPDEST POP DUP7 SWAP2 DUP4 GT PUSH1 0x1 EQ PUSH3 0x299 JUMPI PUSH1 0x0 SWAP3 PUSH3 0x28D JUMPI JUMPDEST POP POP PUSH1 0x0 NOT DUP3 DUP8 SHL SHR NOT AND SWAP1 DUP4 SHL OR DUP6 SSTORE JUMPDEST PUSH1 0x5 DUP1 SLOAD CALLER PUSH1 0x1 PUSH1 0x1 PUSH1 0xA0 SHL SUB NOT DUP3 AND DUP2 OR SWAP1 SWAP3 SSTORE PUSH1 0x1 PUSH1 0x1 PUSH1 0xA0 SHL SUB AND PUSH32 0x8BE0079C531659141344CD1FD0A4F28419497F9722A3DAAFE3B4186F6B6457E0 PUSH1 0x0 DUP1 LOG3 DUP2 PUSH1 0x6 SSTORE DUP6 MLOAD SWAP1 PUSH1 0xC0 DUP3 ADD DUP3 DUP2 LT DUP3 DUP3 GT OR PUSH3 0x278 JUMPI DUP8 MSTORE PUSH3 0x249F0 DUP3 MSTORE DUP4 DUP3 ADD SWAP2 PUSH1 0x5 DUP9 PUSH2 0x7530 SWAP5 DUP6 DUP2 MSTORE PUSH3 0x1E7 DUP3 DUP6 ADD PUSH2 0x5B0 DUP2 MSTORE PUSH1 0x60 DUP7 ADD SWAP1 DUP10 DUP3 MSTORE PUSH1 0x80 DUP8 ADD SWAP4 PUSH1 0x0 DUP6 MSTORE PUSH1 0xA0 DUP9 ADD SWAP6 PUSH2 0x802 DUP8 MSTORE DUP12 PUSH1 0x0 MSTORE PUSH1 0x7 DUP14 MSTORE PUSH1 0x0 KECCAK256 SWAP8 MLOAD DUP9 SSTORE MLOAD DUP11 DUP9 ADD SSTORE MLOAD PUSH1 0x2 DUP8 ADD SSTORE MLOAD ISZERO ISZERO DUP11 DUP7 ADD SWAP1 PUSH1 0xFF DUP1 NOT DUP4 SLOAD AND SWAP2 ISZERO ISZERO AND OR SWAP1 SSTORE JUMP JUMPDEST MLOAD DUP4 DUP11 ADD SSTORE MLOAD SWAP2 ADD SSTORE DUP7 MLOAD SWAP6 PUSH1 0x80 DUP8 ADD SWAP2 DUP3 GT DUP8 DUP4 LT OR PUSH3 0x263 JUMPI POP DUP7 MSTORE DUP5 MSTORE PUSH3 0x24B DUP3 DUP6 ADD SWAP2 DUP1 DUP4 MSTORE DUP7 DUP7 ADD SWAP3 PUSH1 0x0 DUP5 MSTORE PUSH1 0x8 PUSH1 0x60 DUP9 ADD SWAP6 PUSH2 0x252 DUP8 MSTORE DUP4 PUSH1 0x0 MSTORE MSTORE DUP8 PUSH1 0x0 KECCAK256 SWAP7 MLOAD DUP8 SSTORE MLOAD ISZERO ISZERO SWAP1 DUP7 ADD SWAP1 PUSH1 0xFF DUP1 NOT DUP4 SLOAD AND SWAP2 ISZERO ISZERO AND OR SWAP1 SSTORE JUMP JUMPDEST MLOAD PUSH1 0x2 DUP5 ADD SSTORE MLOAD SWAP2 ADD SSTORE MLOAD PUSH2 0x1562 SWAP1 DUP2 PUSH3 0x49E DUP3 CODECOPY RETURN JUMPDEST PUSH1 0x41 SWAP1 PUSH4 0x4E487B71 PUSH1 0xE0 SHL PUSH1 0x0 MSTORE MSTORE PUSH1 0x24 PUSH1 0x0 REVERT JUMPDEST PUSH1 0x41 DUP8 PUSH4 0x4E487B71 PUSH1 0xE0 SHL PUSH1 0x0 MSTORE MSTORE PUSH1 0x24 PUSH1 0x0 REVERT JUMPDEST ADD MLOAD SWAP1 POP CODESIZE DUP1 PUSH3 0x10D JUMP JUMPDEST SWAP1 DUP6 SWAP4 POP PUSH1 0x1F NOT DUP4 AND SWAP2 DUP10 PUSH1 0x0 MSTORE DUP8 PUSH1 0x0 KECCAK256 SWAP3 PUSH1 0x0 JUMPDEST DUP10 DUP3 DUP3 LT PUSH3 0x2E9 JUMPI POP POP DUP5 GT PUSH3 0x2D0 JUMPI JUMPDEST POP POP POP DUP2 SHL ADD DUP6 SSTORE PUSH3 0x11F JUMP JUMPDEST ADD MLOAD PUSH1 0x0 NOT DUP4 DUP10 SHL PUSH1 0xF8 AND SHR NOT AND SWAP1 SSTORE CODESIZE DUP1 DUP1 PUSH3 0x2C2 JUMP JUMPDEST DUP4 DUP6 ADD MLOAD DUP7 SSTORE DUP10 SWAP8 SWAP1 SWAP6 ADD SWAP5 SWAP4 DUP5 ADD SWAP4 ADD PUSH3 0x2AF JUMP JUMPDEST SWAP1 SWAP2 SWAP3 POP DUP9 PUSH1 0x0 MSTORE DUP7 PUSH1 0x0 KECCAK256 DUP4 DUP1 DUP7 ADD PUSH1 0x5 SHR DUP3 ADD SWAP3 DUP10 DUP8 LT PUSH3 0x34E JUMPI JUMPDEST SWAP2 DUP7 SWAP6 DUP10 SWAP3 SWAP6 SWAP5 SWAP4 ADD PUSH1 0x5 SHR ADD SWAP2 JUMPDEST DUP3 DUP2 LT PUSH3 0x33E JUMPI POP POP PUSH3 0xF7 JUMP JUMPDEST PUSH1 0x0 DUP2 SSTORE DUP7 SWAP6 POP DUP9 SWAP2 ADD PUSH3 0x32E JUMP JUMPDEST SWAP3 POP DUP2 SWAP3 PUSH3 0x31F JUMP JUMPDEST PUSH1 0x22 DUP10 PUSH4 0x4E487B71 PUSH1 0xE0 SHL PUSH1 0x0 MSTORE MSTORE PUSH1 0x24 PUSH1 0x0 REVERT JUMPDEST SWAP1 PUSH1 0x7F AND SWAP1 PUSH3 0xE1 JUMP JUMPDEST PUSH4 0x4E487B71 PUSH1 0xE0 SHL PUSH1 0x0 MSTORE PUSH1 0x41 PUSH1 0x4 MSTORE PUSH1 0x24 PUSH1 0x0 REVERT JUMPDEST ADD MLOAD SWAP1 POP CODESIZE DUP1 PUSH3 0xB1 JUMP JUMPDEST SWAP1 DUP7 SWAP4 POP PUSH1 0x1F NOT DUP4 AND SWAP2 DUP10 PUSH1 0x0 MSTORE DUP9 PUSH1 0x0 KECCAK256 SWAP3 PUSH1 0x0 JUMPDEST DUP11 DUP3 DUP3 LT PUSH3 0x3EA JUMPI POP POP DUP5 GT PUSH3 0x3D1 JUMPI JUMPDEST POP POP POP DUP2 SHL ADD DUP6 SSTORE PUSH3 0xC3 JUMP JUMPDEST ADD MLOAD PUSH1 0x0 NOT DUP4 DUP11 SHL PUSH1 0xF8 AND SHR NOT AND SWAP1 SSTORE CODESIZE DUP1 DUP1 PUSH3 0x3C3 JUMP JUMPDEST DUP4 DUP6 ADD MLOAD DUP7 SSTORE DUP11 SWAP8 SWAP1 SWAP6 ADD SWAP5 SWAP4 DUP5 ADD SWAP4 ADD PUSH3 0x3B0 JUMP JUMPDEST SWAP1 SWAP2 POP DUP8 PUSH1 0x0 MSTORE DUP7 PUSH1 0x0 KECCAK256 DUP5 DUP1 DUP6 ADD PUSH1 0x5 SHR DUP3 ADD SWAP3 DUP10 DUP7 LT PUSH3 0x44D JUMPI JUMPDEST SWAP2 DUP9 SWAP2 DUP7 SWAP6 SWAP5 SWAP4 ADD PUSH1 0x5 SHR ADD SWAP2 JUMPDEST DUP3 DUP2 LT PUSH3 0x43D JUMPI POP POP PUSH3 0x9A JUMP JUMPDEST PUSH1 0x0 DUP2 SSTORE DUP6 SWAP5 POP DUP9 SWAP2 ADD PUSH3 0x42D JUMP JUMPDEST SWAP3 POP DUP2 SWAP3 PUSH3 0x41F JUMP JUMPDEST PUSH4 0x4E487B71 PUSH1 0xE0 SHL PUSH1 0x0 MSTORE PUSH1 0x22 PUSH1 0x4 MSTORE PUSH1 0x24 PUSH1 0x0 REVERT JUMPDEST SWAP3 PUSH1 0x7F AND SWAP3 PUSH3 0x83 JUMP JUMPDEST PUSH1 0x0 DUP1 REVERT JUMPDEST PUSH1 0x40 DUP1 MLOAD SWAP2 SWAP1 DUP3 ADD PUSH1 0x1 PUSH1 0x1 PUSH1 0x40 SHL SUB DUP2 GT DUP4 DUP3 LT OR PUSH3 0x378 JUMPI PUSH1 0x40 MSTORE JUMP INVALID PUSH1 0x80 PUSH1 0x40 DUP2 DUP2 MSTORE PUSH1 0x4 SWAP2 DUP3 CALLDATASIZE LT ISZERO PUSH2 0x16 JUMPI PUSH1 0x0 DUP1 REVERT JUMPDEST PUSH1 0x0 SWAP3 DUP4 CALLDATALOAD PUSH1 0xE0 SHR SWAP2 DUP3 PUSH4 0x6FDDE03 EQ PUSH2 0xF19 JUMPI POP DUP2 PUSH4 0x95EA7B3 EQ PUSH2 0xEEF JUMPI DUP2 PUSH4 0x126DBE43 EQ PUSH2 0xE63 JUMPI DUP2 PUSH4 0x18160DDD EQ PUSH2 0xE44 JUMPI DUP2 PUSH4 0x23B872DD EQ PUSH2 0xD7A JUMPI DUP2 PUSH4 0x313CE567 EQ PUSH2 0xD5E JUMPI DUP2 PUSH4 0x320E55D1 EQ PUSH2 0xCA7 JUMPI DUP2 PUSH4 0x32665FFB EQ PUSH2 0xC28 JUMPI DUP2 PUSH4 0x39509351 EQ PUSH2 0xBD8 JUMPI DUP2 PUSH4 0x3CCFD60B EQ PUSH2 0xB88 JUMPI DUP2 PUSH4 0x45E3BC14 EQ PUSH2 0x31D JUMPI DUP2 PUSH4 0x511A3D8F EQ PUSH2 0xA67 JUMPI DUP2 PUSH4 0x70A08231 EQ PUSH2 0xA30 JUMPI DUP2 PUSH4 0x715018A6 EQ PUSH2 0x9D3 JUMPI DUP2 PUSH4 0x84EBF55B EQ PUSH2 0x2E5 JUMPI DUP2 PUSH4 0x8DA5CB5B EQ PUSH2 0x9AA JUMPI DUP2 PUSH4 0x95D89B41 EQ PUSH2 0x8A7 JUMPI DUP2 PUSH4 0xA457C2D7 EQ PUSH2 0x802 JUMPI DUP2 PUSH4 0xA9059CBB EQ PUSH2 0x7D1 JUMPI DUP2 PUSH4 0xB983C421 EQ PUSH2 0x730 JUMPI DUP2 PUSH4 0xC0285CCE EQ PUSH2 0x709 JUMPI DUP2 PUSH4 0xD2AD5D9A EQ PUSH2 0x5C0 JUMPI DUP2 PUSH4 0xD49F5D13 EQ PUSH2 0x3FC JUMPI DUP2 PUSH4 0xD4AEA411 EQ PUSH2 0x3AD JUMPI DUP2 PUSH4 0xDD62ED3E EQ PUSH2 0x364 JUMPI DUP2 PUSH4 0xDDA51ACB EQ PUSH2 0x31D JUMPI DUP2 PUSH4 0xF1634C5A EQ PUSH2 0x2E5 JUMPI DUP2 PUSH4 0xF2FDE38B EQ PUSH2 0x219 JUMPI DUP2 PUSH4 0xF7B10808 EQ PUSH2 0x1B2 JUMPI POP PUSH4 0xFE6011BA EQ PUSH2 0x16F JUMPI PUSH1 0x0 DUP1 REVERT JUMPDEST CALLVALUE PUSH2 0x1AE JUMPI DUP1 PUSH1 0x3 NOT CALLDATASIZE ADD SLT PUSH2 0x1AE JUMPI PUSH1 0x20 SWAP2 DUP2 SWAP1 PUSH1 0x1 PUSH1 0x1 PUSH1 0xA0 SHL SUB PUSH2 0x194 PUSH2 0x1057 JUMP JUMPDEST AND DUP2 MSTORE PUSH1 0x9 DUP5 MSTORE DUP2 DUP2 KECCAK256 PUSH1 0x24 CALLDATALOAD DUP3 MSTORE DUP5 MSTORE KECCAK256 SLOAD SWAP1 MLOAD SWAP1 DUP2 MSTORE RETURN JUMPDEST POP DUP1 REVERT JUMPDEST SWAP2 SWAP1 POP CALLVALUE PUSH2 0x215 JUMPI PUSH1 0x20 CALLDATASIZE PUSH1 0x3 NOT ADD SLT PUSH2 0x215 JUMPI DUP1 PUSH1 0xC0 SWAP4 DUP4 CALLDATALOAD DUP2 MSTORE PUSH1 0x7 PUSH1 0x20 MSTORE KECCAK256 DUP1 SLOAD SWAP3 PUSH1 0x1 DUP3 ADD SLOAD SWAP3 PUSH1 0x2 DUP4 ADD SLOAD SWAP1 PUSH1 0x5 PUSH1 0xFF PUSH1 0x3 DUP7 ADD SLOAD AND SWAP4 DUP6 ADD SLOAD SWAP5 ADD SLOAD SWAP5 DUP2 MLOAD SWAP7 DUP8 MSTORE PUSH1 0x20 DUP8 ADD MSTORE DUP6 ADD MSTORE ISZERO ISZERO PUSH1 0x60 DUP5 ADD MSTORE PUSH1 0x80 DUP4 ADD MSTORE PUSH1 0xA0 DUP3 ADD MSTORE RETURN JUMPDEST DUP3 DUP1 REVERT JUMPDEST SWAP1 POP CALLVALUE PUSH2 0x215 JUMPI PUSH1 0x20 CALLDATASIZE PUSH1 0x3 NOT ADD SLT PUSH2 0x215 JUMPI PUSH2 0x234 PUSH2 0x1057 JUMP JUMPDEST SWAP1 PUSH2 0x23D PUSH2 0x109E JUMP JUMPDEST PUSH1 0x1 PUSH1 0x1 PUSH1 0xA0 SHL SUB SWAP2 DUP3 AND SWAP3 DUP4 ISZERO PUSH2 0x293 JUMPI POP POP PUSH1 0x5 SLOAD DUP3 PUSH12 0xFFFFFFFFFFFFFFFFFFFFFFFF PUSH1 0xA0 SHL DUP3 AND OR PUSH1 0x5 SSTORE AND PUSH32 0x8BE0079C531659141344CD1FD0A4F28419497F9722A3DAAFE3B4186F6B6457E0 DUP4 DUP1 LOG3 DUP1 RETURN JUMPDEST SWAP1 PUSH1 0x20 PUSH1 0x84 SWAP3 MLOAD SWAP2 PUSH3 0x461BCD PUSH1 0xE5 SHL DUP4 MSTORE DUP3 ADD MSTORE PUSH1 0x26 PUSH1 0x24 DUP3 ADD MSTORE PUSH32 0x4F776E61626C653A206E6577206F776E657220697320746865207A65726F2061 PUSH1 0x44 DUP3 ADD MSTORE PUSH6 0x646472657373 PUSH1 0xD0 SHL PUSH1 0x64 DUP3 ADD MSTORE REVERT JUMPDEST POP POP CALLVALUE PUSH2 0x1AE JUMPI PUSH1 0x20 CALLDATASIZE PUSH1 0x3 NOT ADD SLT PUSH2 0x1AE JUMPI PUSH1 0x20 SWAP2 DUP2 SWAP1 PUSH1 0x1 PUSH1 0x1 PUSH1 0xA0 SHL SUB PUSH2 0x30D PUSH2 0x1057 JUMP JUMPDEST AND DUP2 MSTORE PUSH1 0xB DUP5 MSTORE KECCAK256 SLOAD SWAP1 MLOAD SWAP1 DUP2 MSTORE RETURN JUMPDEST POP POP CALLVALUE PUSH2 0x1AE JUMPI DUP1 PUSH1 0x3 NOT CALLDATASIZE ADD SLT PUSH2 0x1AE JUMPI PUSH1 0x20 SWAP2 PUSH1 0xFF SWAP1 DUP3 SWAP1 PUSH1 0x1 PUSH1 0x1 PUSH1 0xA0 SHL SUB PUSH2 0x347 PUSH2 0x1057 JUMP JUMPDEST AND DUP2 MSTORE PUSH1 0xA DUP6 MSTORE DUP2 DUP2 KECCAK256 PUSH1 0x24 CALLDATALOAD DUP3 MSTORE DUP6 MSTORE KECCAK256 SLOAD AND SWAP1 MLOAD SWAP1 ISZERO ISZERO DUP2 MSTORE RETURN JUMPDEST POP POP CALLVALUE PUSH2 0x1AE JUMPI DUP1 PUSH1 0x3 NOT CALLDATASIZE ADD SLT PUSH2 0x1AE JUMPI DUP1 PUSH1 0x20 SWAP3 PUSH2 0x382 PUSH2 0x1057 JUMP JUMPDEST PUSH2 0x38A PUSH2 0x1072 JUMP JUMPDEST PUSH1 0x1 PUSH1 0x1 PUSH1 0xA0 SHL SUB SWAP2 DUP3 AND DUP4 MSTORE PUSH1 0x1 DUP7 MSTORE DUP4 DUP4 KECCAK256 SWAP2 AND DUP3 MSTORE DUP5 MSTORE KECCAK256 SLOAD SWAP1 MLOAD SWAP1 DUP2 MSTORE RETURN JUMPDEST SWAP1 POP CALLVALUE PUSH2 0x215 JUMPI PUSH1 0x20 CALLDATASIZE PUSH1 0x3 NOT ADD SLT PUSH2 0x215 JUMPI PUSH1 0x80 SWAP3 DUP3 SWAP2 CALLDATALOAD DUP2 MSTORE PUSH1 0x8 PUSH1 0x20 MSTORE KECCAK256 SWAP1 DUP2 SLOAD SWAP2 PUSH1 0xFF PUSH1 0x1 DUP3 ADD SLOAD AND SWAP2 PUSH1 0x3 PUSH1 0x2 DUP4 ADD SLOAD SWAP3 ADD SLOAD SWAP3 DUP2 MLOAD SWAP5 DUP6 MSTORE ISZERO ISZERO PUSH1 0x20 DUP6 ADD MSTORE DUP4 ADD MSTORE PUSH1 0x60 DUP3 ADD MSTORE RETURN JUMPDEST SWAP1 POP PUSH2 0x407 CALLDATASIZE PUSH2 0x1088 JUMP JUMPDEST SWAP2 SWAP1 SWAP3 PUSH2 0x412 PUSH2 0x1495 JUMP JUMPDEST DUP4 DUP6 MSTORE PUSH1 0x20 SWAP2 PUSH1 0x7 DUP4 MSTORE DUP2 DUP7 KECCAK256 PUSH2 0x42F PUSH1 0xFF PUSH1 0x3 DUP4 ADD SLOAD AND PUSH2 0x1410 JUMP JUMPDEST DUP5 ISZERO PUSH2 0x57E JUMPI PUSH8 0xDE0B6B3A7640000 DUP6 MUL PUSH8 0xDE0B6B3A763FFFF NOT DUP7 DUP3 DIV ADD PUSH2 0x56B JUMPI PUSH2 0x3E8 PUSH2 0x462 SWAP2 DIV CALLVALUE LT ISZERO PUSH2 0x1452 JUMP JUMPDEST CALLER ISZERO PUSH2 0x529 JUMPI SWAP1 PUSH32 0x367E7BD13410A98139ED3FB6290098A5C877577B7742B2A39D275366C4A405CE SWAP4 SWAP3 SWAP2 PUSH2 0x499 DUP7 PUSH1 0x2 SLOAD PUSH2 0x114A JUMP JUMPDEST PUSH1 0x2 SSTORE CALLER DUP9 MSTORE DUP8 DUP5 MSTORE DUP3 DUP9 KECCAK256 DUP7 DUP2 SLOAD ADD SWAP1 SSTORE DUP3 MLOAD DUP7 DUP2 MSTORE DUP9 PUSH32 0xDDF252AD1BE2C89B69C2B068FC378DAA952BA7F163C4A11628F55A4DF523B3EF DUP7 CALLER SWAP4 LOG3 CALLER DUP9 MSTORE PUSH1 0x9 DUP5 MSTORE DUP3 DUP9 KECCAK256 DUP8 DUP10 MSTORE DUP5 MSTORE DUP3 DUP9 KECCAK256 PUSH2 0x4F3 DUP8 DUP3 SLOAD PUSH2 0x114A JUMP JUMPDEST SWAP1 SSTORE ADD PUSH2 0x501 DUP6 DUP3 SLOAD PUSH2 0x114A JUMP JUMPDEST SWAP1 SSTORE CALLER DUP7 MSTORE PUSH1 0xB DUP3 MSTORE DUP1 DUP7 KECCAK256 PUSH2 0x518 DUP6 DUP3 SLOAD PUSH2 0x114A JUMP JUMPDEST SWAP1 SSTORE MLOAD SWAP3 DUP4 MSTORE CALLER SWAP3 LOG3 PUSH1 0x1 PUSH1 0x6 SSTORE DUP1 RETURN JUMPDEST POP DUP3 PUSH1 0x64 SWAP3 MLOAD SWAP2 PUSH3 0x461BCD PUSH1 0xE5 SHL DUP4 MSTORE DUP3 ADD MSTORE PUSH1 0x1F PUSH1 0x24 DUP3 ADD MSTORE PUSH32 0x45524332303A206D696E7420746F20746865207A65726F206164647265737300 PUSH1 0x44 DUP3 ADD MSTORE REVERT JUMPDEST PUSH4 0x4E487B71 PUSH1 0xE0 SHL DUP9 MSTORE PUSH1 0x11 DUP4 MSTORE PUSH1 0x24 DUP9 REVERT JUMPDEST POP DUP3 PUSH1 0x64 SWAP3 MLOAD SWAP2 PUSH3 0x461BCD PUSH1 0xE5 SHL DUP4 MSTORE DUP3 ADD MSTORE PUSH1 0x1D PUSH1 0x24 DUP3 ADD MSTORE PUSH32 0x416D6F756E74206D7573742062652067726561746572207468616E2030000000 PUSH1 0x44 DUP3 ADD MSTORE REVERT JUMPDEST DUP4 DUP4 CALLVALUE PUSH2 0x1AE JUMPI PUSH1 0x80 CALLDATASIZE PUSH1 0x3 NOT ADD SLT PUSH2 0x1AE JUMPI DUP3 CALLDATALOAD SWAP1 PUSH1 0x24 CALLDATALOAD PUSH1 0x44 CALLDATALOAD PUSH2 0x5E4 PUSH2 0x109E JUMP JUMPDEST DUP4 DUP6 MSTORE PUSH1 0x7 PUSH1 0x20 MSTORE PUSH1 0xFF PUSH1 0x3 DUP5 DUP8 KECCAK256 ADD SLOAD AND PUSH2 0x6C6 JUMPI PUSH1 0xC DUP3 MUL DUP3 DUP2 DIV PUSH1 0xC EQ DUP4 ISZERO OR ISZERO PUSH2 0x6B3 JUMPI SWAP6 PUSH1 0x5 PUSH32 0xE4F6E1A13CCE371A1B79B6E9D0BF591044CAA7ACABFCC34C42023735A1A68493 SWAP6 SWAP7 SWAP8 DUP6 MLOAD SWAP3 PUSH2 0x63F DUP5 PUSH2 0x10F6 JUMP JUMPDEST DUP6 DUP5 MSTORE DUP9 DUP11 PUSH1 0x20 DUP7 ADD DUP8 DUP2 MSTORE DUP10 DUP8 ADD SWAP1 PUSH1 0x64 CALLDATALOAD DUP3 MSTORE DUP11 PUSH1 0x60 DUP10 ADD SWAP4 PUSH1 0x1 DUP6 MSTORE PUSH1 0x80 DUP11 ADD SWAP6 DUP2 DUP8 MSTORE PUSH1 0x64 PUSH1 0xA0 DUP13 ADD SWAP10 DIV DUP10 MSTORE DUP2 MSTORE PUSH1 0x7 PUSH1 0x20 MSTORE KECCAK256 SWAP8 MLOAD DUP9 SSTORE MLOAD PUSH1 0x1 DUP9 ADD SSTORE MLOAD PUSH1 0x2 DUP8 ADD SSTORE PUSH1 0x3 DUP7 ADD SWAP1 MLOAD ISZERO ISZERO PUSH1 0xFF DUP1 NOT DUP4 SLOAD AND SWAP2 AND OR SWAP1 SSTORE MLOAD SWAP1 DUP5 ADD SSTORE MLOAD SWAP2 ADD SSTORE DUP3 MLOAD SWAP2 DUP3 MSTORE PUSH1 0x20 DUP3 ADD MSTORE LOG2 DUP1 RETURN JUMPDEST PUSH4 0x4E487B71 PUSH1 0xE0 SHL DUP7 MSTORE PUSH1 0x11 DUP8 MSTORE PUSH1 0x24 DUP7 REVERT JUMPDEST DUP3 MLOAD PUSH3 0x461BCD PUSH1 0xE5 SHL DUP2 MSTORE PUSH1 0x20 DUP2 DUP9 ADD MSTORE PUSH1 0x17 PUSH1 0x24 DUP3 ADD MSTORE PUSH32 0x50726F706572747920616C726561647920657869737473000000000000000000 PUSH1 0x44 DUP3 ADD MSTORE PUSH1 0x64 SWAP1 REVERT JUMPDEST POP POP CALLVALUE PUSH2 0x1AE JUMPI DUP1 PUSH1 0x3 NOT CALLDATASIZE ADD SLT PUSH2 0x1AE JUMPI PUSH1 0x20 SWAP2 DUP2 SWAP1 PUSH1 0x1 PUSH1 0x1 PUSH1 0xA0 SHL SUB PUSH2 0x194 PUSH2 0x1057 JUMP JUMPDEST DUP3 DUP5 CALLVALUE PUSH2 0x7CE JUMPI PUSH2 0x740 CALLDATASIZE PUSH2 0x1088 JUMP JUMPDEST SWAP1 DUP3 MSTORE PUSH1 0x8 PUSH1 0x20 MSTORE DUP3 DUP3 KECCAK256 DUP4 MLOAD SWAP3 PUSH1 0x80 DUP5 ADD SWAP1 DUP5 DUP3 LT PUSH8 0xFFFFFFFFFFFFFFFF DUP4 GT OR PUSH2 0x7BB JUMPI PUSH1 0x20 DUP7 PUSH2 0x7B4 DUP8 PUSH2 0x7AC DUP9 DUP9 DUP9 DUP7 MSTORE DUP1 SLOAD DUP5 MSTORE PUSH2 0x7A6 PUSH1 0x3 PUSH1 0xFF PUSH1 0x1 DUP5 ADD SLOAD AND ISZERO ISZERO SWAP3 DUP4 DUP11 DUP9 ADD MSTORE PUSH1 0x2 DUP2 ADD SLOAD DUP10 DUP9 ADD MSTORE ADD SLOAD SWAP2 PUSH1 0x60 DUP7 ADD SWAP3 DUP4 MSTORE PUSH2 0x14EB JUMP JUMPDEST MLOAD PUSH2 0x13DD JUMP JUMPDEST SWAP1 MLOAD SWAP1 PUSH2 0x13F0 JUMP JUMPDEST SWAP1 MLOAD SWAP1 DUP2 MSTORE RETURN JUMPDEST PUSH4 0x4E487B71 PUSH1 0xE0 SHL DUP2 MSTORE PUSH1 0x41 DUP8 MSTORE PUSH1 0x24 SWAP1 REVERT JUMPDEST DUP1 REVERT JUMPDEST POP POP CALLVALUE PUSH2 0x1AE JUMPI DUP1 PUSH1 0x3 NOT CALLDATASIZE ADD SLT PUSH2 0x1AE JUMPI PUSH1 0x20 SWAP1 PUSH2 0x7FB PUSH2 0x7F1 PUSH2 0x1057 JUMP JUMPDEST PUSH1 0x24 CALLDATALOAD SWAP1 CALLER PUSH2 0x116D JUMP JUMPDEST MLOAD PUSH1 0x1 DUP2 MSTORE RETURN JUMPDEST SWAP1 POP DUP3 CALLVALUE PUSH2 0x7CE JUMPI DUP3 PUSH1 0x3 NOT CALLDATASIZE ADD SLT PUSH2 0x7CE JUMPI PUSH2 0x81D PUSH2 0x1057 JUMP JUMPDEST SWAP2 DUP4 PUSH1 0x24 CALLDATALOAD SWAP3 CALLER DUP2 MSTORE PUSH1 0x1 PUSH1 0x20 MSTORE DUP2 DUP2 KECCAK256 PUSH1 0x1 DUP1 PUSH1 0xA0 SHL SUB DUP7 AND DUP3 MSTORE PUSH1 0x20 MSTORE KECCAK256 SLOAD SWAP1 DUP3 DUP3 LT PUSH2 0x856 JUMPI PUSH1 0x20 DUP6 PUSH2 0x7FB DUP6 DUP6 SUB DUP8 CALLER PUSH2 0x12DB JUMP JUMPDEST PUSH1 0x84 SWAP1 PUSH1 0x20 DUP7 MLOAD SWAP2 PUSH3 0x461BCD PUSH1 0xE5 SHL DUP4 MSTORE DUP3 ADD MSTORE PUSH1 0x25 PUSH1 0x24 DUP3 ADD MSTORE PUSH32 0x45524332303A2064656372656173656420616C6C6F77616E63652062656C6F77 PUSH1 0x44 DUP3 ADD MSTORE PUSH5 0x207A65726F PUSH1 0xD8 SHL PUSH1 0x64 DUP3 ADD MSTORE REVERT JUMPDEST DUP4 DUP4 CALLVALUE PUSH2 0x1AE JUMPI DUP2 PUSH1 0x3 NOT CALLDATASIZE ADD SLT PUSH2 0x1AE JUMPI DUP1 MLOAD SWAP2 DUP1 SWAP4 DUP1 SLOAD SWAP2 PUSH1 0x1 SWAP1 DUP4 DUP3 SHR SWAP3 DUP3 DUP6 AND SWAP5 DUP6 ISZERO PUSH2 0x9A0 JUMPI JUMPDEST PUSH1 0x20 SWAP6 DUP7 DUP7 LT DUP2 EQ PUSH2 0x98D JUMPI DUP6 DUP10 MSTORE SWAP1 DUP2 ISZERO PUSH2 0x969 JUMPI POP PUSH1 0x1 EQ PUSH2 0x911 JUMPI JUMPDEST PUSH2 0x90D DUP8 DUP8 PUSH2 0x903 DUP3 DUP13 SUB DUP4 PUSH2 0x1128 JUMP JUMPDEST MLOAD SWAP2 DUP3 SWAP2 DUP3 PUSH2 0x100E JUMP JUMPDEST SUB SWAP1 RETURN JUMPDEST DUP2 MSTORE SWAP3 SWAP6 POP PUSH32 0x8A35ACFBC15FF81A39AE7D344FD709F28E8600B4AA8C65C6B64BFE7FE36BD19B JUMPDEST DUP3 DUP5 LT PUSH2 0x956 JUMPI POP POP POP DUP3 PUSH2 0x90D SWAP5 PUSH2 0x903 SWAP3 DUP3 ADD ADD SWAP5 DUP7 DUP1 PUSH2 0x8F2 JUMP JUMPDEST DUP1 SLOAD DUP7 DUP6 ADD DUP9 ADD MSTORE SWAP3 DUP7 ADD SWAP3 DUP2 ADD PUSH2 0x938 JUMP JUMPDEST PUSH1 0xFF NOT AND DUP9 DUP8 ADD MSTORE POP POP POP POP ISZERO ISZERO PUSH1 0x5 SHL DUP4 ADD ADD SWAP3 POP PUSH2 0x903 DUP3 PUSH2 0x90D DUP7 DUP1 PUSH2 0x8F2 JUMP JUMPDEST PUSH4 0x4E487B71 PUSH1 0xE0 SHL DUP5 MSTORE PUSH1 0x22 DUP4 MSTORE PUSH1 0x24 DUP5 REVERT JUMPDEST SWAP4 PUSH1 0x7F AND SWAP4 PUSH2 0x8D3 JUMP JUMPDEST POP POP CALLVALUE PUSH2 0x1AE JUMPI DUP2 PUSH1 0x3 NOT CALLDATASIZE ADD SLT PUSH2 0x1AE JUMPI PUSH1 0x5 SLOAD SWAP1 MLOAD PUSH1 0x1 PUSH1 0x1 PUSH1 0xA0 SHL SUB SWAP1 SWAP2 AND DUP2 MSTORE PUSH1 0x20 SWAP1 RETURN JUMPDEST DUP4 CALLVALUE PUSH2 0x7CE JUMPI DUP1 PUSH1 0x3 NOT CALLDATASIZE ADD SLT PUSH2 0x7CE JUMPI PUSH2 0x9EC PUSH2 0x109E JUMP JUMPDEST PUSH1 0x5 DUP1 SLOAD PUSH1 0x1 PUSH1 0x1 PUSH1 0xA0 SHL SUB NOT DUP2 AND SWAP1 SWAP2 SSTORE DUP2 SWAP1 PUSH1 0x1 PUSH1 0x1 PUSH1 0xA0 SHL SUB AND PUSH32 0x8BE0079C531659141344CD1FD0A4F28419497F9722A3DAAFE3B4186F6B6457E0 DUP3 DUP1 LOG3 DUP1 RETURN JUMPDEST POP POP CALLVALUE PUSH2 0x1AE JUMPI PUSH1 0x20 CALLDATASIZE PUSH1 0x3 NOT ADD SLT PUSH2 0x1AE JUMPI PUSH1 0x20 SWAP2 DUP2 SWAP1 PUSH1 0x1 PUSH1 0x1 PUSH1 0xA0 SHL SUB PUSH2 0xA58 PUSH2 0x1057 JUMP JUMPDEST AND DUP2 MSTORE DUP1 DUP5 MSTORE KECCAK256 SLOAD SWAP1 MLOAD SWAP1 DUP2 MSTORE RETURN JUMPDEST DUP4 DUP4 PUSH2 0xA72 CALLDATASIZE PUSH2 0x1088 JUMP JUMPDEST SWAP1 SWAP2 PUSH2 0xA7C PUSH2 0x1495 JUMP JUMPDEST DUP3 DUP5 MSTORE PUSH1 0x20 SWAP1 PUSH1 0x8 DUP3 MSTORE DUP1 DUP6 KECCAK256 PUSH2 0xA99 PUSH1 0xFF PUSH1 0x1 DUP4 ADD SLOAD AND PUSH2 0x14EB JUMP JUMPDEST CALLER DUP7 MSTORE PUSH1 0xA DUP4 MSTORE DUP2 DUP7 KECCAK256 DUP6 DUP8 MSTORE DUP4 MSTORE PUSH1 0xFF DUP3 DUP8 KECCAK256 SLOAD AND PUSH2 0xB52 JUMPI PUSH8 0xDE0B6B3A7640000 DUP1 DUP6 MUL SWAP1 DUP6 DUP3 DIV EQ DUP6 ISZERO OR ISZERO PUSH2 0xB3F JUMPI SWAP1 PUSH2 0xADF PUSH2 0x3E8 PUSH1 0x2 SWAP4 DIV CALLVALUE LT ISZERO PUSH2 0x1452 JUMP JUMPDEST CALLER DUP8 MSTORE PUSH1 0xA DUP5 MSTORE DUP3 DUP8 KECCAK256 DUP7 DUP9 MSTORE DUP5 MSTORE DUP3 DUP8 KECCAK256 DUP1 SLOAD PUSH1 0xFF NOT AND PUSH1 0x1 OR SWAP1 SSTORE ADD DUP1 SLOAD PUSH1 0x0 NOT DUP2 EQ PUSH2 0xB3F JUMPI PUSH1 0x1 ADD SWAP1 SSTORE MLOAD SWAP2 DUP3 MSTORE CALLER SWAP2 PUSH32 0xEA87AAFBA2F9181E63E803CE3D725194D50E17E9AA0BBB0ABE7EF1E0BE54E533 SWAP2 SWAP1 LOG3 PUSH1 0x1 PUSH1 0x6 SSTORE DUP1 RETURN JUMPDEST PUSH4 0x4E487B71 PUSH1 0xE0 SHL DUP8 MSTORE PUSH1 0x11 DUP9 MSTORE PUSH1 0x24 DUP8 REVERT JUMPDEST DUP2 MLOAD PUSH3 0x461BCD PUSH1 0xE5 SHL DUP2 MSTORE DUP1 DUP9 ADD DUP5 SWAP1 MSTORE PUSH1 0x10 PUSH1 0x24 DUP3 ADD MSTORE PUSH16 0x20B63932B0B23C90309036B2B6B132B9 PUSH1 0x81 SHL PUSH1 0x44 DUP3 ADD MSTORE PUSH1 0x64 SWAP1 REVERT JUMPDEST POP POP CALLVALUE PUSH2 0x1AE JUMPI DUP2 PUSH1 0x3 NOT CALLDATASIZE ADD SLT PUSH2 0x1AE JUMPI PUSH2 0xBA2 PUSH2 0x109E JUMP JUMPDEST DUP2 DUP1 DUP1 DUP1 PUSH1 0x1 DUP1 PUSH1 0xA0 SHL SUB PUSH1 0x5 SLOAD AND SELFBALANCE SWAP1 DUP3 DUP3 ISZERO PUSH2 0xBCF JUMPI JUMPDEST CALL ISZERO PUSH2 0xBC5 JUMPI POP DUP1 RETURN JUMPDEST MLOAD SWAP1 RETURNDATASIZE SWAP1 DUP3 RETURNDATACOPY RETURNDATASIZE SWAP1 REVERT JUMPDEST POP PUSH2 0x8FC PUSH2 0xBBB JUMP JUMPDEST POP POP CALLVALUE PUSH2 0x1AE JUMPI DUP1 PUSH1 0x3 NOT CALLDATASIZE ADD SLT PUSH2 0x1AE JUMPI PUSH2 0x7FB PUSH1 0x20 SWAP3 PUSH2 0xC21 PUSH2 0xBFB PUSH2 0x1057 JUMP JUMPDEST CALLER DUP4 MSTORE PUSH1 0x1 DUP7 MSTORE DUP5 DUP4 KECCAK256 PUSH1 0x1 PUSH1 0x1 PUSH1 0xA0 SHL SUB DUP3 AND DUP5 MSTORE DUP7 MSTORE SWAP2 DUP5 SWAP1 KECCAK256 SLOAD PUSH1 0x24 CALLDATALOAD SWAP1 PUSH2 0x114A JUMP JUMPDEST SWAP1 CALLER PUSH2 0x12DB JUMP JUMPDEST SWAP1 POP CALLVALUE PUSH2 0x215 JUMPI PUSH1 0x20 CALLDATASIZE PUSH1 0x3 NOT ADD SLT PUSH2 0x215 JUMPI DUP2 PUSH1 0x80 SWAP4 DUP3 CALLDATALOAD DUP2 MSTORE PUSH1 0x7 PUSH1 0x20 MSTORE KECCAK256 DUP3 MLOAD SWAP3 PUSH2 0xC55 DUP5 PUSH2 0x10F6 JUMP JUMPDEST DUP2 SLOAD SWAP4 DUP5 DUP2 MSTORE PUSH1 0x1 DUP4 ADD SLOAD SWAP1 DUP2 PUSH1 0x20 DUP3 ADD MSTORE PUSH1 0xA0 PUSH1 0x5 PUSH1 0x2 DUP7 ADD SLOAD SWAP6 DUP7 DUP7 DUP6 ADD MSTORE PUSH1 0xFF PUSH1 0x3 DUP3 ADD SLOAD AND ISZERO ISZERO SWAP8 DUP9 PUSH1 0x60 DUP7 ADD MSTORE DUP2 ADD SLOAD DUP11 DUP6 ADD MSTORE ADD SLOAD SWAP2 ADD MSTORE DUP2 MLOAD SWAP5 DUP6 MSTORE PUSH1 0x20 DUP6 ADD MSTORE DUP4 ADD MSTORE PUSH1 0x60 DUP3 ADD MSTORE RETURN JUMPDEST DUP3 DUP5 CALLVALUE PUSH2 0x7CE JUMPI PUSH2 0xCB7 CALLDATASIZE PUSH2 0x1088 JUMP JUMPDEST SWAP1 DUP3 MSTORE PUSH1 0x7 PUSH1 0x20 MSTORE DUP3 DUP3 KECCAK256 SWAP1 DUP4 MLOAD PUSH2 0xCCE DUP2 PUSH2 0x10F6 JUMP JUMPDEST DUP3 SLOAD DUP2 MSTORE PUSH1 0x1 DUP4 ADD SLOAD PUSH1 0x20 DUP3 ADD MSTORE PUSH1 0x2 DUP4 ADD SLOAD DUP6 DUP3 ADD MSTORE PUSH2 0xD13 PUSH1 0x5 PUSH1 0xFF PUSH1 0x3 DUP7 ADD SLOAD AND ISZERO ISZERO SWAP5 DUP6 PUSH1 0x60 DUP6 ADD MSTORE DUP9 DUP2 ADD SLOAD PUSH1 0x80 DUP6 ADD MSTORE ADD SLOAD SWAP4 PUSH1 0xA0 DUP4 ADD SWAP5 DUP6 MSTORE PUSH2 0x1410 JUMP JUMPDEST PUSH2 0x2710 SWAP4 DUP5 DUP4 MUL SWAP3 DUP1 DUP5 DIV DUP7 EQ SWAP1 ISZERO OR ISZERO PUSH2 0xD4B JUMPI PUSH1 0x20 DUP7 DUP7 PUSH2 0xD43 DUP8 PUSH2 0xD3C DUP9 DUP9 MLOAD SWAP1 PUSH2 0x13F0 JUMP JUMPDEST SWAP1 MLOAD PUSH2 0x13DD JUMP JUMPDEST DIV SWAP1 MLOAD SWAP1 DUP2 MSTORE RETURN JUMPDEST PUSH4 0x4E487B71 PUSH1 0xE0 SHL DUP2 MSTORE PUSH1 0x11 DUP8 MSTORE PUSH1 0x24 SWAP1 REVERT JUMPDEST POP POP CALLVALUE PUSH2 0x1AE JUMPI DUP2 PUSH1 0x3 NOT CALLDATASIZE ADD SLT PUSH2 0x1AE JUMPI PUSH1 0x20 SWAP1 MLOAD PUSH1 0x12 DUP2 MSTORE RETURN JUMPDEST DUP4 SWAP2 POP CALLVALUE PUSH2 0x1AE JUMPI PUSH1 0x60 CALLDATASIZE PUSH1 0x3 NOT ADD SLT PUSH2 0x1AE JUMPI PUSH2 0xD96 PUSH2 0x1057 JUMP JUMPDEST PUSH2 0xD9E PUSH2 0x1072 JUMP JUMPDEST SWAP2 DUP5 PUSH1 0x44 CALLDATALOAD SWAP5 PUSH1 0x1 DUP1 PUSH1 0xA0 SHL SUB DUP5 AND DUP2 MSTORE PUSH1 0x1 PUSH1 0x20 MSTORE DUP2 DUP2 KECCAK256 CALLER DUP3 MSTORE PUSH1 0x20 MSTORE KECCAK256 SLOAD SWAP1 PUSH1 0x0 NOT DUP3 SUB PUSH2 0xDD8 JUMPI JUMPDEST PUSH1 0x20 DUP7 PUSH2 0x7FB DUP8 DUP8 DUP8 PUSH2 0x116D JUMP JUMPDEST DUP5 DUP3 LT PUSH2 0xE01 JUMPI POP SWAP2 DUP4 SWAP2 PUSH2 0xDF6 PUSH1 0x20 SWAP7 SWAP6 PUSH2 0x7FB SWAP6 SUB CALLER DUP4 PUSH2 0x12DB JUMP JUMPDEST SWAP2 SWAP4 SWAP5 DUP2 SWAP4 POP PUSH2 0xDCA JUMP JUMPDEST PUSH1 0x64 SWAP1 PUSH1 0x20 DUP8 MLOAD SWAP2 PUSH3 0x461BCD PUSH1 0xE5 SHL DUP4 MSTORE DUP3 ADD MSTORE PUSH1 0x1D PUSH1 0x24 DUP3 ADD MSTORE PUSH32 0x45524332303A20696E73756666696369656E7420616C6C6F77616E6365000000 PUSH1 0x44 DUP3 ADD MSTORE REVERT JUMPDEST POP POP CALLVALUE PUSH2 0x1AE JUMPI DUP2 PUSH1 0x3 NOT CALLDATASIZE ADD SLT PUSH2 0x1AE JUMPI PUSH1 0x20 SWAP1 PUSH1 0x2 SLOAD SWAP1 MLOAD SWAP1 DUP2 MSTORE RETURN JUMPDEST SWAP1 POP CALLVALUE PUSH2 0x215 JUMPI PUSH1 0x20 CALLDATASIZE PUSH1 0x3 NOT ADD SLT PUSH2 0x215 JUMPI DUP2 PUSH1 0xC0 SWAP4 DUP3 CALLDATALOAD DUP2 MSTORE PUSH1 0x7 PUSH1 0x20 MSTORE KECCAK256 PUSH1 0xA0 DUP4 MLOAD PUSH2 0xE91 DUP2 PUSH2 0x10F6 JUMP JUMPDEST DUP3 SLOAD SWAP5 DUP6 DUP3 MSTORE PUSH1 0x1 DUP5 ADD SLOAD DUP1 PUSH1 0x20 DUP5 ADD MSTORE PUSH1 0x2 DUP6 ADD SLOAD SWAP3 DUP4 DUP4 DUP3 ADD MSTORE PUSH1 0x5 PUSH1 0xFF PUSH1 0x3 DUP9 ADD SLOAD AND ISZERO ISZERO SWAP8 DUP9 PUSH1 0x60 DUP5 ADD MSTORE DUP8 ADD SLOAD SWAP7 DUP8 PUSH1 0x80 DUP5 ADD MSTORE ADD SLOAD SWAP5 DUP6 SWAP2 ADD MSTORE DUP2 MLOAD SWAP7 DUP8 MSTORE PUSH1 0x20 DUP8 ADD MSTORE DUP6 ADD MSTORE PUSH1 0x60 DUP5 ADD MSTORE PUSH1 0x80 DUP4 ADD MSTORE PUSH1 0xA0 DUP3 ADD MSTORE RETURN JUMPDEST POP POP CALLVALUE PUSH2 0x1AE JUMPI DUP1 PUSH1 0x3 NOT CALLDATASIZE ADD SLT PUSH2 0x1AE JUMPI PUSH1 0x20 SWAP1 PUSH2 0x7FB PUSH2 0xF0F PUSH2 0x1057 JUMP JUMPDEST PUSH1 0x24 CALLDATALOAD SWAP1 CALLER PUSH2 0x12DB JUMP JUMPDEST SWAP3 SWAP2 POP CALLVALUE PUSH2 0x100A JUMPI DUP4 PUSH1 0x3 NOT CALLDATASIZE ADD SLT PUSH2 0x100A JUMPI PUSH1 0x3 SLOAD PUSH1 0x1 DUP2 DUP2 SHR SWAP2 DUP7 SWAP1 DUP3 DUP2 AND DUP1 ISZERO PUSH2 0x1000 JUMPI JUMPDEST PUSH1 0x20 SWAP6 DUP7 DUP7 LT DUP3 EQ PUSH2 0xFED JUMPI POP DUP5 DUP9 MSTORE SWAP1 DUP2 ISZERO PUSH2 0xFCB JUMPI POP PUSH1 0x1 EQ PUSH2 0xF72 JUMPI JUMPDEST PUSH2 0x90D DUP7 DUP7 PUSH2 0x903 DUP3 DUP12 SUB DUP4 PUSH2 0x1128 JUMP JUMPDEST SWAP3 SWAP6 POP PUSH1 0x3 DUP4 MSTORE PUSH32 0xC2575A0E9E593C00F959F8C92F12DB2869C3395A3B0502D05E2516446F71F85B JUMPDEST DUP3 DUP5 LT PUSH2 0xFB8 JUMPI POP POP POP DUP3 PUSH2 0x90D SWAP5 PUSH2 0x903 SWAP3 DUP3 ADD ADD SWAP5 CODESIZE PUSH2 0xF61 JUMP JUMPDEST DUP1 SLOAD DUP7 DUP6 ADD DUP9 ADD MSTORE SWAP3 DUP7 ADD SWAP3 DUP2 ADD PUSH2 0xF9B JUMP JUMPDEST PUSH1 0xFF NOT AND DUP8 DUP7 ADD MSTORE POP POP POP ISZERO ISZERO PUSH1 0x5 SHL DUP4 ADD ADD SWAP3 POP PUSH2 0x903 DUP3 PUSH2 0x90D CODESIZE PUSH2 0xF61 JUMP JUMPDEST PUSH4 0x4E487B71 PUSH1 0xE0 SHL DUP5 MSTORE PUSH1 0x22 SWAP1 MSTORE PUSH1 0x24 DUP4 REVERT JUMPDEST SWAP4 PUSH1 0x7F AND SWAP4 PUSH2 0xF41 JUMP JUMPDEST DUP4 DUP1 REVERT JUMPDEST PUSH1 0x20 DUP1 DUP3 MSTORE DUP3 MLOAD DUP2 DUP4 ADD DUP2 SWAP1 MSTORE SWAP1 SWAP4 SWAP3 PUSH1 0x0 JUMPDEST DUP3 DUP2 LT PUSH2 0x1043 JUMPI POP POP PUSH1 0x40 SWAP3 SWAP4 POP PUSH1 0x0 DUP4 DUP3 DUP5 ADD ADD MSTORE PUSH1 0x1F DUP1 NOT SWAP2 ADD AND ADD ADD SWAP1 JUMP JUMPDEST DUP2 DUP2 ADD DUP7 ADD MLOAD DUP5 DUP3 ADD PUSH1 0x40 ADD MSTORE DUP6 ADD PUSH2 0x1021 JUMP JUMPDEST PUSH1 0x4 CALLDATALOAD SWAP1 PUSH1 0x1 PUSH1 0x1 PUSH1 0xA0 SHL SUB DUP3 AND DUP3 SUB PUSH2 0x106D JUMPI JUMP JUMPDEST PUSH1 0x0 DUP1 REVERT JUMPDEST PUSH1 0x24 CALLDATALOAD SWAP1 PUSH1 0x1 PUSH1 0x1 PUSH1 0xA0 SHL SUB DUP3 AND DUP3 SUB PUSH2 0x106D JUMPI JUMP JUMPDEST PUSH1 0x40 SWAP1 PUSH1 0x3 NOT ADD SLT PUSH2 0x106D JUMPI PUSH1 0x4 CALLDATALOAD SWAP1 PUSH1 0x24 CALLDATALOAD SWAP1 JUMP JUMPDEST PUSH1 0x5 SLOAD PUSH1 0x1 PUSH1 0x1 PUSH1 0xA0 SHL SUB AND CALLER SUB PUSH2 0x10B2 JUMPI JUMP JUMPDEST PUSH1 0x64 PUSH1 0x40 MLOAD PUSH3 0x461BCD PUSH1 0xE5 SHL DUP2 MSTORE PUSH1 0x20 PUSH1 0x4 DUP3 ADD MSTORE PUSH1 0x20 PUSH1 0x24 DUP3 ADD MSTORE PUSH32 0x4F776E61626C653A2063616C6C6572206973206E6F7420746865206F776E6572 PUSH1 0x44 DUP3 ADD MSTORE REVERT JUMPDEST PUSH1 0xC0 DUP2 ADD SWAP1 DUP2 LT PUSH8 0xFFFFFFFFFFFFFFFF DUP3 GT OR PUSH2 0x1112 JUMPI PUSH1 0x40 MSTORE JUMP JUMPDEST PUSH4 0x4E487B71 PUSH1 0xE0 SHL PUSH1 0x0 MSTORE PUSH1 0x41 PUSH1 0x4 MSTORE PUSH1 0x24 PUSH1 0x0 REVERT JUMPDEST SWAP1 PUSH1 0x1F DUP1 NOT SWAP2 ADD AND DUP2 ADD SWAP1 DUP2 LT PUSH8 0xFFFFFFFFFFFFFFFF DUP3 GT OR PUSH2 0x1112 JUMPI PUSH1 0x40 MSTORE JUMP JUMPDEST SWAP2 SWAP1 DUP3 ADD DUP1 SWAP3 GT PUSH2 0x1157 JUMPI JUMP JUMPDEST PUSH4 0x4E487B71 PUSH1 0xE0 SHL PUSH1 0x0 MSTORE PUSH1 0x11 PUSH1 0x4 MSTORE PUSH1 0x24 PUSH1 0x0 REVERT JUMPDEST PUSH1 0x1 PUSH1 0x1 PUSH1 0xA0 SHL SUB SWAP1 DUP2 AND SWAP2 DUP3 ISZERO PUSH2 0x1288 JUMPI AND SWAP2 DUP3 ISZERO PUSH2 0x1237 JUMPI PUSH1 0x0 DUP3 DUP2 MSTORE DUP1 PUSH1 0x20 MSTORE PUSH1 0x40 DUP2 KECCAK256 SLOAD SWAP2 DUP1 DUP4 LT PUSH2 0x11E3 JUMPI PUSH1 0x40 DUP3 DUP3 PUSH32 0xDDF252AD1BE2C89B69C2B068FC378DAA952BA7F163C4A11628F55A4DF523B3EF SWAP6 DUP8 PUSH1 0x20 SWAP7 MSTORE DUP3 DUP7 MSTORE SUB DUP3 DUP3 KECCAK256 SSTORE DUP7 DUP2 MSTORE KECCAK256 DUP2 DUP2 SLOAD ADD SWAP1 SSTORE PUSH1 0x40 MLOAD SWAP1 DUP2 MSTORE LOG3 JUMP JUMPDEST PUSH1 0x40 MLOAD PUSH3 0x461BCD PUSH1 0xE5 SHL DUP2 MSTORE PUSH1 0x20 PUSH1 0x4 DUP3 ADD MSTORE PUSH1 0x26 PUSH1 0x24 DUP3 ADD MSTORE PUSH32 0x45524332303A207472616E7366657220616D6F756E7420657863656564732062 PUSH1 0x44 DUP3 ADD MSTORE PUSH6 0x616C616E6365 PUSH1 0xD0 SHL PUSH1 0x64 DUP3 ADD MSTORE PUSH1 0x84 SWAP1 REVERT JUMPDEST PUSH1 0x40 MLOAD PUSH3 0x461BCD PUSH1 0xE5 SHL DUP2 MSTORE PUSH1 0x20 PUSH1 0x4 DUP3 ADD MSTORE PUSH1 0x23 PUSH1 0x24 DUP3 ADD MSTORE PUSH32 0x45524332303A207472616E7366657220746F20746865207A65726F2061646472 PUSH1 0x44 DUP3 ADD MSTORE PUSH3 0x657373 PUSH1 0xE8 SHL PUSH1 0x64 DUP3 ADD MSTORE PUSH1 0x84 SWAP1 REVERT JUMPDEST PUSH1 0x40 MLOAD PUSH3 0x461BCD PUSH1 0xE5 SHL DUP2 MSTORE PUSH1 0x20 PUSH1 0x4 DUP3 ADD MSTORE PUSH1 0x25 PUSH1 0x24 DUP3 ADD MSTORE PUSH32 0x45524332303A207472616E736665722066726F6D20746865207A65726F206164 PUSH1 0x44 DUP3 ADD MSTORE PUSH5 0x6472657373 PUSH1 0xD8 SHL PUSH1 0x64 DUP3 ADD MSTORE PUSH1 0x84 SWAP1 REVERT JUMPDEST PUSH1 0x1 PUSH1 0x1 PUSH1 0xA0 SHL SUB SWAP1 DUP2 AND SWAP2 DUP3 ISZERO PUSH2 0x138C JUMPI AND SWAP2 DUP3 ISZERO PUSH2 0x133C JUMPI PUSH1 0x20 PUSH32 0x8C5BE1E5EBEC7D5BD14F71427D1E84F3DD0314C0F7B2291E5B200AC8C7C3B925 SWAP2 DUP4 PUSH1 0x0 MSTORE PUSH1 0x1 DUP3 MSTORE PUSH1 0x40 PUSH1 0x0 KECCAK256 DUP6 PUSH1 0x0 MSTORE DUP3 MSTORE DUP1 PUSH1 0x40 PUSH1 0x0 KECCAK256 SSTORE PUSH1 0x40 MLOAD SWAP1 DUP2 MSTORE LOG3 JUMP JUMPDEST PUSH1 0x40 MLOAD PUSH3 0x461BCD PUSH1 0xE5 SHL DUP2 MSTORE PUSH1 0x20 PUSH1 0x4 DUP3 ADD MSTORE PUSH1 0x22 PUSH1 0x24 DUP3 ADD MSTORE PUSH32 0x45524332303A20617070726F766520746F20746865207A65726F206164647265 PUSH1 0x44 DUP3 ADD MSTORE PUSH2 0x7373 PUSH1 0xF0 SHL PUSH1 0x64 DUP3 ADD MSTORE PUSH1 0x84 SWAP1 REVERT JUMPDEST PUSH1 0x40 MLOAD PUSH3 0x461BCD PUSH1 0xE5 SHL DUP2 MSTORE PUSH1 0x20 PUSH1 0x4 DUP3 ADD MSTORE PUSH1 0x24 DUP1 DUP3 ADD MSTORE PUSH32 0x45524332303A20617070726F76652066726F6D20746865207A65726F20616464 PUSH1 0x44 DUP3 ADD MSTORE PUSH4 0x72657373 PUSH1 0xE0 SHL PUSH1 0x64 DUP3 ADD MSTORE PUSH1 0x84 SWAP1 REVERT JUMPDEST DUP2 DUP2 MUL SWAP3 SWAP2 DUP2 ISZERO SWAP2 DUP5 DIV EQ OR ISZERO PUSH2 0x1157 JUMPI JUMP JUMPDEST DUP2 ISZERO PUSH2 0x13FA JUMPI DIV SWAP1 JUMP JUMPDEST PUSH4 0x4E487B71 PUSH1 0xE0 SHL PUSH1 0x0 MSTORE PUSH1 0x12 PUSH1 0x4 MSTORE PUSH1 0x24 PUSH1 0x0 REVERT JUMPDEST ISZERO PUSH2 0x1417 JUMPI JUMP JUMPDEST PUSH1 0x40 MLOAD PUSH3 0x461BCD PUSH1 0xE5 SHL DUP2 MSTORE PUSH1 0x20 PUSH1 0x4 DUP3 ADD MSTORE PUSH1 0x13 PUSH1 0x24 DUP3 ADD MSTORE PUSH19 0x50726F7065727479206E6F7420616374697665 PUSH1 0x68 SHL PUSH1 0x44 DUP3 ADD MSTORE PUSH1 0x64 SWAP1 REVERT JUMPDEST ISZERO PUSH2 0x1459 JUMPI JUMP JUMPDEST PUSH1 0x40 MLOAD PUSH3 0x461BCD PUSH1 0xE5 SHL DUP2 MSTORE PUSH1 0x20 PUSH1 0x4 DUP3 ADD MSTORE PUSH1 0x14 PUSH1 0x24 DUP3 ADD MSTORE PUSH20 0x125B9CDD59999A58DA595B9D081C185E5B595B9D PUSH1 0x62 SHL PUSH1 0x44 DUP3 ADD MSTORE PUSH1 0x64 SWAP1 REVERT JUMPDEST PUSH1 0x2 PUSH1 0x6 SLOAD EQ PUSH2 0x14A6 JUMPI PUSH1 0x2 PUSH1 0x6 SSTORE JUMP JUMPDEST PUSH1 0x40 MLOAD PUSH3 0x461BCD PUSH1 0xE5 SHL DUP2 MSTORE PUSH1 0x20 PUSH1 0x4 DUP3 ADD MSTORE PUSH1 0x1F PUSH1 0x24 DUP3 ADD MSTORE PUSH32 0x5265656E7472616E637947756172643A207265656E7472616E742063616C6C00 PUSH1 0x44 DUP3 ADD MSTORE PUSH1 0x64 SWAP1 REVERT JUMPDEST ISZERO PUSH2 0x14F2 JUMPI JUMP JUMPDEST PUSH1 0x40 MLOAD PUSH3 0x461BCD PUSH1 0xE5 SHL DUP2 MSTORE PUSH1 0x20 PUSH1 0x4 DUP3 ADD MSTORE PUSH1 0x12 PUSH1 0x24 DUP3 ADD MSTORE PUSH18 0x56696C6C616765206E6F7420616374697665 PUSH1 0x70 SHL PUSH1 0x44 DUP3 ADD MSTORE PUSH1 0x64 SWAP1 REVERT INVALID LOG2 PUSH5 0x6970667358 0x22 SLT KECCAK256 PUSH31 0x760E47301B9A33AD62C2A94FA417114BC6153122AC8C9EEA0F7F3DBE713B8F PUSH5 0x736F6C6343 STOP ADDMOD SGT STOP CALLER "},"methodIdentifiers":{"allowance(address,address)":"dd62ed3e","approve(address,uint256)":"095ea7b3","balanceOf(address)":"70a08231","calculateMonthlyYield(uint256,uint256)":"320e55d1","calculateVillageYield(uint256,uint256)":"b983c421","createProperty(uint256,uint256,uint256,uint256)":"d2ad5d9a","decimals()":"313ce567","decreaseAllowance(address,uint256)":"a457c2d7","getMortgageTokens(address,uint256)":"c0285cce","getProperty(uint256)":"32665ffb","getPropertyDetails(uint256)":"126dbe43","getUserTotalInvestments(address)":"f1634c5a","getVillageMembership(address,uint256)":"45e3bc14","increaseAllowance(address,uint256)":"39509351","joinVillage(uint256,uint256)":"511a3d8f","mintMortgageTokens(uint256,uint256)":"d49f5d13","name()":"06fdde03","owner()":"8da5cb5b","properties(uint256)":"f7b10808","renounceOwnership()":"715018a6","symbol()":"95d89b41","totalSupply()":"18160ddd","transfer(address,uint256)":"a9059cbb","transferFrom(address,address,uint256)":"23b872dd","transferOwnership(address)":"f2fde38b","userPropertyTokens(address,uint256)":"fe6011ba","userTotalInvestments(address)":"84ebf55b","villageMemberships(address,uint256)":"dda51acb","villages(uint256)":"d4aea411","withdraw()":"3ccfd60b"}}}}}