{"contracts/AncientMortgageProtocol.sol":{"AncientMortgageProtocol":{"abi":[{"inputs":[{"internalType":"address","name":"_usdtToken","type":"address"}],"stateMutability":"nonpayable","type":"constructor"},{"anonymous":false,"inputs":[{"indexed":true,"internalType":"uint256","name":"propertyId","type":"uint256"},{"indexed":false,"internalType":"uint256","name":"appreciationValue","type":"uint256"},{"indexed":false,"internalType":"uint256","name":"buyerShare","type":"uint256"},{"indexed":false,"internalType":"uint256","name":"ancientShare","type":"uint256"},{"indexed":false,"internalType":"uint256","name":"lendersShare","type":"uint256"}],"name":"AppreciationCalculated","type":"event"},{"anonymous":false,"inputs":[{"indexed":true,"internalType":"address","name":"owner","type":"address"},{"indexed":true,"internalType":"address","name":"approved","type":"address"},{"indexed":true,"internalType":"uint256","name":"tokenId","type":"uint256"}],"name":"Approval","type":"event"},{"anonymous":false,"inputs":[{"indexed":true,"internalType":"address","name":"owner","type":"address"},{"indexed":true,"internalType":"address","name":"operator","type":"address"},{"indexed":false,"internalType":"bool","name":"approved","type":"bool"}],"name":"ApprovalForAll","type":"event"},{"anonymous":false,"inputs":[{"indexed":true,"internalType":"address","name":"by","type":"address"},{"indexed":false,"internalType":"bool","name":"paused","type":"bool"}],"name":"EmergencyPaused","type":"event"},{"anonymous":false,"inputs":[{"indexed":true,"internalType":"address","name":"user","type":"address"},{"indexed":false,"internalType":"bool","name":"verified","type":"bool"},{"indexed":false,"internalType":"uint256","name":"amount","type":"uint256"}],"name":"KYCVerified","type":"event"},{"anonymous":false,"inputs":[{"indexed":true,"internalType":"uint256","name":"propertyId","type":"uint256"},{"indexed":true,"internalType":"address","name":"buyer","type":"address"},{"indexed":false,"internalType":"uint256","name":"amount","type":"uint256"},{"indexed":false,"internalType":"uint256","name":"paymentNumber","type":"uint256"},{"indexed":false,"internalType":"string","name":"transactionHash","type":"string"}],"name":"MortgagePaymentMade","type":"event"},{"anonymous":false,"inputs":[{"indexed":true,"internalType":"address","name":"previousOwner","type":"address"},{"indexed":true,"internalType":"address","name":"newOwner","type":"address"}],"name":"OwnershipTransferred","type":"event"},{"anonymous":false,"inputs":[{"indexed":false,"internalType":"address","name":"account","type":"address"}],"name":"Paused","type":"event"},{"anonymous":false,"inputs":[{"indexed":true,"internalType":"uint256","name":"propertyId","type":"uint256"},{"indexed":true,"internalType":"address","name":"buyer","type":"address"},{"indexed":false,"internalType":"uint256","name":"missedPayments","type":"uint256"}],"name":"PropertyDefaulted","type":"event"},{"anonymous":false,"inputs":[{"indexed":true,"internalType":"uint256","name":"propertyId","type":"uint256"},{"indexed":false,"internalType":"string","name":"metadata","type":"string"}],"name":"PropertyMetadataUpdated","type":"event"},{"anonymous":false,"inputs":[{"indexed":true,"internalType":"uint256","name":"propertyId","type":"uint256"},{"indexed":true,"internalType":"address","name":"buyer","type":"address"},{"indexed":false,"internalType":"uint256","name":"purchasePrice","type":"uint256"},{"indexed":false,"internalType":"uint256","name":"downPayment","type":"uint256"},{"indexed":false,"internalType":"string","name":"propertyMetadata","type":"string"}],"name":"PropertyPurchased","type":"event"},{"anonymous":false,"inputs":[{"indexed":true,"internalType":"address","name":"from","type":"address"},{"indexed":true,"internalType":"address","name":"to","type":"address"},{"indexed":true,"internalType":"uint256","name":"tokenId","type":"uint256"}],"name":"Transfer","type":"event"},{"anonymous":false,"inputs":[{"indexed":false,"internalType":"address","name":"account","type":"address"}],"name":"Unpaused","type":"event"},{"inputs":[],"name":"ANCIENT_APPRECIATION_SHARE","outputs":[{"internalType":"uint256","name":"","type":"uint256"}],"stateMutability":"view","type":"function"},{"inputs":[],"name":"APPRECIATION_CAP","outputs":[{"internalType":"uint256","name":"","type":"uint256"}],"stateMutability":"view","type":"function"},{"inputs":[],"name":"BUYER_APPRECIATION_SHARE","outputs":[{"internalType":"uint256","name":"","type":"uint256"}],"stateMutability":"view","type":"function"},{"inputs":[],"name":"INTEREST_RATE","outputs":[{"internalType":"uint256","name":"","type":"uint256"}],"stateMutability":"view","type":"function"},{"inputs":[],"name":"KYC_MINIMUM_AMOUNT","outputs":[{"internalType":"uint256","name":"","type":"uint256"}],"stateMutability":"view","type":"function"},{"inputs":[],"name":"LENDERS_APPRECIATION_SHARE","outputs":[{"internalType":"uint256","name":"","type":"uint256"}],"stateMutability":"view","type":"function"},{"inputs":[],"name":"MAX_MISSED_PAYMENTS","outputs":[{"internalType":"uint256","name":"","type":"uint256"}],"stateMutability":"view","type":"function"},{"inputs":[],"name":"MAX_PROPERTY_VALUE","outputs":[{"internalType":"uint256","name":"","type":"uint256"}],"stateMutability":"view","type":"function"},{"inputs":[],"name":"MINIMUM_DOWN_PAYMENT_PERCENT","outputs":[{"internalType":"uint256","name":"","type":"uint256"}],"stateMutability":"view","type":"function"},{"inputs":[],"name":"TERM_YEARS","outputs":[{"internalType":"uint256","name":"","type":"uint256"}],"stateMutability":"view","type":"function"},{"inputs":[{"internalType":"address","name":"to","type":"address"},{"internalType":"uint256","name":"tokenId","type":"uint256"}],"name":"approve","outputs":[],"stateMutability":"nonpayable","type":"function"},{"inputs":[{"internalType":"address","name":"owner","type":"address"}],"name":"balanceOf","outputs":[{"internalType":"uint256","name":"","type":"uint256"}],"stateMutability":"view","type":"function"},{"inputs":[{"internalType":"uint256","name":"propertyId","type":"uint256"}],"name":"calculateAppreciation","outputs":[],"stateMutability":"nonpayable","type":"function"},{"inputs":[{"internalType":"uint256","name":"principal","type":"uint256"}],"name":"calculateMonthlyPayment","outputs":[{"internalType":"uint256","name":"","type":"uint256"}],"stateMutability":"pure","type":"function"},{"inputs":[{"internalType":"uint256","name":"tokenId","type":"uint256"}],"name":"getApproved","outputs":[{"internalType":"address","name":"","type":"address"}],"stateMutability":"view","type":"function"},{"inputs":[],"name":"getContractBalance","outputs":[{"internalType":"uint256","name":"","type":"uint256"}],"stateMutability":"view","type":"function"},{"inputs":[{"internalType":"uint256","name":"propertyId","type":"uint256"}],"name":"getPaymentHistory","outputs":[{"components":[{"internalType":"uint256","name":"amount","type":"uint256"},{"internalType":"uint256","name":"timestamp","type":"uint256"},{"internalType":"uint256","name":"paymentNumber","type":"uint256"},{"internalType":"bool","name":"isLate","type":"bool"},{"internalType":"string","name":"transactionHash","type":"string"}],"internalType":"struct AncientMortgageProtocol.Payment[]","name":"","type":"tuple[]"}],"stateMutability":"view","type":"function"},{"inputs":[{"internalType":"uint256","name":"propertyId","type":"uint256"}],"name":"getPropertyDetails","outputs":[{"internalType":"uint256","name":"purchasePrice","type":"uint256"},{"internalType":"uint256","name":"downPayment","type":"uint256"},{"internalType":"uint256","name":"mortgageAmount","type":"uint256"},{"internalType":"uint256","name":"monthlyPayment","type":"uint256"},{"internalType":"address","name":"buyer","type":"address"},{"internalType":"bool","name":"isActive","type":"bool"},{"internalType":"bool","name":"isDefaulted","type":"bool"},{"internalType":"uint256","name":"missedPayments","type":"uint256"},{"internalType":"uint256","name":"totalPaid","type":"uint256"},{"internalType":"uint256","name":"remainingBalance","type":"uint256"},{"internalType":"string","name":"propertyMetadata","type":"string"}],"stateMutability":"view","type":"function"},{"inputs":[{"internalType":"uint256","name":"propertyId","type":"uint256"}],"name":"getRemainingBalance","outputs":[{"internalType":"uint256","name":"","type":"uint256"}],"stateMutability":"view","type":"function"},{"inputs":[],"name":"getTotalProperties","outputs":[{"internalType":"uint256","name":"","type":"uint256"}],"stateMutability":"view","type":"function"},{"inputs":[{"internalType":"address","name":"user","type":"address"}],"name":"getUserProperties","outputs":[{"internalType":"uint256[]","name":"","type":"uint256[]"}],"stateMutability":"view","type":"function"},{"inputs":[{"internalType":"address","name":"user","type":"address"}],"name":"getUserTotalInvested","outputs":[{"internalType":"uint256","name":"","type":"uint256"}],"stateMutability":"view","type":"function"},{"inputs":[{"internalType":"address","name":"owner","type":"address"},{"internalType":"address","name":"operator","type":"address"}],"name":"isApprovedForAll","outputs":[{"internalType":"bool","name":"","type":"bool"}],"stateMutability":"view","type":"function"},{"inputs":[{"internalType":"address","name":"","type":"address"}],"name":"kycAmount","outputs":[{"internalType":"uint256","name":"","type":"uint256"}],"stateMutability":"view","type":"function"},{"inputs":[{"internalType":"address","name":"","type":"address"}],"name":"kycVerified","outputs":[{"internalType":"bool","name":"","type":"bool"}],"stateMutability":"view","type":"function"},{"inputs":[{"internalType":"uint256","name":"propertyId","type":"uint256"}],"name":"makePayment","outputs":[],"stateMutability":"nonpayable","type":"function"},{"inputs":[],"name":"name","outputs":[{"internalType":"string","name":"","type":"string"}],"stateMutability":"view","type":"function"},{"inputs":[],"name":"owner","outputs":[{"internalType":"address","name":"","type":"address"}],"stateMutability":"view","type":"function"},{"inputs":[{"internalType":"uint256","name":"tokenId","type":"uint256"}],"name":"ownerOf","outputs":[{"internalType":"address","name":"","type":"address"}],"stateMutability":"view","type":"function"},{"inputs":[],"name":"pause","outputs":[],"stateMutability":"nonpayable","type":"function"},{"inputs":[],"name":"paused","outputs":[{"internalType":"bool","name":"","type":"bool"}],"stateMutability":"view","type":"function"},{"inputs":[{"internalType":"uint256","name":"","type":"uint256"},{"internalType":"uint256","name":"","type":"uint256"}],"name":"paymentHistory","outputs":[{"internalType":"uint256","name":"amount","type":"uint256"},{"internalType":"uint256","name":"timestamp","type":"uint256"},{"internalType":"uint256","name":"paymentNumber","type":"uint256"},{"internalType":"bool","name":"isLate","type":"bool"},{"internalType":"string","name":"transactionHash","type":"string"}],"stateMutability":"view","type":"function"},{"inputs":[{"internalType":"uint256","name":"","type":"uint256"}],"name":"properties","outputs":[{"internalType":"uint256","name":"propertyId","type":"uint256"},{"internalType":"uint256","name":"purchasePrice","type":"uint256"},{"internalType":"uint256","name":"downPayment","type":"uint256"},{"internalType":"uint256","name":"mortgageAmount","type":"uint256"},{"internalType":"uint256","name":"monthlyPayment","type":"uint256"},{"internalType":"uint256","name":"interestRate","type":"uint256"},{"internalType":"uint256","name":"termYears","type":"uint256"},{"internalType":"uint256","name":"startDate","type":"uint256"},{"internalType":"address","name":"buyer","type":"address"},{"internalType":"bool","name":"isActive","type":"bool"},{"internalType":"bool","name":"isDefaulted","type":"bool"},{"internalType":"uint256","name":"missedPayments","type":"uint256"},{"internalType":"uint256","name":"lastPaymentDate","type":"uint256"},{"internalType":"uint256","name":"totalPaid","type":"uint256"},{"internalType":"uint256","name":"appreciationValue","type":"uint256"},{"internalType":"bool","name":"appreciationCalculated","type":"bool"},{"internalType":"string","name":"propertyMetadata","type":"string"}],"stateMutability":"view","type":"function"},{"inputs":[{"internalType":"uint256","name":"","type":"uint256"}],"name":"propertyToTokenId","outputs":[{"internalType":"uint256","name":"","type":"uint256"}],"stateMutability":"view","type":"function"},{"inputs":[{"internalType":"uint256","name":"purchasePrice","type":"uint256"},{"internalType":"uint256","name":"downPayment","type":"uint256"},{"internalType":"string","name":"propertyMetadata","type":"string"}],"name":"purchaseProperty","outputs":[{"internalType":"uint256","name":"","type":"uint256"}],"stateMutability":"nonpayable","type":"function"},{"inputs":[],"name":"renounceOwnership","outputs":[],"stateMutability":"nonpayable","type":"function"},{"inputs":[{"internalType":"address","name":"from","type":"address"},{"internalType":"address","name":"to","type":"address"},{"internalType":"uint256","name":"tokenId","type":"uint256"}],"name":"safeTransferFrom","outputs":[],"stateMutability":"nonpayable","type":"function"},{"inputs":[{"internalType":"address","name":"from","type":"address"},{"internalType":"address","name":"to","type":"address"},{"internalType":"uint256","name":"tokenId","type":"uint256"},{"internalType":"bytes","name":"data","type":"bytes"}],"name":"safeTransferFrom","outputs":[],"stateMutability":"nonpayable","type":"function"},{"inputs":[{"internalType":"address","name":"operator","type":"address"},{"internalType":"bool","name":"approved","type":"bool"}],"name":"setApprovalForAll","outputs":[],"stateMutability":"nonpayable","type":"function"},{"inputs":[{"internalType":"address","name":"_usdtToken","type":"address"}],"name":"setUSDTToken","outputs":[],"stateMutability":"nonpayable","type":"function"},{"inputs":[{"internalType":"bytes4","name":"interfaceId","type":"bytes4"}],"name":"supportsInterface","outputs":[{"internalType":"bool","name":"","type":"bool"}],"stateMutability":"view","type":"function"},{"inputs":[],"name":"symbol","outputs":[{"internalType":"string","name":"","type":"string"}],"stateMutability":"view","type":"function"},{"inputs":[{"internalType":"uint256","name":"tokenId","type":"uint256"}],"name":"tokenURI","outputs":[{"internalType":"string","name":"","type":"string"}],"stateMutability":"view","type":"function"},{"inputs":[{"internalType":"address","name":"from","type":"address"},{"internalType":"address","name":"to","type":"address"},{"internalType":"uint256","name":"tokenId","type":"uint256"}],"name":"transferFrom","outputs":[],"stateMutability":"nonpayable","type":"function"},{"inputs":[{"internalType":"address","name":"newOwner","type":"address"}],"name":"transferOwnership","outputs":[],"stateMutability":"nonpayable","type":"function"},{"inputs":[],"name":"unpause","outputs":[],"stateMutability":"nonpayable","type":"function"},{"inputs":[{"internalType":"uint256","name":"propertyId","type":"uint256"},{"internalType":"string","name":"metadata","type":"string"}],"name":"updatePropertyMetadata","outputs":[],"stateMutability":"nonpayable","type":"function"},{"inputs":[],"name":"usdtToken","outputs":[{"internalType":"contract IERC20","name":"","type":"address"}],"stateMutability":"view","type":"function"},{"inputs":[{"internalType":"address","name":"","type":"address"},{"internalType":"uint256","name":"","type":"uint256"}],"name":"userProperties","outputs":[{"internalType":"uint256","name":"","type":"uint256"}],"stateMutability":"view","type":"function"},{"inputs":[{"internalType":"address","name":"","type":"address"}],"name":"userTotalInvested","outputs":[{"internalType":"uint256","name":"","type":"uint256"}],"stateMutability":"view","type":"function"},{"inputs":[{"internalType":"address","name":"user","type":"address"},{"internalType":"uint256","name":"amount","type":"uint256"}],"name":"verifyKYC","outputs":[],"stateMutability":"nonpayable","type":"function"},{"inputs":[{"internalType":"uint256","name":"amount","type":"uint256"}],"name":"withdrawUSDT","outputs":[],"stateMutability":"nonpayable","type":"function"}],"evm":{"bytecode":{"linkReferences":{},"object":"60803462000410576001600160401b0390601f90601f199062003be4388190038481018416830186811184821017620003fa578392829160405283396020928391810103126200041057519260018060a01b03928385169586860362000410576200006962000415565b92601684527f416e6369656e742050726f706572747920546f6b656e00000000000000000000858501526200009d62000415565b600381526210541560ea1b86820152845193838511620003fa576000948554966001978881811c91168015620003ef575b8a821014620003db5790818684931162000388575b508990868311600114620003275788926200031b575b5050600019600383901b1c191690871b1785555b8151938411620003075785548681811c91168015620002fc575b88821014620002e857908184869594931162000291575b5087928411600114620002305750849262000224575b5050600019600383901b1c191690831b1782555b600654903360018060a01b03198316176006557f8be0079c531659141344cd1fd0a4f28419497f9722a3daafe3b4186f6b6457e0604051953393169180a36007556008549315620001e35750506001600160a81b0319909116600891821b610100600160a81b03161790556040516137ae9081620004368239f35b62461bcd60e51b82526004820152601460248201527f496e76616c696420555344542061646472657373000000000000000000000000604482015260649150fd5b01519050388062000154565b86865287862087959093929116865b898282106200027a575050841162000260575b505050811b01825562000168565b015160001960f88460031b161c1916905538808062000252565b83850151865589979095019493840193016200023f565b90919293508686528786208480870160051c8201928a8810620002de575b9187968a92969594930160051c01915b828110620002cf5750506200013e565b888155879650899101620002bf565b92508192620002af565b634e487b7160e01b86526022600452602486fd5b90607f169062000127565b634e487b7160e01b85526041600452602485fd5b015190503880620000f9565b90848a9416918980528b8a20928a5b8d82821062000371575050841162000357575b505050811b0185556200010d565b015160001960f88460031b161c1916905538808062000349565b8385015186558d9790950194938401930162000336565b9091508780528988208680850160051c8201928c8610620003d1575b918b91869594930160051c01915b828110620003c2575050620000e3565b8a81558594508b9101620003b2565b92508192620003a4565b634e487b7160e01b88526022600452602488fd5b90607f1690620000ce565b634e487b7160e01b600052604160045260246000fd5b600080fd5b60408051919082016001600160401b03811183821017620003fa5760405256fe608080604052600436101561001357600080fd5b60003560e01c90816301ffc9a714612a3857508063060a3e611461298457806306fdde03146128e1578063081812fc146128c3578063095ea7b314612749578063126dbe431461253c578063145355ec1461252057806317aaf5ed146125025780631f2fbb02146122f457806323b872dd146122cb5780632ad7985d146116dd5780633ea521ef146121115780633f4ba83a1461205057806342842e0e1461202857806349ec61f71461200c5780634e02503a14611ea35780634e73852214611d815780635114cb52146117fe5780635b72a33a146117e15780635c975abb146117be5780635e74d54c146117a25780636352211e1461177257806366e226bd146116e25780636814701a146116dd5780636f9fb98a1461165357806370a08231146115bc578063715018a61461155f57806375cb4dc01461152557806378a0e16f1461150957806378e94dd2146114d35780638456cb5914611413578063873a83dc14610eab5780638da5cb5b146113ea57806395d89b411461130b5780639a9ae8e3146112e5578063a22cb4651461120a578063a5410a66146111cb578063a98ad46c146111a1578063adc6764814611181578063b27062db146110f9578063b88d4fde14611097578063bd0c366214610ee5578063bf6ce8a714610eab578063c87b56dd14610e3e578063d735098814610549578063d998861f1461051d578063e2271c9f146104c5578063e5ef4fda146104a9578063e985e9c514610453578063f2fde38b1461038f578063f7b108081461027f5763fee2105a1461025b57600080fd5b3461027a57600036600319011261027a576020604051631dcd65008152f35b600080fd5b3461027a57602036600319011261027a57600435600052600a602052604060002080549060018101549060028101549060038101546004820154600583015460068401546007850154600886015490600987015492600a88015494600b89015496600c8a015498600d8b015460ff169a600e016102fb90612cb4565b9b6040519e8f9e8f91825260208201526040015260608d015260808c015260a08b015260c08a015260e0890152600160a01b6001900381166101008901528060a01c60ff16151561012089015260a81c60ff1615156101408801526101608701526101808601526101a08501526101c084015215156101e083015261022080610200840152820161038b91612acf565b0390f35b3461027a57602036600319011261027a576103a8612aa3565b6103b0612d72565b6001600160a01b039081169081156103ff57600654826001600160601b0360a01b821617600655167f8be0079c531659141344cd1fd0a4f28419497f9722a3daafe3b4186f6b6457e0600080a3005b60405162461bcd60e51b815260206004820152602660248201527f4f776e61626c653a206e6577206f776e657220697320746865207a65726f206160448201526564647265737360d01b6064820152608490fd5b3461027a57604036600319011261027a5761046c612aa3565b610474612ab9565b9060018060a01b03809116600052600560205260406000209116600052602052602060ff604060002054166040519015158152f35b3461027a57600036600319011261027a57602060405160148152f35b3461027a57604036600319011261027a576104de612aa3565b6001600160a01b03166000908152600c602052604090208054602435919082101561027a5760209161050f91612d5a565b90546040519160031b1c8152f35b3461027a57602036600319011261027a57600435600052600d6020526020604060002054604051908152f35b3461027a57606036600319011261027a5760443567ffffffffffffffff811161027a5761057a903690600401612bd9565b6105826133d9565b60085461059260ff8216156132e8565b33600052600e60205260ff6040600020541615610df95760043515801580610de8575b15610daa576014600435029060043582046014141715610d94576064900460243510610d4f576004356024351015610cf457815115610caf576040516370a0823160e01b815233600482015260089190911c6001600160a01b031690602081602481855afa908115610c3b57600091610c7d575b50604051636eb1769f60e11b815233600482015230602482015290602082604481865afa918215610c3b57600092610c47575b509061066f610679926024351115613329565b6024351115613375565b6040516323b872dd60e01b81523360048201523060248083019190915235604482015290602090829060649082906000905af1908115610c3b57600091610c0c575b5015610bc757600160095401806009556106d9602435600435613488565b6106e281613564565b604051916106ef83612b0f565b838352600435602084015260243560408401526060830152608082015261032060a0820152600a60c08201524260e082015233610100820152600161012082015260006101408201526000610160820152426101808201526024356101a082015260006101c082015260006101e08201528261020082015281600052600a602052610200604060002091805183556020810151600184015560408101516002840155606081015160038401556080810151600484015560a0810151600584015560c0810151600684015560e081015160078401556008830160018060a01b036101008301511681549060ff60a01b610120850151151560a01b169060ff60a81b610140860151151560a81b169269ffffffffffffffffffff60b01b1617171790556101608101516009840155610180810151600a8401556101a0810151600b8401556101c0810151600c84015561085c6101e08201511515600d85019060ff801983541691151516179055565b015180519067ffffffffffffffff8211610a4f5761087d600e840154612c7a565b601f8111610b80575b50602090601f8311600114610b1057600e929160009183610b05575b50508160011b916000199060031b1c1916179101555b3315610ac1576000818152600260205260409020546108e3906001600160a01b031615155b1561342f565b80600052600a60205260ff60086040600020015460a81c16610a6557600081815260026020526040902054610922906001600160a01b031615156108dd565b3360005260036020526040600020600181540190558060005260026020526040600020336001600160601b0360a01b825416179055803360007fddf252ad1be2c89b69c2b068fc378daa952ba7f163c4a11628f55a4df523b3ef8180a4600d6020528060406000205533600052600c602052604060002091825492600160401b841015610a4f57836109bb916001602096018155612d5a565b81549060031b9084821b91600019901b191617905533600052601083526109e960243560406000205461347b565b3360005260108452604060002055817ffa022859e324be026c9589ed842e5b02665ddacce9d4d85108de51bb0a2af1fb6040516004358152602435868201526060604082015280610a3f33956060830190612acf565b0390a36001600755604051908152f35b634e487b7160e01b600052604160045260246000fd5b60405162461bcd60e51b815260206004820152602e60248201527f50726f706572747920697320696e2064656661756c74202d207472616e73666560448201526d1c9cc81b9bdd08185b1b1bddd95960921b6064820152608490fd5b606460405162461bcd60e51b815260206004820152602060248201527f4552433732313a206d696e7420746f20746865207a65726f20616464726573736044820152fd5b0151905086806108a2565b90600e840160005260206000209160005b601f1985168110610b685750918391600193600e95601f19811610610b4f575b505050811b019101556108b8565b015160001960f88460031b161c19169055868080610b41565b91926020600181928685015181550194019201610b21565b600e84016000526020600020601f840160051c810160208510610bc0575b601f830160051c82018110610bb4575050610886565b60008155600101610b9e565b5080610b9e565b60405162461bcd60e51b815260206004820152601c60248201527f446f776e207061796d656e74207472616e73666572206661696c6564000000006044820152606490fd5b610c2e915060203d602011610c34575b610c268183612b64565b8101906133c1565b826106bb565b503d610c1c565b6040513d6000823e3d90fd5b91506020823d602011610c75575b81610c6260209383612b64565b8101031261027a5790519061066f61065c565b3d9150610c55565b90506020813d602011610ca7575b81610c9860209383612b64565b8101031261027a575183610629565b3d9150610c8b565b60405162461bcd60e51b815260206004820152601a60248201527f50726f7065727479206d657461646174612072657175697265640000000000006044820152606490fd5b60405162461bcd60e51b815260206004820152602d60248201527f446f776e207061796d656e74206d757374206265206c657373207468616e207060448201526c7572636861736520707269636560981b6064820152608490fd5b60405162461bcd60e51b815260206004820152601960248201527f496e73756666696369656e7420646f776e207061796d656e74000000000000006044820152606490fd5b634e487b7160e01b600052601160045260246000fd5b60405162461bcd60e51b8152602060048201526016602482015275496e76616c69642070726f70657274792076616c756560501b6044820152606490fd5b5064e8d4a5100060043511156105b5565b60405162461bcd60e51b815260206004820152601960248201527f4b594320766572696669636174696f6e207265717569726564000000000000006044820152606490fd5b3461027a57602036600319011261027a57600435600090815260026020526040902054610e75906001600160a01b03161515612dca565b6000604051610e8381612b48565b5261038b604051610e9381612b48565b60008152604051918291602083526020830190612acf565b3461027a57602036600319011261027a576001600160a01b03610ecc612aa3565b1660005260106020526020604060002054604051908152f35b3461027a5760208060031936011261027a5760043590610f03612d72565b81600052600a8152610f1b6040600020541515613495565b81600052600a81526040600020610f3b60ff600883015460a01c16613522565b60078101546312cc03008101809111610d9457421061105257600d81019081549160ff831661100d57600182015491606e830292808404606e1490151715610d94576064600c930492839101556032820290821590838304603214821715610d945760288402848104602814831715610d9457600a850292858404600a141715610d94577f38a1a5335a2ff4fb5dfbefd230c73ba8f033edace63bf085953a3da8b8911f1096606480958194600160809a60ff19161790556040519788520490860152046040840152046060820152a2005b60405162461bcd60e51b815260048101859052601f60248201527f417070726563696174696f6e20616c72656164792063616c63756c61746564006044820152606490fd5b60405162461bcd60e51b815260048101839052601860248201527f31302d79656172207465726d206e6f74207265616368656400000000000000006044820152606490fd5b3461027a57608036600319011261027a576110b0612aa3565b6110b8612ab9565b6064359167ffffffffffffffff831161027a573660238401121561027a576110ed6110f7933690602481600401359101612ba2565b9160443591612ed9565b005b3461027a57604036600319011261027a57602435600435600052600b602052604060002090815481101561027a5761113091612c48565b50805461038b600183015492600281015490611156600460ff6003840154169201612cb4565b916040519586958652602086015260408501521515606084015260a0608084015260a0830190612acf565b3461027a57600036600319011261027a57602060405164e8d4a510008152f35b3461027a57600036600319011261027a5760088054604051911c6001600160a01b03168152602090f35b3461027a57602036600319011261027a576001600160a01b036111ec612aa3565b16600052600e602052602060ff604060002054166040519015158152f35b3461027a57604036600319011261027a57611223612aa3565b602435908115159081830361027a576001600160a01b0316913383146112a0576112729033600052600560205260406000208460005260205260406000209060ff801983541691151516179055565b6040519081527f17307eab39ab6107e8899845ad3d59bd9653f200f220920489ca2b5937696c3160203392a3005b60405162461bcd60e51b815260206004820152601960248201527f4552433732313a20617070726f766520746f2063616c6c6572000000000000006044820152606490fd5b3461027a57602036600319011261027a576020611303600435613564565b604051908152f35b3461027a57600036600319011261027a576040516000600180549061132f82612c7a565b808552918181169081156113c3575060011461136a575b61038b8461135681860382612b64565b604051918291602083526020830190612acf565b600081815292507fb10e2d527612073b26eecdfd717e6a320cf44b4afac2b0732d9fcbe2b7fa0cf65b8284106113ab57505050810160200161135682611346565b80546020858701810191909152909301928101611393565b60ff191660208087019190915292151560051b850190920192506113569150839050611346565b3461027a57600036600319011261027a576006546040516001600160a01b039091168152602090f35b3461027a57600036600319011261027a5761142c612d72565b60085460ff811661149b5760019060ff1916176008557f62e78cea01bee320cd4e420270b5ea74000d11b0c9f74754ebdbfc544b05a2586020604051338152a1604051600181527facaf4ee8e6a4949ca96787d73dfff5165ff2c555b2304b8517dc5396053add8560203392a2005b60405162461bcd60e51b815260206004820152601060248201526f14185d5cd8589b194e881c185d5cd95960821b6044820152606490fd5b3461027a57602036600319011261027a57602061130360043580600052600a83526115046040600020541515613495565b613655565b3461027a57600036600319011261027a57602060405160288152f35b3461027a57602036600319011261027a576001600160a01b03611546612aa3565b16600052600f6020526020604060002054604051908152f35b3461027a57600036600319011261027a57611578612d72565b600680546001600160a01b031981169091556000906001600160a01b03167f8be0079c531659141344cd1fd0a4f28419497f9722a3daafe3b4186f6b6457e08280a3005b3461027a57602036600319011261027a576001600160a01b036115dd612aa3565b1680156115fc5760005260036020526020604060002054604051908152f35b60405162461bcd60e51b815260206004820152602960248201527f4552433732313a2061646472657373207a65726f206973206e6f7420612076616044820152683634b21037bbb732b960b91b6064820152608490fd5b3461027a57600036600319011261027a57600880546040516370a0823160e01b815230600482015291602091839160249183911c6001600160a01b03165afa8015610c3b576000906116ab575b602090604051908152f35b506020813d82116116d5575b816116c460209383612b64565b8101031261027a57602090516116a0565b3d91506116b7565b612c2c565b3461027a57602036600319011261027a576116fb612aa3565b611703612d72565b6001600160a01b038116156117365760088054610100600160a81b03191691811b610100600160a81b0316919091179055005b60405162461bcd60e51b8152602060048201526014602482015273496e76616c69642055534454206164647265737360601b6044820152606490fd5b3461027a57602036600319011261027a576020611790600435612e16565b6040516001600160a01b039091168152f35b3461027a57600036600319011261027a576020604051606e8152f35b3461027a57600036600319011261027a57602060ff600854166040519015158152f35b3461027a57600036600319011261027a5760206040516103208152f35b3461027a5760208060031936011261027a5760043561181b6133d9565b6008549061182c60ff8316156132e8565b80600052600a83526118446040600020541515613495565b80600052600a835260018060a01b0392611869846008604060002001541633146134e1565b81600052600a81526040600020600881019460ff865461188d828260a01c16613522565b60a81c16611d435760048201549460081c1694604051956370a0823160e01b875233600488015260249684818981855afa908115610c3b57600091611d16575b50604051636eb1769f60e11b81523360048201523060248201528581604481865afa8015610c3b578891600091611ce3575b5061190f82611916941015613329565b1015613375565b6040516323b872dd60e01b815233600482015230602482015260448101879052908490829060649082906000905af1908115610c3b57600091611cc6575b5015611c8257600a820190601e62015180611970845442613488565b0411928315611c7257600981019182549060018201809211611c5d5781600b94556004821015611c15575b50505b016119aa86825461347b565b905542905582600052600b825260406000205490600195868301809311611c01576040516119d781612b2c565b868152848101924284526040820194855260608201908152604051936119fc85612b48565b600085526080830194855287600052600b87526040600020805490600160401b821015611bec5790611a32918c82018155612c48565b939093611bd75791611a699160049493518455518b84015586516002840155511515600383019060ff801983541691151516179055565b01915180519167ffffffffffffffff8311611bc357508190611a8b8454612c7a565b601f8111611b70575b508590601f8311600114611b0d57600092611b02575b5050600019600383901b1c191690871b1790555b519060405193845283015260606040830152600060608301527f9868dce488cf2d8e9d82766c017f0e0e31d38f4dde736ca4cd6c365e2a24325060803393a3600755005b015190508880611aaa565b90899350601f1983169185600052876000209260005b89828210611b5a5750508411611b41575b505050811b019055611abe565b015160001960f88460031b161c19169055888080611b34565b8385015186558d97909501949384019301611b23565b9091508360005285600020601f840160051c810191878510611bb9575b84939291601f8c920160051c01915b828110611baa575050611a94565b600081558594508b9101611b9c565b9091508190611b8d565b634e487b7160e01b60009081526041600452fd5b84634e487b7160e01b60005260006004526000fd5b85634e487b7160e01b60005260416004526000fd5b634e487b7160e01b60009081526011600452fd5b805461ffff60a01b1916600160a81b179055604051908152339087907f93f08c6f9a597ddf1fd4e0d26774b24ae464708125111d06e23dff485fdb1d98908890a3888061199b565b89634e487b7160e01b60005260116004526000fd5b600b91506000600982015561199e565b60405162461bcd60e51b8152600481018490526017818801527f5061796d656e74207472616e73666572206661696c65640000000000000000006044820152606490fd5b611cdd9150843d8611610c3457610c268183612b64565b87611954565b809250878092503d8311611d0f575b611cfc8183612b64565b8101031261027a5751879061190f6118ff565b503d611cf2565b90508481813d8311611d3c575b611d2d8183612b64565b8101031261027a5751886118cd565b503d611d23565b60405162461bcd60e51b8152600481018490526016602482015275141c9bdc195c9d1e481a5cc81a5b88191959985d5b1d60521b6044820152606490fd5b3461027a57604036600319011261027a57611d9a612aa3565b60243590611da6612d72565b6001600160a01b0316908115611e6757631dcd65008110611e175760407f30ec77e4620da0f85cace6445697fea0d6f18c5aa41dc3e8b70930f9c976cd7d9183600052600e60205281600020600160ff19825416179055600f602052808260002055815190600182526020820152a2005b60405162461bcd60e51b815260206004820152602260248201527f4d696e696d756d2024353030205553445420726571756972656420666f72204b604482015261594360f01b6064820152608490fd5b60405162461bcd60e51b8152602060048201526014602482015273496e76616c69642075736572206164647265737360601b6044820152606490fd5b3461027a5760208060031936011261027a5760043580600052600a8252611ed06040600020541515613495565b600052600b815260406000209081549167ffffffffffffffff8311610a4f5760405191600593611f048282871b0185612b64565b808452818401809360005282600020866000925b848410611faf575050505050604051928184019082855251809152604081818601961b85010192916000955b828710611f515785850386f35b909192938280611f9f600193603f198a82030186528851805182528381015184830152604081015160408301526060808201511515908301526080809101519160a080928201520190612acf565b9601920196019592919092611f44565b9085600192604099979951611fc381612b2c565b8554815284860154838201526002860154604082015260ff60038701541615156060820152611ff460048701612cb4565b60808201528152019201920191908790969496611f18565b3461027a57600036600319011261027a57602060405160048152f35b3461027a576110f761203936612bf7565b906040519261204784612b48565b60008452612ed9565b3461027a57600036600319011261027a57612069612d72565b60085460ff8116156120d55760ff19166008557f5db9ee0a495bf2e6ff9c91a7834c1ba4fdd244a5e8aa4e537bd38aeae4b073aa6020604051338152a1604051600081527facaf4ee8e6a4949ca96787d73dfff5165ff2c555b2304b8517dc5396053add8560203392a2005b60405162461bcd60e51b815260206004820152601460248201527314185d5cd8589b194e881b9bdd081c185d5cd95960621b6044820152606490fd5b3461027a5760208060031936011261027a5760043561212e612d72565b801561228657600880546040516370a0823160e01b8152306004820152911c6001600160a01b0390811692918481602481875afa8015610c3b578391600091612255575b5010612210579060448492600654166000604051958694859363a9059cbb60e01b8552600485015260248401525af1908115610c3b576000916121f3575b50156121b857005b6064906040519062461bcd60e51b8252600482015260146024820152731554d115081d1c985b9cd9995c8819985a5b195960621b6044820152fd5b61220a9150823d8411610c3457610c268183612b64565b826121b0565b60405162461bcd60e51b815260048101859052601d60248201527f496e73756666696369656e7420636f6e74726163742062616c616e63650000006044820152606490fd5b809250868092503d831161227f575b61226e8183612b64565b8101031261027a5782905186612172565b503d612264565b60405162461bcd60e51b815260048101839052601d60248201527f416d6f756e74206d7573742062652067726561746572207468616e20300000006044820152606490fd5b3461027a576110f76122dc36612bf7565b916122ef6122ea8433612f74565b612e77565b61303c565b3461027a57604036600319011261027a5767ffffffffffffffff60043560243582811161027a57612329903690600401612bd9565b816000526020600a815261234e60018060a01b036008604060002001541633146134e1565b8151156124be5782600052600a8152600e6040600020018251948511610a4f576123788154612c7a565b601f8111612478575b5081601f86116001146123f35794807fadf717693da3dcba2a1307f4398706220f44f15b75640a26b917bf347515583595966000916123e8575b508160011b916000199060031b1c19161790555b6123e3604051928284938452830190612acf565b0390a2005b9050840151876123bb565b601f1986169082600052836000209160005b81811061246157509187917fadf717693da3dcba2a1307f4398706220f44f15b75640a26b917bf3475155835979860019410612448575b5050811b0190556123cf565b86015160001960f88460031b161c19169055878061243c565b91928560018192868a015181550194019201612405565b8160005282600020601f870160051c8101918488106124b4575b601f0160051c01905b8181106124a85750612381565b6000815560010161249b565b9091508190612492565b6064906040519062461bcd60e51b82526004820152601860248201527f4d657461646174612063616e6e6f7420626520656d70747900000000000000006044820152fd5b3461027a57600036600319011261027a576020600954604051908152f35b3461027a57600036600319011261027a57602060405160328152f35b3461027a57602036600319011261027a57600435600052600a6020526125686040600020541515613495565b600435600052600a6020526040600020612646600e6040519261258a84612b0f565b8054845260018101546020850152600281015460408501526003810154606085015260048101546080850152600581015460a0850152600681015460c0850152600781015460e085015260ff600882015460018060a01b038116610100870152818160a01c16151561012087015260a81c1615156101408501526009810154610160850152600a810154610180850152600b8101546101a0850152600c8101546101c085015260ff600d8201541615156101e085015201612cb4565b61020082015260208101516040820151916060810151608082015160018060a01b036101008401511661012084015115156101408501511515610160860151916101a08701519360405195633c74a6e960e11b87526004356004880152602087602481305afa968715610c3b57600097612711575b5061020061038b990151976040519b8c9b8c5260208c015260408b015260608a0152608089015260a088015260c087015260e0860152610100850152610120840152610160610140840152610160830190612acf565b9896506020893d602011612741575b8161272d60209383612b64565b8101031261027a57975195976102006126bb565b3d9150612720565b3461027a57604036600319011261027a57612762612aa3565b602435906001600160a01b03808061277985612e16565b169216918083146128745780331490811561284f575b50156127e457600083815260046020526040902080546001600160a01b031916831790556127bc83612e16565b167f8c5be1e5ebec7d5bd14f71427d1e84f3dd0314c0f7b2291e5b200ac8c7c3b925600080a4005b60405162461bcd60e51b815260206004820152603d60248201527f4552433732313a20617070726f76652063616c6c6572206973206e6f7420746f60448201527f6b656e206f776e6572206f7220617070726f76656420666f7220616c6c0000006064820152608490fd5b9050600052600560205260406000203360005260205260ff604060002054168461278f565b60405162461bcd60e51b815260206004820152602160248201527f4552433732313a20617070726f76616c20746f2063757272656e74206f776e656044820152603960f91b6064820152608490fd5b3461027a57602036600319011261027a576020611790600435612e39565b3461027a57600036600319011261027a576040516000805461290281612c7a565b808452906001908181169081156113c3575060011461292b5761038b8461135681860382612b64565b600080805292507f290decd9548b62a8d60345a988386fc84ba6bc95484008f6362f93160ef3e5635b82841061296c57505050810160200161135682611346565b80546020858701810191909152909301928101612954565b3461027a5760208060031936011261027a576001600160a01b036129a6612aa3565b16600052600c8152604060002060405190818382549182815201908192600052846000209060005b86828210612a245786866129e482880383612b64565b604051928392818401908285525180915260408401929160005b828110612a0d57505050500390f35b8351855286955093810193928101926001016129fe565b8354855290930192600192830192016129ce565b3461027a57602036600319011261027a576004359063ffffffff60e01b821680920361027a576020916380ac58cd60e01b8114908115612a92575b8115612a81575b5015158152f35b6301ffc9a760e01b14905083612a7a565b635b5e139f60e01b81149150612a73565b600435906001600160a01b038216820361027a57565b602435906001600160a01b038216820361027a57565b919082519283825260005b848110612afb575050826000602080949584010152601f8019910116010190565b602081830181015184830182015201612ada565b610220810190811067ffffffffffffffff821117610a4f57604052565b60a0810190811067ffffffffffffffff821117610a4f57604052565b6020810190811067ffffffffffffffff821117610a4f57604052565b90601f8019910116810190811067ffffffffffffffff821117610a4f57604052565b67ffffffffffffffff8111610a4f57601f01601f191660200190565b929192612bae82612b86565b91612bbc6040519384612b64565b82948184528183011161027a578281602093846000960137010152565b9080601f8301121561027a57816020612bf493359101612ba2565b90565b606090600319011261027a576001600160a01b0390600435828116810361027a5791602435908116810361027a579060443590565b3461027a57600036600319011261027a576020604051600a8152f35b8054821015612c64576000526005602060002091020190600090565b634e487b7160e01b600052603260045260246000fd5b90600182811c92168015612caa575b6020831014612c9457565b634e487b7160e01b600052602260045260246000fd5b91607f1691612c89565b9060405191826000825492612cc884612c7a565b908184526001948581169081600014612d375750600114612cf4575b5050612cf292500383612b64565b565b9093915060005260209081600020936000915b818310612d1f575050612cf293508201013880612ce4565b85548884018501529485019487945091830191612d07565b915050612cf294506020925060ff191682840152151560051b8201013880612ce4565b8054821015612c645760005260206000200190600090565b6006546001600160a01b03163303612d8657565b606460405162461bcd60e51b815260206004820152602060248201527f4f776e61626c653a2063616c6c6572206973206e6f7420746865206f776e65726044820152fd5b15612dd157565b60405162461bcd60e51b815260206004820152601860248201527f4552433732313a20696e76616c696420746f6b656e20494400000000000000006044820152606490fd5b6000908152600260205260409020546001600160a01b0316612bf4811515612dca565b600081815260026020526040902054612e5c906001600160a01b03161515612dca565b6000908152600460205260409020546001600160a01b031690565b15612e7e57565b60405162461bcd60e51b815260206004820152602d60248201527f4552433732313a2063616c6c6572206973206e6f7420746f6b656e206f776e6560448201526c1c881bdc88185c1c1c9bdd9959609a1b6064820152608490fd5b90612efd939291612eed6122ea8433612f74565b612ef883838361303c565b6131c3565b15612f0457565b60405162461bcd60e51b815280612f1d60048201612f21565b0390fd5b60809060208152603260208201527f4552433732313a207472616e7366657220746f206e6f6e20455243373231526560408201527131b2b4bb32b91034b6b83632b6b2b73a32b960711b60608201520190565b906001600160a01b038080612f8884612e16565b16931691838314938415612fbb575b508315612fa5575b50505090565b612fb191929350612e39565b1614388080612f9f565b909350600052600560205260406000208260005260205260ff604060002054169238612f97565b15612fe957565b60405162461bcd60e51b815260206004820152602560248201527f4552433732313a207472616e736665722066726f6d20696e636f72726563742060448201526437bbb732b960d91b6064820152608490fd5b906130649161304a84612e16565b6001600160a01b0393918416928492909183168414612fe2565b1691821561317257600090848252600a60205260409060ff6008838520015460a81c1661311757906130c3847fddf252ad1be2c89b69c2b068fc378daa952ba7f163c4a11628f55a4df523b3ef94936130bc89612e16565b1614612fe2565b858252600460205284818320916001600160601b0360a01b928381541690558584526003602052808420600019815401905581845280842060018154019055878452600260205283209182541617905580a4565b815162461bcd60e51b815260206004820152602e60248201527f50726f706572747920697320696e2064656661756c74202d207472616e73666560448201526d1c9cc81b9bdd08185b1b1bddd95960921b6064820152608490fd5b60405162461bcd60e51b8152602060048201526024808201527f4552433732313a207472616e7366657220746f20746865207a65726f206164646044820152637265737360e01b6064820152608490fd5b9293600093909291803b156132dd5794849161321d9660405180948193630a85bd0160e11b9788845233600485015260018060a01b0380921660248501526044840152608060648401528260209b8c976084830190612acf565b0393165af1849181613299575b50613288575050503d600014613280573d61324481612b86565b906132526040519283612b64565b81528091833d92013e5b8051918261327d5760405162461bcd60e51b815280612f1d60048201612f21565b01fd5b50606061325c565b6001600160e01b0319161492509050565b9091508581813d83116132d6575b6132b18183612b64565b810103126132d257516001600160e01b0319811681036132d257903861322a565b8480fd5b503d6132a7565b505050915050600190565b156132ef57565b60405162461bcd60e51b815260206004820152601260248201527110dbdb9d1c9858dd081a5cc81c185d5cd95960721b6044820152606490fd5b1561333057565b60405162461bcd60e51b815260206004820152601960248201527f496e73756666696369656e7420555344542062616c616e6365000000000000006044820152606490fd5b1561337c57565b60405162461bcd60e51b815260206004820152601b60248201527f496e73756666696369656e74205553445420616c6c6f77616e636500000000006044820152606490fd5b9081602091031261027a5751801515810361027a5790565b6002600754146133ea576002600755565b60405162461bcd60e51b815260206004820152601f60248201527f5265656e7472616e637947756172643a207265656e7472616e742063616c6c006044820152606490fd5b1561343657565b60405162461bcd60e51b815260206004820152601c60248201527f4552433732313a20746f6b656e20616c7265616479206d696e746564000000006044820152606490fd5b91908201809211610d9457565b91908203918211610d9457565b1561349c57565b60405162461bcd60e51b815260206004820152601760248201527f50726f706572747920646f6573206e6f742065786973740000000000000000006044820152606490fd5b156134e857565b60405162461bcd60e51b81526020600482015260126024820152712737ba10383937b832b93a3c9037bbb732b960711b6044820152606490fd5b1561352957565b60405162461bcd60e51b815260206004820152601360248201527250726f7065727479206e6f742061637469766560681b6044820152606490fd5b8015613611576106836001805b607882106135ce57505061029b808302928084048203610d945782020291808304821490151715610d94576103e7198101908111610d945780156135b8576103e891040490565b634e487b7160e01b600052601260045260246000fd5b909161068381029080820461068314901517156135fc576103e890049160001981146135fc57810190613571565b60246000634e487b7160e01b81526011600452fd5b606460405162461bcd60e51b815260206004820152602060248201527f5072696e636970616c206d7573742062652067726561746572207468616e20306044820152fd5b600052600a60205260406000206040519061366f82612b0f565b8054825260018101546020830152600281015460408301526003810154916060810192835260048201546080820152600582015460a0820152600682015460c0820152600782015460e082015260088201549060018060a01b03821661010082015261012081019060ff8360a01c161515825260ff61014082019360a81c16151583526009840154610160820152600a84015461018082015261020061373f600e600b870154966101a08501978852600c8101546101c086015260ff600d8201541615156101e086015201612cb4565b910152511590811561376d575b5061376657519051908181101561376657612bf491613488565b5050600090565b90505115153861374c56fea264697066735822122072b3773cb1b080402548b3d1b3cbc30ff39fdd027d3de3942d49bb16b89744f764736f6c63430008130033","opcodes":"PUSH1 0x80 CALLVALUE PUSH3 0x410 JUMPI PUSH1 0x1 PUSH1 0x1 PUSH1 0x40 SHL SUB SWAP1 PUSH1 0x1F SWAP1 PUSH1 0x1F NOT SWAP1 PUSH3 0x3BE4 CODESIZE DUP2 SWAP1 SUB DUP5 DUP2 ADD DUP5 AND DUP4 ADD DUP7 DUP2 GT DUP5 DUP3 LT OR PUSH3 0x3FA JUMPI DUP4 SWAP3 DUP3 SWAP2 PUSH1 0x40 MSTORE DUP4 CODECOPY PUSH1 0x20 SWAP3 DUP4 SWAP2 DUP2 ADD SUB SLT PUSH3 0x410 JUMPI MLOAD SWAP3 PUSH1 0x1 DUP1 PUSH1 0xA0 SHL SUB SWAP3 DUP4 DUP6 AND SWAP6 DUP7 DUP7 SUB PUSH3 0x410 JUMPI PUSH3 0x69 PUSH3 0x415 JUMP JUMPDEST SWAP3 PUSH1 0x16 DUP5 MSTORE PUSH32 0x416E6369656E742050726F706572747920546F6B656E00000000000000000000 DUP6 DUP6 ADD MSTORE PUSH3 0x9D PUSH3 0x415 JUMP JUMPDEST PUSH1 0x3 DUP2 MSTORE PUSH3 0x105415 PUSH1 0xEA SHL DUP7 DUP3 ADD MSTORE DUP5 MLOAD SWAP4 DUP4 DUP6 GT PUSH3 0x3FA JUMPI PUSH1 0x0 SWAP5 DUP6 SLOAD SWAP7 PUSH1 0x1 SWAP8 DUP9 DUP2 DUP2 SHR SWAP2 AND DUP1 ISZERO PUSH3 0x3EF JUMPI JUMPDEST DUP11 DUP3 LT EQ PUSH3 0x3DB JUMPI SWAP1 DUP2 DUP7 DUP5 SWAP4 GT PUSH3 0x388 JUMPI JUMPDEST POP DUP10 SWAP1 DUP7 DUP4 GT PUSH1 0x1 EQ PUSH3 0x327 JUMPI DUP9 SWAP3 PUSH3 0x31B JUMPI JUMPDEST POP POP PUSH1 0x0 NOT PUSH1 0x3 DUP4 SWAP1 SHL SHR NOT AND SWAP1 DUP8 SHL OR DUP6 SSTORE JUMPDEST DUP2 MLOAD SWAP4 DUP5 GT PUSH3 0x307 JUMPI DUP6 SLOAD DUP7 DUP2 DUP2 SHR SWAP2 AND DUP1 ISZERO PUSH3 0x2FC JUMPI JUMPDEST DUP9 DUP3 LT EQ PUSH3 0x2E8 JUMPI SWAP1 DUP2 DUP5 DUP7 SWAP6 SWAP5 SWAP4 GT PUSH3 0x291 JUMPI JUMPDEST POP DUP8 SWAP3 DUP5 GT PUSH1 0x1 EQ PUSH3 0x230 JUMPI POP DUP5 SWAP3 PUSH3 0x224 JUMPI JUMPDEST POP POP PUSH1 0x0 NOT PUSH1 0x3 DUP4 SWAP1 SHL SHR NOT AND SWAP1 DUP4 SHL OR DUP3 SSTORE JUMPDEST PUSH1 0x6 SLOAD SWAP1 CALLER PUSH1 0x1 DUP1 PUSH1 0xA0 SHL SUB NOT DUP4 AND OR PUSH1 0x6 SSTORE PUSH32 0x8BE0079C531659141344CD1FD0A4F28419497F9722A3DAAFE3B4186F6B6457E0 PUSH1 0x40 MLOAD SWAP6 CALLER SWAP4 AND SWAP2 DUP1 LOG3 PUSH1 0x7 SSTORE PUSH1 0x8 SLOAD SWAP4 ISZERO PUSH3 0x1E3 JUMPI POP POP PUSH1 0x1 PUSH1 0x1 PUSH1 0xA8 SHL SUB NOT SWAP1 SWAP2 AND PUSH1 0x8 SWAP2 DUP3 SHL PUSH2 0x100 PUSH1 0x1 PUSH1 0xA8 SHL SUB AND OR SWAP1 SSTORE PUSH1 0x40 MLOAD PUSH2 0x37AE SWAP1 DUP2 PUSH3 0x436 DUP3 CODECOPY RETURN JUMPDEST PUSH3 0x461BCD PUSH1 0xE5 SHL DUP3 MSTORE PUSH1 0x4 DUP3 ADD MSTORE PUSH1 0x14 PUSH1 0x24 DUP3 ADD MSTORE PUSH32 0x496E76616C696420555344542061646472657373000000000000000000000000 PUSH1 0x44 DUP3 ADD MSTORE PUSH1 0x64 SWAP2 POP REVERT JUMPDEST ADD MLOAD SWAP1 POP CODESIZE DUP1 PUSH3 0x154 JUMP JUMPDEST DUP7 DUP7 MSTORE DUP8 DUP7 KECCAK256 DUP8 SWAP6 SWAP1 SWAP4 SWAP3 SWAP2 AND DUP7 JUMPDEST DUP10 DUP3 DUP3 LT PUSH3 0x27A JUMPI POP POP DUP5 GT PUSH3 0x260 JUMPI JUMPDEST POP POP POP DUP2 SHL ADD DUP3 SSTORE PUSH3 0x168 JUMP JUMPDEST ADD MLOAD PUSH1 0x0 NOT PUSH1 0xF8 DUP5 PUSH1 0x3 SHL AND SHR NOT AND SWAP1 SSTORE CODESIZE DUP1 DUP1 PUSH3 0x252 JUMP JUMPDEST DUP4 DUP6 ADD MLOAD DUP7 SSTORE DUP10 SWAP8 SWAP1 SWAP6 ADD SWAP5 SWAP4 DUP5 ADD SWAP4 ADD PUSH3 0x23F JUMP JUMPDEST SWAP1 SWAP2 SWAP3 SWAP4 POP DUP7 DUP7 MSTORE DUP8 DUP7 KECCAK256 DUP5 DUP1 DUP8 ADD PUSH1 0x5 SHR DUP3 ADD SWAP3 DUP11 DUP9 LT PUSH3 0x2DE JUMPI JUMPDEST SWAP2 DUP8 SWAP7 DUP11 SWAP3 SWAP7 SWAP6 SWAP5 SWAP4 ADD PUSH1 0x5 SHR ADD SWAP2 JUMPDEST DUP3 DUP2 LT PUSH3 0x2CF JUMPI POP POP PUSH3 0x13E JUMP JUMPDEST DUP9 DUP2 SSTORE DUP8 SWAP7 POP DUP10 SWAP2 ADD PUSH3 0x2BF JUMP JUMPDEST SWAP3 POP DUP2 SWAP3 PUSH3 0x2AF JUMP JUMPDEST PUSH4 0x4E487B71 PUSH1 0xE0 SHL DUP7 MSTORE PUSH1 0x22 PUSH1 0x4 MSTORE PUSH1 0x24 DUP7 REVERT JUMPDEST SWAP1 PUSH1 0x7F AND SWAP1 PUSH3 0x127 JUMP JUMPDEST PUSH4 0x4E487B71 PUSH1 0xE0 SHL DUP6 MSTORE PUSH1 0x41 PUSH1 0x4 MSTORE PUSH1 0x24 DUP6 REVERT JUMPDEST ADD MLOAD SWAP1 POP CODESIZE DUP1 PUSH3 0xF9 JUMP JUMPDEST SWAP1 DUP5 DUP11 SWAP5 AND SWAP2 DUP10 DUP1 MSTORE DUP12 DUP11 KECCAK256 SWAP3 DUP11 JUMPDEST DUP14 DUP3 DUP3 LT PUSH3 0x371 JUMPI POP POP DUP5 GT PUSH3 0x357 JUMPI JUMPDEST POP POP POP DUP2 SHL ADD DUP6 SSTORE PUSH3 0x10D JUMP JUMPDEST ADD MLOAD PUSH1 0x0 NOT PUSH1 0xF8 DUP5 PUSH1 0x3 SHL AND SHR NOT AND SWAP1 SSTORE CODESIZE DUP1 DUP1 PUSH3 0x349 JUMP JUMPDEST DUP4 DUP6 ADD MLOAD DUP7 SSTORE DUP14 SWAP8 SWAP1 SWAP6 ADD SWAP5 SWAP4 DUP5 ADD SWAP4 ADD PUSH3 0x336 JUMP JUMPDEST SWAP1 SWAP2 POP DUP8 DUP1 MSTORE DUP10 DUP9 KECCAK256 DUP7 DUP1 DUP6 ADD PUSH1 0x5 SHR DUP3 ADD SWAP3 DUP13 DUP7 LT PUSH3 0x3D1 JUMPI JUMPDEST SWAP2 DUP12 SWAP2 DUP7 SWAP6 SWAP5 SWAP4 ADD PUSH1 0x5 SHR ADD SWAP2 JUMPDEST DUP3 DUP2 LT PUSH3 0x3C2 JUMPI POP POP PUSH3 0xE3 JUMP JUMPDEST DUP11 DUP2 SSTORE DUP6 SWAP5 POP DUP12 SWAP2 ADD PUSH3 0x3B2 JUMP JUMPDEST SWAP3 POP DUP2 SWAP3 PUSH3 0x3A4 JUMP JUMPDEST PUSH4 0x4E487B71 PUSH1 0xE0 SHL DUP9 MSTORE PUSH1 0x22 PUSH1 0x4 MSTORE PUSH1 0x24 DUP9 REVERT JUMPDEST SWAP1 PUSH1 0x7F AND SWAP1 PUSH3 0xCE JUMP JUMPDEST PUSH4 0x4E487B71 PUSH1 0xE0 SHL PUSH1 0x0 MSTORE PUSH1 0x41 PUSH1 0x4 MSTORE PUSH1 0x24 PUSH1 0x0 REVERT JUMPDEST PUSH1 0x0 DUP1 REVERT JUMPDEST PUSH1 0x40 DUP1 MLOAD SWAP2 SWAP1 DUP3 ADD PUSH1 0x1 PUSH1 0x1 PUSH1 0x40 SHL SUB DUP2 GT DUP4 DUP3 LT OR PUSH3 0x3FA JUMPI PUSH1 0x40 MSTORE JUMP INVALID PUSH1 0x80 DUP1 PUSH1 0x40 MSTORE PUSH1 0x4 CALLDATASIZE LT ISZERO PUSH2 0x13 JUMPI PUSH1 0x0 DUP1 REVERT JUMPDEST PUSH1 0x0 CALLDATALOAD PUSH1 0xE0 SHR SWAP1 DUP2 PUSH4 0x1FFC9A7 EQ PUSH2 0x2A38 JUMPI POP DUP1 PUSH4 0x60A3E61 EQ PUSH2 0x2984 JUMPI DUP1 PUSH4 0x6FDDE03 EQ PUSH2 0x28E1 JUMPI DUP1 PUSH4 0x81812FC EQ PUSH2 0x28C3 JUMPI DUP1 PUSH4 0x95EA7B3 EQ PUSH2 0x2749 JUMPI DUP1 PUSH4 0x126DBE43 EQ PUSH2 0x253C JUMPI DUP1 PUSH4 0x145355EC EQ PUSH2 0x2520 JUMPI DUP1 PUSH4 0x17AAF5ED EQ PUSH2 0x2502 JUMPI DUP1 PUSH4 0x1F2FBB02 EQ PUSH2 0x22F4 JUMPI DUP1 PUSH4 0x23B872DD EQ PUSH2 0x22CB JUMPI DUP1 PUSH4 0x2AD7985D EQ PUSH2 0x16DD JUMPI DUP1 PUSH4 0x3EA521EF EQ PUSH2 0x2111 JUMPI DUP1 PUSH4 0x3F4BA83A EQ PUSH2 0x2050 JUMPI DUP1 PUSH4 0x42842E0E EQ PUSH2 0x2028 JUMPI DUP1 PUSH4 0x49EC61F7 EQ PUSH2 0x200C JUMPI DUP1 PUSH4 0x4E02503A EQ PUSH2 0x1EA3 JUMPI DUP1 PUSH4 0x4E738522 EQ PUSH2 0x1D81 JUMPI DUP1 PUSH4 0x5114CB52 EQ PUSH2 0x17FE JUMPI DUP1 PUSH4 0x5B72A33A EQ PUSH2 0x17E1 JUMPI DUP1 PUSH4 0x5C975ABB EQ PUSH2 0x17BE JUMPI DUP1 PUSH4 0x5E74D54C EQ PUSH2 0x17A2 JUMPI DUP1 PUSH4 0x6352211E EQ PUSH2 0x1772 JUMPI DUP1 PUSH4 0x66E226BD EQ PUSH2 0x16E2 JUMPI DUP1 PUSH4 0x6814701A EQ PUSH2 0x16DD JUMPI DUP1 PUSH4 0x6F9FB98A EQ PUSH2 0x1653 JUMPI DUP1 PUSH4 0x70A08231 EQ PUSH2 0x15BC JUMPI DUP1 PUSH4 0x715018A6 EQ PUSH2 0x155F JUMPI DUP1 PUSH4 0x75CB4DC0 EQ PUSH2 0x1525 JUMPI DUP1 PUSH4 0x78A0E16F EQ PUSH2 0x1509 JUMPI DUP1 PUSH4 0x78E94DD2 EQ PUSH2 0x14D3 JUMPI DUP1 PUSH4 0x8456CB59 EQ PUSH2 0x1413 JUMPI DUP1 PUSH4 0x873A83DC EQ PUSH2 0xEAB JUMPI DUP1 PUSH4 0x8DA5CB5B EQ PUSH2 0x13EA JUMPI DUP1 PUSH4 0x95D89B41 EQ PUSH2 0x130B JUMPI DUP1 PUSH4 0x9A9AE8E3 EQ PUSH2 0x12E5 JUMPI DUP1 PUSH4 0xA22CB465 EQ PUSH2 0x120A JUMPI DUP1 PUSH4 0xA5410A66 EQ PUSH2 0x11CB JUMPI DUP1 PUSH4 0xA98AD46C EQ PUSH2 0x11A1 JUMPI DUP1 PUSH4 0xADC67648 EQ PUSH2 0x1181 JUMPI DUP1 PUSH4 0xB27062DB EQ PUSH2 0x10F9 JUMPI DUP1 PUSH4 0xB88D4FDE EQ PUSH2 0x1097 JUMPI DUP1 PUSH4 0xBD0C3662 EQ PUSH2 0xEE5 JUMPI DUP1 PUSH4 0xBF6CE8A7 EQ PUSH2 0xEAB JUMPI DUP1 PUSH4 0xC87B56DD EQ PUSH2 0xE3E JUMPI DUP1 PUSH4 0xD7350988 EQ PUSH2 0x549 JUMPI DUP1 PUSH4 0xD998861F EQ PUSH2 0x51D JUMPI DUP1 PUSH4 0xE2271C9F EQ PUSH2 0x4C5 JUMPI DUP1 PUSH4 0xE5EF4FDA EQ PUSH2 0x4A9 JUMPI DUP1 PUSH4 0xE985E9C5 EQ PUSH2 0x453 JUMPI DUP1 PUSH4 0xF2FDE38B EQ PUSH2 0x38F JUMPI DUP1 PUSH4 0xF7B10808 EQ PUSH2 0x27F JUMPI PUSH4 0xFEE2105A EQ PUSH2 0x25B JUMPI PUSH1 0x0 DUP1 REVERT JUMPDEST CALLVALUE PUSH2 0x27A JUMPI PUSH1 0x0 CALLDATASIZE PUSH1 0x3 NOT ADD SLT PUSH2 0x27A JUMPI PUSH1 0x20 PUSH1 0x40 MLOAD PUSH4 0x1DCD6500 DUP2 MSTORE RETURN JUMPDEST PUSH1 0x0 DUP1 REVERT JUMPDEST CALLVALUE PUSH2 0x27A JUMPI PUSH1 0x20 CALLDATASIZE PUSH1 0x3 NOT ADD SLT PUSH2 0x27A JUMPI PUSH1 0x4 CALLDATALOAD PUSH1 0x0 MSTORE PUSH1 0xA PUSH1 0x20 MSTORE PUSH1 0x40 PUSH1 0x0 KECCAK256 DUP1 SLOAD SWAP1 PUSH1 0x1 DUP2 ADD SLOAD SWAP1 PUSH1 0x2 DUP2 ADD SLOAD SWAP1 PUSH1 0x3 DUP2 ADD SLOAD PUSH1 0x4 DUP3 ADD SLOAD PUSH1 0x5 DUP4 ADD SLOAD PUSH1 0x6 DUP5 ADD SLOAD PUSH1 0x7 DUP6 ADD SLOAD PUSH1 0x8 DUP7 ADD SLOAD SWAP1 PUSH1 0x9 DUP8 ADD SLOAD SWAP3 PUSH1 0xA DUP9 ADD SLOAD SWAP5 PUSH1 0xB DUP10 ADD SLOAD SWAP7 PUSH1 0xC DUP11 ADD SLOAD SWAP9 PUSH1 0xD DUP12 ADD SLOAD PUSH1 0xFF AND SWAP11 PUSH1 0xE ADD PUSH2 0x2FB SWAP1 PUSH2 0x2CB4 JUMP JUMPDEST SWAP12 PUSH1 0x40 MLOAD SWAP15 DUP16 SWAP15 DUP16 SWAP2 DUP3 MSTORE PUSH1 0x20 DUP3 ADD MSTORE PUSH1 0x40 ADD MSTORE PUSH1 0x60 DUP14 ADD MSTORE PUSH1 0x80 DUP13 ADD MSTORE PUSH1 0xA0 DUP12 ADD MSTORE PUSH1 0xC0 DUP11 ADD MSTORE PUSH1 0xE0 DUP10 ADD MSTORE PUSH1 0x1 PUSH1 0xA0 SHL PUSH1 0x1 SWAP1 SUB DUP2 AND PUSH2 0x100 DUP10 ADD MSTORE DUP1 PUSH1 0xA0 SHR PUSH1 0xFF AND ISZERO ISZERO PUSH2 0x120 DUP10 ADD MSTORE PUSH1 0xA8 SHR PUSH1 0xFF AND ISZERO ISZERO PUSH2 0x140 DUP9 ADD MSTORE PUSH2 0x160 DUP8 ADD MSTORE PUSH2 0x180 DUP7 ADD MSTORE PUSH2 0x1A0 DUP6 ADD MSTORE PUSH2 0x1C0 DUP5 ADD MSTORE ISZERO ISZERO PUSH2 0x1E0 DUP4 ADD MSTORE PUSH2 0x220 DUP1 PUSH2 0x200 DUP5 ADD MSTORE DUP3 ADD PUSH2 0x38B SWAP2 PUSH2 0x2ACF JUMP JUMPDEST SUB SWAP1 RETURN JUMPDEST CALLVALUE PUSH2 0x27A JUMPI PUSH1 0x20 CALLDATASIZE PUSH1 0x3 NOT ADD SLT PUSH2 0x27A JUMPI PUSH2 0x3A8 PUSH2 0x2AA3 JUMP JUMPDEST PUSH2 0x3B0 PUSH2 0x2D72 JUMP JUMPDEST PUSH1 0x1 PUSH1 0x1 PUSH1 0xA0 SHL SUB SWAP1 DUP2 AND SWAP1 DUP2 ISZERO PUSH2 0x3FF JUMPI PUSH1 0x6 SLOAD DUP3 PUSH1 0x1 PUSH1 0x1 PUSH1 0x60 SHL SUB PUSH1 0xA0 SHL DUP3 AND OR PUSH1 0x6 SSTORE AND PUSH32 0x8BE0079C531659141344CD1FD0A4F28419497F9722A3DAAFE3B4186F6B6457E0 PUSH1 0x0 DUP1 LOG3 STOP JUMPDEST PUSH1 0x40 MLOAD PUSH3 0x461BCD PUSH1 0xE5 SHL DUP2 MSTORE PUSH1 0x20 PUSH1 0x4 DUP3 ADD MSTORE PUSH1 0x26 PUSH1 0x24 DUP3 ADD MSTORE PUSH32 0x4F776E61626C653A206E6577206F776E657220697320746865207A65726F2061 PUSH1 0x44 DUP3 ADD MSTORE PUSH6 0x646472657373 PUSH1 0xD0 SHL PUSH1 0x64 DUP3 ADD MSTORE PUSH1 0x84 SWAP1 REVERT JUMPDEST CALLVALUE PUSH2 0x27A JUMPI PUSH1 0x40 CALLDATASIZE PUSH1 0x3 NOT ADD SLT PUSH2 0x27A JUMPI PUSH2 0x46C PUSH2 0x2AA3 JUMP JUMPDEST PUSH2 0x474 PUSH2 0x2AB9 JUMP JUMPDEST SWAP1 PUSH1 0x1 DUP1 PUSH1 0xA0 SHL SUB DUP1 SWAP2 AND PUSH1 0x0 MSTORE PUSH1 0x5 PUSH1 0x20 MSTORE PUSH1 0x40 PUSH1 0x0 KECCAK256 SWAP2 AND PUSH1 0x0 MSTORE PUSH1 0x20 MSTORE PUSH1 0x20 PUSH1 0xFF PUSH1 0x40 PUSH1 0x0 KECCAK256 SLOAD AND PUSH1 0x40 MLOAD SWAP1 ISZERO ISZERO DUP2 MSTORE RETURN JUMPDEST CALLVALUE PUSH2 0x27A JUMPI PUSH1 0x0 CALLDATASIZE PUSH1 0x3 NOT ADD SLT PUSH2 0x27A JUMPI PUSH1 0x20 PUSH1 0x40 MLOAD PUSH1 0x14 DUP2 MSTORE RETURN JUMPDEST CALLVALUE PUSH2 0x27A JUMPI PUSH1 0x40 CALLDATASIZE PUSH1 0x3 NOT ADD SLT PUSH2 0x27A JUMPI PUSH2 0x4DE PUSH2 0x2AA3 JUMP JUMPDEST PUSH1 0x1 PUSH1 0x1 PUSH1 0xA0 SHL SUB AND PUSH1 0x0 SWAP1 DUP2 MSTORE PUSH1 0xC PUSH1 0x20 MSTORE PUSH1 0x40 SWAP1 KECCAK256 DUP1 SLOAD PUSH1 0x24 CALLDATALOAD SWAP2 SWAP1 DUP3 LT ISZERO PUSH2 0x27A JUMPI PUSH1 0x20 SWAP2 PUSH2 0x50F SWAP2 PUSH2 0x2D5A JUMP JUMPDEST SWAP1 SLOAD PUSH1 0x40 MLOAD SWAP2 PUSH1 0x3 SHL SHR DUP2 MSTORE RETURN JUMPDEST CALLVALUE PUSH2 0x27A JUMPI PUSH1 0x20 CALLDATASIZE PUSH1 0x3 NOT ADD SLT PUSH2 0x27A JUMPI PUSH1 0x4 CALLDATALOAD PUSH1 0x0 MSTORE PUSH1 0xD PUSH1 0x20 MSTORE PUSH1 0x20 PUSH1 0x40 PUSH1 0x0 KECCAK256 SLOAD PUSH1 0x40 MLOAD SWAP1 DUP2 MSTORE RETURN JUMPDEST CALLVALUE PUSH2 0x27A JUMPI PUSH1 0x60 CALLDATASIZE PUSH1 0x3 NOT ADD SLT PUSH2 0x27A JUMPI PUSH1 0x44 CALLDATALOAD PUSH8 0xFFFFFFFFFFFFFFFF DUP2 GT PUSH2 0x27A JUMPI PUSH2 0x57A SWAP1 CALLDATASIZE SWAP1 PUSH1 0x4 ADD PUSH2 0x2BD9 JUMP JUMPDEST PUSH2 0x582 PUSH2 0x33D9 JUMP JUMPDEST PUSH1 0x8 SLOAD PUSH2 0x592 PUSH1 0xFF DUP3 AND ISZERO PUSH2 0x32E8 JUMP JUMPDEST CALLER PUSH1 0x0 MSTORE PUSH1 0xE PUSH1 0x20 MSTORE PUSH1 0xFF PUSH1 0x40 PUSH1 0x0 KECCAK256 SLOAD AND ISZERO PUSH2 0xDF9 JUMPI PUSH1 0x4 CALLDATALOAD ISZERO DUP1 ISZERO DUP1 PUSH2 0xDE8 JUMPI JUMPDEST ISZERO PUSH2 0xDAA JUMPI PUSH1 0x14 PUSH1 0x4 CALLDATALOAD MUL SWAP1 PUSH1 0x4 CALLDATALOAD DUP3 DIV PUSH1 0x14 EQ OR ISZERO PUSH2 0xD94 JUMPI PUSH1 0x64 SWAP1 DIV PUSH1 0x24 CALLDATALOAD LT PUSH2 0xD4F JUMPI PUSH1 0x4 CALLDATALOAD PUSH1 0x24 CALLDATALOAD LT ISZERO PUSH2 0xCF4 JUMPI DUP2 MLOAD ISZERO PUSH2 0xCAF JUMPI PUSH1 0x40 MLOAD PUSH4 0x70A08231 PUSH1 0xE0 SHL DUP2 MSTORE CALLER PUSH1 0x4 DUP3 ADD MSTORE PUSH1 0x8 SWAP2 SWAP1 SWAP2 SHR PUSH1 0x1 PUSH1 0x1 PUSH1 0xA0 SHL SUB AND SWAP1 PUSH1 0x20 DUP2 PUSH1 0x24 DUP2 DUP6 GAS STATICCALL SWAP1 DUP2 ISZERO PUSH2 0xC3B JUMPI PUSH1 0x0 SWAP2 PUSH2 0xC7D JUMPI JUMPDEST POP PUSH1 0x40 MLOAD PUSH4 0x6EB1769F PUSH1 0xE1 SHL DUP2 MSTORE CALLER PUSH1 0x4 DUP3 ADD MSTORE ADDRESS PUSH1 0x24 DUP3 ADD MSTORE SWAP1 PUSH1 0x20 DUP3 PUSH1 0x44 DUP2 DUP7 GAS STATICCALL SWAP2 DUP3 ISZERO PUSH2 0xC3B JUMPI PUSH1 0x0 SWAP3 PUSH2 0xC47 JUMPI JUMPDEST POP SWAP1 PUSH2 0x66F PUSH2 0x679 SWAP3 PUSH1 0x24 CALLDATALOAD GT ISZERO PUSH2 0x3329 JUMP JUMPDEST PUSH1 0x24 CALLDATALOAD GT ISZERO PUSH2 0x3375 JUMP JUMPDEST PUSH1 0x40 MLOAD PUSH4 0x23B872DD PUSH1 0xE0 SHL DUP2 MSTORE CALLER PUSH1 0x4 DUP3 ADD MSTORE ADDRESS PUSH1 0x24 DUP1 DUP4 ADD SWAP2 SWAP1 SWAP2 MSTORE CALLDATALOAD PUSH1 0x44 DUP3 ADD MSTORE SWAP1 PUSH1 0x20 SWAP1 DUP3 SWAP1 PUSH1 0x64 SWAP1 DUP3 SWAP1 PUSH1 0x0 SWAP1 GAS CALL SWAP1 DUP2 ISZERO PUSH2 0xC3B JUMPI PUSH1 0x0 SWAP2 PUSH2 0xC0C JUMPI JUMPDEST POP ISZERO PUSH2 0xBC7 JUMPI PUSH1 0x1 PUSH1 0x9 SLOAD ADD DUP1 PUSH1 0x9 SSTORE PUSH2 0x6D9 PUSH1 0x24 CALLDATALOAD PUSH1 0x4 CALLDATALOAD PUSH2 0x3488 JUMP JUMPDEST PUSH2 0x6E2 DUP2 PUSH2 0x3564 JUMP JUMPDEST PUSH1 0x40 MLOAD SWAP2 PUSH2 0x6EF DUP4 PUSH2 0x2B0F JUMP JUMPDEST DUP4 DUP4 MSTORE PUSH1 0x4 CALLDATALOAD PUSH1 0x20 DUP5 ADD MSTORE PUSH1 0x24 CALLDATALOAD PUSH1 0x40 DUP5 ADD MSTORE PUSH1 0x60 DUP4 ADD MSTORE PUSH1 0x80 DUP3 ADD MSTORE PUSH2 0x320 PUSH1 0xA0 DUP3 ADD MSTORE PUSH1 0xA PUSH1 0xC0 DUP3 ADD MSTORE TIMESTAMP PUSH1 0xE0 DUP3 ADD MSTORE CALLER PUSH2 0x100 DUP3 ADD MSTORE PUSH1 0x1 PUSH2 0x120 DUP3 ADD MSTORE PUSH1 0x0 PUSH2 0x140 DUP3 ADD MSTORE PUSH1 0x0 PUSH2 0x160 DUP3 ADD MSTORE TIMESTAMP PUSH2 0x180 DUP3 ADD MSTORE PUSH1 0x24 CALLDATALOAD PUSH2 0x1A0 DUP3 ADD MSTORE PUSH1 0x0 PUSH2 0x1C0 DUP3 ADD MSTORE PUSH1 0x0 PUSH2 0x1E0 DUP3 ADD MSTORE DUP3 PUSH2 0x200 DUP3 ADD MSTORE DUP2 PUSH1 0x0 MSTORE PUSH1 0xA PUSH1 0x20 MSTORE PUSH2 0x200 PUSH1 0x40 PUSH1 0x0 KECCAK256 SWAP2 DUP1 MLOAD DUP4 SSTORE PUSH1 0x20 DUP2 ADD MLOAD PUSH1 0x1 DUP5 ADD SSTORE PUSH1 0x40 DUP2 ADD MLOAD PUSH1 0x2 DUP5 ADD SSTORE PUSH1 0x60 DUP2 ADD MLOAD PUSH1 0x3 DUP5 ADD SSTORE PUSH1 0x80 DUP2 ADD MLOAD PUSH1 0x4 DUP5 ADD SSTORE PUSH1 0xA0 DUP2 ADD MLOAD PUSH1 0x5 DUP5 ADD SSTORE PUSH1 0xC0 DUP2 ADD MLOAD PUSH1 0x6 DUP5 ADD SSTORE PUSH1 0xE0 DUP2 ADD MLOAD PUSH1 0x7 DUP5 ADD SSTORE PUSH1 0x8 DUP4 ADD PUSH1 0x1 DUP1 PUSH1 0xA0 SHL SUB PUSH2 0x100 DUP4 ADD MLOAD AND DUP2 SLOAD SWAP1 PUSH1 0xFF PUSH1 0xA0 SHL PUSH2 0x120 DUP6 ADD MLOAD ISZERO ISZERO PUSH1 0xA0 SHL AND SWAP1 PUSH1 0xFF PUSH1 0xA8 SHL PUSH2 0x140 DUP7 ADD MLOAD ISZERO ISZERO PUSH1 0xA8 SHL AND SWAP3 PUSH10 0xFFFFFFFFFFFFFFFFFFFF PUSH1 0xB0 SHL AND OR OR OR SWAP1 SSTORE PUSH2 0x160 DUP2 ADD MLOAD PUSH1 0x9 DUP5 ADD SSTORE PUSH2 0x180 DUP2 ADD MLOAD PUSH1 0xA DUP5 ADD SSTORE PUSH2 0x1A0 DUP2 ADD MLOAD PUSH1 0xB DUP5 ADD SSTORE PUSH2 0x1C0 DUP2 ADD MLOAD PUSH1 0xC DUP5 ADD SSTORE PUSH2 0x85C PUSH2 0x1E0 DUP3 ADD MLOAD ISZERO ISZERO PUSH1 0xD DUP6 ADD SWAP1 PUSH1 0xFF DUP1 NOT DUP4 SLOAD AND SWAP2 ISZERO ISZERO AND OR SWAP1 SSTORE JUMP JUMPDEST ADD MLOAD DUP1 MLOAD SWAP1 PUSH8 0xFFFFFFFFFFFFFFFF DUP3 GT PUSH2 0xA4F JUMPI PUSH2 0x87D PUSH1 0xE DUP5 ADD SLOAD PUSH2 0x2C7A JUMP JUMPDEST PUSH1 0x1F DUP2 GT PUSH2 0xB80 JUMPI JUMPDEST POP PUSH1 0x20 SWAP1 PUSH1 0x1F DUP4 GT PUSH1 0x1 EQ PUSH2 0xB10 JUMPI PUSH1 0xE SWAP3 SWAP2 PUSH1 0x0 SWAP2 DUP4 PUSH2 0xB05 JUMPI JUMPDEST POP POP DUP2 PUSH1 0x1 SHL SWAP2 PUSH1 0x0 NOT SWAP1 PUSH1 0x3 SHL SHR NOT AND OR SWAP2 ADD SSTORE JUMPDEST CALLER ISZERO PUSH2 0xAC1 JUMPI PUSH1 0x0 DUP2 DUP2 MSTORE PUSH1 0x2 PUSH1 0x20 MSTORE PUSH1 0x40 SWAP1 KECCAK256 SLOAD PUSH2 0x8E3 SWAP1 PUSH1 0x1 PUSH1 0x1 PUSH1 0xA0 SHL SUB AND ISZERO ISZERO JUMPDEST ISZERO PUSH2 0x342F JUMP JUMPDEST DUP1 PUSH1 0x0 MSTORE PUSH1 0xA PUSH1 0x20 MSTORE PUSH1 0xFF PUSH1 0x8 PUSH1 0x40 PUSH1 0x0 KECCAK256 ADD SLOAD PUSH1 0xA8 SHR AND PUSH2 0xA65 JUMPI PUSH1 0x0 DUP2 DUP2 MSTORE PUSH1 0x2 PUSH1 0x20 MSTORE PUSH1 0x40 SWAP1 KECCAK256 SLOAD PUSH2 0x922 SWAP1 PUSH1 0x1 PUSH1 0x1 PUSH1 0xA0 SHL SUB AND ISZERO ISZERO PUSH2 0x8DD JUMP JUMPDEST CALLER PUSH1 0x0 MSTORE PUSH1 0x3 PUSH1 0x20 MSTORE PUSH1 0x40 PUSH1 0x0 KECCAK256 PUSH1 0x1 DUP2 SLOAD ADD SWAP1 SSTORE DUP1 PUSH1 0x0 MSTORE PUSH1 0x2 PUSH1 0x20 MSTORE PUSH1 0x40 PUSH1 0x0 KECCAK256 CALLER PUSH1 0x1 PUSH1 0x1 PUSH1 0x60 SHL SUB PUSH1 0xA0 SHL DUP3 SLOAD AND OR SWAP1 SSTORE DUP1 CALLER PUSH1 0x0 PUSH32 0xDDF252AD1BE2C89B69C2B068FC378DAA952BA7F163C4A11628F55A4DF523B3EF DUP2 DUP1 LOG4 PUSH1 0xD PUSH1 0x20 MSTORE DUP1 PUSH1 0x40 PUSH1 0x0 KECCAK256 SSTORE CALLER PUSH1 0x0 MSTORE PUSH1 0xC PUSH1 0x20 MSTORE PUSH1 0x40 PUSH1 0x0 KECCAK256 SWAP2 DUP3 SLOAD SWAP3 PUSH1 0x1 PUSH1 0x40 SHL DUP5 LT ISZERO PUSH2 0xA4F JUMPI DUP4 PUSH2 0x9BB SWAP2 PUSH1 0x1 PUSH1 0x20 SWAP7 ADD DUP2 SSTORE PUSH2 0x2D5A JUMP JUMPDEST DUP2 SLOAD SWAP1 PUSH1 0x3 SHL SWAP1 DUP5 DUP3 SHL SWAP2 PUSH1 0x0 NOT SWAP1 SHL NOT AND OR SWAP1 SSTORE CALLER PUSH1 0x0 MSTORE PUSH1 0x10 DUP4 MSTORE PUSH2 0x9E9 PUSH1 0x24 CALLDATALOAD PUSH1 0x40 PUSH1 0x0 KECCAK256 SLOAD PUSH2 0x347B JUMP JUMPDEST CALLER PUSH1 0x0 MSTORE PUSH1 0x10 DUP5 MSTORE PUSH1 0x40 PUSH1 0x0 KECCAK256 SSTORE DUP2 PUSH32 0xFA022859E324BE026C9589ED842E5B02665DDACCE9D4D85108DE51BB0A2AF1FB PUSH1 0x40 MLOAD PUSH1 0x4 CALLDATALOAD DUP2 MSTORE PUSH1 0x24 CALLDATALOAD DUP7 DUP3 ADD MSTORE PUSH1 0x60 PUSH1 0x40 DUP3 ADD MSTORE DUP1 PUSH2 0xA3F CALLER SWAP6 PUSH1 0x60 DUP4 ADD SWAP1 PUSH2 0x2ACF JUMP JUMPDEST SUB SWAP1 LOG3 PUSH1 0x1 PUSH1 0x7 SSTORE PUSH1 0x40 MLOAD SWAP1 DUP2 MSTORE RETURN JUMPDEST PUSH4 0x4E487B71 PUSH1 0xE0 SHL PUSH1 0x0 MSTORE PUSH1 0x41 PUSH1 0x4 MSTORE PUSH1 0x24 PUSH1 0x0 REVERT JUMPDEST PUSH1 0x40 MLOAD PUSH3 0x461BCD PUSH1 0xE5 SHL DUP2 MSTORE PUSH1 0x20 PUSH1 0x4 DUP3 ADD MSTORE PUSH1 0x2E PUSH1 0x24 DUP3 ADD MSTORE PUSH32 0x50726F706572747920697320696E2064656661756C74202D207472616E736665 PUSH1 0x44 DUP3 ADD MSTORE PUSH14 0x1C9CC81B9BDD08185B1B1BDDD959 PUSH1 0x92 SHL PUSH1 0x64 DUP3 ADD MSTORE PUSH1 0x84 SWAP1 REVERT JUMPDEST PUSH1 0x64 PUSH1 0x40 MLOAD PUSH3 0x461BCD PUSH1 0xE5 SHL DUP2 MSTORE PUSH1 0x20 PUSH1 0x4 DUP3 ADD MSTORE PUSH1 0x20 PUSH1 0x24 DUP3 ADD MSTORE PUSH32 0x4552433732313A206D696E7420746F20746865207A65726F2061646472657373 PUSH1 0x44 DUP3 ADD MSTORE REVERT JUMPDEST ADD MLOAD SWAP1 POP DUP7 DUP1 PUSH2 0x8A2 JUMP JUMPDEST SWAP1 PUSH1 0xE DUP5 ADD PUSH1 0x0 MSTORE PUSH1 0x20 PUSH1 0x0 KECCAK256 SWAP2 PUSH1 0x0 JUMPDEST PUSH1 0x1F NOT DUP6 AND DUP2 LT PUSH2 0xB68 JUMPI POP SWAP2 DUP4 SWAP2 PUSH1 0x1 SWAP4 PUSH1 0xE SWAP6 PUSH1 0x1F NOT DUP2 AND LT PUSH2 0xB4F JUMPI JUMPDEST POP POP POP DUP2 SHL ADD SWAP2 ADD SSTORE PUSH2 0x8B8 JUMP JUMPDEST ADD MLOAD PUSH1 0x0 NOT PUSH1 0xF8 DUP5 PUSH1 0x3 SHL AND SHR NOT AND SWAP1 SSTORE DUP7 DUP1 DUP1 PUSH2 0xB41 JUMP JUMPDEST SWAP2 SWAP3 PUSH1 0x20 PUSH1 0x1 DUP2 SWAP3 DUP7 DUP6 ADD MLOAD DUP2 SSTORE ADD SWAP5 ADD SWAP3 ADD PUSH2 0xB21 JUMP JUMPDEST PUSH1 0xE DUP5 ADD PUSH1 0x0 MSTORE PUSH1 0x20 PUSH1 0x0 KECCAK256 PUSH1 0x1F DUP5 ADD PUSH1 0x5 SHR DUP2 ADD PUSH1 0x20 DUP6 LT PUSH2 0xBC0 JUMPI JUMPDEST PUSH1 0x1F DUP4 ADD PUSH1 0x5 SHR DUP3 ADD DUP2 LT PUSH2 0xBB4 JUMPI POP POP PUSH2 0x886 JUMP JUMPDEST PUSH1 0x0 DUP2 SSTORE PUSH1 0x1 ADD PUSH2 0xB9E JUMP JUMPDEST POP DUP1 PUSH2 0xB9E JUMP JUMPDEST PUSH1 0x40 MLOAD PUSH3 0x461BCD PUSH1 0xE5 SHL DUP2 MSTORE PUSH1 0x20 PUSH1 0x4 DUP3 ADD MSTORE PUSH1 0x1C PUSH1 0x24 DUP3 ADD MSTORE PUSH32 0x446F776E207061796D656E74207472616E73666572206661696C656400000000 PUSH1 0x44 DUP3 ADD MSTORE PUSH1 0x64 SWAP1 REVERT JUMPDEST PUSH2 0xC2E SWAP2 POP PUSH1 0x20 RETURNDATASIZE PUSH1 0x20 GT PUSH2 0xC34 JUMPI JUMPDEST PUSH2 0xC26 DUP2 DUP4 PUSH2 0x2B64 JUMP JUMPDEST DUP2 ADD SWAP1 PUSH2 0x33C1 JUMP JUMPDEST DUP3 PUSH2 0x6BB JUMP JUMPDEST POP RETURNDATASIZE PUSH2 0xC1C JUMP JUMPDEST PUSH1 0x40 MLOAD RETURNDATASIZE PUSH1 0x0 DUP3 RETURNDATACOPY RETURNDATASIZE SWAP1 REVERT JUMPDEST SWAP2 POP PUSH1 0x20 DUP3 RETURNDATASIZE PUSH1 0x20 GT PUSH2 0xC75 JUMPI JUMPDEST DUP2 PUSH2 0xC62 PUSH1 0x20 SWAP4 DUP4 PUSH2 0x2B64 JUMP JUMPDEST DUP2 ADD SUB SLT PUSH2 0x27A JUMPI SWAP1 MLOAD SWAP1 PUSH2 0x66F PUSH2 0x65C JUMP JUMPDEST RETURNDATASIZE SWAP2 POP PUSH2 0xC55 JUMP JUMPDEST SWAP1 POP PUSH1 0x20 DUP2 RETURNDATASIZE PUSH1 0x20 GT PUSH2 0xCA7 JUMPI JUMPDEST DUP2 PUSH2 0xC98 PUSH1 0x20 SWAP4 DUP4 PUSH2 0x2B64 JUMP JUMPDEST DUP2 ADD SUB SLT PUSH2 0x27A JUMPI MLOAD DUP4 PUSH2 0x629 JUMP JUMPDEST RETURNDATASIZE SWAP2 POP PUSH2 0xC8B JUMP JUMPDEST PUSH1 0x40 MLOAD PUSH3 0x461BCD PUSH1 0xE5 SHL DUP2 MSTORE PUSH1 0x20 PUSH1 0x4 DUP3 ADD MSTORE PUSH1 0x1A PUSH1 0x24 DUP3 ADD MSTORE PUSH32 0x50726F7065727479206D65746164617461207265717569726564000000000000 PUSH1 0x44 DUP3 ADD MSTORE PUSH1 0x64 SWAP1 REVERT JUMPDEST PUSH1 0x40 MLOAD PUSH3 0x461BCD PUSH1 0xE5 SHL DUP2 MSTORE PUSH1 0x20 PUSH1 0x4 DUP3 ADD MSTORE PUSH1 0x2D PUSH1 0x24 DUP3 ADD MSTORE PUSH32 0x446F776E207061796D656E74206D757374206265206C657373207468616E2070 PUSH1 0x44 DUP3 ADD MSTORE PUSH13 0x75726368617365207072696365 PUSH1 0x98 SHL PUSH1 0x64 DUP3 ADD MSTORE PUSH1 0x84 SWAP1 REVERT JUMPDEST PUSH1 0x40 MLOAD PUSH3 0x461BCD PUSH1 0xE5 SHL DUP2 MSTORE PUSH1 0x20 PUSH1 0x4 DUP3 ADD MSTORE PUSH1 0x19 PUSH1 0x24 DUP3 ADD MSTORE PUSH32 0x496E73756666696369656E7420646F776E207061796D656E7400000000000000 PUSH1 0x44 DUP3 ADD MSTORE PUSH1 0x64 SWAP1 REVERT JUMPDEST PUSH4 0x4E487B71 PUSH1 0xE0 SHL PUSH1 0x0 MSTORE PUSH1 0x11 PUSH1 0x4 MSTORE PUSH1 0x24 PUSH1 0x0 REVERT JUMPDEST PUSH1 0x40 MLOAD PUSH3 0x461BCD PUSH1 0xE5 SHL DUP2 MSTORE PUSH1 0x20 PUSH1 0x4 DUP3 ADD MSTORE PUSH1 0x16 PUSH1 0x24 DUP3 ADD MSTORE PUSH22 0x496E76616C69642070726F70657274792076616C7565 PUSH1 0x50 SHL PUSH1 0x44 DUP3 ADD MSTORE PUSH1 0x64 SWAP1 REVERT JUMPDEST POP PUSH5 0xE8D4A51000 PUSH1 0x4 CALLDATALOAD GT ISZERO PUSH2 0x5B5 JUMP JUMPDEST PUSH1 0x40 MLOAD PUSH3 0x461BCD PUSH1 0xE5 SHL DUP2 MSTORE PUSH1 0x20 PUSH1 0x4 DUP3 ADD MSTORE PUSH1 0x19 PUSH1 0x24 DUP3 ADD MSTORE PUSH32 0x4B594320766572696669636174696F6E20726571756972656400000000000000 PUSH1 0x44 DUP3 ADD MSTORE PUSH1 0x64 SWAP1 REVERT JUMPDEST CALLVALUE PUSH2 0x27A JUMPI PUSH1 0x20 CALLDATASIZE PUSH1 0x3 NOT ADD SLT PUSH2 0x27A JUMPI PUSH1 0x4 CALLDATALOAD PUSH1 0x0 SWAP1 DUP2 MSTORE PUSH1 0x2 PUSH1 0x20 MSTORE PUSH1 0x40 SWAP1 KECCAK256 SLOAD PUSH2 0xE75 SWAP1 PUSH1 0x1 PUSH1 0x1 PUSH1 0xA0 SHL SUB AND ISZERO ISZERO PUSH2 0x2DCA JUMP JUMPDEST PUSH1 0x0 PUSH1 0x40 MLOAD PUSH2 0xE83 DUP2 PUSH2 0x2B48 JUMP JUMPDEST MSTORE PUSH2 0x38B PUSH1 0x40 MLOAD PUSH2 0xE93 DUP2 PUSH2 0x2B48 JUMP JUMPDEST PUSH1 0x0 DUP2 MSTORE PUSH1 0x40 MLOAD SWAP2 DUP3 SWAP2 PUSH1 0x20 DUP4 MSTORE PUSH1 0x20 DUP4 ADD SWAP1 PUSH2 0x2ACF JUMP JUMPDEST CALLVALUE PUSH2 0x27A JUMPI PUSH1 0x20 CALLDATASIZE PUSH1 0x3 NOT ADD SLT PUSH2 0x27A JUMPI PUSH1 0x1 PUSH1 0x1 PUSH1 0xA0 SHL SUB PUSH2 0xECC PUSH2 0x2AA3 JUMP JUMPDEST AND PUSH1 0x0 MSTORE PUSH1 0x10 PUSH1 0x20 MSTORE PUSH1 0x20 PUSH1 0x40 PUSH1 0x0 KECCAK256 SLOAD PUSH1 0x40 MLOAD SWAP1 DUP2 MSTORE RETURN JUMPDEST CALLVALUE PUSH2 0x27A JUMPI PUSH1 0x20 DUP1 PUSH1 0x3 NOT CALLDATASIZE ADD SLT PUSH2 0x27A JUMPI PUSH1 0x4 CALLDATALOAD SWAP1 PUSH2 0xF03 PUSH2 0x2D72 JUMP JUMPDEST DUP2 PUSH1 0x0 MSTORE PUSH1 0xA DUP2 MSTORE PUSH2 0xF1B PUSH1 0x40 PUSH1 0x0 KECCAK256 SLOAD ISZERO ISZERO PUSH2 0x3495 JUMP JUMPDEST DUP2 PUSH1 0x0 MSTORE PUSH1 0xA DUP2 MSTORE PUSH1 0x40 PUSH1 0x0 KECCAK256 PUSH2 0xF3B PUSH1 0xFF PUSH1 0x8 DUP4 ADD SLOAD PUSH1 0xA0 SHR AND PUSH2 0x3522 JUMP JUMPDEST PUSH1 0x7 DUP2 ADD SLOAD PUSH4 0x12CC0300 DUP2 ADD DUP1 SWAP2 GT PUSH2 0xD94 JUMPI TIMESTAMP LT PUSH2 0x1052 JUMPI PUSH1 0xD DUP2 ADD SWAP1 DUP2 SLOAD SWAP2 PUSH1 0xFF DUP4 AND PUSH2 0x100D JUMPI PUSH1 0x1 DUP3 ADD SLOAD SWAP2 PUSH1 0x6E DUP4 MUL SWAP3 DUP1 DUP5 DIV PUSH1 0x6E EQ SWAP1 ISZERO OR ISZERO PUSH2 0xD94 JUMPI PUSH1 0x64 PUSH1 0xC SWAP4 DIV SWAP3 DUP4 SWAP2 ADD SSTORE PUSH1 0x32 DUP3 MUL SWAP1 DUP3 ISZERO SWAP1 DUP4 DUP4 DIV PUSH1 0x32 EQ DUP3 OR ISZERO PUSH2 0xD94 JUMPI PUSH1 0x28 DUP5 MUL DUP5 DUP2 DIV PUSH1 0x28 EQ DUP4 OR ISZERO PUSH2 0xD94 JUMPI PUSH1 0xA DUP6 MUL SWAP3 DUP6 DUP5 DIV PUSH1 0xA EQ OR ISZERO PUSH2 0xD94 JUMPI PUSH32 0x38A1A5335A2FF4FB5DFBEFD230C73BA8F033EDACE63BF085953A3DA8B8911F10 SWAP7 PUSH1 0x64 DUP1 SWAP6 DUP2 SWAP5 PUSH1 0x1 PUSH1 0x80 SWAP11 PUSH1 0xFF NOT AND OR SWAP1 SSTORE PUSH1 0x40 MLOAD SWAP8 DUP9 MSTORE DIV SWAP1 DUP7 ADD MSTORE DIV PUSH1 0x40 DUP5 ADD MSTORE DIV PUSH1 0x60 DUP3 ADD MSTORE LOG2 STOP JUMPDEST PUSH1 0x40 MLOAD PUSH3 0x461BCD PUSH1 0xE5 SHL DUP2 MSTORE PUSH1 0x4 DUP2 ADD DUP6 SWAP1 MSTORE PUSH1 0x1F PUSH1 0x24 DUP3 ADD MSTORE PUSH32 0x417070726563696174696F6E20616C72656164792063616C63756C6174656400 PUSH1 0x44 DUP3 ADD MSTORE PUSH1 0x64 SWAP1 REVERT JUMPDEST PUSH1 0x40 MLOAD PUSH3 0x461BCD PUSH1 0xE5 SHL DUP2 MSTORE PUSH1 0x4 DUP2 ADD DUP4 SWAP1 MSTORE PUSH1 0x18 PUSH1 0x24 DUP3 ADD MSTORE PUSH32 0x31302D79656172207465726D206E6F7420726561636865640000000000000000 PUSH1 0x44 DUP3 ADD MSTORE PUSH1 0x64 SWAP1 REVERT JUMPDEST CALLVALUE PUSH2 0x27A JUMPI PUSH1 0x80 CALLDATASIZE PUSH1 0x3 NOT ADD SLT PUSH2 0x27A JUMPI PUSH2 0x10B0 PUSH2 0x2AA3 JUMP JUMPDEST PUSH2 0x10B8 PUSH2 0x2AB9 JUMP JUMPDEST PUSH1 0x64 CALLDATALOAD SWAP2 PUSH8 0xFFFFFFFFFFFFFFFF DUP4 GT PUSH2 0x27A JUMPI CALLDATASIZE PUSH1 0x23 DUP5 ADD SLT ISZERO PUSH2 0x27A JUMPI PUSH2 0x10ED PUSH2 0x10F7 SWAP4 CALLDATASIZE SWAP1 PUSH1 0x24 DUP2 PUSH1 0x4 ADD CALLDATALOAD SWAP2 ADD PUSH2 0x2BA2 JUMP JUMPDEST SWAP2 PUSH1 0x44 CALLDATALOAD SWAP2 PUSH2 0x2ED9 JUMP JUMPDEST STOP JUMPDEST CALLVALUE PUSH2 0x27A JUMPI PUSH1 0x40 CALLDATASIZE PUSH1 0x3 NOT ADD SLT PUSH2 0x27A JUMPI PUSH1 0x24 CALLDATALOAD PUSH1 0x4 CALLDATALOAD PUSH1 0x0 MSTORE PUSH1 0xB PUSH1 0x20 MSTORE PUSH1 0x40 PUSH1 0x0 KECCAK256 SWAP1 DUP2 SLOAD DUP2 LT ISZERO PUSH2 0x27A JUMPI PUSH2 0x1130 SWAP2 PUSH2 0x2C48 JUMP JUMPDEST POP DUP1 SLOAD PUSH2 0x38B PUSH1 0x1 DUP4 ADD SLOAD SWAP3 PUSH1 0x2 DUP2 ADD SLOAD SWAP1 PUSH2 0x1156 PUSH1 0x4 PUSH1 0xFF PUSH1 0x3 DUP5 ADD SLOAD AND SWAP3 ADD PUSH2 0x2CB4 JUMP JUMPDEST SWAP2 PUSH1 0x40 MLOAD SWAP6 DUP7 SWAP6 DUP7 MSTORE PUSH1 0x20 DUP7 ADD MSTORE PUSH1 0x40 DUP6 ADD MSTORE ISZERO ISZERO PUSH1 0x60 DUP5 ADD MSTORE PUSH1 0xA0 PUSH1 0x80 DUP5 ADD MSTORE PUSH1 0xA0 DUP4 ADD SWAP1 PUSH2 0x2ACF JUMP JUMPDEST CALLVALUE PUSH2 0x27A JUMPI PUSH1 0x0 CALLDATASIZE PUSH1 0x3 NOT ADD SLT PUSH2 0x27A JUMPI PUSH1 0x20 PUSH1 0x40 MLOAD PUSH5 0xE8D4A51000 DUP2 MSTORE RETURN JUMPDEST CALLVALUE PUSH2 0x27A JUMPI PUSH1 0x0 CALLDATASIZE PUSH1 0x3 NOT ADD SLT PUSH2 0x27A JUMPI PUSH1 0x8 DUP1 SLOAD PUSH1 0x40 MLOAD SWAP2 SHR PUSH1 0x1 PUSH1 0x1 PUSH1 0xA0 SHL SUB AND DUP2 MSTORE PUSH1 0x20 SWAP1 RETURN JUMPDEST CALLVALUE PUSH2 0x27A JUMPI PUSH1 0x20 CALLDATASIZE PUSH1 0x3 NOT ADD SLT PUSH2 0x27A JUMPI PUSH1 0x1 PUSH1 0x1 PUSH1 0xA0 SHL SUB PUSH2 0x11EC PUSH2 0x2AA3 JUMP JUMPDEST AND PUSH1 0x0 MSTORE PUSH1 0xE PUSH1 0x20 MSTORE PUSH1 0x20 PUSH1 0xFF PUSH1 0x40 PUSH1 0x0 KECCAK256 SLOAD AND PUSH1 0x40 MLOAD SWAP1 ISZERO ISZERO DUP2 MSTORE RETURN JUMPDEST CALLVALUE PUSH2 0x27A JUMPI PUSH1 0x40 CALLDATASIZE PUSH1 0x3 NOT ADD SLT PUSH2 0x27A JUMPI PUSH2 0x1223 PUSH2 0x2AA3 JUMP JUMPDEST PUSH1 0x24 CALLDATALOAD SWAP1 DUP2 ISZERO ISZERO SWAP1 DUP2 DUP4 SUB PUSH2 0x27A JUMPI PUSH1 0x1 PUSH1 0x1 PUSH1 0xA0 SHL SUB AND SWAP2 CALLER DUP4 EQ PUSH2 0x12A0 JUMPI PUSH2 0x1272 SWAP1 CALLER PUSH1 0x0 MSTORE PUSH1 0x5 PUSH1 0x20 MSTORE PUSH1 0x40 PUSH1 0x0 KECCAK256 DUP5 PUSH1 0x0 MSTORE PUSH1 0x20 MSTORE PUSH1 0x40 PUSH1 0x0 KECCAK256 SWAP1 PUSH1 0xFF DUP1 NOT DUP4 SLOAD AND SWAP2 ISZERO ISZERO AND OR SWAP1 SSTORE JUMP JUMPDEST PUSH1 0x40 MLOAD SWAP1 DUP2 MSTORE PUSH32 0x17307EAB39AB6107E8899845AD3D59BD9653F200F220920489CA2B5937696C31 PUSH1 0x20 CALLER SWAP3 LOG3 STOP JUMPDEST PUSH1 0x40 MLOAD PUSH3 0x461BCD PUSH1 0xE5 SHL DUP2 MSTORE PUSH1 0x20 PUSH1 0x4 DUP3 ADD MSTORE PUSH1 0x19 PUSH1 0x24 DUP3 ADD MSTORE PUSH32 0x4552433732313A20617070726F766520746F2063616C6C657200000000000000 PUSH1 0x44 DUP3 ADD MSTORE PUSH1 0x64 SWAP1 REVERT JUMPDEST CALLVALUE PUSH2 0x27A JUMPI PUSH1 0x20 CALLDATASIZE PUSH1 0x3 NOT ADD SLT PUSH2 0x27A JUMPI PUSH1 0x20 PUSH2 0x1303 PUSH1 0x4 CALLDATALOAD PUSH2 0x3564 JUMP JUMPDEST PUSH1 0x40 MLOAD SWAP1 DUP2 MSTORE RETURN JUMPDEST CALLVALUE PUSH2 0x27A JUMPI PUSH1 0x0 CALLDATASIZE PUSH1 0x3 NOT ADD SLT PUSH2 0x27A JUMPI PUSH1 0x40 MLOAD PUSH1 0x0 PUSH1 0x1 DUP1 SLOAD SWAP1 PUSH2 0x132F DUP3 PUSH2 0x2C7A JUMP JUMPDEST DUP1 DUP6 MSTORE SWAP2 DUP2 DUP2 AND SWAP1 DUP2 ISZERO PUSH2 0x13C3 JUMPI POP PUSH1 0x1 EQ PUSH2 0x136A JUMPI JUMPDEST PUSH2 0x38B DUP5 PUSH2 0x1356 DUP2 DUP7 SUB DUP3 PUSH2 0x2B64 JUMP JUMPDEST PUSH1 0x40 MLOAD SWAP2 DUP3 SWAP2 PUSH1 0x20 DUP4 MSTORE PUSH1 0x20 DUP4 ADD SWAP1 PUSH2 0x2ACF JUMP JUMPDEST PUSH1 0x0 DUP2 DUP2 MSTORE SWAP3 POP PUSH32 0xB10E2D527612073B26EECDFD717E6A320CF44B4AFAC2B0732D9FCBE2B7FA0CF6 JUMPDEST DUP3 DUP5 LT PUSH2 0x13AB JUMPI POP POP POP DUP2 ADD PUSH1 0x20 ADD PUSH2 0x1356 DUP3 PUSH2 0x1346 JUMP JUMPDEST DUP1 SLOAD PUSH1 0x20 DUP6 DUP8 ADD DUP2 ADD SWAP2 SWAP1 SWAP2 MSTORE SWAP1 SWAP4 ADD SWAP3 DUP2 ADD PUSH2 0x1393 JUMP JUMPDEST PUSH1 0xFF NOT AND PUSH1 0x20 DUP1 DUP8 ADD SWAP2 SWAP1 SWAP2 MSTORE SWAP3 ISZERO ISZERO PUSH1 0x5 SHL DUP6 ADD SWAP1 SWAP3 ADD SWAP3 POP PUSH2 0x1356 SWAP2 POP DUP4 SWAP1 POP PUSH2 0x1346 JUMP JUMPDEST CALLVALUE PUSH2 0x27A JUMPI PUSH1 0x0 CALLDATASIZE PUSH1 0x3 NOT ADD SLT PUSH2 0x27A JUMPI PUSH1 0x6 SLOAD PUSH1 0x40 MLOAD PUSH1 0x1 PUSH1 0x1 PUSH1 0xA0 SHL SUB SWAP1 SWAP2 AND DUP2 MSTORE PUSH1 0x20 SWAP1 RETURN JUMPDEST CALLVALUE PUSH2 0x27A JUMPI PUSH1 0x0 CALLDATASIZE PUSH1 0x3 NOT ADD SLT PUSH2 0x27A JUMPI PUSH2 0x142C PUSH2 0x2D72 JUMP JUMPDEST PUSH1 0x8 SLOAD PUSH1 0xFF DUP2 AND PUSH2 0x149B JUMPI PUSH1 0x1 SWAP1 PUSH1 0xFF NOT AND OR PUSH1 0x8 SSTORE PUSH32 0x62E78CEA01BEE320CD4E420270B5EA74000D11B0C9F74754EBDBFC544B05A258 PUSH1 0x20 PUSH1 0x40 MLOAD CALLER DUP2 MSTORE LOG1 PUSH1 0x40 MLOAD PUSH1 0x1 DUP2 MSTORE PUSH32 0xACAF4EE8E6A4949CA96787D73DFFF5165FF2C555B2304B8517DC5396053ADD85 PUSH1 0x20 CALLER SWAP3 LOG2 STOP JUMPDEST PUSH1 0x40 MLOAD PUSH3 0x461BCD PUSH1 0xE5 SHL DUP2 MSTORE PUSH1 0x20 PUSH1 0x4 DUP3 ADD MSTORE PUSH1 0x10 PUSH1 0x24 DUP3 ADD MSTORE PUSH16 0x14185D5CD8589B194E881C185D5CD959 PUSH1 0x82 SHL PUSH1 0x44 DUP3 ADD MSTORE PUSH1 0x64 SWAP1 REVERT JUMPDEST CALLVALUE PUSH2 0x27A JUMPI PUSH1 0x20 CALLDATASIZE PUSH1 0x3 NOT ADD SLT PUSH2 0x27A JUMPI PUSH1 0x20 PUSH2 0x1303 PUSH1 0x4 CALLDATALOAD DUP1 PUSH1 0x0 MSTORE PUSH1 0xA DUP4 MSTORE PUSH2 0x1504 PUSH1 0x40 PUSH1 0x0 KECCAK256 SLOAD ISZERO ISZERO PUSH2 0x3495 JUMP JUMPDEST PUSH2 0x3655 JUMP JUMPDEST CALLVALUE PUSH2 0x27A JUMPI PUSH1 0x0 CALLDATASIZE PUSH1 0x3 NOT ADD SLT PUSH2 0x27A JUMPI PUSH1 0x20 PUSH1 0x40 MLOAD PUSH1 0x28 DUP2 MSTORE RETURN JUMPDEST CALLVALUE PUSH2 0x27A JUMPI PUSH1 0x20 CALLDATASIZE PUSH1 0x3 NOT ADD SLT PUSH2 0x27A JUMPI PUSH1 0x1 PUSH1 0x1 PUSH1 0xA0 SHL SUB PUSH2 0x1546 PUSH2 0x2AA3 JUMP JUMPDEST AND PUSH1 0x0 MSTORE PUSH1 0xF PUSH1 0x20 MSTORE PUSH1 0x20 PUSH1 0x40 PUSH1 0x0 KECCAK256 SLOAD PUSH1 0x40 MLOAD SWAP1 DUP2 MSTORE RETURN JUMPDEST CALLVALUE PUSH2 0x27A JUMPI PUSH1 0x0 CALLDATASIZE PUSH1 0x3 NOT ADD SLT PUSH2 0x27A JUMPI PUSH2 0x1578 PUSH2 0x2D72 JUMP JUMPDEST PUSH1 0x6 DUP1 SLOAD PUSH1 0x1 PUSH1 0x1 PUSH1 0xA0 SHL SUB NOT DUP2 AND SWAP1 SWAP2 SSTORE PUSH1 0x0 SWAP1 PUSH1 0x1 PUSH1 0x1 PUSH1 0xA0 SHL SUB AND PUSH32 0x8BE0079C531659141344CD1FD0A4F28419497F9722A3DAAFE3B4186F6B6457E0 DUP3 DUP1 LOG3 STOP JUMPDEST CALLVALUE PUSH2 0x27A JUMPI PUSH1 0x20 CALLDATASIZE PUSH1 0x3 NOT ADD SLT PUSH2 0x27A JUMPI PUSH1 0x1 PUSH1 0x1 PUSH1 0xA0 SHL SUB PUSH2 0x15DD PUSH2 0x2AA3 JUMP JUMPDEST AND DUP1 ISZERO PUSH2 0x15FC JUMPI PUSH1 0x0 MSTORE PUSH1 0x3 PUSH1 0x20 MSTORE PUSH1 0x20 PUSH1 0x40 PUSH1 0x0 KECCAK256 SLOAD PUSH1 0x40 MLOAD SWAP1 DUP2 MSTORE RETURN JUMPDEST PUSH1 0x40 MLOAD PUSH3 0x461BCD PUSH1 0xE5 SHL DUP2 MSTORE PUSH1 0x20 PUSH1 0x4 DUP3 ADD MSTORE PUSH1 0x29 PUSH1 0x24 DUP3 ADD MSTORE PUSH32 0x4552433732313A2061646472657373207A65726F206973206E6F742061207661 PUSH1 0x44 DUP3 ADD MSTORE PUSH9 0x3634B21037BBB732B9 PUSH1 0xB9 SHL PUSH1 0x64 DUP3 ADD MSTORE PUSH1 0x84 SWAP1 REVERT JUMPDEST CALLVALUE PUSH2 0x27A JUMPI PUSH1 0x0 CALLDATASIZE PUSH1 0x3 NOT ADD SLT PUSH2 0x27A JUMPI PUSH1 0x8 DUP1 SLOAD PUSH1 0x40 MLOAD PUSH4 0x70A08231 PUSH1 0xE0 SHL DUP2 MSTORE ADDRESS PUSH1 0x4 DUP3 ADD MSTORE SWAP2 PUSH1 0x20 SWAP2 DUP4 SWAP2 PUSH1 0x24 SWAP2 DUP4 SWAP2 SHR PUSH1 0x1 PUSH1 0x1 PUSH1 0xA0 SHL SUB AND GAS STATICCALL DUP1 ISZERO PUSH2 0xC3B JUMPI PUSH1 0x0 SWAP1 PUSH2 0x16AB JUMPI JUMPDEST PUSH1 0x20 SWAP1 PUSH1 0x40 MLOAD SWAP1 DUP2 MSTORE RETURN JUMPDEST POP PUSH1 0x20 DUP2 RETURNDATASIZE DUP3 GT PUSH2 0x16D5 JUMPI JUMPDEST DUP2 PUSH2 0x16C4 PUSH1 0x20 SWAP4 DUP4 PUSH2 0x2B64 JUMP JUMPDEST DUP2 ADD SUB SLT PUSH2 0x27A JUMPI PUSH1 0x20 SWAP1 MLOAD PUSH2 0x16A0 JUMP JUMPDEST RETURNDATASIZE SWAP2 POP PUSH2 0x16B7 JUMP JUMPDEST PUSH2 0x2C2C JUMP JUMPDEST CALLVALUE PUSH2 0x27A JUMPI PUSH1 0x20 CALLDATASIZE PUSH1 0x3 NOT ADD SLT PUSH2 0x27A JUMPI PUSH2 0x16FB PUSH2 0x2AA3 JUMP JUMPDEST PUSH2 0x1703 PUSH2 0x2D72 JUMP JUMPDEST PUSH1 0x1 PUSH1 0x1 PUSH1 0xA0 SHL SUB DUP2 AND ISZERO PUSH2 0x1736 JUMPI PUSH1 0x8 DUP1 SLOAD PUSH2 0x100 PUSH1 0x1 PUSH1 0xA8 SHL SUB NOT AND SWAP2 DUP2 SHL PUSH2 0x100 PUSH1 0x1 PUSH1 0xA8 SHL SUB AND SWAP2 SWAP1 SWAP2 OR SWAP1 SSTORE STOP JUMPDEST PUSH1 0x40 MLOAD PUSH3 0x461BCD PUSH1 0xE5 SHL DUP2 MSTORE PUSH1 0x20 PUSH1 0x4 DUP3 ADD MSTORE PUSH1 0x14 PUSH1 0x24 DUP3 ADD MSTORE PUSH20 0x496E76616C696420555344542061646472657373 PUSH1 0x60 SHL PUSH1 0x44 DUP3 ADD MSTORE PUSH1 0x64 SWAP1 REVERT JUMPDEST CALLVALUE PUSH2 0x27A JUMPI PUSH1 0x20 CALLDATASIZE PUSH1 0x3 NOT ADD SLT PUSH2 0x27A JUMPI PUSH1 0x20 PUSH2 0x1790 PUSH1 0x4 CALLDATALOAD PUSH2 0x2E16 JUMP JUMPDEST PUSH1 0x40 MLOAD PUSH1 0x1 PUSH1 0x1 PUSH1 0xA0 SHL SUB SWAP1 SWAP2 AND DUP2 MSTORE RETURN JUMPDEST CALLVALUE PUSH2 0x27A JUMPI PUSH1 0x0 CALLDATASIZE PUSH1 0x3 NOT ADD SLT PUSH2 0x27A JUMPI PUSH1 0x20 PUSH1 0x40 MLOAD PUSH1 0x6E DUP2 MSTORE RETURN JUMPDEST CALLVALUE PUSH2 0x27A JUMPI PUSH1 0x0 CALLDATASIZE PUSH1 0x3 NOT ADD SLT PUSH2 0x27A JUMPI PUSH1 0x20 PUSH1 0xFF PUSH1 0x8 SLOAD AND PUSH1 0x40 MLOAD SWAP1 ISZERO ISZERO DUP2 MSTORE RETURN JUMPDEST CALLVALUE PUSH2 0x27A JUMPI PUSH1 0x0 CALLDATASIZE PUSH1 0x3 NOT ADD SLT PUSH2 0x27A JUMPI PUSH1 0x20 PUSH1 0x40 MLOAD PUSH2 0x320 DUP2 MSTORE RETURN JUMPDEST CALLVALUE PUSH2 0x27A JUMPI PUSH1 0x20 DUP1 PUSH1 0x3 NOT CALLDATASIZE ADD SLT PUSH2 0x27A JUMPI PUSH1 0x4 CALLDATALOAD PUSH2 0x181B PUSH2 0x33D9 JUMP JUMPDEST PUSH1 0x8 SLOAD SWAP1 PUSH2 0x182C PUSH1 0xFF DUP4 AND ISZERO PUSH2 0x32E8 JUMP JUMPDEST DUP1 PUSH1 0x0 MSTORE PUSH1 0xA DUP4 MSTORE PUSH2 0x1844 PUSH1 0x40 PUSH1 0x0 KECCAK256 SLOAD ISZERO ISZERO PUSH2 0x3495 JUMP JUMPDEST DUP1 PUSH1 0x0 MSTORE PUSH1 0xA DUP4 MSTORE PUSH1 0x1 DUP1 PUSH1 0xA0 SHL SUB SWAP3 PUSH2 0x1869 DUP5 PUSH1 0x8 PUSH1 0x40 PUSH1 0x0 KECCAK256 ADD SLOAD AND CALLER EQ PUSH2 0x34E1 JUMP JUMPDEST DUP2 PUSH1 0x0 MSTORE PUSH1 0xA DUP2 MSTORE PUSH1 0x40 PUSH1 0x0 KECCAK256 PUSH1 0x8 DUP2 ADD SWAP5 PUSH1 0xFF DUP7 SLOAD PUSH2 0x188D DUP3 DUP3 PUSH1 0xA0 SHR AND PUSH2 0x3522 JUMP JUMPDEST PUSH1 0xA8 SHR AND PUSH2 0x1D43 JUMPI PUSH1 0x4 DUP3 ADD SLOAD SWAP5 PUSH1 0x8 SHR AND SWAP5 PUSH1 0x40 MLOAD SWAP6 PUSH4 0x70A08231 PUSH1 0xE0 SHL DUP8 MSTORE CALLER PUSH1 0x4 DUP9 ADD MSTORE PUSH1 0x24 SWAP7 DUP5 DUP2 DUP10 DUP2 DUP6 GAS STATICCALL SWAP1 DUP2 ISZERO PUSH2 0xC3B JUMPI PUSH1 0x0 SWAP2 PUSH2 0x1D16 JUMPI JUMPDEST POP PUSH1 0x40 MLOAD PUSH4 0x6EB1769F PUSH1 0xE1 SHL DUP2 MSTORE CALLER PUSH1 0x4 DUP3 ADD MSTORE ADDRESS PUSH1 0x24 DUP3 ADD MSTORE DUP6 DUP2 PUSH1 0x44 DUP2 DUP7 GAS STATICCALL DUP1 ISZERO PUSH2 0xC3B JUMPI DUP9 SWAP2 PUSH1 0x0 SWAP2 PUSH2 0x1CE3 JUMPI JUMPDEST POP PUSH2 0x190F DUP3 PUSH2 0x1916 SWAP5 LT ISZERO PUSH2 0x3329 JUMP JUMPDEST LT ISZERO PUSH2 0x3375 JUMP JUMPDEST PUSH1 0x40 MLOAD PUSH4 0x23B872DD PUSH1 0xE0 SHL DUP2 MSTORE CALLER PUSH1 0x4 DUP3 ADD MSTORE ADDRESS PUSH1 0x24 DUP3 ADD MSTORE PUSH1 0x44 DUP2 ADD DUP8 SWAP1 MSTORE SWAP1 DUP5 SWAP1 DUP3 SWAP1 PUSH1 0x64 SWAP1 DUP3 SWAP1 PUSH1 0x0 SWAP1 GAS CALL SWAP1 DUP2 ISZERO PUSH2 0xC3B JUMPI PUSH1 0x0 SWAP2 PUSH2 0x1CC6 JUMPI JUMPDEST POP ISZERO PUSH2 0x1C82 JUMPI PUSH1 0xA DUP3 ADD SWAP1 PUSH1 0x1E PUSH3 0x15180 PUSH2 0x1970 DUP5 SLOAD TIMESTAMP PUSH2 0x3488 JUMP JUMPDEST DIV GT SWAP3 DUP4 ISZERO PUSH2 0x1C72 JUMPI PUSH1 0x9 DUP2 ADD SWAP2 DUP3 SLOAD SWAP1 PUSH1 0x1 DUP3 ADD DUP1 SWAP3 GT PUSH2 0x1C5D JUMPI DUP2 PUSH1 0xB SWAP5 SSTORE PUSH1 0x4 DUP3 LT ISZERO PUSH2 0x1C15 JUMPI JUMPDEST POP POP JUMPDEST ADD PUSH2 0x19AA DUP7 DUP3 SLOAD PUSH2 0x347B JUMP JUMPDEST SWAP1 SSTORE TIMESTAMP SWAP1 SSTORE DUP3 PUSH1 0x0 MSTORE PUSH1 0xB DUP3 MSTORE PUSH1 0x40 PUSH1 0x0 KECCAK256 SLOAD SWAP1 PUSH1 0x1 SWAP6 DUP7 DUP4 ADD DUP1 SWAP4 GT PUSH2 0x1C01 JUMPI PUSH1 0x40 MLOAD PUSH2 0x19D7 DUP2 PUSH2 0x2B2C JUMP JUMPDEST DUP7 DUP2 MSTORE DUP5 DUP2 ADD SWAP3 TIMESTAMP DUP5 MSTORE PUSH1 0x40 DUP3 ADD SWAP5 DUP6 MSTORE PUSH1 0x60 DUP3 ADD SWAP1 DUP2 MSTORE PUSH1 0x40 MLOAD SWAP4 PUSH2 0x19FC DUP6 PUSH2 0x2B48 JUMP JUMPDEST PUSH1 0x0 DUP6 MSTORE PUSH1 0x80 DUP4 ADD SWAP5 DUP6 MSTORE DUP8 PUSH1 0x0 MSTORE PUSH1 0xB DUP8 MSTORE PUSH1 0x40 PUSH1 0x0 KECCAK256 DUP1 SLOAD SWAP1 PUSH1 0x1 PUSH1 0x40 SHL DUP3 LT ISZERO PUSH2 0x1BEC JUMPI SWAP1 PUSH2 0x1A32 SWAP2 DUP13 DUP3 ADD DUP2 SSTORE PUSH2 0x2C48 JUMP JUMPDEST SWAP4 SWAP1 SWAP4 PUSH2 0x1BD7 JUMPI SWAP2 PUSH2 0x1A69 SWAP2 PUSH1 0x4 SWAP5 SWAP4 MLOAD DUP5 SSTORE MLOAD DUP12 DUP5 ADD SSTORE DUP7 MLOAD PUSH1 0x2 DUP5 ADD SSTORE MLOAD ISZERO ISZERO PUSH1 0x3 DUP4 ADD SWAP1 PUSH1 0xFF DUP1 NOT DUP4 SLOAD AND SWAP2 ISZERO ISZERO AND OR SWAP1 SSTORE JUMP JUMPDEST ADD SWAP2 MLOAD DUP1 MLOAD SWAP2 PUSH8 0xFFFFFFFFFFFFFFFF DUP4 GT PUSH2 0x1BC3 JUMPI POP DUP2 SWAP1 PUSH2 0x1A8B DUP5 SLOAD PUSH2 0x2C7A JUMP JUMPDEST PUSH1 0x1F DUP2 GT PUSH2 0x1B70 JUMPI JUMPDEST POP DUP6 SWAP1 PUSH1 0x1F DUP4 GT PUSH1 0x1 EQ PUSH2 0x1B0D JUMPI PUSH1 0x0 SWAP3 PUSH2 0x1B02 JUMPI JUMPDEST POP POP PUSH1 0x0 NOT PUSH1 0x3 DUP4 SWAP1 SHL SHR NOT AND SWAP1 DUP8 SHL OR SWAP1 SSTORE JUMPDEST MLOAD SWAP1 PUSH1 0x40 MLOAD SWAP4 DUP5 MSTORE DUP4 ADD MSTORE PUSH1 0x60 PUSH1 0x40 DUP4 ADD MSTORE PUSH1 0x0 PUSH1 0x60 DUP4 ADD MSTORE PUSH32 0x9868DCE488CF2D8E9D82766C017F0E0E31D38F4DDE736CA4CD6C365E2A243250 PUSH1 0x80 CALLER SWAP4 LOG3 PUSH1 0x7 SSTORE STOP JUMPDEST ADD MLOAD SWAP1 POP DUP9 DUP1 PUSH2 0x1AAA JUMP JUMPDEST SWAP1 DUP10 SWAP4 POP PUSH1 0x1F NOT DUP4 AND SWAP2 DUP6 PUSH1 0x0 MSTORE DUP8 PUSH1 0x0 KECCAK256 SWAP3 PUSH1 0x0 JUMPDEST DUP10 DUP3 DUP3 LT PUSH2 0x1B5A JUMPI POP POP DUP5 GT PUSH2 0x1B41 JUMPI JUMPDEST POP POP POP DUP2 SHL ADD SWAP1 SSTORE PUSH2 0x1ABE JUMP JUMPDEST ADD MLOAD PUSH1 0x0 NOT PUSH1 0xF8 DUP5 PUSH1 0x3 SHL AND SHR NOT AND SWAP1 SSTORE DUP9 DUP1 DUP1 PUSH2 0x1B34 JUMP JUMPDEST DUP4 DUP6 ADD MLOAD DUP7 SSTORE DUP14 SWAP8 SWAP1 SWAP6 ADD SWAP5 SWAP4 DUP5 ADD SWAP4 ADD PUSH2 0x1B23 JUMP JUMPDEST SWAP1 SWAP2 POP DUP4 PUSH1 0x0 MSTORE DUP6 PUSH1 0x0 KECCAK256 PUSH1 0x1F DUP5 ADD PUSH1 0x5 SHR DUP2 ADD SWAP2 DUP8 DUP6 LT PUSH2 0x1BB9 JUMPI JUMPDEST DUP5 SWAP4 SWAP3 SWAP2 PUSH1 0x1F DUP13 SWAP3 ADD PUSH1 0x5 SHR ADD SWAP2 JUMPDEST DUP3 DUP2 LT PUSH2 0x1BAA JUMPI POP POP PUSH2 0x1A94 JUMP JUMPDEST PUSH1 0x0 DUP2 SSTORE DUP6 SWAP5 POP DUP12 SWAP2 ADD PUSH2 0x1B9C JUMP JUMPDEST SWAP1 SWAP2 POP DUP2 SWAP1 PUSH2 0x1B8D JUMP JUMPDEST PUSH4 0x4E487B71 PUSH1 0xE0 SHL PUSH1 0x0 SWAP1 DUP2 MSTORE PUSH1 0x41 PUSH1 0x4 MSTORE REVERT JUMPDEST DUP5 PUSH4 0x4E487B71 PUSH1 0xE0 SHL PUSH1 0x0 MSTORE PUSH1 0x0 PUSH1 0x4 MSTORE PUSH1 0x0 REVERT JUMPDEST DUP6 PUSH4 0x4E487B71 PUSH1 0xE0 SHL PUSH1 0x0 MSTORE PUSH1 0x41 PUSH1 0x4 MSTORE PUSH1 0x0 REVERT JUMPDEST PUSH4 0x4E487B71 PUSH1 0xE0 SHL PUSH1 0x0 SWAP1 DUP2 MSTORE PUSH1 0x11 PUSH1 0x4 MSTORE REVERT JUMPDEST DUP1 SLOAD PUSH2 0xFFFF PUSH1 0xA0 SHL NOT AND PUSH1 0x1 PUSH1 0xA8 SHL OR SWAP1 SSTORE PUSH1 0x40 MLOAD SWAP1 DUP2 MSTORE CALLER SWAP1 DUP8 SWAP1 PUSH32 0x93F08C6F9A597DDF1FD4E0D26774B24AE464708125111D06E23DFF485FDB1D98 SWAP1 DUP9 SWAP1 LOG3 DUP9 DUP1 PUSH2 0x199B JUMP JUMPDEST DUP10 PUSH4 0x4E487B71 PUSH1 0xE0 SHL PUSH1 0x0 MSTORE PUSH1 0x11 PUSH1 0x4 MSTORE PUSH1 0x0 REVERT JUMPDEST PUSH1 0xB SWAP2 POP PUSH1 0x0 PUSH1 0x9 DUP3 ADD SSTORE PUSH2 0x199E JUMP JUMPDEST PUSH1 0x40 MLOAD PUSH3 0x461BCD PUSH1 0xE5 SHL DUP2 MSTORE PUSH1 0x4 DUP2 ADD DUP5 SWAP1 MSTORE PUSH1 0x17 DUP2 DUP9 ADD MSTORE PUSH32 0x5061796D656E74207472616E73666572206661696C6564000000000000000000 PUSH1 0x44 DUP3 ADD MSTORE PUSH1 0x64 SWAP1 REVERT JUMPDEST PUSH2 0x1CDD SWAP2 POP DUP5 RETURNDATASIZE DUP7 GT PUSH2 0xC34 JUMPI PUSH2 0xC26 DUP2 DUP4 PUSH2 0x2B64 JUMP JUMPDEST DUP8 PUSH2 0x1954 JUMP JUMPDEST DUP1 SWAP3 POP DUP8 DUP1 SWAP3 POP RETURNDATASIZE DUP4 GT PUSH2 0x1D0F JUMPI JUMPDEST PUSH2 0x1CFC DUP2 DUP4 PUSH2 0x2B64 JUMP JUMPDEST DUP2 ADD SUB SLT PUSH2 0x27A JUMPI MLOAD DUP8 SWAP1 PUSH2 0x190F PUSH2 0x18FF JUMP JUMPDEST POP RETURNDATASIZE PUSH2 0x1CF2 JUMP JUMPDEST SWAP1 POP DUP5 DUP2 DUP2 RETURNDATASIZE DUP4 GT PUSH2 0x1D3C JUMPI JUMPDEST PUSH2 0x1D2D DUP2 DUP4 PUSH2 0x2B64 JUMP JUMPDEST DUP2 ADD SUB SLT PUSH2 0x27A JUMPI MLOAD DUP9 PUSH2 0x18CD JUMP JUMPDEST POP RETURNDATASIZE PUSH2 0x1D23 JUMP JUMPDEST PUSH1 0x40 MLOAD PUSH3 0x461BCD PUSH1 0xE5 SHL DUP2 MSTORE PUSH1 0x4 DUP2 ADD DUP5 SWAP1 MSTORE PUSH1 0x16 PUSH1 0x24 DUP3 ADD MSTORE PUSH22 0x141C9BDC195C9D1E481A5CC81A5B88191959985D5B1D PUSH1 0x52 SHL PUSH1 0x44 DUP3 ADD MSTORE PUSH1 0x64 SWAP1 REVERT JUMPDEST CALLVALUE PUSH2 0x27A JUMPI PUSH1 0x40 CALLDATASIZE PUSH1 0x3 NOT ADD SLT PUSH2 0x27A JUMPI PUSH2 0x1D9A PUSH2 0x2AA3 JUMP JUMPDEST PUSH1 0x24 CALLDATALOAD SWAP1 PUSH2 0x1DA6 PUSH2 0x2D72 JUMP JUMPDEST PUSH1 0x1 PUSH1 0x1 PUSH1 0xA0 SHL SUB AND SWAP1 DUP2 ISZERO PUSH2 0x1E67 JUMPI PUSH4 0x1DCD6500 DUP2 LT PUSH2 0x1E17 JUMPI PUSH1 0x40 PUSH32 0x30EC77E4620DA0F85CACE6445697FEA0D6F18C5AA41DC3E8B70930F9C976CD7D SWAP2 DUP4 PUSH1 0x0 MSTORE PUSH1 0xE PUSH1 0x20 MSTORE DUP2 PUSH1 0x0 KECCAK256 PUSH1 0x1 PUSH1 0xFF NOT DUP3 SLOAD AND OR SWAP1 SSTORE PUSH1 0xF PUSH1 0x20 MSTORE DUP1 DUP3 PUSH1 0x0 KECCAK256 SSTORE DUP2 MLOAD SWAP1 PUSH1 0x1 DUP3 MSTORE PUSH1 0x20 DUP3 ADD MSTORE LOG2 STOP JUMPDEST PUSH1 0x40 MLOAD PUSH3 0x461BCD PUSH1 0xE5 SHL DUP2 MSTORE PUSH1 0x20 PUSH1 0x4 DUP3 ADD MSTORE PUSH1 0x22 PUSH1 0x24 DUP3 ADD MSTORE PUSH32 0x4D696E696D756D2024353030205553445420726571756972656420666F72204B PUSH1 0x44 DUP3 ADD MSTORE PUSH2 0x5943 PUSH1 0xF0 SHL PUSH1 0x64 DUP3 ADD MSTORE PUSH1 0x84 SWAP1 REVERT JUMPDEST PUSH1 0x40 MLOAD PUSH3 0x461BCD PUSH1 0xE5 SHL DUP2 MSTORE PUSH1 0x20 PUSH1 0x4 DUP3 ADD MSTORE PUSH1 0x14 PUSH1 0x24 DUP3 ADD MSTORE PUSH20 0x496E76616C696420757365722061646472657373 PUSH1 0x60 SHL PUSH1 0x44 DUP3 ADD MSTORE PUSH1 0x64 SWAP1 REVERT JUMPDEST CALLVALUE PUSH2 0x27A JUMPI PUSH1 0x20 DUP1 PUSH1 0x3 NOT CALLDATASIZE ADD SLT PUSH2 0x27A JUMPI PUSH1 0x4 CALLDATALOAD DUP1 PUSH1 0x0 MSTORE PUSH1 0xA DUP3 MSTORE PUSH2 0x1ED0 PUSH1 0x40 PUSH1 0x0 KECCAK256 SLOAD ISZERO ISZERO PUSH2 0x3495 JUMP JUMPDEST PUSH1 0x0 MSTORE PUSH1 0xB DUP2 MSTORE PUSH1 0x40 PUSH1 0x0 KECCAK256 SWAP1 DUP2 SLOAD SWAP2 PUSH8 0xFFFFFFFFFFFFFFFF DUP4 GT PUSH2 0xA4F JUMPI PUSH1 0x40 MLOAD SWAP2 PUSH1 0x5 SWAP4 PUSH2 0x1F04 DUP3 DUP3 DUP8 SHL ADD DUP6 PUSH2 0x2B64 JUMP JUMPDEST DUP1 DUP5 MSTORE DUP2 DUP5 ADD DUP1 SWAP4 PUSH1 0x0 MSTORE DUP3 PUSH1 0x0 KECCAK256 DUP7 PUSH1 0x0 SWAP3 JUMPDEST DUP5 DUP5 LT PUSH2 0x1FAF JUMPI POP POP POP POP POP PUSH1 0x40 MLOAD SWAP3 DUP2 DUP5 ADD SWAP1 DUP3 DUP6 MSTORE MLOAD DUP1 SWAP2 MSTORE PUSH1 0x40 DUP2 DUP2 DUP7 ADD SWAP7 SHL DUP6 ADD ADD SWAP3 SWAP2 PUSH1 0x0 SWAP6 JUMPDEST DUP3 DUP8 LT PUSH2 0x1F51 JUMPI DUP6 DUP6 SUB DUP7 RETURN JUMPDEST SWAP1 SWAP2 SWAP3 SWAP4 DUP3 DUP1 PUSH2 0x1F9F PUSH1 0x1 SWAP4 PUSH1 0x3F NOT DUP11 DUP3 SUB ADD DUP7 MSTORE DUP9 MLOAD DUP1 MLOAD DUP3 MSTORE DUP4 DUP2 ADD MLOAD DUP5 DUP4 ADD MSTORE PUSH1 0x40 DUP2 ADD MLOAD PUSH1 0x40 DUP4 ADD MSTORE PUSH1 0x60 DUP1 DUP3 ADD MLOAD ISZERO ISZERO SWAP1 DUP4 ADD MSTORE PUSH1 0x80 DUP1 SWAP2 ADD MLOAD SWAP2 PUSH1 0xA0 DUP1 SWAP3 DUP3 ADD MSTORE ADD SWAP1 PUSH2 0x2ACF JUMP JUMPDEST SWAP7 ADD SWAP3 ADD SWAP7 ADD SWAP6 SWAP3 SWAP2 SWAP1 SWAP3 PUSH2 0x1F44 JUMP JUMPDEST SWAP1 DUP6 PUSH1 0x1 SWAP3 PUSH1 0x40 SWAP10 SWAP8 SWAP10 MLOAD PUSH2 0x1FC3 DUP2 PUSH2 0x2B2C JUMP JUMPDEST DUP6 SLOAD DUP2 MSTORE DUP5 DUP7 ADD SLOAD DUP4 DUP3 ADD MSTORE PUSH1 0x2 DUP7 ADD SLOAD PUSH1 0x40 DUP3 ADD MSTORE PUSH1 0xFF PUSH1 0x3 DUP8 ADD SLOAD AND ISZERO ISZERO PUSH1 0x60 DUP3 ADD MSTORE PUSH2 0x1FF4 PUSH1 0x4 DUP8 ADD PUSH2 0x2CB4 JUMP JUMPDEST PUSH1 0x80 DUP3 ADD MSTORE DUP2 MSTORE ADD SWAP3 ADD SWAP3 ADD SWAP2 SWAP1 DUP8 SWAP1 SWAP7 SWAP5 SWAP7 PUSH2 0x1F18 JUMP JUMPDEST CALLVALUE PUSH2 0x27A JUMPI PUSH1 0x0 CALLDATASIZE PUSH1 0x3 NOT ADD SLT PUSH2 0x27A JUMPI PUSH1 0x20 PUSH1 0x40 MLOAD PUSH1 0x4 DUP2 MSTORE RETURN JUMPDEST CALLVALUE PUSH2 0x27A JUMPI PUSH2 0x10F7 PUSH2 0x2039 CALLDATASIZE PUSH2 0x2BF7 JUMP JUMPDEST SWAP1 PUSH1 0x40 MLOAD SWAP3 PUSH2 0x2047 DUP5 PUSH2 0x2B48 JUMP JUMPDEST PUSH1 0x0 DUP5 MSTORE PUSH2 0x2ED9 JUMP JUMPDEST CALLVALUE PUSH2 0x27A JUMPI PUSH1 0x0 CALLDATASIZE PUSH1 0x3 NOT ADD SLT PUSH2 0x27A JUMPI PUSH2 0x2069 PUSH2 0x2D72 JUMP JUMPDEST PUSH1 0x8 SLOAD PUSH1 0xFF DUP2 AND ISZERO PUSH2 0x20D5 JUMPI PUSH1 0xFF NOT AND PUSH1 0x8 SSTORE PUSH32 0x5DB9EE0A495BF2E6FF9C91A7834C1BA4FDD244A5E8AA4E537BD38AEAE4B073AA PUSH1 0x20 PUSH1 0x40 MLOAD CALLER DUP2 MSTORE LOG1 PUSH1 0x40 MLOAD PUSH1 0x0 DUP2 MSTORE PUSH32 0xACAF4EE8E6A4949CA96787D73DFFF5165FF2C555B2304B8517DC5396053ADD85 PUSH1 0x20 CALLER SWAP3 LOG2 STOP JUMPDEST PUSH1 0x40 MLOAD PUSH3 0x461BCD PUSH1 0xE5 SHL DUP2 MSTORE PUSH1 0x20 PUSH1 0x4 DUP3 ADD MSTORE PUSH1 0x14 PUSH1 0x24 DUP3 ADD MSTORE PUSH20 0x14185D5CD8589B194E881B9BDD081C185D5CD959 PUSH1 0x62 SHL PUSH1 0x44 DUP3 ADD MSTORE PUSH1 0x64 SWAP1 REVERT JUMPDEST CALLVALUE PUSH2 0x27A JUMPI PUSH1 0x20 DUP1 PUSH1 0x3 NOT CALLDATASIZE ADD SLT PUSH2 0x27A JUMPI PUSH1 0x4 CALLDATALOAD PUSH2 0x212E PUSH2 0x2D72 JUMP JUMPDEST DUP1 ISZERO PUSH2 0x2286 JUMPI PUSH1 0x8 DUP1 SLOAD PUSH1 0x40 MLOAD PUSH4 0x70A08231 PUSH1 0xE0 SHL DUP2 MSTORE ADDRESS PUSH1 0x4 DUP3 ADD MSTORE SWAP2 SHR PUSH1 0x1 PUSH1 0x1 PUSH1 0xA0 SHL SUB SWAP1 DUP2 AND SWAP3 SWAP2 DUP5 DUP2 PUSH1 0x24 DUP2 DUP8 GAS STATICCALL DUP1 ISZERO PUSH2 0xC3B JUMPI DUP4 SWAP2 PUSH1 0x0 SWAP2 PUSH2 0x2255 JUMPI JUMPDEST POP LT PUSH2 0x2210 JUMPI SWAP1 PUSH1 0x44 DUP5 SWAP3 PUSH1 0x6 SLOAD AND PUSH1 0x0 PUSH1 0x40 MLOAD SWAP6 DUP7 SWAP5 DUP6 SWAP4 PUSH4 0xA9059CBB PUSH1 0xE0 SHL DUP6 MSTORE PUSH1 0x4 DUP6 ADD MSTORE PUSH1 0x24 DUP5 ADD MSTORE GAS CALL SWAP1 DUP2 ISZERO PUSH2 0xC3B JUMPI PUSH1 0x0 SWAP2 PUSH2 0x21F3 JUMPI JUMPDEST POP ISZERO PUSH2 0x21B8 JUMPI STOP JUMPDEST PUSH1 0x64 SWAP1 PUSH1 0x40 MLOAD SWAP1 PUSH3 0x461BCD PUSH1 0xE5 SHL DUP3 MSTORE PUSH1 0x4 DUP3 ADD MSTORE PUSH1 0x14 PUSH1 0x24 DUP3 ADD MSTORE PUSH20 0x1554D115081D1C985B9CD9995C8819985A5B1959 PUSH1 0x62 SHL PUSH1 0x44 DUP3 ADD MSTORE REVERT JUMPDEST PUSH2 0x220A SWAP2 POP DUP3 RETURNDATASIZE DUP5 GT PUSH2 0xC34 JUMPI PUSH2 0xC26 DUP2 DUP4 PUSH2 0x2B64 JUMP JUMPDEST DUP3 PUSH2 0x21B0 JUMP JUMPDEST PUSH1 0x40 MLOAD PUSH3 0x461BCD PUSH1 0xE5 SHL DUP2 MSTORE PUSH1 0x4 DUP2 ADD DUP6 SWAP1 MSTORE PUSH1 0x1D PUSH1 0x24 DUP3 ADD MSTORE PUSH32 0x496E73756666696369656E7420636F6E74726163742062616C616E6365000000 PUSH1 0x44 DUP3 ADD MSTORE PUSH1 0x64 SWAP1 REVERT JUMPDEST DUP1 SWAP3 POP DUP7 DUP1 SWAP3 POP RETURNDATASIZE DUP4 GT PUSH2 0x227F JUMPI JUMPDEST PUSH2 0x226E DUP2 DUP4 PUSH2 0x2B64 JUMP JUMPDEST DUP2 ADD SUB SLT PUSH2 0x27A JUMPI DUP3 SWAP1 MLOAD DUP7 PUSH2 0x2172 JUMP JUMPDEST POP RETURNDATASIZE PUSH2 0x2264 JUMP JUMPDEST PUSH1 0x40 MLOAD PUSH3 0x461BCD PUSH1 0xE5 SHL DUP2 MSTORE PUSH1 0x4 DUP2 ADD DUP4 SWAP1 MSTORE PUSH1 0x1D PUSH1 0x24 DUP3 ADD MSTORE PUSH32 0x416D6F756E74206D7573742062652067726561746572207468616E2030000000 PUSH1 0x44 DUP3 ADD MSTORE PUSH1 0x64 SWAP1 REVERT JUMPDEST CALLVALUE PUSH2 0x27A JUMPI PUSH2 0x10F7 PUSH2 0x22DC CALLDATASIZE PUSH2 0x2BF7 JUMP JUMPDEST SWAP2 PUSH2 0x22EF PUSH2 0x22EA DUP5 CALLER PUSH2 0x2F74 JUMP JUMPDEST PUSH2 0x2E77 JUMP JUMPDEST PUSH2 0x303C JUMP JUMPDEST CALLVALUE PUSH2 0x27A JUMPI PUSH1 0x40 CALLDATASIZE PUSH1 0x3 NOT ADD SLT PUSH2 0x27A JUMPI PUSH8 0xFFFFFFFFFFFFFFFF PUSH1 0x4 CALLDATALOAD PUSH1 0x24 CALLDATALOAD DUP3 DUP2 GT PUSH2 0x27A JUMPI PUSH2 0x2329 SWAP1 CALLDATASIZE SWAP1 PUSH1 0x4 ADD PUSH2 0x2BD9 JUMP JUMPDEST DUP2 PUSH1 0x0 MSTORE PUSH1 0x20 PUSH1 0xA DUP2 MSTORE PUSH2 0x234E PUSH1 0x1 DUP1 PUSH1 0xA0 SHL SUB PUSH1 0x8 PUSH1 0x40 PUSH1 0x0 KECCAK256 ADD SLOAD AND CALLER EQ PUSH2 0x34E1 JUMP JUMPDEST DUP2 MLOAD ISZERO PUSH2 0x24BE JUMPI DUP3 PUSH1 0x0 MSTORE PUSH1 0xA DUP2 MSTORE PUSH1 0xE PUSH1 0x40 PUSH1 0x0 KECCAK256 ADD DUP3 MLOAD SWAP5 DUP6 GT PUSH2 0xA4F JUMPI PUSH2 0x2378 DUP2 SLOAD PUSH2 0x2C7A JUMP JUMPDEST PUSH1 0x1F DUP2 GT PUSH2 0x2478 JUMPI JUMPDEST POP DUP2 PUSH1 0x1F DUP7 GT PUSH1 0x1 EQ PUSH2 0x23F3 JUMPI SWAP5 DUP1 PUSH32 0xADF717693DA3DCBA2A1307F4398706220F44F15B75640A26B917BF3475155835 SWAP6 SWAP7 PUSH1 0x0 SWAP2 PUSH2 0x23E8 JUMPI JUMPDEST POP DUP2 PUSH1 0x1 SHL SWAP2 PUSH1 0x0 NOT SWAP1 PUSH1 0x3 SHL SHR NOT AND OR SWAP1 SSTORE JUMPDEST PUSH2 0x23E3 PUSH1 0x40 MLOAD SWAP3 DUP3 DUP5 SWAP4 DUP5 MSTORE DUP4 ADD SWAP1 PUSH2 0x2ACF JUMP JUMPDEST SUB SWAP1 LOG2 STOP JUMPDEST SWAP1 POP DUP5 ADD MLOAD DUP8 PUSH2 0x23BB JUMP JUMPDEST PUSH1 0x1F NOT DUP7 AND SWAP1 DUP3 PUSH1 0x0 MSTORE DUP4 PUSH1 0x0 KECCAK256 SWAP2 PUSH1 0x0 JUMPDEST DUP2 DUP2 LT PUSH2 0x2461 JUMPI POP SWAP2 DUP8 SWAP2 PUSH32 0xADF717693DA3DCBA2A1307F4398706220F44F15B75640A26B917BF3475155835 SWAP8 SWAP9 PUSH1 0x1 SWAP5 LT PUSH2 0x2448 JUMPI JUMPDEST POP POP DUP2 SHL ADD SWAP1 SSTORE PUSH2 0x23CF JUMP JUMPDEST DUP7 ADD MLOAD PUSH1 0x0 NOT PUSH1 0xF8 DUP5 PUSH1 0x3 SHL AND SHR NOT AND SWAP1 SSTORE DUP8 DUP1 PUSH2 0x243C JUMP JUMPDEST SWAP2 SWAP3 DUP6 PUSH1 0x1 DUP2 SWAP3 DUP7 DUP11 ADD MLOAD DUP2 SSTORE ADD SWAP5 ADD SWAP3 ADD PUSH2 0x2405 JUMP JUMPDEST DUP2 PUSH1 0x0 MSTORE DUP3 PUSH1 0x0 KECCAK256 PUSH1 0x1F DUP8 ADD PUSH1 0x5 SHR DUP2 ADD SWAP2 DUP5 DUP9 LT PUSH2 0x24B4 JUMPI JUMPDEST PUSH1 0x1F ADD PUSH1 0x5 SHR ADD SWAP1 JUMPDEST DUP2 DUP2 LT PUSH2 0x24A8 JUMPI POP PUSH2 0x2381 JUMP JUMPDEST PUSH1 0x0 DUP2 SSTORE PUSH1 0x1 ADD PUSH2 0x249B JUMP JUMPDEST SWAP1 SWAP2 POP DUP2 SWAP1 PUSH2 0x2492 JUMP JUMPDEST PUSH1 0x64 SWAP1 PUSH1 0x40 MLOAD SWAP1 PUSH3 0x461BCD PUSH1 0xE5 SHL DUP3 MSTORE PUSH1 0x4 DUP3 ADD MSTORE PUSH1 0x18 PUSH1 0x24 DUP3 ADD MSTORE PUSH32 0x4D657461646174612063616E6E6F7420626520656D7074790000000000000000 PUSH1 0x44 DUP3 ADD MSTORE REVERT JUMPDEST CALLVALUE PUSH2 0x27A JUMPI PUSH1 0x0 CALLDATASIZE PUSH1 0x3 NOT ADD SLT PUSH2 0x27A JUMPI PUSH1 0x20 PUSH1 0x9 SLOAD PUSH1 0x40 MLOAD SWAP1 DUP2 MSTORE RETURN JUMPDEST CALLVALUE PUSH2 0x27A JUMPI PUSH1 0x0 CALLDATASIZE PUSH1 0x3 NOT ADD SLT PUSH2 0x27A JUMPI PUSH1 0x20 PUSH1 0x40 MLOAD PUSH1 0x32 DUP2 MSTORE RETURN JUMPDEST CALLVALUE PUSH2 0x27A JUMPI PUSH1 0x20 CALLDATASIZE PUSH1 0x3 NOT ADD SLT PUSH2 0x27A JUMPI PUSH1 0x4 CALLDATALOAD PUSH1 0x0 MSTORE PUSH1 0xA PUSH1 0x20 MSTORE PUSH2 0x2568 PUSH1 0x40 PUSH1 0x0 KECCAK256 SLOAD ISZERO ISZERO PUSH2 0x3495 JUMP JUMPDEST PUSH1 0x4 CALLDATALOAD PUSH1 0x0 MSTORE PUSH1 0xA PUSH1 0x20 MSTORE PUSH1 0x40 PUSH1 0x0 KECCAK256 PUSH2 0x2646 PUSH1 0xE PUSH1 0x40 MLOAD SWAP3 PUSH2 0x258A DUP5 PUSH2 0x2B0F JUMP JUMPDEST DUP1 SLOAD DUP5 MSTORE PUSH1 0x1 DUP2 ADD SLOAD PUSH1 0x20 DUP6 ADD MSTORE PUSH1 0x2 DUP2 ADD SLOAD PUSH1 0x40 DUP6 ADD MSTORE PUSH1 0x3 DUP2 ADD SLOAD PUSH1 0x60 DUP6 ADD MSTORE PUSH1 0x4 DUP2 ADD SLOAD PUSH1 0x80 DUP6 ADD MSTORE PUSH1 0x5 DUP2 ADD SLOAD PUSH1 0xA0 DUP6 ADD MSTORE PUSH1 0x6 DUP2 ADD SLOAD PUSH1 0xC0 DUP6 ADD MSTORE PUSH1 0x7 DUP2 ADD SLOAD PUSH1 0xE0 DUP6 ADD MSTORE PUSH1 0xFF PUSH1 0x8 DUP3 ADD SLOAD PUSH1 0x1 DUP1 PUSH1 0xA0 SHL SUB DUP2 AND PUSH2 0x100 DUP8 ADD MSTORE DUP2 DUP2 PUSH1 0xA0 SHR AND ISZERO ISZERO PUSH2 0x120 DUP8 ADD MSTORE PUSH1 0xA8 SHR AND ISZERO ISZERO PUSH2 0x140 DUP6 ADD MSTORE PUSH1 0x9 DUP2 ADD SLOAD PUSH2 0x160 DUP6 ADD MSTORE PUSH1 0xA DUP2 ADD SLOAD PUSH2 0x180 DUP6 ADD MSTORE PUSH1 0xB DUP2 ADD SLOAD PUSH2 0x1A0 DUP6 ADD MSTORE PUSH1 0xC DUP2 ADD SLOAD PUSH2 0x1C0 DUP6 ADD MSTORE PUSH1 0xFF PUSH1 0xD DUP3 ADD SLOAD AND ISZERO ISZERO PUSH2 0x1E0 DUP6 ADD MSTORE ADD PUSH2 0x2CB4 JUMP JUMPDEST PUSH2 0x200 DUP3 ADD MSTORE PUSH1 0x20 DUP2 ADD MLOAD PUSH1 0x40 DUP3 ADD MLOAD SWAP2 PUSH1 0x60 DUP2 ADD MLOAD PUSH1 0x80 DUP3 ADD MLOAD PUSH1 0x1 DUP1 PUSH1 0xA0 SHL SUB PUSH2 0x100 DUP5 ADD MLOAD AND PUSH2 0x120 DUP5 ADD MLOAD ISZERO ISZERO PUSH2 0x140 DUP6 ADD MLOAD ISZERO ISZERO PUSH2 0x160 DUP7 ADD MLOAD SWAP2 PUSH2 0x1A0 DUP8 ADD MLOAD SWAP4 PUSH1 0x40 MLOAD SWAP6 PUSH4 0x3C74A6E9 PUSH1 0xE1 SHL DUP8 MSTORE PUSH1 0x4 CALLDATALOAD PUSH1 0x4 DUP9 ADD MSTORE PUSH1 0x20 DUP8 PUSH1 0x24 DUP2 ADDRESS GAS STATICCALL SWAP7 DUP8 ISZERO PUSH2 0xC3B JUMPI PUSH1 0x0 SWAP8 PUSH2 0x2711 JUMPI JUMPDEST POP PUSH2 0x200 PUSH2 0x38B SWAP10 ADD MLOAD SWAP8 PUSH1 0x40 MLOAD SWAP12 DUP13 SWAP12 DUP13 MSTORE PUSH1 0x20 DUP13 ADD MSTORE PUSH1 0x40 DUP12 ADD MSTORE PUSH1 0x60 DUP11 ADD MSTORE PUSH1 0x80 DUP10 ADD MSTORE PUSH1 0xA0 DUP9 ADD MSTORE PUSH1 0xC0 DUP8 ADD MSTORE PUSH1 0xE0 DUP7 ADD MSTORE PUSH2 0x100 DUP6 ADD MSTORE PUSH2 0x120 DUP5 ADD MSTORE PUSH2 0x160 PUSH2 0x140 DUP5 ADD MSTORE PUSH2 0x160 DUP4 ADD SWAP1 PUSH2 0x2ACF JUMP JUMPDEST SWAP9 SWAP7 POP PUSH1 0x20 DUP10 RETURNDATASIZE PUSH1 0x20 GT PUSH2 0x2741 JUMPI JUMPDEST DUP2 PUSH2 0x272D PUSH1 0x20 SWAP4 DUP4 PUSH2 0x2B64 JUMP JUMPDEST DUP2 ADD SUB SLT PUSH2 0x27A JUMPI SWAP8 MLOAD SWAP6 SWAP8 PUSH2 0x200 PUSH2 0x26BB JUMP JUMPDEST RETURNDATASIZE SWAP2 POP PUSH2 0x2720 JUMP JUMPDEST CALLVALUE PUSH2 0x27A JUMPI PUSH1 0x40 CALLDATASIZE PUSH1 0x3 NOT ADD SLT PUSH2 0x27A JUMPI PUSH2 0x2762 PUSH2 0x2AA3 JUMP JUMPDEST PUSH1 0x24 CALLDATALOAD SWAP1 PUSH1 0x1 PUSH1 0x1 PUSH1 0xA0 SHL SUB DUP1 DUP1 PUSH2 0x2779 DUP6 PUSH2 0x2E16 JUMP JUMPDEST AND SWAP3 AND SWAP2 DUP1 DUP4 EQ PUSH2 0x2874 JUMPI DUP1 CALLER EQ SWAP1 DUP2 ISZERO PUSH2 0x284F JUMPI JUMPDEST POP ISZERO PUSH2 0x27E4 JUMPI PUSH1 0x0 DUP4 DUP2 MSTORE PUSH1 0x4 PUSH1 0x20 MSTORE PUSH1 0x40 SWAP1 KECCAK256 DUP1 SLOAD PUSH1 0x1 PUSH1 0x1 PUSH1 0xA0 SHL SUB NOT AND DUP4 OR SWAP1 SSTORE PUSH2 0x27BC DUP4 PUSH2 0x2E16 JUMP JUMPDEST AND PUSH32 0x8C5BE1E5EBEC7D5BD14F71427D1E84F3DD0314C0F7B2291E5B200AC8C7C3B925 PUSH1 0x0 DUP1 LOG4 STOP JUMPDEST PUSH1 0x40 MLOAD PUSH3 0x461BCD PUSH1 0xE5 SHL DUP2 MSTORE PUSH1 0x20 PUSH1 0x4 DUP3 ADD MSTORE PUSH1 0x3D PUSH1 0x24 DUP3 ADD MSTORE PUSH32 0x4552433732313A20617070726F76652063616C6C6572206973206E6F7420746F PUSH1 0x44 DUP3 ADD MSTORE PUSH32 0x6B656E206F776E6572206F7220617070726F76656420666F7220616C6C000000 PUSH1 0x64 DUP3 ADD MSTORE PUSH1 0x84 SWAP1 REVERT JUMPDEST SWAP1 POP PUSH1 0x0 MSTORE PUSH1 0x5 PUSH1 0x20 MSTORE PUSH1 0x40 PUSH1 0x0 KECCAK256 CALLER PUSH1 0x0 MSTORE PUSH1 0x20 MSTORE PUSH1 0xFF PUSH1 0x40 PUSH1 0x0 KECCAK256 SLOAD AND DUP5 PUSH2 0x278F JUMP JUMPDEST PUSH1 0x40 MLOAD PUSH3 0x461BCD PUSH1 0xE5 SHL DUP2 MSTORE PUSH1 0x20 PUSH1 0x4 DUP3 ADD MSTORE PUSH1 0x21 PUSH1 0x24 DUP3 ADD MSTORE PUSH32 0x4552433732313A20617070726F76616C20746F2063757272656E74206F776E65 PUSH1 0x44 DUP3 ADD MSTORE PUSH1 0x39 PUSH1 0xF9 SHL PUSH1 0x64 DUP3 ADD MSTORE PUSH1 0x84 SWAP1 REVERT JUMPDEST CALLVALUE PUSH2 0x27A JUMPI PUSH1 0x20 CALLDATASIZE PUSH1 0x3 NOT ADD SLT PUSH2 0x27A JUMPI PUSH1 0x20 PUSH2 0x1790 PUSH1 0x4 CALLDATALOAD PUSH2 0x2E39 JUMP JUMPDEST CALLVALUE PUSH2 0x27A JUMPI PUSH1 0x0 CALLDATASIZE PUSH1 0x3 NOT ADD SLT PUSH2 0x27A JUMPI PUSH1 0x40 MLOAD PUSH1 0x0 DUP1 SLOAD PUSH2 0x2902 DUP2 PUSH2 0x2C7A JUMP JUMPDEST DUP1 DUP5 MSTORE SWAP1 PUSH1 0x1 SWAP1 DUP2 DUP2 AND SWAP1 DUP2 ISZERO PUSH2 0x13C3 JUMPI POP PUSH1 0x1 EQ PUSH2 0x292B JUMPI PUSH2 0x38B DUP5 PUSH2 0x1356 DUP2 DUP7 SUB DUP3 PUSH2 0x2B64 JUMP JUMPDEST PUSH1 0x0 DUP1 DUP1 MSTORE SWAP3 POP PUSH32 0x290DECD9548B62A8D60345A988386FC84BA6BC95484008F6362F93160EF3E563 JUMPDEST DUP3 DUP5 LT PUSH2 0x296C JUMPI POP POP POP DUP2 ADD PUSH1 0x20 ADD PUSH2 0x1356 DUP3 PUSH2 0x1346 JUMP JUMPDEST DUP1 SLOAD PUSH1 0x20 DUP6 DUP8 ADD DUP2 ADD SWAP2 SWAP1 SWAP2 MSTORE SWAP1 SWAP4 ADD SWAP3 DUP2 ADD PUSH2 0x2954 JUMP JUMPDEST CALLVALUE PUSH2 0x27A JUMPI PUSH1 0x20 DUP1 PUSH1 0x3 NOT CALLDATASIZE ADD SLT PUSH2 0x27A JUMPI PUSH1 0x1 PUSH1 0x1 PUSH1 0xA0 SHL SUB PUSH2 0x29A6 PUSH2 0x2AA3 JUMP JUMPDEST AND PUSH1 0x0 MSTORE PUSH1 0xC DUP2 MSTORE PUSH1 0x40 PUSH1 0x0 KECCAK256 PUSH1 0x40 MLOAD SWAP1 DUP2 DUP4 DUP3 SLOAD SWAP2 DUP3 DUP2 MSTORE ADD SWAP1 DUP2 SWAP3 PUSH1 0x0 MSTORE DUP5 PUSH1 0x0 KECCAK256 SWAP1 PUSH1 0x0 JUMPDEST DUP7 DUP3 DUP3 LT PUSH2 0x2A24 JUMPI DUP7 DUP7 PUSH2 0x29E4 DUP3 DUP9 SUB DUP4 PUSH2 0x2B64 JUMP JUMPDEST PUSH1 0x40 MLOAD SWAP3 DUP4 SWAP3 DUP2 DUP5 ADD SWAP1 DUP3 DUP6 MSTORE MLOAD DUP1 SWAP2 MSTORE PUSH1 0x40 DUP5 ADD SWAP3 SWAP2 PUSH1 0x0 JUMPDEST DUP3 DUP2 LT PUSH2 0x2A0D JUMPI POP POP POP POP SUB SWAP1 RETURN JUMPDEST DUP4 MLOAD DUP6 MSTORE DUP7 SWAP6 POP SWAP4 DUP2 ADD SWAP4 SWAP3 DUP2 ADD SWAP3 PUSH1 0x1 ADD PUSH2 0x29FE JUMP JUMPDEST DUP4 SLOAD DUP6 MSTORE SWAP1 SWAP4 ADD SWAP3 PUSH1 0x1 SWAP3 DUP4 ADD SWAP3 ADD PUSH2 0x29CE JUMP JUMPDEST CALLVALUE PUSH2 0x27A JUMPI PUSH1 0x20 CALLDATASIZE PUSH1 0x3 NOT ADD SLT PUSH2 0x27A JUMPI PUSH1 0x4 CALLDATALOAD SWAP1 PUSH4 0xFFFFFFFF PUSH1 0xE0 SHL DUP3 AND DUP1 SWAP3 SUB PUSH2 0x27A JUMPI PUSH1 0x20 SWAP2 PUSH4 0x80AC58CD PUSH1 0xE0 SHL DUP2 EQ SWAP1 DUP2 ISZERO PUSH2 0x2A92 JUMPI JUMPDEST DUP2 ISZERO PUSH2 0x2A81 JUMPI JUMPDEST POP ISZERO ISZERO DUP2 MSTORE RETURN JUMPDEST PUSH4 0x1FFC9A7 PUSH1 0xE0 SHL EQ SWAP1 POP DUP4 PUSH2 0x2A7A JUMP JUMPDEST PUSH4 0x5B5E139F PUSH1 0xE0 SHL DUP2 EQ SWAP2 POP PUSH2 0x2A73 JUMP JUMPDEST PUSH1 0x4 CALLDATALOAD SWAP1 PUSH1 0x1 PUSH1 0x1 PUSH1 0xA0 SHL SUB DUP3 AND DUP3 SUB PUSH2 0x27A JUMPI JUMP JUMPDEST PUSH1 0x24 CALLDATALOAD SWAP1 PUSH1 0x1 PUSH1 0x1 PUSH1 0xA0 SHL SUB DUP3 AND DUP3 SUB PUSH2 0x27A JUMPI JUMP JUMPDEST SWAP2 SWAP1 DUP3 MLOAD SWAP3 DUP4 DUP3 MSTORE PUSH1 0x0 JUMPDEST DUP5 DUP2 LT PUSH2 0x2AFB JUMPI POP POP DUP3 PUSH1 0x0 PUSH1 0x20 DUP1 SWAP5 SWAP6 DUP5 ADD ADD MSTORE PUSH1 0x1F DUP1 NOT SWAP2 ADD AND ADD ADD SWAP1 JUMP JUMPDEST PUSH1 0x20 DUP2 DUP4 ADD DUP2 ADD MLOAD DUP5 DUP4 ADD DUP3 ADD MSTORE ADD PUSH2 0x2ADA JUMP JUMPDEST PUSH2 0x220 DUP2 ADD SWAP1 DUP2 LT PUSH8 0xFFFFFFFFFFFFFFFF DUP3 GT OR PUSH2 0xA4F JUMPI PUSH1 0x40 MSTORE JUMP JUMPDEST PUSH1 0xA0 DUP2 ADD SWAP1 DUP2 LT PUSH8 0xFFFFFFFFFFFFFFFF DUP3 GT OR PUSH2 0xA4F JUMPI PUSH1 0x40 MSTORE JUMP JUMPDEST PUSH1 0x20 DUP2 ADD SWAP1 DUP2 LT PUSH8 0xFFFFFFFFFFFFFFFF DUP3 GT OR PUSH2 0xA4F JUMPI PUSH1 0x40 MSTORE JUMP JUMPDEST SWAP1 PUSH1 0x1F DUP1 NOT SWAP2 ADD AND DUP2 ADD SWAP1 DUP2 LT PUSH8 0xFFFFFFFFFFFFFFFF DUP3 GT OR PUSH2 0xA4F JUMPI PUSH1 0x40 MSTORE JUMP JUMPDEST PUSH8 0xFFFFFFFFFFFFFFFF DUP2 GT PUSH2 0xA4F JUMPI PUSH1 0x1F ADD PUSH1 0x1F NOT AND PUSH1 0x20 ADD SWAP1 JUMP JUMPDEST SWAP3 SWAP2 SWAP3 PUSH2 0x2BAE DUP3 PUSH2 0x2B86 JUMP JUMPDEST SWAP2 PUSH2 0x2BBC PUSH1 0x40 MLOAD SWAP4 DUP5 PUSH2 0x2B64 JUMP JUMPDEST DUP3 SWAP5 DUP2 DUP5 MSTORE DUP2 DUP4 ADD GT PUSH2 0x27A JUMPI DUP3 DUP2 PUSH1 0x20 SWAP4 DUP5 PUSH1 0x0 SWAP7 ADD CALLDATACOPY ADD ADD MSTORE JUMP JUMPDEST SWAP1 DUP1 PUSH1 0x1F DUP4 ADD SLT ISZERO PUSH2 0x27A JUMPI DUP2 PUSH1 0x20 PUSH2 0x2BF4 SWAP4 CALLDATALOAD SWAP2 ADD PUSH2 0x2BA2 JUMP JUMPDEST SWAP1 JUMP JUMPDEST PUSH1 0x60 SWAP1 PUSH1 0x3 NOT ADD SLT PUSH2 0x27A JUMPI PUSH1 0x1 PUSH1 0x1 PUSH1 0xA0 SHL SUB SWAP1 PUSH1 0x4 CALLDATALOAD DUP3 DUP2 AND DUP2 SUB PUSH2 0x27A JUMPI SWAP2 PUSH1 0x24 CALLDATALOAD SWAP1 DUP2 AND DUP2 SUB PUSH2 0x27A JUMPI SWAP1 PUSH1 0x44 CALLDATALOAD SWAP1 JUMP JUMPDEST CALLVALUE PUSH2 0x27A JUMPI PUSH1 0x0 CALLDATASIZE PUSH1 0x3 NOT ADD SLT PUSH2 0x27A JUMPI PUSH1 0x20 PUSH1 0x40 MLOAD PUSH1 0xA DUP2 MSTORE RETURN JUMPDEST DUP1 SLOAD DUP3 LT ISZERO PUSH2 0x2C64 JUMPI PUSH1 0x0 MSTORE PUSH1 0x5 PUSH1 0x20 PUSH1 0x0 KECCAK256 SWAP2 MUL ADD SWAP1 PUSH1 0x0 SWAP1 JUMP JUMPDEST PUSH4 0x4E487B71 PUSH1 0xE0 SHL PUSH1 0x0 MSTORE PUSH1 0x32 PUSH1 0x4 MSTORE PUSH1 0x24 PUSH1 0x0 REVERT JUMPDEST SWAP1 PUSH1 0x1 DUP3 DUP2 SHR SWAP3 AND DUP1 ISZERO PUSH2 0x2CAA JUMPI JUMPDEST PUSH1 0x20 DUP4 LT EQ PUSH2 0x2C94 JUMPI JUMP JUMPDEST PUSH4 0x4E487B71 PUSH1 0xE0 SHL PUSH1 0x0 MSTORE PUSH1 0x22 PUSH1 0x4 MSTORE PUSH1 0x24 PUSH1 0x0 REVERT JUMPDEST SWAP2 PUSH1 0x7F AND SWAP2 PUSH2 0x2C89 JUMP JUMPDEST SWAP1 PUSH1 0x40 MLOAD SWAP2 DUP3 PUSH1 0x0 DUP3 SLOAD SWAP3 PUSH2 0x2CC8 DUP5 PUSH2 0x2C7A JUMP JUMPDEST SWAP1 DUP2 DUP5 MSTORE PUSH1 0x1 SWAP5 DUP6 DUP2 AND SWAP1 DUP2 PUSH1 0x0 EQ PUSH2 0x2D37 JUMPI POP PUSH1 0x1 EQ PUSH2 0x2CF4 JUMPI JUMPDEST POP POP PUSH2 0x2CF2 SWAP3 POP SUB DUP4 PUSH2 0x2B64 JUMP JUMPDEST JUMP JUMPDEST SWAP1 SWAP4 SWAP2 POP PUSH1 0x0 MSTORE PUSH1 0x20 SWAP1 DUP2 PUSH1 0x0 KECCAK256 SWAP4 PUSH1 0x0 SWAP2 JUMPDEST DUP2 DUP4 LT PUSH2 0x2D1F JUMPI POP POP PUSH2 0x2CF2 SWAP4 POP DUP3 ADD ADD CODESIZE DUP1 PUSH2 0x2CE4 JUMP JUMPDEST DUP6 SLOAD DUP9 DUP5 ADD DUP6 ADD MSTORE SWAP5 DUP6 ADD SWAP5 DUP8 SWAP5 POP SWAP2 DUP4 ADD SWAP2 PUSH2 0x2D07 JUMP JUMPDEST SWAP2 POP POP PUSH2 0x2CF2 SWAP5 POP PUSH1 0x20 SWAP3 POP PUSH1 0xFF NOT AND DUP3 DUP5 ADD MSTORE ISZERO ISZERO PUSH1 0x5 SHL DUP3 ADD ADD CODESIZE DUP1 PUSH2 0x2CE4 JUMP JUMPDEST DUP1 SLOAD DUP3 LT ISZERO PUSH2 0x2C64 JUMPI PUSH1 0x0 MSTORE PUSH1 0x20 PUSH1 0x0 KECCAK256 ADD SWAP1 PUSH1 0x0 SWAP1 JUMP JUMPDEST PUSH1 0x6 SLOAD PUSH1 0x1 PUSH1 0x1 PUSH1 0xA0 SHL SUB AND CALLER SUB PUSH2 0x2D86 JUMPI JUMP JUMPDEST PUSH1 0x64 PUSH1 0x40 MLOAD PUSH3 0x461BCD PUSH1 0xE5 SHL DUP2 MSTORE PUSH1 0x20 PUSH1 0x4 DUP3 ADD MSTORE PUSH1 0x20 PUSH1 0x24 DUP3 ADD MSTORE PUSH32 0x4F776E61626C653A2063616C6C6572206973206E6F7420746865206F776E6572 PUSH1 0x44 DUP3 ADD MSTORE REVERT JUMPDEST ISZERO PUSH2 0x2DD1 JUMPI JUMP JUMPDEST PUSH1 0x40 MLOAD PUSH3 0x461BCD PUSH1 0xE5 SHL DUP2 MSTORE PUSH1 0x20 PUSH1 0x4 DUP3 ADD MSTORE PUSH1 0x18 PUSH1 0x24 DUP3 ADD MSTORE PUSH32 0x4552433732313A20696E76616C696420746F6B656E2049440000000000000000 PUSH1 0x44 DUP3 ADD MSTORE PUSH1 0x64 SWAP1 REVERT JUMPDEST PUSH1 0x0 SWAP1 DUP2 MSTORE PUSH1 0x2 PUSH1 0x20 MSTORE PUSH1 0x40 SWAP1 KECCAK256 SLOAD PUSH1 0x1 PUSH1 0x1 PUSH1 0xA0 SHL SUB AND PUSH2 0x2BF4 DUP2 ISZERO ISZERO PUSH2 0x2DCA JUMP JUMPDEST PUSH1 0x0 DUP2 DUP2 MSTORE PUSH1 0x2 PUSH1 0x20 MSTORE PUSH1 0x40 SWAP1 KECCAK256 SLOAD PUSH2 0x2E5C SWAP1 PUSH1 0x1 PUSH1 0x1 PUSH1 0xA0 SHL SUB AND ISZERO ISZERO PUSH2 0x2DCA JUMP JUMPDEST PUSH1 0x0 SWAP1 DUP2 MSTORE PUSH1 0x4 PUSH1 0x20 MSTORE PUSH1 0x40 SWAP1 KECCAK256 SLOAD PUSH1 0x1 PUSH1 0x1 PUSH1 0xA0 SHL SUB AND SWAP1 JUMP JUMPDEST ISZERO PUSH2 0x2E7E JUMPI JUMP JUMPDEST PUSH1 0x40 MLOAD PUSH3 0x461BCD PUSH1 0xE5 SHL DUP2 MSTORE PUSH1 0x20 PUSH1 0x4 DUP3 ADD MSTORE PUSH1 0x2D PUSH1 0x24 DUP3 ADD MSTORE PUSH32 0x4552433732313A2063616C6C6572206973206E6F7420746F6B656E206F776E65 PUSH1 0x44 DUP3 ADD MSTORE PUSH13 0x1C881BDC88185C1C1C9BDD9959 PUSH1 0x9A SHL PUSH1 0x64 DUP3 ADD MSTORE PUSH1 0x84 SWAP1 REVERT JUMPDEST SWAP1 PUSH2 0x2EFD SWAP4 SWAP3 SWAP2 PUSH2 0x2EED PUSH2 0x22EA DUP5 CALLER PUSH2 0x2F74 JUMP JUMPDEST PUSH2 0x2EF8 DUP4 DUP4 DUP4 PUSH2 0x303C JUMP JUMPDEST PUSH2 0x31C3 JUMP JUMPDEST ISZERO PUSH2 0x2F04 JUMPI JUMP JUMPDEST PUSH1 0x40 MLOAD PUSH3 0x461BCD PUSH1 0xE5 SHL DUP2 MSTORE DUP1 PUSH2 0x2F1D PUSH1 0x4 DUP3 ADD PUSH2 0x2F21 JUMP JUMPDEST SUB SWAP1 REVERT JUMPDEST PUSH1 0x80 SWAP1 PUSH1 0x20 DUP2 MSTORE PUSH1 0x32 PUSH1 0x20 DUP3 ADD MSTORE PUSH32 0x4552433732313A207472616E7366657220746F206E6F6E204552433732315265 PUSH1 0x40 DUP3 ADD MSTORE PUSH18 0x31B2B4BB32B91034B6B83632B6B2B73A32B9 PUSH1 0x71 SHL PUSH1 0x60 DUP3 ADD MSTORE ADD SWAP1 JUMP JUMPDEST SWAP1 PUSH1 0x1 PUSH1 0x1 PUSH1 0xA0 SHL SUB DUP1 DUP1 PUSH2 0x2F88 DUP5 PUSH2 0x2E16 JUMP JUMPDEST AND SWAP4 AND SWAP2 DUP4 DUP4 EQ SWAP4 DUP5 ISZERO PUSH2 0x2FBB JUMPI JUMPDEST POP DUP4 ISZERO PUSH2 0x2FA5 JUMPI JUMPDEST POP POP POP SWAP1 JUMP JUMPDEST PUSH2 0x2FB1 SWAP2 SWAP3 SWAP4 POP PUSH2 0x2E39 JUMP JUMPDEST AND EQ CODESIZE DUP1 DUP1 PUSH2 0x2F9F JUMP JUMPDEST SWAP1 SWAP4 POP PUSH1 0x0 MSTORE PUSH1 0x5 PUSH1 0x20 MSTORE PUSH1 0x40 PUSH1 0x0 KECCAK256 DUP3 PUSH1 0x0 MSTORE PUSH1 0x20 MSTORE PUSH1 0xFF PUSH1 0x40 PUSH1 0x0 KECCAK256 SLOAD AND SWAP3 CODESIZE PUSH2 0x2F97 JUMP JUMPDEST ISZERO PUSH2 0x2FE9 JUMPI JUMP JUMPDEST PUSH1 0x40 MLOAD PUSH3 0x461BCD PUSH1 0xE5 SHL DUP2 MSTORE PUSH1 0x20 PUSH1 0x4 DUP3 ADD MSTORE PUSH1 0x25 PUSH1 0x24 DUP3 ADD MSTORE PUSH32 0x4552433732313A207472616E736665722066726F6D20696E636F727265637420 PUSH1 0x44 DUP3 ADD MSTORE PUSH5 0x37BBB732B9 PUSH1 0xD9 SHL PUSH1 0x64 DUP3 ADD MSTORE PUSH1 0x84 SWAP1 REVERT JUMPDEST SWAP1 PUSH2 0x3064 SWAP2 PUSH2 0x304A DUP5 PUSH2 0x2E16 JUMP JUMPDEST PUSH1 0x1 PUSH1 0x1 PUSH1 0xA0 SHL SUB SWAP4 SWAP2 DUP5 AND SWAP3 DUP5 SWAP3 SWAP1 SWAP2 DUP4 AND DUP5 EQ PUSH2 0x2FE2 JUMP JUMPDEST AND SWAP2 DUP3 ISZERO PUSH2 0x3172 JUMPI PUSH1 0x0 SWAP1 DUP5 DUP3 MSTORE PUSH1 0xA PUSH1 0x20 MSTORE PUSH1 0x40 SWAP1 PUSH1 0xFF PUSH1 0x8 DUP4 DUP6 KECCAK256 ADD SLOAD PUSH1 0xA8 SHR AND PUSH2 0x3117 JUMPI SWAP1 PUSH2 0x30C3 DUP5 PUSH32 0xDDF252AD1BE2C89B69C2B068FC378DAA952BA7F163C4A11628F55A4DF523B3EF SWAP5 SWAP4 PUSH2 0x30BC DUP10 PUSH2 0x2E16 JUMP JUMPDEST AND EQ PUSH2 0x2FE2 JUMP JUMPDEST DUP6 DUP3 MSTORE PUSH1 0x4 PUSH1 0x20 MSTORE DUP5 DUP2 DUP4 KECCAK256 SWAP2 PUSH1 0x1 PUSH1 0x1 PUSH1 0x60 SHL SUB PUSH1 0xA0 SHL SWAP3 DUP4 DUP2 SLOAD AND SWAP1 SSTORE DUP6 DUP5 MSTORE PUSH1 0x3 PUSH1 0x20 MSTORE DUP1 DUP5 KECCAK256 PUSH1 0x0 NOT DUP2 SLOAD ADD SWAP1 SSTORE DUP2 DUP5 MSTORE DUP1 DUP5 KECCAK256 PUSH1 0x1 DUP2 SLOAD ADD SWAP1 SSTORE DUP8 DUP5 MSTORE PUSH1 0x2 PUSH1 0x20 MSTORE DUP4 KECCAK256 SWAP2 DUP3 SLOAD AND OR SWAP1 SSTORE DUP1 LOG4 JUMP JUMPDEST DUP2 MLOAD PUSH3 0x461BCD PUSH1 0xE5 SHL DUP2 MSTORE PUSH1 0x20 PUSH1 0x4 DUP3 ADD MSTORE PUSH1 0x2E PUSH1 0x24 DUP3 ADD MSTORE PUSH32 0x50726F706572747920697320696E2064656661756C74202D207472616E736665 PUSH1 0x44 DUP3 ADD MSTORE PUSH14 0x1C9CC81B9BDD08185B1B1BDDD959 PUSH1 0x92 SHL PUSH1 0x64 DUP3 ADD MSTORE PUSH1 0x84 SWAP1 REVERT JUMPDEST PUSH1 0x40 MLOAD PUSH3 0x461BCD PUSH1 0xE5 SHL DUP2 MSTORE PUSH1 0x20 PUSH1 0x4 DUP3 ADD MSTORE PUSH1 0x24 DUP1 DUP3 ADD MSTORE PUSH32 0x4552433732313A207472616E7366657220746F20746865207A65726F20616464 PUSH1 0x44 DUP3 ADD MSTORE PUSH4 0x72657373 PUSH1 0xE0 SHL PUSH1 0x64 DUP3 ADD MSTORE PUSH1 0x84 SWAP1 REVERT JUMPDEST SWAP3 SWAP4 PUSH1 0x0 SWAP4 SWAP1 SWAP3 SWAP2 DUP1 EXTCODESIZE ISZERO PUSH2 0x32DD JUMPI SWAP5 DUP5 SWAP2 PUSH2 0x321D SWAP7 PUSH1 0x40 MLOAD DUP1 SWAP5 DUP2 SWAP4 PUSH4 0xA85BD01 PUSH1 0xE1 SHL SWAP8 DUP9 DUP5 MSTORE CALLER PUSH1 0x4 DUP6 ADD MSTORE PUSH1 0x1 DUP1 PUSH1 0xA0 SHL SUB DUP1 SWAP3 AND PUSH1 0x24 DUP6 ADD MSTORE PUSH1 0x44 DUP5 ADD MSTORE PUSH1 0x80 PUSH1 0x64 DUP5 ADD MSTORE DUP3 PUSH1 0x20 SWAP12 DUP13 SWAP8 PUSH1 0x84 DUP4 ADD SWAP1 PUSH2 0x2ACF JUMP JUMPDEST SUB SWAP4 AND GAS CALL DUP5 SWAP2 DUP2 PUSH2 0x3299 JUMPI JUMPDEST POP PUSH2 0x3288 JUMPI POP POP POP RETURNDATASIZE PUSH1 0x0 EQ PUSH2 0x3280 JUMPI RETURNDATASIZE PUSH2 0x3244 DUP2 PUSH2 0x2B86 JUMP JUMPDEST SWAP1 PUSH2 0x3252 PUSH1 0x40 MLOAD SWAP3 DUP4 PUSH2 0x2B64 JUMP JUMPDEST DUP2 MSTORE DUP1 SWAP2 DUP4 RETURNDATASIZE SWAP3 ADD RETURNDATACOPY JUMPDEST DUP1 MLOAD SWAP2 DUP3 PUSH2 0x327D JUMPI PUSH1 0x40 MLOAD PUSH3 0x461BCD PUSH1 0xE5 SHL DUP2 MSTORE DUP1 PUSH2 0x2F1D PUSH1 0x4 DUP3 ADD PUSH2 0x2F21 JUMP JUMPDEST ADD REVERT JUMPDEST POP PUSH1 0x60 PUSH2 0x325C JUMP JUMPDEST PUSH1 0x1 PUSH1 0x1 PUSH1 0xE0 SHL SUB NOT AND EQ SWAP3 POP SWAP1 POP JUMP JUMPDEST SWAP1 SWAP2 POP DUP6 DUP2 DUP2 RETURNDATASIZE DUP4 GT PUSH2 0x32D6 JUMPI JUMPDEST PUSH2 0x32B1 DUP2 DUP4 PUSH2 0x2B64 JUMP JUMPDEST DUP2 ADD SUB SLT PUSH2 0x32D2 JUMPI MLOAD PUSH1 0x1 PUSH1 0x1 PUSH1 0xE0 SHL SUB NOT DUP2 AND DUP2 SUB PUSH2 0x32D2 JUMPI SWAP1 CODESIZE PUSH2 0x322A JUMP JUMPDEST DUP5 DUP1 REVERT JUMPDEST POP RETURNDATASIZE PUSH2 0x32A7 JUMP JUMPDEST POP POP POP SWAP2 POP POP PUSH1 0x1 SWAP1 JUMP JUMPDEST ISZERO PUSH2 0x32EF JUMPI JUMP JUMPDEST PUSH1 0x40 MLOAD PUSH3 0x461BCD PUSH1 0xE5 SHL DUP2 MSTORE PUSH1 0x20 PUSH1 0x4 DUP3 ADD MSTORE PUSH1 0x12 PUSH1 0x24 DUP3 ADD MSTORE PUSH18 0x10DBDB9D1C9858DD081A5CC81C185D5CD959 PUSH1 0x72 SHL PUSH1 0x44 DUP3 ADD MSTORE PUSH1 0x64 SWAP1 REVERT JUMPDEST ISZERO PUSH2 0x3330 JUMPI JUMP JUMPDEST PUSH1 0x40 MLOAD PUSH3 0x461BCD PUSH1 0xE5 SHL DUP2 MSTORE PUSH1 0x20 PUSH1 0x4 DUP3 ADD MSTORE PUSH1 0x19 PUSH1 0x24 DUP3 ADD MSTORE PUSH32 0x496E73756666696369656E7420555344542062616C616E636500000000000000 PUSH1 0x44 DUP3 ADD MSTORE PUSH1 0x64 SWAP1 REVERT JUMPDEST ISZERO PUSH2 0x337C JUMPI JUMP JUMPDEST PUSH1 0x40 MLOAD PUSH3 0x461BCD PUSH1 0xE5 SHL DUP2 MSTORE PUSH1 0x20 PUSH1 0x4 DUP3 ADD MSTORE PUSH1 0x1B PUSH1 0x24 DUP3 ADD MSTORE PUSH32 0x496E73756666696369656E74205553445420616C6C6F77616E63650000000000 PUSH1 0x44 DUP3 ADD MSTORE PUSH1 0x64 SWAP1 REVERT JUMPDEST SWAP1 DUP2 PUSH1 0x20 SWAP2 SUB SLT PUSH2 0x27A JUMPI MLOAD DUP1 ISZERO ISZERO DUP2 SUB PUSH2 0x27A JUMPI SWAP1 JUMP JUMPDEST PUSH1 0x2 PUSH1 0x7 SLOAD EQ PUSH2 0x33EA JUMPI PUSH1 0x2 PUSH1 0x7 SSTORE JUMP JUMPDEST PUSH1 0x40 MLOAD PUSH3 0x461BCD PUSH1 0xE5 SHL DUP2 MSTORE PUSH1 0x20 PUSH1 0x4 DUP3 ADD MSTORE PUSH1 0x1F PUSH1 0x24 DUP3 ADD MSTORE PUSH32 0x5265656E7472616E637947756172643A207265656E7472616E742063616C6C00 PUSH1 0x44 DUP3 ADD MSTORE PUSH1 0x64 SWAP1 REVERT JUMPDEST ISZERO PUSH2 0x3436 JUMPI JUMP JUMPDEST PUSH1 0x40 MLOAD PUSH3 0x461BCD PUSH1 0xE5 SHL DUP2 MSTORE PUSH1 0x20 PUSH1 0x4 DUP3 ADD MSTORE PUSH1 0x1C PUSH1 0x24 DUP3 ADD MSTORE PUSH32 0x4552433732313A20746F6B656E20616C7265616479206D696E74656400000000 PUSH1 0x44 DUP3 ADD MSTORE PUSH1 0x64 SWAP1 REVERT JUMPDEST SWAP2 SWAP1 DUP3 ADD DUP1 SWAP3 GT PUSH2 0xD94 JUMPI JUMP JUMPDEST SWAP2 SWAP1 DUP3 SUB SWAP2 DUP3 GT PUSH2 0xD94 JUMPI JUMP JUMPDEST ISZERO PUSH2 0x349C JUMPI JUMP JUMPDEST PUSH1 0x40 MLOAD PUSH3 0x461BCD PUSH1 0xE5 SHL DUP2 MSTORE PUSH1 0x20 PUSH1 0x4 DUP3 ADD MSTORE PUSH1 0x17 PUSH1 0x24 DUP3 ADD MSTORE PUSH32 0x50726F706572747920646F6573206E6F74206578697374000000000000000000 PUSH1 0x44 DUP3 ADD MSTORE PUSH1 0x64 SWAP1 REVERT JUMPDEST ISZERO PUSH2 0x34E8 JUMPI JUMP JUMPDEST PUSH1 0x40 MLOAD PUSH3 0x461BCD PUSH1 0xE5 SHL DUP2 MSTORE PUSH1 0x20 PUSH1 0x4 DUP3 ADD MSTORE PUSH1 0x12 PUSH1 0x24 DUP3 ADD MSTORE PUSH18 0x2737BA10383937B832B93A3C9037BBB732B9 PUSH1 0x71 SHL PUSH1 0x44 DUP3 ADD MSTORE PUSH1 0x64 SWAP1 REVERT JUMPDEST ISZERO PUSH2 0x3529 JUMPI JUMP JUMPDEST PUSH1 0x40 MLOAD PUSH3 0x461BCD PUSH1 0xE5 SHL DUP2 MSTORE PUSH1 0x20 PUSH1 0x4 DUP3 ADD MSTORE PUSH1 0x13 PUSH1 0x24 DUP3 ADD MSTORE PUSH19 0x50726F7065727479206E6F7420616374697665 PUSH1 0x68 SHL PUSH1 0x44 DUP3 ADD MSTORE PUSH1 0x64 SWAP1 REVERT JUMPDEST DUP1 ISZERO PUSH2 0x3611 JUMPI PUSH2 0x683 PUSH1 0x1 DUP1 JUMPDEST PUSH1 0x78 DUP3 LT PUSH2 0x35CE JUMPI POP POP PUSH2 0x29B DUP1 DUP4 MUL SWAP3 DUP1 DUP5 DIV DUP3 SUB PUSH2 0xD94 JUMPI DUP3 MUL MUL SWAP2 DUP1 DUP4 DIV DUP3 EQ SWAP1 ISZERO OR ISZERO PUSH2 0xD94 JUMPI PUSH2 0x3E7 NOT DUP2 ADD SWAP1 DUP2 GT PUSH2 0xD94 JUMPI DUP1 ISZERO PUSH2 0x35B8 JUMPI PUSH2 0x3E8 SWAP2 DIV DIV SWAP1 JUMP JUMPDEST PUSH4 0x4E487B71 PUSH1 0xE0 SHL PUSH1 0x0 MSTORE PUSH1 0x12 PUSH1 0x4 MSTORE PUSH1 0x24 PUSH1 0x0 REVERT JUMPDEST SWAP1 SWAP2 PUSH2 0x683 DUP2 MUL SWAP1 DUP1 DUP3 DIV PUSH2 0x683 EQ SWAP1 ISZERO OR ISZERO PUSH2 0x35FC JUMPI PUSH2 0x3E8 SWAP1 DIV SWAP2 PUSH1 0x0 NOT DUP2 EQ PUSH2 0x35FC JUMPI DUP2 ADD SWAP1 PUSH2 0x3571 JUMP JUMPDEST PUSH1 0x24 PUSH1 0x0 PUSH4 0x4E487B71 PUSH1 0xE0 SHL DUP2 MSTORE PUSH1 0x11 PUSH1 0x4 MSTORE REVERT JUMPDEST PUSH1 0x64 PUSH1 0x40 MLOAD PUSH3 0x461BCD PUSH1 0xE5 SHL DUP2 MSTORE PUSH1 0x20 PUSH1 0x4 DUP3 ADD MSTORE PUSH1 0x20 PUSH1 0x24 DUP3 ADD MSTORE PUSH32 0x5072696E636970616C206D7573742062652067726561746572207468616E2030 PUSH1 0x44 DUP3 ADD MSTORE REVERT JUMPDEST PUSH1 0x0 MSTORE PUSH1 0xA PUSH1 0x20 MSTORE PUSH1 0x40 PUSH1 0x0 KECCAK256 PUSH1 0x40 MLOAD SWAP1 PUSH2 0x366F DUP3 PUSH2 0x2B0F JUMP JUMPDEST DUP1 SLOAD DUP3 MSTORE PUSH1 0x1 DUP2 ADD SLOAD PUSH1 0x20 DUP4 ADD MSTORE PUSH1 0x2 DUP2 ADD SLOAD PUSH1 0x40 DUP4 ADD MSTORE PUSH1 0x3 DUP2 ADD SLOAD SWAP2 PUSH1 0x60 DUP2 ADD SWAP3 DUP4 MSTORE PUSH1 0x4 DUP3 ADD SLOAD PUSH1 0x80 DUP3 ADD MSTORE PUSH1 0x5 DUP3 ADD SLOAD PUSH1 0xA0 DUP3 ADD MSTORE PUSH1 0x6 DUP3 ADD SLOAD PUSH1 0xC0 DUP3 ADD MSTORE PUSH1 0x7 DUP3 ADD SLOAD PUSH1 0xE0 DUP3 ADD MSTORE PUSH1 0x8 DUP3 ADD SLOAD SWAP1 PUSH1 0x1 DUP1 PUSH1 0xA0 SHL SUB DUP3 AND PUSH2 0x100 DUP3 ADD MSTORE PUSH2 0x120 DUP2 ADD SWAP1 PUSH1 0xFF DUP4 PUSH1 0xA0 SHR AND ISZERO ISZERO DUP3 MSTORE PUSH1 0xFF PUSH2 0x140 DUP3 ADD SWAP4 PUSH1 0xA8 SHR AND ISZERO ISZERO DUP4 MSTORE PUSH1 0x9 DUP5 ADD SLOAD PUSH2 0x160 DUP3 ADD MSTORE PUSH1 0xA DUP5 ADD SLOAD PUSH2 0x180 DUP3 ADD MSTORE PUSH2 0x200 PUSH2 0x373F PUSH1 0xE PUSH1 0xB DUP8 ADD SLOAD SWAP7 PUSH2 0x1A0 DUP6 ADD SWAP8 DUP9 MSTORE PUSH1 0xC DUP2 ADD SLOAD PUSH2 0x1C0 DUP7 ADD MSTORE PUSH1 0xFF PUSH1 0xD DUP3 ADD SLOAD AND ISZERO ISZERO PUSH2 0x1E0 DUP7 ADD MSTORE ADD PUSH2 0x2CB4 JUMP JUMPDEST SWAP2 ADD MSTORE MLOAD ISZERO SWAP1 DUP2 ISZERO PUSH2 0x376D JUMPI JUMPDEST POP PUSH2 0x3766 JUMPI MLOAD SWAP1 MLOAD SWAP1 DUP2 DUP2 LT ISZERO PUSH2 0x3766 JUMPI PUSH2 0x2BF4 SWAP2 PUSH2 0x3488 JUMP JUMPDEST POP POP PUSH1 0x0 SWAP1 JUMP JUMPDEST SWAP1 POP MLOAD ISZERO ISZERO CODESIZE PUSH2 0x374C JUMP INVALID LOG2 PUSH5 0x6970667358 0x22 SLT KECCAK256 PUSH19 0xB3773CB1B080402548B3D1B3CBC30FF39FDD02 PUSH30 0x3DE3942D49BB16B89744F764736F6C634300081300330000000000000000 "},"methodIdentifiers":{"ANCIENT_APPRECIATION_SHARE()":"78a0e16f","APPRECIATION_CAP()":"5e74d54c","BUYER_APPRECIATION_SHARE()":"145355ec","INTEREST_RATE()":"5b72a33a","KYC_MINIMUM_AMOUNT()":"fee2105a","LENDERS_APPRECIATION_SHARE()":"6814701a","MAX_MISSED_PAYMENTS()":"49ec61f7","MAX_PROPERTY_VALUE()":"adc67648","MINIMUM_DOWN_PAYMENT_PERCENT()":"e5ef4fda","TERM_YEARS()":"2ad7985d","approve(address,uint256)":"095ea7b3","balanceOf(address)":"70a08231","calculateAppreciation(uint256)":"bd0c3662","calculateMonthlyPayment(uint256)":"9a9ae8e3","getApproved(uint256)":"081812fc","getContractBalance()":"6f9fb98a","getPaymentHistory(uint256)":"4e02503a","getPropertyDetails(uint256)":"126dbe43","getRemainingBalance(uint256)":"78e94dd2","getTotalProperties()":"17aaf5ed","getUserProperties(address)":"060a3e61","getUserTotalInvested(address)":"bf6ce8a7","isApprovedForAll(address,address)":"e985e9c5","kycAmount(address)":"75cb4dc0","kycVerified(address)":"a5410a66","makePayment(uint256)":"5114cb52","name()":"06fdde03","owner()":"8da5cb5b","ownerOf(uint256)":"6352211e","pause()":"8456cb59","paused()":"5c975abb","paymentHistory(uint256,uint256)":"b27062db","properties(uint256)":"f7b10808","propertyToTokenId(uint256)":"d998861f","purchaseProperty(uint256,uint256,string)":"d7350988","renounceOwnership()":"715018a6","safeTransferFrom(address,address,uint256)":"42842e0e","safeTransferFrom(address,address,uint256,bytes)":"b88d4fde","setApprovalForAll(address,bool)":"a22cb465","setUSDTToken(address)":"66e226bd","supportsInterface(bytes4)":"01ffc9a7","symbol()":"95d89b41","tokenURI(uint256)":"c87b56dd","transferFrom(address,address,uint256)":"23b872dd","transferOwnership(address)":"f2fde38b","unpause()":"3f4ba83a","updatePropertyMetadata(uint256,string)":"1f2fbb02","usdtToken()":"a98ad46c","userProperties(address,uint256)":"e2271c9f","userTotalInvested(address)":"873a83dc","verifyKYC(address,uint256)":"4e738522","withdrawUSDT(uint256)":"3ea521ef"}}}}}