{
  "_format": "hh-sol-artifact-1",
  "contractName": "AncientMortgage",
  "sourceName": "contracts/AncientMortgage.sol",
  "abi": [
    {
      "inputs": [
        {
          "internalType": "address",
          "name": "_usdtToken",
          "type": "address"
        },
        {
          "internalType": "address",
          "name": "_treasuryWallet",
          "type": "address"
        },
        {
          "internalType": "address",
          "name": "_stakingPool",
          "type": "address"
        }
      ],
      "stateMutability": "nonpayable",
      "type": "constructor"
    },
    {
      "anonymous": false,
      "inputs": [
        {
          "indexed": true,
          "internalType": "uint256",
          "name": "propertyId",
          "type": "uint256"
        },
        {
          "indexed": false,
          "internalType": "uint256",
          "name": "appraisedValue",
          "type": "uint256"
        },
        {
          "indexed": false,
          "internalType": "uint256",
          "name": "buyerShare",
          "type": "uint256"
        },
        {
          "indexed": false,
          "internalType": "uint256",
          "name": "ancientShare",
          "type": "uint256"
        },
        {
          "indexed": false,
          "internalType": "uint256",
          "name": "lenderShare",
          "type": "uint256"
        }
      ],
      "name": "AppreciationDistributed",
      "type": "event"
    },
    {
      "anonymous": false,
      "inputs": [
        {
          "indexed": true,
          "internalType": "address",
          "name": "owner",
          "type": "address"
        },
        {
          "indexed": true,
          "internalType": "address",
          "name": "approved",
          "type": "address"
        },
        {
          "indexed": true,
          "internalType": "uint256",
          "name": "tokenId",
          "type": "uint256"
        }
      ],
      "name": "Approval",
      "type": "event"
    },
    {
      "anonymous": false,
      "inputs": [
        {
          "indexed": true,
          "internalType": "address",
          "name": "owner",
          "type": "address"
        },
        {
          "indexed": true,
          "internalType": "address",
          "name": "operator",
          "type": "address"
        },
        {
          "indexed": false,
          "internalType": "bool",
          "name": "approved",
          "type": "bool"
        }
      ],
      "name": "ApprovalForAll",
      "type": "event"
    },
    {
      "anonymous": false,
      "inputs": [
        {
          "indexed": true,
          "internalType": "uint256",
          "name": "propertyId",
          "type": "uint256"
        },
        {
          "indexed": true,
          "internalType": "address",
          "name": "buyer",
          "type": "address"
        },
        {
          "indexed": false,
          "internalType": "uint256",
          "name": "amount",
          "type": "uint256"
        },
        {
          "indexed": false,
          "internalType": "uint256",
          "name": "paymentNumber",
          "type": "uint256"
        }
      ],
      "name": "MortgagePaymentMade",
      "type": "event"
    },
    {
      "anonymous": false,
      "inputs": [
        {
          "indexed": true,
          "internalType": "address",
          "name": "previousOwner",
          "type": "address"
        },
        {
          "indexed": true,
          "internalType": "address",
          "name": "newOwner",
          "type": "address"
        }
      ],
      "name": "OwnershipTransferred",
      "type": "event"
    },
    {
      "anonymous": false,
      "inputs": [
        {
          "indexed": true,
          "internalType": "uint256",
          "name": "propertyId",
          "type": "uint256"
        },
        {
          "indexed": false,
          "internalType": "uint256",
          "name": "amount",
          "type": "uint256"
        }
      ],
      "name": "PlatformFeeCollected",
      "type": "event"
    },
    {
      "anonymous": false,
      "inputs": [
        {
          "indexed": true,
          "internalType": "uint256",
          "name": "propertyId",
          "type": "uint256"
        },
        {
          "indexed": true,
          "internalType": "address",
          "name": "buyer",
          "type": "address"
        }
      ],
      "name": "PropertyPaidOff",
      "type": "event"
    },
    {
      "anonymous": false,
      "inputs": [
        {
          "indexed": true,
          "internalType": "uint256",
          "name": "propertyId",
          "type": "uint256"
        },
        {
          "indexed": true,
          "internalType": "address",
          "name": "buyer",
          "type": "address"
        },
        {
          "indexed": false,
          "internalType": "uint256",
          "name": "propertyPrice",
          "type": "uint256"
        },
        {
          "indexed": false,
          "internalType": "uint256",
          "name": "downPayment",
          "type": "uint256"
        },
        {
          "indexed": false,
          "internalType": "uint256",
          "name": "platformFee",
          "type": "uint256"
        }
      ],
      "name": "PropertyPurchased",
      "type": "event"
    },
    {
      "anonymous": false,
      "inputs": [
        {
          "indexed": true,
          "internalType": "address",
          "name": "from",
          "type": "address"
        },
        {
          "indexed": true,
          "internalType": "address",
          "name": "to",
          "type": "address"
        },
        {
          "indexed": true,
          "internalType": "uint256",
          "name": "tokenId",
          "type": "uint256"
        }
      ],
      "name": "Transfer",
      "type": "event"
    },
    {
      "inputs": [],
      "name": "DOWN_PAYMENT_PERCENT",
      "outputs": [
        {
          "internalType": "uint256",
          "name": "",
          "type": "uint256"
        }
      ],
      "stateMutability": "view",
      "type": "function"
    },
    {
      "inputs": [],
      "name": "INTEREST_RATE",
      "outputs": [
        {
          "internalType": "uint256",
          "name": "",
          "type": "uint256"
        }
      ],
      "stateMutability": "view",
      "type": "function"
    },
    {
      "inputs": [],
      "name": "PAYMENTS_FOR_APPRECIATION",
      "outputs": [
        {
          "internalType": "uint256",
          "name": "",
          "type": "uint256"
        }
      ],
      "stateMutability": "view",
      "type": "function"
    },
    {
      "inputs": [],
      "name": "PLATFORM_FEE_PERCENT",
      "outputs": [
        {
          "internalType": "uint256",
          "name": "",
          "type": "uint256"
        }
      ],
      "stateMutability": "view",
      "type": "function"
    },
    {
      "inputs": [],
      "name": "TERM_MONTHS",
      "outputs": [
        {
          "internalType": "uint256",
          "name": "",
          "type": "uint256"
        }
      ],
      "stateMutability": "view",
      "type": "function"
    },
    {
      "inputs": [
        {
          "internalType": "address",
          "name": "to",
          "type": "address"
        },
        {
          "internalType": "uint256",
          "name": "tokenId",
          "type": "uint256"
        }
      ],
      "name": "approve",
      "outputs": [],
      "stateMutability": "nonpayable",
      "type": "function"
    },
    {
      "inputs": [
        {
          "internalType": "address",
          "name": "owner",
          "type": "address"
        }
      ],
      "name": "balanceOf",
      "outputs": [
        {
          "internalType": "uint256",
          "name": "",
          "type": "uint256"
        }
      ],
      "stateMutability": "view",
      "type": "function"
    },
    {
      "inputs": [
        {
          "internalType": "uint256",
          "name": "principal",
          "type": "uint256"
        },
        {
          "internalType": "uint256",
          "name": "paymentNumber",
          "type": "uint256"
        }
      ],
      "name": "calculateInterestPayment",
      "outputs": [
        {
          "internalType": "uint256",
          "name": "",
          "type": "uint256"
        }
      ],
      "stateMutability": "pure",
      "type": "function"
    },
    {
      "inputs": [
        {
          "internalType": "uint256",
          "name": "principal",
          "type": "uint256"
        }
      ],
      "name": "calculateMonthlyPayment",
      "outputs": [
        {
          "internalType": "uint256",
          "name": "",
          "type": "uint256"
        }
      ],
      "stateMutability": "pure",
      "type": "function"
    },
    {
      "inputs": [],
      "name": "emergencyWithdraw",
      "outputs": [],
      "stateMutability": "nonpayable",
      "type": "function"
    },
    {
      "inputs": [
        {
          "internalType": "uint256",
          "name": "tokenId",
          "type": "uint256"
        }
      ],
      "name": "getApproved",
      "outputs": [
        {
          "internalType": "address",
          "name": "",
          "type": "address"
        }
      ],
      "stateMutability": "view",
      "type": "function"
    },
    {
      "inputs": [
        {
          "internalType": "uint256",
          "name": "propertyId",
          "type": "uint256"
        }
      ],
      "name": "getProperty",
      "outputs": [
        {
          "components": [
            {
              "internalType": "uint256",
              "name": "propertyId",
              "type": "uint256"
            },
            {
              "internalType": "uint256",
              "name": "propertyPrice",
              "type": "uint256"
            },
            {
              "internalType": "uint256",
              "name": "downPayment",
              "type": "uint256"
            },
            {
              "internalType": "uint256",
              "name": "mortgageAmount",
              "type": "uint256"
            },
            {
              "internalType": "uint256",
              "name": "monthlyPayment",
              "type": "uint256"
            },
            {
              "internalType": "uint256",
              "name": "interestRate",
              "type": "uint256"
            },
            {
              "internalType": "uint256",
              "name": "termMonths",
              "type": "uint256"
            },
            {
              "internalType": "uint256",
              "name": "startDate",
              "type": "uint256"
            },
            {
              "internalType": "address",
              "name": "buyer",
              "type": "address"
            },
            {
              "internalType": "bool",
              "name": "isActive",
              "type": "bool"
            },
            {
              "internalType": "bool",
              "name": "isPaidOff",
              "type": "bool"
            },
            {
              "internalType": "uint256",
              "name": "totalPaid",
              "type": "uint256"
            },
            {
              "internalType": "uint256",
              "name": "paymentsMade",
              "type": "uint256"
            },
            {
              "internalType": "uint256",
              "name": "lastPaymentDate",
              "type": "uint256"
            },
            {
              "internalType": "uint256",
              "name": "appraisedValue",
              "type": "uint256"
            },
            {
              "internalType": "bool",
              "name": "appreciationDistributed",
              "type": "bool"
            }
          ],
          "internalType": "struct AncientMortgage.Property",
          "name": "",
          "type": "tuple"
        }
      ],
      "stateMutability": "view",
      "type": "function"
    },
    {
      "inputs": [
        {
          "internalType": "address",
          "name": "user",
          "type": "address"
        }
      ],
      "name": "getUserProperties",
      "outputs": [
        {
          "internalType": "uint256[]",
          "name": "",
          "type": "uint256[]"
        }
      ],
      "stateMutability": "view",
      "type": "function"
    },
    {
      "inputs": [
        {
          "internalType": "address",
          "name": "owner",
          "type": "address"
        },
        {
          "internalType": "address",
          "name": "operator",
          "type": "address"
        }
      ],
      "name": "isApprovedForAll",
      "outputs": [
        {
          "internalType": "bool",
          "name": "",
          "type": "bool"
        }
      ],
      "stateMutability": "view",
      "type": "function"
    },
    {
      "inputs": [
        {
          "internalType": "uint256",
          "name": "propertyId",
          "type": "uint256"
        }
      ],
      "name": "makePayment",
      "outputs": [],
      "stateMutability": "nonpayable",
      "type": "function"
    },
    {
      "inputs": [],
      "name": "name",
      "outputs": [
        {
          "internalType": "string",
          "name": "",
          "type": "string"
        }
      ],
      "stateMutability": "view",
      "type": "function"
    },
    {
      "inputs": [],
      "name": "owner",
      "outputs": [
        {
          "internalType": "address",
          "name": "",
          "type": "address"
        }
      ],
      "stateMutability": "view",
      "type": "function"
    },
    {
      "inputs": [
        {
          "internalType": "uint256",
          "name": "tokenId",
          "type": "uint256"
        }
      ],
      "name": "ownerOf",
      "outputs": [
        {
          "internalType": "address",
          "name": "",
          "type": "address"
        }
      ],
      "stateMutability": "view",
      "type": "function"
    },
    {
      "inputs": [
        {
          "internalType": "uint256",
          "name": "",
          "type": "uint256"
        }
      ],
      "name": "properties",
      "outputs": [
        {
          "internalType": "uint256",
          "name": "propertyId",
          "type": "uint256"
        },
        {
          "internalType": "uint256",
          "name": "propertyPrice",
          "type": "uint256"
        },
        {
          "internalType": "uint256",
          "name": "downPayment",
          "type": "uint256"
        },
        {
          "internalType": "uint256",
          "name": "mortgageAmount",
          "type": "uint256"
        },
        {
          "internalType": "uint256",
          "name": "monthlyPayment",
          "type": "uint256"
        },
        {
          "internalType": "uint256",
          "name": "interestRate",
          "type": "uint256"
        },
        {
          "internalType": "uint256",
          "name": "termMonths",
          "type": "uint256"
        },
        {
          "internalType": "uint256",
          "name": "startDate",
          "type": "uint256"
        },
        {
          "internalType": "address",
          "name": "buyer",
          "type": "address"
        },
        {
          "internalType": "bool",
          "name": "isActive",
          "type": "bool"
        },
        {
          "internalType": "bool",
          "name": "isPaidOff",
          "type": "bool"
        },
        {
          "internalType": "uint256",
          "name": "totalPaid",
          "type": "uint256"
        },
        {
          "internalType": "uint256",
          "name": "paymentsMade",
          "type": "uint256"
        },
        {
          "internalType": "uint256",
          "name": "lastPaymentDate",
          "type": "uint256"
        },
        {
          "internalType": "uint256",
          "name": "appraisedValue",
          "type": "uint256"
        },
        {
          "internalType": "bool",
          "name": "appreciationDistributed",
          "type": "bool"
        }
      ],
      "stateMutability": "view",
      "type": "function"
    },
    {
      "inputs": [
        {
          "internalType": "uint256",
          "name": "",
          "type": "uint256"
        }
      ],
      "name": "propertyToTokenId",
      "outputs": [
        {
          "internalType": "uint256",
          "name": "",
          "type": "uint256"
        }
      ],
      "stateMutability": "view",
      "type": "function"
    },
    {
      "inputs": [
        {
          "internalType": "uint256",
          "name": "propertyPrice",
          "type": "uint256"
        },
        {
          "internalType": "uint256",
          "name": "downPayment",
          "type": "uint256"
        }
      ],
      "name": "purchaseProperty",
      "outputs": [],
      "stateMutability": "nonpayable",
      "type": "function"
    },
    {
      "inputs": [],
      "name": "renounceOwnership",
      "outputs": [],
      "stateMutability": "nonpayable",
      "type": "function"
    },
    {
      "inputs": [
        {
          "internalType": "address",
          "name": "from",
          "type": "address"
        },
        {
          "internalType": "address",
          "name": "to",
          "type": "address"
        },
        {
          "internalType": "uint256",
          "name": "tokenId",
          "type": "uint256"
        }
      ],
      "name": "safeTransferFrom",
      "outputs": [],
      "stateMutability": "nonpayable",
      "type": "function"
    },
    {
      "inputs": [
        {
          "internalType": "address",
          "name": "from",
          "type": "address"
        },
        {
          "internalType": "address",
          "name": "to",
          "type": "address"
        },
        {
          "internalType": "uint256",
          "name": "tokenId",
          "type": "uint256"
        },
        {
          "internalType": "bytes",
          "name": "data",
          "type": "bytes"
        }
      ],
      "name": "safeTransferFrom",
      "outputs": [],
      "stateMutability": "nonpayable",
      "type": "function"
    },
    {
      "inputs": [
        {
          "internalType": "address",
          "name": "operator",
          "type": "address"
        },
        {
          "internalType": "bool",
          "name": "approved",
          "type": "bool"
        }
      ],
      "name": "setApprovalForAll",
      "outputs": [],
      "stateMutability": "nonpayable",
      "type": "function"
    },
    {
      "inputs": [
        {
          "internalType": "address",
          "name": "_stakingPool",
          "type": "address"
        }
      ],
      "name": "setStakingPool",
      "outputs": [],
      "stateMutability": "nonpayable",
      "type": "function"
    },
    {
      "inputs": [
        {
          "internalType": "address",
          "name": "_treasuryWallet",
          "type": "address"
        }
      ],
      "name": "setTreasuryWallet",
      "outputs": [],
      "stateMutability": "nonpayable",
      "type": "function"
    },
    {
      "inputs": [],
      "name": "stakingPool",
      "outputs": [
        {
          "internalType": "address",
          "name": "",
          "type": "address"
        }
      ],
      "stateMutability": "view",
      "type": "function"
    },
    {
      "inputs": [
        {
          "internalType": "bytes4",
          "name": "interfaceId",
          "type": "bytes4"
        }
      ],
      "name": "supportsInterface",
      "outputs": [
        {
          "internalType": "bool",
          "name": "",
          "type": "bool"
        }
      ],
      "stateMutability": "view",
      "type": "function"
    },
    {
      "inputs": [],
      "name": "symbol",
      "outputs": [
        {
          "internalType": "string",
          "name": "",
          "type": "string"
        }
      ],
      "stateMutability": "view",
      "type": "function"
    },
    {
      "inputs": [
        {
          "internalType": "uint256",
          "name": "tokenId",
          "type": "uint256"
        }
      ],
      "name": "tokenURI",
      "outputs": [
        {
          "internalType": "string",
          "name": "",
          "type": "string"
        }
      ],
      "stateMutability": "view",
      "type": "function"
    },
    {
      "inputs": [
        {
          "internalType": "address",
          "name": "from",
          "type": "address"
        },
        {
          "internalType": "address",
          "name": "to",
          "type": "address"
        },
        {
          "internalType": "uint256",
          "name": "tokenId",
          "type": "uint256"
        }
      ],
      "name": "transferFrom",
      "outputs": [],
      "stateMutability": "nonpayable",
      "type": "function"
    },
    {
      "inputs": [
        {
          "internalType": "address",
          "name": "newOwner",
          "type": "address"
        }
      ],
      "name": "transferOwnership",
      "outputs": [],
      "stateMutability": "nonpayable",
      "type": "function"
    },
    {
      "inputs": [],
      "name": "treasuryWallet",
      "outputs": [
        {
          "internalType": "address",
          "name": "",
          "type": "address"
        }
      ],
      "stateMutability": "view",
      "type": "function"
    },
    {
      "inputs": [
        {
          "internalType": "uint256",
          "name": "propertyId",
          "type": "uint256"
        },
        {
          "internalType": "uint256",
          "name": "appraisedValue",
          "type": "uint256"
        }
      ],
      "name": "triggerYear10Appraisal",
      "outputs": [],
      "stateMutability": "nonpayable",
      "type": "function"
    },
    {
      "inputs": [],
      "name": "usdtToken",
      "outputs": [
        {
          "internalType": "contract IERC20",
          "name": "",
          "type": "address"
        }
      ],
      "stateMutability": "view",
      "type": "function"
    },
    {
      "inputs": [
        {
          "internalType": "address",
          "name": "",
          "type": "address"
        },
        {
          "internalType": "uint256",
          "name": "",
          "type": "uint256"
        }
      ],
      "name": "userProperties",
      "outputs": [
        {
          "internalType": "uint256",
          "name": "",
          "type": "uint256"
        }
      ],
      "stateMutability": "view",
      "type": "function"
    }
  ],
  "bytecode": "0x608034620004d657601f1962002e8338819003601f818101841685019493926001600160401b03929085871084881117620004c0578160609287926040998a52833981010312620004d6576200005584620004fb565b9260209462000073876200006b888401620004fb565b9201620004fb565b936200007e620004db565b93601585527f416e6369656e742050726f70657274792044656564000000000000000000000088860152620000b2620004db565b600381526210541160ea1b89820152855194838611620004c0576000958654976001988981811c91168015620004b5575b8d821014620004a157908c82878594116200044b575b50508c90868311600114620003de578992620003d2575b5050600019600383901b1c191690881b1786555b8151938411620003be5786548781811c91168015620003b3575b8b8210146200039f57908184869594931162000348575b508a928411600114620002e757508592620002db575b5050600019600383901b1c191690841b1783555b6006549160018060a01b031995338785161760065588519460018060a01b039485937f8be0079c531659141344cd1fd0a4f28419497f9722a3daafe3b4186f6b6457e0853393169180a3600755169283156200029957508116928315620002555716938415620002125750826008541617600855816009541617600955600a541617600a55516129729081620005118239f35b60649086519062461bcd60e51b82526004820152601c60248201527f496e76616c6964207374616b696e6720706f6f6c2061646472657373000000006044820152fd5b865162461bcd60e51b815260048101879052601860248201527f496e76616c6964207472656173757279206164647265737300000000000000006044820152606490fd5b62461bcd60e51b815260048101879052601460248201527f496e76616c6964205553445420616464726573730000000000000000000000006044820152606490fd5b0151905038806200016b565b8787528a872088959093929116875b8c82821062000331575050841162000317575b505050811b0183556200017f565b015160001960f88460031b161c1916905538808062000309565b8385015186558a97909501949384019301620002f6565b90919293508787528a87208480870160051c8201928d881062000395575b9187968b92969594930160051c01915b8281106200038657505062000155565b8981558796508a910162000376565b9250819262000366565b634e487b7160e01b87526022600452602487fd5b90607f16906200013e565b634e487b7160e01b86526041600452602486fd5b01519050388062000110565b908d91858c95168b8052838c20938c905b8282106200042957505084116200040f575b505050811b01865562000124565b015160001960f88460031b161c1916905538808062000401565b91929395968291958786015181550195019301908f918d9695949392620003ef565b9091925089805286828b209181860160051c830193861062000497575b918c91869594930160051c01915b8281106200048857508e9150620000f9565b8b81558594508c910162000476565b9250819262000468565b634e487b7160e01b89526022600452602489fd5b90607f1690620000e3565b634e487b7160e01b600052604160045260246000fd5b600080fd5b60408051919082016001600160401b03811183821017620004c057604052565b51906001600160a01b0382168203620004d65756fe608080604052600436101561001357600080fd5b60003560e01c90816301ffc9a714611f6857508063060a3e6114611eb457806306fdde0314611df5578063081812fc14611dd7578063095ea7b314611c5d5780630c56ae3b14611c345780631d5003e614611c1b57806323b872dd14611bf25780632a440077146105995780633028f63a14611baf57806332665ffb1461199f57806342842e0e146119775780634626402b1461194e5780634f843494146112df5780635114cb5214610ebf578063560d52d414610ea35780635b72a33a14610e865780636352211e14610e56578063662f19a314610e3a57806370a0823114610da3578063715018a614610d465780638da5cb5b14610d1d57806395d89b4114610c125780639a9ae8e314610bec578063a19ed862146107e1578063a22cb46514610706578063a8602fea146106c3578063a98ad46c1461069a578063b88d4fde1461060f578063c87b56dd1461059e578063d0e6e3a514610599578063d998861f1461056d578063db2e21bc14610419578063e2271c9f146103c1578063e985e9c51461036b578063f2fde38b146102a75763f7b10808146101b657600080fd5b346102a25760203660031901126102a257600435600052600c602052604060002080549060018101549060028101546003820154600483015460058401546006850154600786015490600887015492600988015494600a89015496600b8a015498600c8b01549a600d015460ff169b604051809e81526020015260408d015260608c015260808b015260a08a015260c089015260e0880152600160a01b6001900381166101008801528060a01c60ff16151561012088015260a81c60ff1615156101408701526101608601526101808501526101a08401526101c083015215156101e082015261020090f35b600080fd5b346102a25760203660031901126102a2576102c0611fd3565b6102c861214b565b6001600160a01b0390811690811561031757600654826001600160601b0360a01b821617600655167f8be0079c531659141344cd1fd0a4f28419497f9722a3daafe3b4186f6b6457e0600080a3005b60405162461bcd60e51b815260206004820152602660248201527f4f776e61626c653a206e6577206f776e657220697320746865207a65726f206160448201526564647265737360d01b6064820152608490fd5b346102a25760403660031901126102a257610384611fd3565b61038c611fe9565b9060018060a01b03809116600052600560205260406000209116600052602052602060ff604060002054166040519015158152f35b346102a25760403660031901126102a2576103da611fd3565b6001600160a01b03166000908152600d60205260409020805460243591908210156102a25760209161040b9161211d565b90546040519160031b1c8152f35b346102a25760003660031901126102a25761043261214b565b6008546040516370a0823160e01b81523060048201526020916001600160a01b03908116918381602481865afa90811561053457600091610540575b508061047657005b60065460405163a9059cbb60e01b815292166001600160a01b0316600483015260248201529082908290816000816044810103925af190811561053457600091610507575b50156104c357005b6064906040519062461bcd60e51b82526004820152601b60248201527f456d657267656e6379207769746864726177616c206661696c656400000000006044820152fd5b6105279150823d841161052d575b61051f81836120df565b81019061270a565b826104bb565b503d610515565b6040513d6000823e3d90fd5b90508381813d8311610566575b61055781836120df565b810103126102a257518461046e565b503d61054d565b346102a25760203660031901126102a257600435600052600e6020526020604060002054604051908152f35b61208a565b346102a25760203660031901126102a2576004356000908152600260205260409020546105d5906001600160a01b031615156121a3565b60006040516105e3816120c3565b5261060b6040516105f3816120c3565b60008152604051918291602083526020830190611fff565b0390f35b346102a25760803660031901126102a257610628611fd3565b610630611fe9565b6064359167ffffffffffffffff83116102a257366023840112156102a25782600401359161065d83612101565b9261066b60405194856120df565b80845236602482870101116102a257602081600092602461069898018388013785010152604435916122b5565b005b346102a25760003660031901126102a2576008546040516001600160a01b039091168152602090f35b346102a25760203660031901126102a2576106dc611fd3565b6106e461214b565b600980546001600160a01b0319166001600160a01b0392909216919091179055005b346102a25760403660031901126102a25761071f611fd3565b60243590811515908183036102a2576001600160a01b03169133831461079c5761076e9033600052600560205260406000208460005260205260406000209060ff801983541691151516179055565b6040519081527f17307eab39ab6107e8899845ad3d59bd9653f200f220920489ca2b5937696c3160203392a3005b60405162461bcd60e51b815260206004820152601960248201527f4552433732313a20617070726f766520746f2063616c6c6572000000000000006044820152606490fd5b346102a2576107ef3661203f565b6107f761214b565b816000526020600c81526040600020906078600a83015410610ba857600d820180549060ff8216610b655760018401549182861115610b0b57600c850186905560ff1916600117905561084a90846127c4565b6032810291811592828104603214841715610af55760648091049260288102818104602814861715610af55782900494600a8202918204600a141715610af55781900494828480610a3e575b50505083610991575b846108e4575b5091608093917febf44bac3e8569be444ed3c262f3a0a0a64a03f079f7d88055127ff0ad843007959360405194855284015260408301526060820152a2005b600854600a5460405163a9059cbb60e01b81526001600160a01b0391821660048201526024810188905291849183916044918391600091165af190811561053457600091610974575b506108a557906040519062461bcd60e51b82526004820152601c60248201527f4c656e646572207368617265207472616e73666572206661696c6564000000006044820152fd5b61098b9150833d851161052d5761051f81836120df565b8861092d565b60085460095460405163a9059cbb60e01b81526001600160a01b0391821660048201526024810187905291849183916044918391600091165af190811561053457600091610a21575b5061089f57906040519062461bcd60e51b82526004820152601d60248201527f416e6369656e74207368617265207472616e73666572206661696c65640000006044820152fd5b610a389150833d851161052d5761051f81836120df565b886109da565b6008805493015460405163a9059cbb60e01b81526001600160a01b0391821660048201526024810192909252909283916044918391600091165af190811561053457600091610ad8575b5015610a9657878284610896565b906040519062461bcd60e51b82526004820152601b60248201527f4275796572207368617265207472616e73666572206661696c656400000000006044820152fd5b610aef9150833d851161052d5761051f81836120df565b88610a88565b634e487b7160e01b600052601160045260246000fd5b60405162461bcd60e51b815260048101859052602c60248201527f41707072616973616c206d75737420626520686967686572207468616e20707560448201526b72636861736520707269636560a01b6064820152608490fd5b6064836040519062461bcd60e51b825280600483015260248201527f417070726563696174696f6e20616c72656164792064697374726962757465646044820152fd5b6064906040519062461bcd60e51b82526004820152601760248201527f50726f7065727479206e6f742066756c6c7920706169640000000000000000006044820152fd5b346102a25760203660031901126102a2576020610c0a6004356127d1565b604051908152f35b346102a25760003660031901126102a257604051600060019081549182811c91818416918215610d13575b6020948585108414610cfd578587948686529182600014610cdd575050600114610c83575b50610c6f925003836120df565b61060b604051928284938452830190611fff565b6000818152859250907fb10e2d527612073b26eecdfd717e6a320cf44b4afac2b0732d9fcbe2b7fa0cf65b858310610cc5575050610c6f935082010185610c62565b80548389018501528794508693909201918101610cae565b60ff191685820152610c6f95151560051b8501019250879150610c629050565b634e487b7160e01b600052602260045260246000fd5b92607f1692610c3d565b346102a25760003660031901126102a2576006546040516001600160a01b039091168152602090f35b346102a25760003660031901126102a257610d5f61214b565b600680546001600160a01b031981169091556000906001600160a01b03167f8be0079c531659141344cd1fd0a4f28419497f9722a3daafe3b4186f6b6457e08280a3005b346102a25760203660031901126102a2576001600160a01b03610dc4611fd3565b168015610de35760005260036020526020604060002054604051908152f35b60405162461bcd60e51b815260206004820152602960248201527f4552433732313a2061646472657373207a65726f206973206e6f7420612076616044820152683634b21037bbb732b960b91b6064820152608490fd5b346102a25760003660031901126102a257602060405160148152f35b346102a25760203660031901126102a2576020610e746004356121ef565b6040516001600160a01b039091168152f35b346102a25760003660031901126102a25760206040516103208152f35b346102a25760003660031901126102a257602060405160038152f35b346102a2576020806003193601126102a25760043590610edd612722565b6000828152600c8252604090206008810180549092916001600160a01b039133838216036112a55760ff8160a01c161561126a5760a81c60ff166112255760048101549180600854166040516370a0823160e01b81523360048201528581602481855afa80156105345785906000906111f4575b610f5d92501015612672565b604051636eb1769f60e11b81523360048201523060248201528581604481855afa80156105345785906000906111c3575b610f9a925010156126be565b6040516323b872dd60e01b815233600482015230602482015260448101859052908590829060649082906000905af1908115610534576000916111a6575b50156111615760098201610fed848254612665565b9055600a820191825460018101809111610af55760036110179282865542600b82015501546128c8565b90816110a6575b50509060789291548092604051928352820152847fcd2e05a77ebe9c49aa198c9de25149b30c930e0d50175de927fe12b1abe69e4a60403393a31015611066575b6001600755005b805461ffff60a01b1916600160a81b17905533907f9330286ab0e3ab4c145c99ebe66d18ed4b17d876fa3973fe8fa71f6048e21d45600080a3808061105f565b600854600a5460405163a9059cbb60e01b81529083166001600160a01b0316600482015260248101939093528591839116816000816044810103925af190811561053457600091611144575b50156110ff57858061101e565b60405162461bcd60e51b815260048101849052601860248201527f496e746572657374207472616e73666572206661696c656400000000000000006044820152606490fd5b61115b9150843d861161052d5761051f81836120df565b866110f2565b60405162461bcd60e51b815260048101859052601760248201527f5061796d656e74207472616e73666572206661696c65640000000000000000006044820152606490fd5b6111bd9150853d871161052d5761051f81836120df565b87610fd8565b50508581813d83116111ed575b6111da81836120df565b810103126102a25784610f9a9151610f8e565b503d6111d0565b50508581813d831161121e575b61120b81836120df565b810103126102a25784610f5d9151610f51565b503d611201565b60405162461bcd60e51b815260048101849052601960248201527f50726f706572747920616c72656164792070616964206f6666000000000000006044820152606490fd5b60405162461bcd60e51b815260048101859052601360248201527250726f7065727479206e6f742061637469766560681b6044820152606490fd5b60405162461bcd60e51b81526004810185905260126024820152712737ba10383937b832b93a3c9037bbb732b960711b6044820152606490fd5b346102a2576112ed3661203f565b906112f6612722565b80156119105760148102818104601403610af5576064900482036118cb576003810291818304600303610af5576113306064840482612665565b6008546040516370a0823160e01b81523360048201526001600160a01b039091169190602081602481865afa8015610534578290600090611895575b61137892501015612672565b604051636eb1769f60e11b815233600482015230602482015290602082604481865afa801561053457600090611861575b6113b5925010156126be565b6040516323b872dd60e01b8082523360048301523060248301526044820184905291602090829060649082906000905af190811561053457600091611842575b50156117fd576008546009546040519283523360048401526001600160a01b0390811660248401526064808704604485015260209284928391600091165af1908115610534576000916117de575b50156117995761145381836127c4565b926115d2611460856127d1565b946001600b54019586600b5560405191611479836120a6565b8783528660208401528560408401526060830152608082015261032060a0820152607860c08201524260e08201523361010082015260016101208201526000610140820152836101608201526000610180820152426101a082015260006101c082015260006101e082015285600052600c602052600d6101e0604060002092805184556020810151600185015560408101516002850155606081015160038501556080810151600485015560a0810151600585015560c0810151600685015560e081015160078501556008840160018060a01b036101008301511681549060ff60a01b610120850151151560a01b169060ff60a81b610140860151151560a81b169269ffffffffffffffffffff60b01b1617171790556101608101516009850155610180810151600a8501556101a0810151600b8501556101c0810151600c8501550151151591019060ff801983541691151516179055565b3315611755576000848152600260205260409020546115fd906001600160a01b031615155b15612778565b600084815260026020526040902054611620906001600160a01b031615156115f7565b3360005260036020526040600020600181540190558360005260026020526040600020336001600160601b0360a01b825416179055833360007fddf252ad1be2c89b69c2b068fc378daa952ba7f163c4a11628f55a4df523b3ef8180a4600e6020528360406000205533600052600d6020526040600020928354926801000000000000000084101561173f576116df847fa8341f104131cae3e9965326a01662a1e0dc3dc60c8d099fefa4578ef8f6f9ae96600160209701815561211d565b81549060031b9088821b91600019901b191617905560405191825283820152606482046040820152847f1c938ec270429ef6502edbf95485bec97a3b2afb7111f3fd3d56616c4e56e2bf60603393a3606460405191048152a26001600755005b634e487b7160e01b600052604160045260246000fd5b606460405162461bcd60e51b815260206004820152602060248201527f4552433732313a206d696e7420746f20746865207a65726f20616464726573736044820152fd5b60405162461bcd60e51b815260206004820152601c60248201527f506c6174666f726d20666565207472616e73666572206661696c6564000000006044820152606490fd5b6117f7915060203d60201161052d5761051f81836120df565b84611443565b60405162461bcd60e51b815260206004820152601c60248201527f446f776e207061796d656e74207472616e73666572206661696c6564000000006044820152606490fd5b61185b915060203d60201161052d5761051f81836120df565b856113f5565b506020823d60201161188d575b8161187b602093836120df565b810103126102a2576113b591516113a9565b3d915061186e565b50506020813d6020116118c3575b816118b0602093836120df565b810103126102a25781611378915161136c565b3d91506118a3565b60405162461bcd60e51b815260206004820152601860248201527f446f776e207061796d656e74206d7573742062652032302500000000000000006044820152606490fd5b60405162461bcd60e51b8152602060048201526016602482015275496e76616c69642070726f706572747920707269636560501b6044820152606490fd5b346102a25760003660031901126102a2576009546040516001600160a01b039091168152602090f35b346102a25761069861198836612055565b9060405192611996846120c3565b600084526122b5565b346102a25760203660031901126102a25760006101e06040516119c1816120a6565b8281528260208201528260408201528260608201528260808201528260a08201528260c08201528260e08201528261010082015282610120820152826101408201528261016082015282610180820152826101a0820152826101c08201520152600435600052600c60205261020060406000206101e0604051611a43816120a6565b60ff600d84549485845260018101546020850152600281015460408501526003810154606085015260048101546080850152600581015460a0850152600681015460c0850152600781015460e085015282600882015460018060a01b038116610100870152818160a01c16151561012087015260a81c1615156101408501526009810154610160850152600a810154610180850152600b8101546101a0850152600c8101546101c08501520154161515828201526040519283526020810151602084015260408101516040840152606081015160608401526080810151608084015260a081015160a084015260c081015160c084015260e081015160e084015260018060a01b0361010082015116610100840152610120810151151561012084015261014081015115156101408401526101608101516101608401526101808101516101808401526101a08101516101a08401526101c08101516101c0840152015115156101e0820152f35b346102a25760203660031901126102a257611bc8611fd3565b611bd061214b565b600a80546001600160a01b0319166001600160a01b0392909216919091179055005b346102a257610698611c0336612055565b91611c16611c118433612350565b612253565b612418565b346102a2576020610c0a611c2e3661203f565b906128c8565b346102a25760003660031901126102a257600a546040516001600160a01b039091168152602090f35b346102a25760403660031901126102a257611c76611fd3565b602435906001600160a01b038080611c8d856121ef565b16921691808314611d8857803314908115611d63575b5015611cf857600083815260046020526040902080546001600160a01b03191683179055611cd0836121ef565b167f8c5be1e5ebec7d5bd14f71427d1e84f3dd0314c0f7b2291e5b200ac8c7c3b925600080a4005b60405162461bcd60e51b815260206004820152603d60248201527f4552433732313a20617070726f76652063616c6c6572206973206e6f7420746f60448201527f6b656e206f776e6572206f7220617070726f76656420666f7220616c6c0000006064820152608490fd5b9050600052600560205260406000203360005260205260ff6040600020541684611ca3565b60405162461bcd60e51b815260206004820152602160248201527f4552433732313a20617070726f76616c20746f2063757272656e74206f776e656044820152603960f91b6064820152608490fd5b346102a25760203660031901126102a2576020610e74600435612215565b346102a25760003660031901126102a2576040516000805490600182811c91818416918215611eaa575b6020948585108414610cfd578587948686529182600014610cdd575050600114611e505750610c6f925003836120df565b6000808052859250907f290decd9548b62a8d60345a988386fc84ba6bc95484008f6362f93160ef3e5635b858310611e92575050610c6f935082010185610c62565b80548389018501528794508693909201918101611e7b565b92607f1692611e1f565b346102a2576020806003193601126102a2576001600160a01b03611ed6611fd3565b16600052600d8152604060002060405190818382549182815201908192600052846000209060005b86828210611f54578686611f14828803836120df565b604051928392818401908285525180915260408401929160005b828110611f3d57505050500390f35b835185528695509381019392810192600101611f2e565b835485529093019260019283019201611efe565b346102a25760203660031901126102a2576004359063ffffffff60e01b82168092036102a2576020916380ac58cd60e01b8114908115611fc2575b8115611fb1575b5015158152f35b6301ffc9a760e01b14905083611faa565b635b5e139f60e01b81149150611fa3565b600435906001600160a01b03821682036102a257565b602435906001600160a01b03821682036102a257565b919082519283825260005b84811061202b575050826000602080949584010152601f8019910116010190565b60208183018101518483018201520161200a565b60409060031901126102a2576004359060243590565b60609060031901126102a2576001600160a01b039060043582811681036102a2579160243590811681036102a2579060443590565b346102a25760003660031901126102a257602060405160788152f35b610200810190811067ffffffffffffffff82111761173f57604052565b6020810190811067ffffffffffffffff82111761173f57604052565b90601f8019910116810190811067ffffffffffffffff82111761173f57604052565b67ffffffffffffffff811161173f57601f01601f191660200190565b80548210156121355760005260206000200190600090565b634e487b7160e01b600052603260045260246000fd5b6006546001600160a01b0316330361215f57565b606460405162461bcd60e51b815260206004820152602060248201527f4f776e61626c653a2063616c6c6572206973206e6f7420746865206f776e65726044820152fd5b156121aa57565b60405162461bcd60e51b815260206004820152601860248201527f4552433732313a20696e76616c696420746f6b656e20494400000000000000006044820152606490fd5b6000908152600260205260409020546001600160a01b03166122128115156121a3565b90565b600081815260026020526040902054612238906001600160a01b031615156121a3565b6000908152600460205260409020546001600160a01b031690565b1561225a57565b60405162461bcd60e51b815260206004820152602d60248201527f4552433732313a2063616c6c6572206973206e6f7420746f6b656e206f776e6560448201526c1c881bdc88185c1c1c9bdd9959609a1b6064820152608490fd5b906122d99392916122c9611c118433612350565b6122d4838383612418565b612529565b156122e057565b60405162461bcd60e51b8152806122f9600482016122fd565b0390fd5b60809060208152603260208201527f4552433732313a207472616e7366657220746f206e6f6e20455243373231526560408201527131b2b4bb32b91034b6b83632b6b2b73a32b960711b60608201520190565b906001600160a01b038080612364846121ef565b16931691838314938415612397575b508315612381575b50505090565b61238d91929350612215565b161438808061237b565b909350600052600560205260406000208260005260205260ff604060002054169238612373565b156123c557565b60405162461bcd60e51b815260206004820152602560248201527f4552433732313a207472616e736665722066726f6d20696e636f72726563742060448201526437bbb732b960d91b6064820152608490fd5b9061244091612426846121ef565b6001600160a01b03939184169284929091831684146123be565b169182156124d8578161245d91612456866121ef565b16146123be565b7fddf252ad1be2c89b69c2b068fc378daa952ba7f163c4a11628f55a4df523b3ef60008481526004602052604081206001600160601b0360a01b9081815416905583825260036020526040822060001981540190558482526040822060018154019055858252600260205284604083209182541617905580a4565b60405162461bcd60e51b8152602060048201526024808201527f4552433732313a207472616e7366657220746f20746865207a65726f206164646044820152637265737360e01b6064820152608490fd5b9293600093909291803b15612643579484916125839660405180948193630a85bd0160e11b9788845233600485015260018060a01b0380921660248501526044840152608060648401528260209b8c976084830190611fff565b0393165af18491816125ff575b506125ee575050503d6000146125e6573d6125aa81612101565b906125b860405192836120df565b81528091833d92013e5b805191826125e35760405162461bcd60e51b8152806122f9600482016122fd565b01fd5b5060606125c2565b6001600160e01b0319161492509050565b9091508581813d831161263c575b61261781836120df565b8101031261263857516001600160e01b031981168103612638579038612590565b8480fd5b503d61260d565b505050915050600190565b9061068391828102928184041490151715610af557565b91908201809211610af557565b1561267957565b60405162461bcd60e51b815260206004820152601960248201527f496e73756666696369656e7420555344542062616c616e6365000000000000006044820152606490fd5b156126c557565b60405162461bcd60e51b815260206004820152601b60248201527f496e73756666696369656e74205553445420616c6c6f77616e636500000000006044820152606490fd5b908160209103126102a2575180151581036102a25790565b600260075414612733576002600755565b60405162461bcd60e51b815260206004820152601f60248201527f5265656e7472616e637947756172643a207265656e7472616e742063616c6c006044820152606490fd5b1561277f57565b60405162461bcd60e51b815260206004820152601c60248201527f4552433732313a20746f6b656e20616c7265616479206d696e746564000000006044820152606490fd5b91908203918211610af557565b9061029b80830290838204811484151715610af5576103e89392939260005b607881106128995750830202918183041490151715610af5576103e860005b6078811061287d57506103e86000915b607883106128525761283192506127c4565b90811561283c570490565b634e487b7160e01b600052601260045260246000fd5b906103e88102908082046103e81490151715610af5576103e86128769104926128b9565b919061281f565b906103e861288d6128949261264e565b04916128b9565b61280f565b94936103e86128aa6128b19261264e565b04956128b9565b9493946127f0565b6000198114610af55760010190565b80916000915b8183106128f55750505061029b90818102918183041490151715610af557620186a0900490565b90919261029b808202908282041482151715610af55761293591612929620186a061292f9304612924866127d1565b6127c4565b906127c4565b936128b9565b91906128ce56fea26469706673582212207a9c203513515361c4ce01d47435d43146b941ed704465918dd9577720eec40064736f6c63430008130033",
  "linkReferences": {},
  "deployedLinkReferences": {}
}