{
  "_format": "hh-sol-artifact-1",
  "contractName": "MortgageProtocol",
  "sourceName": "contracts/MortgageProtocol.sol",
  "abi": [
    {
      "inputs": [],
      "stateMutability": "nonpayable",
      "type": "constructor"
    },
    {
      "anonymous": false,
      "inputs": [
        {
          "indexed": true,
          "internalType": "address",
          "name": "owner",
          "type": "address"
        },
        {
          "indexed": true,
          "internalType": "address",
          "name": "spender",
          "type": "address"
        },
        {
          "indexed": false,
          "internalType": "uint256",
          "name": "value",
          "type": "uint256"
        }
      ],
      "name": "Approval",
      "type": "event"
    },
    {
      "anonymous": false,
      "inputs": [
        {
          "indexed": true,
          "internalType": "address",
          "name": "user",
          "type": "address"
        },
        {
          "indexed": false,
          "internalType": "uint256",
          "name": "amount",
          "type": "uint256"
        }
      ],
      "name": "MonthlyYieldDistributed",
      "type": "event"
    },
    {
      "anonymous": false,
      "inputs": [
        {
          "indexed": true,
          "internalType": "address",
          "name": "owner",
          "type": "address"
        },
        {
          "indexed": true,
          "internalType": "uint256",
          "name": "propertyId",
          "type": "uint256"
        },
        {
          "indexed": false,
          "internalType": "uint256",
          "name": "amount",
          "type": "uint256"
        }
      ],
      "name": "MortgageTokensMinted",
      "type": "event"
    },
    {
      "anonymous": false,
      "inputs": [
        {
          "indexed": true,
          "internalType": "address",
          "name": "previousOwner",
          "type": "address"
        },
        {
          "indexed": true,
          "internalType": "address",
          "name": "newOwner",
          "type": "address"
        }
      ],
      "name": "OwnershipTransferred",
      "type": "event"
    },
    {
      "anonymous": false,
      "inputs": [
        {
          "indexed": true,
          "internalType": "uint256",
          "name": "propertyId",
          "type": "uint256"
        },
        {
          "indexed": false,
          "internalType": "uint256",
          "name": "totalValue",
          "type": "uint256"
        },
        {
          "indexed": false,
          "internalType": "uint256",
          "name": "downPayment",
          "type": "uint256"
        }
      ],
      "name": "PropertyCreated",
      "type": "event"
    },
    {
      "anonymous": false,
      "inputs": [
        {
          "indexed": true,
          "internalType": "address",
          "name": "from",
          "type": "address"
        },
        {
          "indexed": true,
          "internalType": "address",
          "name": "to",
          "type": "address"
        },
        {
          "indexed": false,
          "internalType": "uint256",
          "name": "value",
          "type": "uint256"
        }
      ],
      "name": "Transfer",
      "type": "event"
    },
    {
      "anonymous": false,
      "inputs": [
        {
          "indexed": true,
          "internalType": "address",
          "name": "member",
          "type": "address"
        },
        {
          "indexed": true,
          "internalType": "uint256",
          "name": "villageId",
          "type": "uint256"
        },
        {
          "indexed": false,
          "internalType": "uint256",
          "name": "membershipFee",
          "type": "uint256"
        }
      ],
      "name": "VillageJoined",
      "type": "event"
    },
    {
      "inputs": [
        {
          "internalType": "address",
          "name": "owner",
          "type": "address"
        },
        {
          "internalType": "address",
          "name": "spender",
          "type": "address"
        }
      ],
      "name": "allowance",
      "outputs": [
        {
          "internalType": "uint256",
          "name": "",
          "type": "uint256"
        }
      ],
      "stateMutability": "view",
      "type": "function"
    },
    {
      "inputs": [
        {
          "internalType": "address",
          "name": "spender",
          "type": "address"
        },
        {
          "internalType": "uint256",
          "name": "amount",
          "type": "uint256"
        }
      ],
      "name": "approve",
      "outputs": [
        {
          "internalType": "bool",
          "name": "",
          "type": "bool"
        }
      ],
      "stateMutability": "nonpayable",
      "type": "function"
    },
    {
      "inputs": [
        {
          "internalType": "address",
          "name": "account",
          "type": "address"
        }
      ],
      "name": "balanceOf",
      "outputs": [
        {
          "internalType": "uint256",
          "name": "",
          "type": "uint256"
        }
      ],
      "stateMutability": "view",
      "type": "function"
    },
    {
      "inputs": [
        {
          "internalType": "uint256",
          "name": "propertyId",
          "type": "uint256"
        },
        {
          "internalType": "uint256",
          "name": "tokenAmount",
          "type": "uint256"
        }
      ],
      "name": "calculateMonthlyYield",
      "outputs": [
        {
          "internalType": "uint256",
          "name": "",
          "type": "uint256"
        }
      ],
      "stateMutability": "view",
      "type": "function"
    },
    {
      "inputs": [
        {
          "internalType": "uint256",
          "name": "villageId",
          "type": "uint256"
        },
        {
          "internalType": "uint256",
          "name": "membershipFee",
          "type": "uint256"
        }
      ],
      "name": "calculateVillageYield",
      "outputs": [
        {
          "internalType": "uint256",
          "name": "",
          "type": "uint256"
        }
      ],
      "stateMutability": "view",
      "type": "function"
    },
    {
      "inputs": [
        {
          "internalType": "uint256",
          "name": "propertyId",
          "type": "uint256"
        },
        {
          "internalType": "uint256",
          "name": "totalValue",
          "type": "uint256"
        },
        {
          "internalType": "uint256",
          "name": "downPayment",
          "type": "uint256"
        },
        {
          "internalType": "uint256",
          "name": "monthlyPayment",
          "type": "uint256"
        }
      ],
      "name": "createProperty",
      "outputs": [],
      "stateMutability": "nonpayable",
      "type": "function"
    },
    {
      "inputs": [],
      "name": "decimals",
      "outputs": [
        {
          "internalType": "uint8",
          "name": "",
          "type": "uint8"
        }
      ],
      "stateMutability": "view",
      "type": "function"
    },
    {
      "inputs": [
        {
          "internalType": "address",
          "name": "spender",
          "type": "address"
        },
        {
          "internalType": "uint256",
          "name": "subtractedValue",
          "type": "uint256"
        }
      ],
      "name": "decreaseAllowance",
      "outputs": [
        {
          "internalType": "bool",
          "name": "",
          "type": "bool"
        }
      ],
      "stateMutability": "nonpayable",
      "type": "function"
    },
    {
      "inputs": [
        {
          "internalType": "address",
          "name": "owner",
          "type": "address"
        },
        {
          "internalType": "uint256",
          "name": "propertyId",
          "type": "uint256"
        }
      ],
      "name": "getMortgageTokens",
      "outputs": [
        {
          "internalType": "uint256",
          "name": "",
          "type": "uint256"
        }
      ],
      "stateMutability": "view",
      "type": "function"
    },
    {
      "inputs": [
        {
          "internalType": "uint256",
          "name": "propertyId",
          "type": "uint256"
        }
      ],
      "name": "getProperty",
      "outputs": [
        {
          "internalType": "uint256",
          "name": "totalValue",
          "type": "uint256"
        },
        {
          "internalType": "uint256",
          "name": "downPayment",
          "type": "uint256"
        },
        {
          "internalType": "uint256",
          "name": "monthlyPayment",
          "type": "uint256"
        },
        {
          "internalType": "bool",
          "name": "isActive",
          "type": "bool"
        }
      ],
      "stateMutability": "view",
      "type": "function"
    },
    {
      "inputs": [
        {
          "internalType": "uint256",
          "name": "propertyId",
          "type": "uint256"
        }
      ],
      "name": "getPropertyDetails",
      "outputs": [
        {
          "internalType": "uint256",
          "name": "totalValue",
          "type": "uint256"
        },
        {
          "internalType": "uint256",
          "name": "downPayment",
          "type": "uint256"
        },
        {
          "internalType": "uint256",
          "name": "monthlyPayment",
          "type": "uint256"
        },
        {
          "internalType": "uint256",
          "name": "monthlyRent",
          "type": "uint256"
        },
        {
          "internalType": "uint256",
          "name": "totalTokensMinted",
          "type": "uint256"
        },
        {
          "internalType": "bool",
          "name": "isActive",
          "type": "bool"
        }
      ],
      "stateMutability": "view",
      "type": "function"
    },
    {
      "inputs": [
        {
          "internalType": "address",
          "name": "user",
          "type": "address"
        }
      ],
      "name": "getUserTotalInvestments",
      "outputs": [
        {
          "internalType": "uint256",
          "name": "",
          "type": "uint256"
        }
      ],
      "stateMutability": "view",
      "type": "function"
    },
    {
      "inputs": [
        {
          "internalType": "address",
          "name": "user",
          "type": "address"
        },
        {
          "internalType": "uint256",
          "name": "villageId",
          "type": "uint256"
        }
      ],
      "name": "getVillageMembership",
      "outputs": [
        {
          "internalType": "bool",
          "name": "",
          "type": "bool"
        }
      ],
      "stateMutability": "view",
      "type": "function"
    },
    {
      "inputs": [
        {
          "internalType": "address",
          "name": "spender",
          "type": "address"
        },
        {
          "internalType": "uint256",
          "name": "addedValue",
          "type": "uint256"
        }
      ],
      "name": "increaseAllowance",
      "outputs": [
        {
          "internalType": "bool",
          "name": "",
          "type": "bool"
        }
      ],
      "stateMutability": "nonpayable",
      "type": "function"
    },
    {
      "inputs": [
        {
          "internalType": "uint256",
          "name": "villageId",
          "type": "uint256"
        },
        {
          "internalType": "uint256",
          "name": "membershipFee",
          "type": "uint256"
        }
      ],
      "name": "joinVillage",
      "outputs": [],
      "stateMutability": "payable",
      "type": "function"
    },
    {
      "inputs": [
        {
          "internalType": "uint256",
          "name": "propertyId",
          "type": "uint256"
        },
        {
          "internalType": "uint256",
          "name": "amount",
          "type": "uint256"
        }
      ],
      "name": "mintMortgageTokens",
      "outputs": [],
      "stateMutability": "payable",
      "type": "function"
    },
    {
      "inputs": [],
      "name": "name",
      "outputs": [
        {
          "internalType": "string",
          "name": "",
          "type": "string"
        }
      ],
      "stateMutability": "view",
      "type": "function"
    },
    {
      "inputs": [],
      "name": "owner",
      "outputs": [
        {
          "internalType": "address",
          "name": "",
          "type": "address"
        }
      ],
      "stateMutability": "view",
      "type": "function"
    },
    {
      "inputs": [
        {
          "internalType": "uint256",
          "name": "",
          "type": "uint256"
        }
      ],
      "name": "properties",
      "outputs": [
        {
          "internalType": "uint256",
          "name": "totalValue",
          "type": "uint256"
        },
        {
          "internalType": "uint256",
          "name": "downPayment",
          "type": "uint256"
        },
        {
          "internalType": "uint256",
          "name": "monthlyPayment",
          "type": "uint256"
        },
        {
          "internalType": "bool",
          "name": "isActive",
          "type": "bool"
        },
        {
          "internalType": "uint256",
          "name": "totalTokensMinted",
          "type": "uint256"
        },
        {
          "internalType": "uint256",
          "name": "monthlyRent",
          "type": "uint256"
        }
      ],
      "stateMutability": "view",
      "type": "function"
    },
    {
      "inputs": [],
      "name": "renounceOwnership",
      "outputs": [],
      "stateMutability": "nonpayable",
      "type": "function"
    },
    {
      "inputs": [],
      "name": "symbol",
      "outputs": [
        {
          "internalType": "string",
          "name": "",
          "type": "string"
        }
      ],
      "stateMutability": "view",
      "type": "function"
    },
    {
      "inputs": [],
      "name": "totalSupply",
      "outputs": [
        {
          "internalType": "uint256",
          "name": "",
          "type": "uint256"
        }
      ],
      "stateMutability": "view",
      "type": "function"
    },
    {
      "inputs": [
        {
          "internalType": "address",
          "name": "to",
          "type": "address"
        },
        {
          "internalType": "uint256",
          "name": "amount",
          "type": "uint256"
        }
      ],
      "name": "transfer",
      "outputs": [
        {
          "internalType": "bool",
          "name": "",
          "type": "bool"
        }
      ],
      "stateMutability": "nonpayable",
      "type": "function"
    },
    {
      "inputs": [
        {
          "internalType": "address",
          "name": "from",
          "type": "address"
        },
        {
          "internalType": "address",
          "name": "to",
          "type": "address"
        },
        {
          "internalType": "uint256",
          "name": "amount",
          "type": "uint256"
        }
      ],
      "name": "transferFrom",
      "outputs": [
        {
          "internalType": "bool",
          "name": "",
          "type": "bool"
        }
      ],
      "stateMutability": "nonpayable",
      "type": "function"
    },
    {
      "inputs": [
        {
          "internalType": "address",
          "name": "newOwner",
          "type": "address"
        }
      ],
      "name": "transferOwnership",
      "outputs": [],
      "stateMutability": "nonpayable",
      "type": "function"
    },
    {
      "inputs": [
        {
          "internalType": "address",
          "name": "",
          "type": "address"
        },
        {
          "internalType": "uint256",
          "name": "",
          "type": "uint256"
        }
      ],
      "name": "userPropertyTokens",
      "outputs": [
        {
          "internalType": "uint256",
          "name": "",
          "type": "uint256"
        }
      ],
      "stateMutability": "view",
      "type": "function"
    },
    {
      "inputs": [
        {
          "internalType": "address",
          "name": "",
          "type": "address"
        }
      ],
      "name": "userTotalInvestments",
      "outputs": [
        {
          "internalType": "uint256",
          "name": "",
          "type": "uint256"
        }
      ],
      "stateMutability": "view",
      "type": "function"
    },
    {
      "inputs": [
        {
          "internalType": "address",
          "name": "",
          "type": "address"
        },
        {
          "internalType": "uint256",
          "name": "",
          "type": "uint256"
        }
      ],
      "name": "villageMemberships",
      "outputs": [
        {
          "internalType": "bool",
          "name": "",
          "type": "bool"
        }
      ],
      "stateMutability": "view",
      "type": "function"
    },
    {
      "inputs": [
        {
          "internalType": "uint256",
          "name": "",
          "type": "uint256"
        }
      ],
      "name": "villages",
      "outputs": [
        {
          "internalType": "uint256",
          "name": "membershipFee",
          "type": "uint256"
        },
        {
          "internalType": "bool",
          "name": "isActive",
          "type": "bool"
        },
        {
          "internalType": "uint256",
          "name": "totalMembers",
          "type": "uint256"
        },
        {
          "internalType": "uint256",
          "name": "monthlyYield",
          "type": "uint256"
        }
      ],
      "stateMutability": "view",
      "type": "function"
    },
    {
      "inputs": [],
      "name": "withdraw",
      "outputs": [],
      "stateMutability": "nonpayable",
      "type": "function"
    }
  ],
  "bytecode": "0x604060808152346200047857620000156200047d565b601781526020907f4d6f7274676167652050726f746f636f6c20546f6b656e000000000000000000828201526200004b6200047d565b916003918284526213541560ea1b82850152805160018060401b039081811162000378578454906001938483811c931680156200046d575b8684101462000457578190601f9384811162000401575b5086908483116001146200039a576000926200038e575b505060001982881b1c191690841b1785555b855190828211620003785760049687548581811c911680156200036d575b8782101462000358579081838594931162000300575b508691831160011462000299576000926200028d575b505060001982871b1c191690831b1785555b60058054336001600160a01b0319821681179092556001600160a01b03167f8be0079c531659141344cd1fd0a4f28419497f9722a3daafe3b4186f6b6457e0600080a38160065585519060c082018281108282111762000278578752620249f082528382019160058861753094858152620001e78285016105b08152606086019089825260808701936000855260a088019561080287528b60005260078d5260002097518855518a8801555160028701555115158a86019060ff801983541691151516179055565b51838a0155519101558651956080870191821187831017620002635750865284526200024b828501918083528686019260008452600860608801956102528752836000525287600020965187555115159086019060ff801983541691151516179055565b516002840155519101555161156290816200049e8239f35b604190634e487b7160e01b6000525260246000fd5b604187634e487b7160e01b6000525260246000fd5b0151905038806200010d565b90859350601f1983169189600052876000209260005b89828210620002e95750508411620002d0575b505050811b0185556200011f565b015160001983891b60f8161c19169055388080620002c2565b8385015186558997909501949384019301620002af565b9091925088600052866000208380860160051c8201928987106200034e575b91869589929594930160051c01915b8281106200033e575050620000f7565b600081558695508891016200032e565b925081926200031f565b602289634e487b7160e01b6000525260246000fd5b90607f1690620000e1565b634e487b7160e01b600052604160045260246000fd5b015190503880620000b1565b90869350601f1983169189600052886000209260005b8a828210620003ea5750508411620003d1575b505050811b018555620000c3565b0151600019838a1b60f8161c19169055388080620003c3565b8385015186558a97909501949384019301620003b0565b90915087600052866000208480850160051c8201928986106200044d575b918891869594930160051c01915b8281106200043d5750506200009a565b600081558594508891016200042d565b925081926200041f565b634e487b7160e01b600052602260045260246000fd5b92607f169262000083565b600080fd5b60408051919082016001600160401b03811183821017620003785760405256fe608060408181526004918236101561001657600080fd5b600092833560e01c91826306fdde0314610f1957508163095ea7b314610eef578163126dbe4314610e6357816318160ddd14610e4457816323b872dd14610d7a578163313ce56714610d5e578163320e55d114610ca757816332665ffb14610c285781633950935114610bd85781633ccfd60b14610b8857816345e3bc141461031d578163511a3d8f14610a6757816370a0823114610a30578163715018a6146109d357816384ebf55b146102e55781638da5cb5b146109aa57816395d89b41146108a7578163a457c2d714610802578163a9059cbb146107d1578163b983c42114610730578163c0285cce14610709578163d2ad5d9a146105c0578163d49f5d13146103fc578163d4aea411146103ad578163dd62ed3e14610364578163dda51acb1461031d578163f1634c5a146102e5578163f2fde38b14610219578163f7b10808146101b2575063fe6011ba1461016f57600080fd5b346101ae57806003193601126101ae5760209181906001600160a01b03610194611057565b168152600984528181206024358252845220549051908152f35b5080fd5b91905034610215576020366003190112610215578060c09383358152600760205220805492600182015492600283015490600560ff60038601541693850154940154948151968752602087015285015215156060840152608083015260a0820152f35b8280fd5b90503461021557602036600319011261021557610234611057565b9061023d61109e565b6001600160a01b03918216928315610293575050600554826bffffffffffffffffffffffff60a01b821617600555167f8be0079c531659141344cd1fd0a4f28419497f9722a3daafe3b4186f6b6457e08380a380f35b906020608492519162461bcd60e51b8352820152602660248201527f4f776e61626c653a206e6577206f776e657220697320746865207a65726f206160448201526564647265737360d01b6064820152fd5b5050346101ae5760203660031901126101ae5760209181906001600160a01b0361030d611057565b168152600b845220549051908152f35b5050346101ae57806003193601126101ae5760209160ff9082906001600160a01b03610347611057565b168152600a85528181206024358252855220541690519015158152f35b5050346101ae57806003193601126101ae5780602092610382611057565b61038a611072565b6001600160a01b0391821683526001865283832091168252845220549051908152f35b9050346102155760203660031901126102155760809282913581526008602052209081549160ff6001820154169160036002830154920154928151948552151560208501528301526060820152f35b905061040736611088565b919092610412611495565b8385526020916007835281862061042f60ff600383015416611410565b841561057e57670de0b6b3a76400008502670de0b6b3a763ffff198682040161056b576103e86104629104341015611452565b331561052957907f367e7bd13410a98139ed3fb6290098a5c877577b7742b2a39d275366c4a405ce9392916104998660025461114a565b6002553388528784528288208681540190558251868152887fddf252ad1be2c89b69c2b068fc378daa952ba7f163c4a11628f55a4df523b3ef863393a33388526009845282882087895284528288206104f387825461114a565b90550161050185825461114a565b9055338652600b825280862061051885825461114a565b9055519283523392a3600160065580f35b5082606492519162461bcd60e51b8352820152601f60248201527f45524332303a206d696e7420746f20746865207a65726f2061646472657373006044820152fd5b634e487b7160e01b885260118352602488fd5b5082606492519162461bcd60e51b8352820152601d60248201527f416d6f756e74206d7573742062652067726561746572207468616e20300000006044820152fd5b8383346101ae5760803660031901126101ae578235906024356044356105e461109e565b838552600760205260ff60038487200154166106c657600c8202828104600c14831517156106b3579560057fe4f6e1a13cce371a1b79b6e9d0bf591044caa7acabfcc34c42023735a1a6849395969785519261063f846110f6565b858452888a602086018781528987019060643582528a60608901936001855260808a0195818752606460a08c0199048952815260076020522097518855516001880155516002870155600386019051151560ff8019835416911617905551908401555191015582519182526020820152a280f35b634e487b7160e01b865260118752602486fd5b825162461bcd60e51b8152602081880152601760248201527f50726f706572747920616c7265616479206578697374730000000000000000006044820152606490fd5b5050346101ae57806003193601126101ae5760209181906001600160a01b03610194611057565b8284346107ce5761074036611088565b9082526008602052828220835192608084019084821067ffffffffffffffff8311176107bb576020866107b4876107ac8888888652805484526107a6600360ff600184015416151592838a880152600281015489880152015491606086019283526114eb565b516113dd565b9051906113f0565b9051908152f35b634e487b7160e01b815260418752602490fd5b80fd5b5050346101ae57806003193601126101ae576020906107fb6107f1611057565b602435903361116d565b5160018152f35b905082346107ce57826003193601126107ce5761081d611057565b918360243592338152600160205281812060018060a01b0386168252602052205490828210610856576020856107fb85850387336112db565b608490602086519162461bcd60e51b8352820152602560248201527f45524332303a2064656372656173656420616c6c6f77616e63652062656c6f77604482015264207a65726f60d81b6064820152fd5b8383346101ae57816003193601126101ae57805191809380549160019083821c928285169485156109a0575b602095868610811461098d578589529081156109695750600114610911575b61090d8787610903828c0383611128565b519182918261100e565b0390f35b81529295507f8a35acfbc15ff81a39ae7d344fd709f28e8600b4aa8c65c6b64bfe7fe36bd19b5b828410610956575050508261090d94610903928201019486806108f2565b8054868501880152928601928101610938565b60ff19168887015250505050151560051b83010192506109038261090d86806108f2565b634e487b7160e01b845260228352602484fd5b93607f16936108d3565b5050346101ae57816003193601126101ae5760055490516001600160a01b039091168152602090f35b83346107ce57806003193601126107ce576109ec61109e565b600580546001600160a01b0319811690915581906001600160a01b03167f8be0079c531659141344cd1fd0a4f28419497f9722a3daafe3b4186f6b6457e08280a380f35b5050346101ae5760203660031901126101ae5760209181906001600160a01b03610a58611057565b16815280845220549051908152f35b8383610a7236611088565b9091610a7c611495565b82845260209060088252808520610a9960ff6001830154166114eb565b338652600a8352818620858752835260ff8287205416610b5257670de0b6b3a7640000808502908582041485151715610b3f5790610adf6103e860029304341015611452565b338752600a84528287208688528452828720805460ff191660011790550180546000198114610b3f5760010190555191825233917fea87aafba2f9181e63e803ce3d725194d50e17e9aa0bbb0abe7ef1e0be54e5339190a3600160065580f35b634e487b7160e01b875260118852602487fd5b815162461bcd60e51b8152808801849052601060248201526f20b63932b0b23c90309036b2b6b132b960811b6044820152606490fd5b5050346101ae57816003193601126101ae57610ba261109e565b8180808060018060a01b03600554164790828215610bcf575bf115610bc5575080f35b51903d90823e3d90fd5b506108fc610bbb565b5050346101ae57806003193601126101ae576107fb602092610c21610bfb611057565b338352600186528483206001600160a01b0382168452865291849020546024359061114a565b90336112db565b905034610215576020366003190112610215578160809382358152600760205220825192610c55846110f6565b81549384815260018301549081602082015260a06005600286015495868685015260ff6003820154161515978860608601528101548a8501520154910152815194855260208501528301526060820152f35b8284346107ce57610cb736611088565b9082526007602052828220908351610cce816110f6565b8254815260018301546020820152600283015485820152610d13600560ff60038601541615159485606085015288810154608085015201549360a08301948552611410565b6127109384830292808404861490151715610d4b5760208686610d4387610d3c888851906113f0565b90516113dd565b049051908152f35b634e487b7160e01b815260118752602490fd5b5050346101ae57816003193601126101ae576020905160128152f35b839150346101ae5760603660031901126101ae57610d96611057565b610d9e611072565b91846044359460018060a01b038416815260016020528181203382526020522054906000198203610dd8575b6020866107fb87878761116d565b848210610e015750918391610df6602096956107fb950333836112db565b919394819350610dca565b606490602087519162461bcd60e51b8352820152601d60248201527f45524332303a20696e73756666696369656e7420616c6c6f77616e63650000006044820152fd5b5050346101ae57816003193601126101ae576020906002549051908152f35b905034610215576020366003190112610215578160c0938235815260076020522060a08351610e91816110f6565b82549485825260018401548060208401526002850154928383820152600560ff6003880154161515978860608401528701549687608084015201549485910152815196875260208701528501526060840152608083015260a0820152f35b5050346101ae57806003193601126101ae576020906107fb610f0f611057565b60243590336112db565b9291503461100a578360031936011261100a57600354600181811c9186908281168015611000575b6020958686108214610fed5750848852908115610fcb5750600114610f72575b61090d8686610903828b0383611128565b929550600383527fc2575a0e9e593c00f959f8c92f12db2869c3395a3b0502d05e2516446f71f85b5b828410610fb8575050508261090d94610903928201019438610f61565b8054868501880152928601928101610f9b565b60ff191687860152505050151560051b83010192506109038261090d38610f61565b634e487b7160e01b845260229052602483fd5b93607f1693610f41565b8380fd5b6020808252825181830181905290939260005b82811061104357505060409293506000838284010152601f8019910116010190565b818101860151848201604001528501611021565b600435906001600160a01b038216820361106d57565b600080fd5b602435906001600160a01b038216820361106d57565b604090600319011261106d576004359060243590565b6005546001600160a01b031633036110b257565b606460405162461bcd60e51b815260206004820152602060248201527f4f776e61626c653a2063616c6c6572206973206e6f7420746865206f776e65726044820152fd5b60c0810190811067ffffffffffffffff82111761111257604052565b634e487b7160e01b600052604160045260246000fd5b90601f8019910116810190811067ffffffffffffffff82111761111257604052565b9190820180921161115757565b634e487b7160e01b600052601160045260246000fd5b6001600160a01b039081169182156112885716918215611237576000828152806020526040812054918083106111e357604082827fddf252ad1be2c89b69c2b068fc378daa952ba7f163c4a11628f55a4df523b3ef958760209652828652038282205586815220818154019055604051908152a3565b60405162461bcd60e51b815260206004820152602660248201527f45524332303a207472616e7366657220616d6f756e7420657863656564732062604482015265616c616e636560d01b6064820152608490fd5b60405162461bcd60e51b815260206004820152602360248201527f45524332303a207472616e7366657220746f20746865207a65726f206164647260448201526265737360e81b6064820152608490fd5b60405162461bcd60e51b815260206004820152602560248201527f45524332303a207472616e736665722066726f6d20746865207a65726f206164604482015264647265737360d81b6064820152608490fd5b6001600160a01b0390811691821561138c571691821561133c5760207f8c5be1e5ebec7d5bd14f71427d1e84f3dd0314c0f7b2291e5b200ac8c7c3b925918360005260018252604060002085600052825280604060002055604051908152a3565b60405162461bcd60e51b815260206004820152602260248201527f45524332303a20617070726f766520746f20746865207a65726f206164647265604482015261737360f01b6064820152608490fd5b60405162461bcd60e51b8152602060048201526024808201527f45524332303a20617070726f76652066726f6d20746865207a65726f206164646044820152637265737360e01b6064820152608490fd5b8181029291811591840414171561115757565b81156113fa570490565b634e487b7160e01b600052601260045260246000fd5b1561141757565b60405162461bcd60e51b815260206004820152601360248201527250726f7065727479206e6f742061637469766560681b6044820152606490fd5b1561145957565b60405162461bcd60e51b8152602060048201526014602482015273125b9cdd59999a58da595b9d081c185e5b595b9d60621b6044820152606490fd5b6002600654146114a6576002600655565b60405162461bcd60e51b815260206004820152601f60248201527f5265656e7472616e637947756172643a207265656e7472616e742063616c6c006044820152606490fd5b156114f257565b60405162461bcd60e51b815260206004820152601260248201527156696c6c616765206e6f742061637469766560701b6044820152606490fdfea26469706673582212207e760e47301b9a33ad62c2a94fa417114bc6153122ac8c9eea0f7f3dbe713b8f64736f6c63430008130033",
  "linkReferences": {},
  "deployedLinkReferences": {}
}